:100000000C9465060C949D060C949D060C94512F3F
:100010000C949D060C949D060C949D060C949D06D4
:100020000C949D060C949D060C9446180C94801C10
:100030000C9483270C949D060C949D060C949D06AD
:100040000C949D060C949D060C949D060C949D06A4
:100050000C949D060C942D190C949D060C949D06F1
:100060000C949D060C949D060C949D060C949D0684
:100070000C949D060C949D060C949D060C949D0674
:100080000C949D060C949D060C949D060C949D0664
:100090000C949D060C949D060C949D060C949D0654
:1000A0000C949D060C949D060C949D062020202007
:1000B0006162636465666768696A6B6C6D6E6F70B8
:1000C0007172737475767778797A31323334353664
:1000D00037383930524542545F2D3D5B5D5C233BE0
:1000E00027602C2E2F202020167C3300360037006E
:1000F00013001C002B44042112240828183D0C4234
:100100003822340014000D000E001B000000000017
:100110000000E0002C41E2002A000F00150006005C
:100120000A00090028001631113417380B3D074228
:1001300031321D0019001A001000050000000000F7
:100140000000AD3D2C42E3002302220224002200E5
:1001500020001E00210224022F002F02300226025E
:100160003A003B003C003D003E003F000000000024
:1001700000000000010000002500230021001F00F6
:10018000270026001E0230002E02270225022E0024
:1001900045004400430042004100400000000000D0
:1001A000000000002C43000049004B004A005200B0
:1001B0004D00A90039004E00500051004F00A8002A
:1001C0001F022002AC00AE00AB00AA00000000003D
:1001D000000000002C4300004C00D900D200CD00EC
:1001E000D10046002D00DA00D000CE00CF0048003C
:1001F000DF00DE00DC006500DB00DD000000000049
:100200000000000001000000007C00000000000071
:1002100000000000207823782578277829780000CE
:1002200021782478267828782A78000000000000B9
:1002300000000000000001000000000000000000BD
:1002400000000000000000000478007805780278C3
:10025000000000000178017806780000000000002E
:10026000000000000000010000000000000000008D
:10027000000000000000000000000000000000007E
:10028000000000000000000000000000000000006E
:10029000000000000000000000002D0026006000AB
:1002A0005F002E02000038002300220021002502FA
:1002B0000000360020001F001E0037000000000074
:1002C00000002E002700000000DA0281FFD9F1DBD8
:1002D00020A4A62EAF00A0C0D30000A1C8D3000068
:1002E000AED580A81F408D142000556E6465660051
:1002F00041646A757374005261697365004C6F776D
:1003000065720044656661756C74004C6179657254
:100310003A20003A002C206B00780000000000001A
:10032000FEFFFFFFFFFFFFFFFFFFFFFFFFFFFFFFDE
:10033000FFFFFFFFFFFFFFFFFFFFFFFFFFFFFFFFCD
:10034000FFFFFFFFFFFFFF0F0F0F0F0FFFFFFFFF6D
:10035000FFFFFFFFFFFFFFFFFFFFFFFFFE000000AB
:10036000000000000000000000000000000000008D
:10037000000000000000000000000000000000007D
:10038000000000000000000000000000000000006D
:10039000000000000000000000000000000000005D
:1003A000FFFFFFFF8383838383FFFF83838383FFB9
:1003B000FF8383838383FFFF83838383FFFF8383A1
:1003C000838383FFFFFFFF8282828282FFFF83831A
:1003D0008383FFFF8383838383FFFFFFFF0000008E
:1003E00000000000000000F8FCFCFC9C9CFCFCF8F9
:1003F000F870000000000030787C3C9CFCFCF8F0B9
:100400000000000000C0F0F8F83C3C9CBCFCB8B810
:10041000A00000000000000000000000000000003C
:10042000FFFFFFFF4141414141FFFFFFFFFFFFFF92
:10043000FF4141414141FFFFFFFFFFFFFFFF4141FE
:10044000414141FFFFFFFF4141414141FFFF7F7FAC
:100450007F7FFFFF4141414141FFFFFFFF0000005F
:10046000000000000000003F3F3F3F03070F3F3FF9
:100470003E382000000000383C3E3F3F3F3B3938CB
:100480000000000000070F1F3F3C383B3B3F1F1F91
:100490000F0000000000000000000000000000004D
:1004A0007FFFFFFFF0F0F0F0F0FFFFFFFFFFFFFF27
:1004B000FFF0F0F0F0F0FFFFFFFFFFFFFFFFF0F0B5
:1004C000F0F0F0FFFFFFFFF0F0F0F0F0FFFFF0F0D2
:1004D000F0F0FFFFF0F0F0F0F0FFFFFF7F00000012
:1004E000000000000000000000000000000000000C
:1004F00000000000000000000000000000000000FC
:1005000000000000000000000000000000000000EB
:1005100000000000000000000000000001010101D7
:1005200001010101010202020202020202020303AE
:10053000030303030303040404040404040505057E
:100540000505060606060607070707070808080840
:10055000090909090A0A0A0B0B0B0C0C0C0D0D0DED
:100560000E0E0E0F0F0F1010111111121213131483
:1005700014151516161717181819191A1A1B1B1CFB
:100580001D1D1E1E1F202021222223242425262655
:10059000272829292A2B2C2D2D2E2F30313232338A
:1005A0003435363738393A3B3C3D3E3F4041424393
:1005B0004445464748494A4C4D4E4F505153545577
:1005C0005658595A5B5D5E5F616264656668696B27
:1005D0006C6D6F7072737577787A7B7D7E808283A5
:1005E0008587888A8C8E8F91939596989A9C9EA0E9
:1005F000A2A3A5A7A9ABADAFB1B3B5B7BABCBEC0F6
:10060000C2C4C6C9CBCDCFD1D4D6D8DBDDDFE2E4BE
:10061000E7E9EBEEF0F3F5F8FAFDFF00AF00AE0509
:10062000010902A10185020901A100050919012999
:100630000815002501950875018102050109300999
:10064000311581257F9502750881060938158125A8
:100650007F950175088106050C0A38021581257FF2
:10066000950175088106C0C005010980A1018503B7
:1006700019012AB700150126B700950175108100F0
:10068000C0050C0901A101850419012AA002150168
:1006900026A002950175108100C005010906A1017F
:1006A0008506050719E029E715002501950875015C
:1006B00081020507190029EF1500250195F0750144
:1006C0008102050819012905950575019102950119
:1006D00075039101C005010906A101050719E0296B
:1006E000E7150025019508750181029501750881BE
:1006F000010507190029FF150026FF00950675085A
:1007000081000508190129051500250195057501C8
:100710009102950175039101C009023B000201009D
:10072000A0FA0904000001030101000921110100E0
:1007300001224400070581030800010904010001AA
:100740000300000009211101000122B60007058203
:1007500003200001120100020000000853460100BE
:100760000100010200010C0343006F0072006E00E3
:1007700065000000100366006F006F0073007400D6
:1007800061006E0000000403090400000000000086
:100790003E5B4F5B3E003E6B4F6B3E001C3E7C3E23
:1007A0001C00183C7E3C18001C577D571C001C5E2A
:1007B0007F5E1C0000183C180000FFE7C3E7FF0045
:1007C000001824180000FFE7DBE7FF0030483A0676
:1007D0000E00262979292600407F05050700407F65
:1007E00005253F005A3CE73C5A007F3E1C1C080090
:1007F000081C1C3E7F0014227F2214005F5F005FF4
:100800005F0006097F017F00006689956A006060CD
:100810006060600094A2FFA2940008047E040800B7
:1008200010207E20100008082A1C0800081C2A0836
:1008300008001E10101010000C1E0C1E0C0030388A
:100840003E383000060E3E0E06000000000000009C
:1008500000005F000000000700070000147F147F05
:100860001400242A7F2A12002313086462003649E8
:1008700056205000000807030000001C2241000021
:100880000041221C00002A1C7F1C2A0008083E0888
:100890000800008070300000080808080800000008
:1008A000606000002010080402003E5149453E00EF
:1008B00000427F4000007249494946002141494DAC
:1008C00033001814127F10002745454539003C4A73
:1008D000494931004121110907003649494936008B
:1008E000464949291E000000140000000040340061
:1008F00000000008142241001414141414000041D4
:10090000221408000201590906003E415D594E00BB
:100910007C1211127C007F49494936003E41414119
:1009200022007F4141413E007F49494941007F0902
:10093000090901003E41415173007F0808087F000A
:1009400000417F4100002040413F01007F08142208
:1009500041007F40404040007F021C027F007F0436
:1009600008107F003E4141413E007F090909060011
:100970003E4151215E007F09192946002649494917
:10098000320003017F0103003F4040403F001F2031
:1009900040201F003F4038403F00631408146300AC
:1009A0000304780403006159494D4300007F41412D
:1009B0004100020408102000004141417F00040270
:1009C00001020400404040404000000307080000CE
:1009D0002054547840007F2844443800384444442C
:1009E0002800384444287F00385454541800000824
:1009F0007E0902001824241C78007F080404780073
:100A000000447D4000002040403D00007F1028440D
:100A1000000000417F4000007C04780478007C08DE
:100A2000040478003844444438007C182424180016
:100A3000182424187C007C080404080048545454EA
:100A4000240004043F4424003C4040207C001C203F
:100A500040201C003C4030403C004428102844000A
:100A60004C9090907C004464544C44000008364103
:100A7000000000007700000000413608000002017D
:100A8000020402003C2623263C0000000000000077
:100A900000000000000000000000C0E0F0F8F818BE
:100AA00000C0F0FCFEFFFFFFFFFFFFFF7E00000025
:100AB00000000000000080C0E0E0E0E0E0E0E0E0F6
:100AC000C0800000000080C0E0E0E0E0E0E0E0E0A6
:100AD000C080000000E0E0C0C0E0E0E0E00000E036
:100AE000E0C0C0E0E0E0E0E0C0800000000080C0C6
:100AF000E0E0E0E0E0E0E0E0C080000000000000B6
:100B00000000000000000000E0F0F0F0E0ECEEF784
:100B1000F37020007C7C7C7E007E7E7E7F7F7F0069
:100B20000080C0E07E5B4F5BFEC00000C000DCD7F1
:100B3000DEDEDED7DC00C0000000000000000000A8
:100B400000000000000000000000000000000000A5
:100B5000000000F8FCFEFFE000FFFFFFFFFFFF804A
:100B6000FFFFFFFFFFFFFFFFFF1F07010000000067
:100B70000000000000FFFFFF810000000000008176
:100B8000C3C3C30000FFFFFF81000000000000811D
:100B9000FFFFFF0000FFFFFF01000000000000FF5B
:100BA000FFFF010000000001FFFFFF0000FFFFFF4B
:100BB0009D1C1C1C1C1C1C9DDFDFDF0000000000B6
:100BC00000000000000000000F1F3F7F7F7F7F7F3D
:100BD0003F1E0C001F1F1F3F003F3F3F7F7F7F00D6
:100BE000307B7F7830202030787F3B0003000F7F00
:100BF0000F0F0F7F0F000300000000000000000037
:100C000000000000000000000000000000000000E4
:100C1000000000030F1F3F3F3F3F1F1F3F3F7F7FED
:100C20007F3F3F1F3F7F7F7F7F7C7878381C0F009E
:100C30000000000000000103070707070707070778
:100C40000301000000000103070707070707070764
:100C50000301000000070707000000000000000774
:100C6000070700000000000007070700000001035D
:100C70000707070707070707030100000000000038
:100C80000000000000000000000000000000000064
:100C90000000000000000000000000000000000054
:100CA0000000000000000000000000000000000044
:100CB0000000000000000000000000000000000034
:100CC0000000000000000000000011241FBECFEF54
:100CD000DAE0DEBFCDBF04B603FE18C08091C306C4
:100CE0009091C406A091C506B091C6068730904B7E
:100CF000A740B04B59F41092C3061092C40610924C
:100D0000C5061092C606E0E0F8E3099512E0A0E0FF
:100D1000B1E0E4EBF3E602C005900D92A437B10711
:100D2000D9F726E0A4E7B2E001C01D92A33CB207C8
:100D3000E1F70E94AA270C9471310C940000909165
:100D4000B004937071F08093B1046093B20449379A
:100D500008F048E74093B3048091AF04816080932A
:100D6000AF0408959091B004937061F081110BC0AD
:100D700094609093B004109248018091AF04816018
:100D80008093AF040895803110F09C63F2CF880FF8
:100D9000880F982BEECF482F2091A70490916E04D6
:100DA00057E0291302C080E0089530E0529FF0011F
:100DB000539FF00D1124E159FB4F8181681306C048
:100DC0008081481303C085818111EECF2F5F3F4F93
:100DD0002770E7CFFC01AC014C5F5F4F8FEF91E3D1
:100DE0002191822728E030E087FF09C0880F8927FA
:100DF00021503109C9F7E417F50791F70895880FD5
:100E0000F7CFE8EDF0E080818E7F80831092E200E2
:100E10001092DA001092E100A0EEB0E08C918160B7
:100E20008C9380818F77808319BCA7EDB0E08C9183
:100E30008E7F8C9380818F7E8083109259040895D9
:100E40002091E4003091E50095E6A9012091EC00A5
:100E5000822F817020FF06C08091E80080FF06C0CD
:100E600080E008952091E80022FD1AC0809164047A
:100E7000882389F0853089F08091EB0085FD0FC0D3
:100E80002091E4003091E50042175307F9F29150A8
:100E9000E1F684E0089582E0089583E0089581E01A
:100EA00008958091660487FF13C08091E80082FF57
:100EB00006C08091E8008B778093E80004C08091A1
:100EC00064048111F2CF0895809164048823D9F3DA
:100ED0008091E80080FFF8CF8091E8008E77ECCF1A
:100EE000982F9093E900242F762F50E0891731F046
:100EF0007091EC002091ED005091F00021FD07C0B1
:100F00009F5F973071F78093E90081E008953091F9
:100F1000EB003E7F3093EB003091ED003D7F30934E
:100F2000ED003091EB0031603093EB007093EC00FA
:100F30002093ED005093F0002091EE0027FDE0CFCC
:100F400080E00895B0E0A0E0E8EAF7E00C948B3090
:100F5000C8EDD0E088818F7E8883E7EDF0E0808166
:100F60008160808384E082BF81E08093590488811E
:100F70008E7F888302EE10E0F80110821092DA0072
:100F800081EEC82ED12CF601108288818F7788835C
:100F900088818068888388818F7D888319BC1092BE
:100FA000640410926504109263041092620490EE3F
:100FB000E92EF12CF70180818B7F8083888181600D
:100FC000888342E060E080E00E947007F601808143
:100FD0008E7F8083F801808181608083808188603A
:100FE0008083F70180818E7F808388818061888300
:100FF000CDB7DEB7E8E00C94A730FC0180916C041B
:1010000090916D0486179707A0F06115710529F47A
:101010009091E8009E779093E80090E0611571054B
:1010200051F4911108C08091E80082FF34C080E043
:101030000895BC01F2CF809164048823C1F185300A
:10104000C1F18091E80083FD30C08091E80082FD0D
:10105000EACF8091E80080FFE1CF8091F3002091FA
:10106000F200382F6115710519F02830310558F05C
:1010700091E02830310509F090E02091E8002E77CA
:101080002093E800CBCF81918093F10061507109EA
:101090002F5F3F4FE7CF80916404882341F0853074
:1010A00041F08091E80083FFBECF81E0089582E0A7
:1010B000089583E008952FB7F894609155047091D6
:1010C000560480915704909158042FBF0895809141
:1010D00042010895909143019130D1F490915204CE
:1010E00097FF16C0E82FE695E695E695EE31E0F419
:1010F000F0E0E258FD4F282F277081E090E001C01A
:10110000880F2A95EAF78095928189238283089532
:10111000E8E7F2E09191891303C0DF0111971C9277
:1011200092E0EE37F907B1F70895909143019130BD
:10113000C1F49091520497FF14C0E82FE695E6950C
:10114000E695EE31F8F4F0E0E258FD4F877021E0CB
:1011500030E001C0220F8A95EAF78281822B8283D8
:101160000895A8E7B2E0EFEF90E02D91821751F0DB
:10117000EF3F19F4211101C0E92F9F5F9630A9F7C5
:10118000EF3F09F408950E2E000CFF0BEA58FD4FB7
:10119000E6CFA3E0B0E0EFECF8E00C9491302091C2
:1011A00050043091510428173907A1F0909351044D
:1011B00080935004E0914E04F0914F04309751F029
:1011C00024E029839B838A830084F185E02DCE016E
:1011D000019609952396E2E00C94AD30A3E0B0E0CF
:1011E000E4EFF8E00C94913020914C0430914D04E0
:1011F00028173907A1F090934D0480934C04E09197
:101200004E04F0914F04309751F023E029839B83E3
:101210008A830084F185E02DCE01019609952396FD
:10122000E2E00C94AD3080914A04882359F0E091BB
:101230004E04F0914F04309729F00190F081E02D99
:101240000995089580E0089580913F0480FD16C0BF
:1012500081FD16C082FD16C080913E048823A1F056
:10126000883280F428E0829FC001112468E270E097
:101270000E94C430862F672B39F0089582E00895CC
:1012800084E0089588E0089581E0089580913F0406
:1012900080FD14C081FD14C082FD16C080913D0404
:1012A000882381F08E3180F420E5829FC0011124D3
:1012B0006EE170E00E94C430862F089584E10895A5
:1012C00088E2089588E0089580E50895282F35EB99
:1012D0002303C001112497FF04C080589109892F6E
:1012E000089580589F4FFBCFFC01EE0FFF1FE80FC2
:1012F000F91FE556FC4F6183408322830895539A7A
:101300000895E0EBF4E0248130E1231B08F420E0B1
:1013100024838091AF0481608093AF040895E0EB53
:10132000F4E0248130E1230F08F42FEF248380912F
:10133000AF0481608093AF040895E0EBF4E0438153
:1013400020E1421B08F440E08181628190E00E942C
:101350009F060895E0EBF4E0438120E1420F08F49A
:101360004FEF8181628190E00E949F060895E0EB3B
:10137000F4E0628120E1621B08F460E08181438136
:1013800090E00E949F060895E0EBF4E0628120E186
:10139000620F08F46FEF8181438190E00E949F0605
:1013A0000895E0EBF4E08181438162818850990BDC
:1013B0000E949F060895E0EBF4E0818190E0438174
:1013C000628108960E949F0608958091B0048695D8
:1013D0008695815009F48FE00E94B20608958091AD
:1013E000B004869586958F5F803108F081E00E9479
:1013F000B2060895E0EBF4E0808191E089278083D4
:10140000109248018091AF0481608093AF040895E9
:101410009BE0899F802D1124980F973308F096E365
:1014200020914B04222321F09C3128F09BE1089568
:101430008B3108F48BE10895322F50E0FA01EE0F62
:10144000FF1FEF55FE4F91A9905297FD9195440FC4
:10145000551FFA01EF52FE4F2081231B330B290F3A
:10146000311D97FD3A95620F0895622F0895E42F7C
:10147000F0E0EE0FFF1FEF52FE4F408134EE439F2E
:10148000412D1124E82FF0E050E0445E5F4FDA0177
:10149000A21BB1099D01B7FF03C031952195310908
:1014A00093E0220F331F9A95E1F7AF01421B530BD4
:1014B0009A0157FD20E0582F259F212D1124822FBE
:1014C0000895E42FF0E0EE0FFF1FEF52FE4F408132
:1014D00034EE439F412D1124E72FF0E050E0445EAD
:1014E0005F4FDA01A21BB1099D01B7FF03C031951F
:1014F0002195310993E0220F331F9A95E1F7AF014F
:10150000421B530B9A0157FD20E0279F212D1124E8
:10151000722F089530914B04311104C08B31910525
:101520000CF04B970E9474090895FF920F931F933C
:10153000CF93DF93182F062FF42ED0E0C0E02F2D8D
:10154000402F612FCE010E948A0A2196C633D10511
:10155000B1F7CDB7DEB7E5E00C94AA30FC019B01F2
:10156000009729F480E077FF2BC080E80895AC0154
:1015700097FF04C044275527481B590BB901640F36
:10158000751F37FD10C0241B350BC901A5E0880F5E
:10159000991FAA95E1F70E94C43080E2861BF7FFED
:1015A0000FC081950895CB0165E0880F991F6A955A
:1015B000E1F7BA01621B730B0E94C43080E6EECFE4
:1015C0000895EF920F93CF93DF93D72FC82FC901C0
:1015D0000E19BA010E94AE0A602F681B7D2F8C2F56
:1015E000DF91CF910F91EF900895EF920F931F939A
:1015F000CF93DF93D62FC72F182FC9010E19010FD4
:10160000BA010E94AE0A081B202F219F212D112410
:10161000822F6D2F7C2FDF91CF911F910F91EF9033
:101620000895EF920F931F93CF93DF93D62F172F29
:10163000C82FC9010E19070FBA010E94AE0A702FF8
:10164000781B719F712D11246D2F8C2FDF91CF91FD
:101650001F910F91EF900895E82F86FDE0952E2FB2
:101660002F7086FD2F5FE695E695E695E670F0E033
:10167000E756FE4F9181929F902D212D1124929536
:101680009F702295207F922B2081920F87FD91954C
:1016900080E8890F08951F93CF93DF93D62FC72F2C
:1016A000182F822F86950E942C0B805887FD8195DC
:1016B000880F282F219F212D1124822F6D2F7C2F01
:1016C000DF91CF911F91089540913D0150913E01CE
:1016D00025E038E0429FC001439F900D529F900D3E
:1016E0001124875E994C90933E0180933D01890FB0
:1016F000089530E020E0869F212D969F200D311D1A
:101700001124C9010895982F80914B04882329F052
:1017100081E09B3128F080E003C081E09633D8F768
:101720000895B0E0A0E0E7E9FBE00C948B309B016A
:10173000E82FF0E0E55EFA4F311109C0E4918E2FF9
:101740007E2F6E2FCDB7DEB7E8E00C94A730E32EE6
:10175000F12CE491FE2F0E2F10E046E0649FC001B3
:101760001124CFEFD0E0BE010E946D30AB01822F7B
:1017700090E0880F991F25E5249FB001259F700DEB
:101780001124861B970B982F990F980FBE016E1985
:101790007F09609FD001619FB00D709FB00D112433
:1017A0008B2F399F90011124232F3327BE01621BF9
:1017B000730B609F9001619F300D709F300D11245D
:1017C0006E01C91AD108CE9CB001CF9C700DDE9C71
:1017D000700D1124672F7727C61BD70BC09F700190
:1017E000C19FF00CD09FF00C11247F2D4230510589
:1017F000A1F050F44115510509F4A3CF4130510532
:1018000081F07B2F832F9DCF4430510569F080F00C
:101810004630510509F495CFF4CFEB2F8F2D7F2F54
:1018200090CF7E2FE32F8DCFEF2D7B2F8F2F89CF62
:10183000732FEB2FFBCFB0E0A0E0E1E2FCE00C94D3
:101840008C308C01FC01E35CFD4F8081682341F109
:10185000D090B204D091B304C091B104EC2EF12C1D
:101860000E94640B282FC7018C549F4F68E671E0DB
:101870000E94C4308E199F0997FD03969595879510
:101880009595879523706C2F289F600D11247D2DD1
:101890008D2F0E94910B472F282FC8010E948A0A82
:1018A000CDB7DEB7E7E00C94A830B0E0A0E0EBE500
:1018B000FCE00C9489305C01809145010E94080A8B
:1018C000C82F192F6091B40466958091A804909157
:1018D000A9040E94790BF82ED0E0CE01880F991F41
:1018E0009C012F553E4F6901C11740F0812F0E9486
:1018F000830BCDB7DEB7EAE00C94A530FE01E35CC4
:10190000FD4F808190914601892309F450C0D60192
:10191000D0964C91D0974057550BD1962C91205290
:10192000330B449FB001459F700D700D1124229F11
:10193000C001239F900D900D1124860F971F082F33
:101940008230910520F1EFEF813EBEE19B0738F434
:10195000FC01B5E0F695E795BA95E1F7E85FF1E0AF
:10196000AF2FAE0FBB27BB1FBD0175956795062F27
:10197000669FD001679FB00DB00D11248A179B0799
:10198000D8F4EFEFE60FEF1758F70FEF0F0F609156
:10199000B1047091B2048091B304EF2CF501099564
:1019A0000E94910B472F282FCE010E948A0A219670
:1019B000F2E0CF0ED11C98CF6F3F49F3F1E0F60F64
:1019C000E2CFEF92FF920F931F93CF93DF937C01AF
:1019D000809145010E94080AC82F192F6091B40414
:1019E0006695669521E0620F08F46FEF8091A80478
:1019F0009091A9040E94790B082FD0E0C11740F004
:101A0000812F0E94830BCDB7DEB7E6E00C94A9309E
:101A1000FE01E35CFD4F808190914601892389F0AE
:101A20006091B1047091B2048091B304202F4C2FC7
:101A3000F70109950E94910B472F282FCE010E9494
:101A40008A0A2196DBCF80E00895F894E82FE2958A
:101A5000EF70F0E031A1282F2F7081E090E001C0FD
:101A6000880F2A95EAF7982F9095932391A392A136
:101A7000892B82A3789408950F931F9380914A0431
:101A8000882329F00E945B081F910F9108950E94FE
:101A90005B080091220310912303209124033091CD
:101AA0002503600F711F821F931FEECF9091520488
:101AB00092FF10C041E0282F2471243009F040E04B
:101AC00031E0282F2871283009F030E0431711F059
:101AD0002CE0822793FF10C041E0282F247124318D
:101AE00009F040E031E0282F2871283109F030E07A
:101AF000431711F02CE082273091530430FF10C0BF
:101B000051E0282F2171213009F050E041E0282FC9
:101B10002871283009F040E0541711F029E082279D
:101B200031FF10C041E0282F2171213109F040E040
:101B300031E0282F2871283109F030E0431711F0E7
:101B400029E0822794FD877E089582389105B9F1B6
:101B5000B0F48133910509F47DC048F489329105D0
:101B600009F46DC08A32910509F47BC0089585336C
:101B7000910509F45FC08933910509F10895833E09
:101B80009105D9F138F4803E910529F1823E910505
:101B900079F10895863E9105D9F1873E910509F4C2
:101BA0003EC0843E910541F52091530421FF24C09D
:101BB0008091520484FD19C087EE90E00895209131
:101BC0005204237009F05AC02091530423FF14C01B
:101BD00089E290E008952091520420FD38C03091B0
:101BE000530430FF09C024FF43C090E080E0089513
:101BF0002091520422FDF7CF08952091520422FD36
:101C00003AC03091530430FD39C024FFF5CFEDCFF9
:101C10002091520423FFF0CF24FDE7CFCDCF2091B8
:101C2000520423FD2EC03091530431FFEECF84EED9
:101C300090E008952091520425FFDECFC9CF209176
:101C4000520425FD21C02091530423FFD5CF89E301
:101C500090E0D2CF2091520426FFCECF8AE290E0CE
:101C600008952091520426FFC7CF81E390E00895A4
:101C700083EE90E0089582EE90E0089580EE90E08B
:101C8000089586EE90E0089585E390E00895972FFB
:101C90007830B8F46630A8F48530B0F470E026E00F
:101CA000929F600D711D1124FB0190E3899FE00D4F
:101CB000F11D1124EE0FFF1FE851FF4F8591949104
:101CC000089580E090E0089581E0FCCF1F93CF93CA
:101CD000DF930E94A50DEC01C11580E5D807F0F552
:101CE000C11580E4D80708F09CC0C03ED10520F59E
:101CF000CD3CD10508F082C0C83AD10578F4C53A88
:101D0000D10508F073C0C130D10519F1209709F150
:101D1000C430D105F0F4D0E0C0E01BC0C33CD10515
:101D2000D0F7C85AD0E0CC0FDD1FC15BDE4F099061
:101D3000D881C02DD4640DC0C11580E2D80708F049
:101D4000D1C0C11581E0D80708F05AC0C83ED105FE
:101D500010F7CE01DF91CF911F910895C03682E533
:101D6000D80718F5C03482E5D80708F06BC0C03238
:101D700082E5D80708F05FC0C11582E5D80708F4EE
:101D800097C02C2F2695269580E2289F900111243C
:101D90008C2F8370C1E0D0E002C0CC0FDD1F8A958C
:101DA000E2F7C22BD32BDD68D4CFC03A82E5D80747
:101DB00060F4C03882E5D80708F459C0CF71D0E08C
:101DC000DC2FCC27C46FD06AC4CFC03C82E5D807D3
:101DD00008F462C0C03E82E5D80708F09CCFDC2F33
:101DE000CC27CC27DF71C06FD06AB3CFC55AD0E003
:101DF000C45BDE4FC881D0E0D064ABCFD065A9CF43
:101E00008D2F0E94560D182FCE0199270E94A50DE7
:101E1000C12FD0E0DC2FCC27CC27DF71C82BD92BEA
:101E200098CFCE0199270E94A50DCC27DF70C82B33
:101E3000D92BD06A8ECFCF71D0E0DC2FCC27C16FE9
:101E4000D06A87CF2C2F26952695277080E2289F71
:101E5000900111248C2F8370C1E0D0E002C0CC0F20
:101E6000DD1F8A95E2F7C22BD32BDC6872CF2C2FB3
:101E700026952695277080E2289F900111248C2FAB
:101E80008370C1E0D0E002C0CC0FDD1F8A95E2F77D
:101E9000C22BD32BDA685DCF8C2F8F710E94560D29
:101EA000C82FD0E0DC2FCC27CC27DF71D06251CFF8
:101EB0008C2F8F710E94560D55E0D695C7955A9577
:101EC000E1F7CF70D0E0DC2FCC27282F30E084FF63
:101ED00005C044E0220F331F4A95E1F7C22BD32BF4
:101EE000D06937CF8D2F8F710E94560D182FCE01DC
:101EF00099270E94A50DC12FD0E0DC2FCC27CC273D
:101F0000DF71C82BD92BD2CF80959091EA0298230C
:101F10009093EA0208958091EA029091C102892B80
:101F20009091C002992391F0892B909143019130B7
:101F300071F49091520497FF0AC09EE120E832E0CC
:101F400040E0915040F441111092C002089596E093
:101F500028E732E0F5CFF90151919F01552389F32C
:101F60004F5FEFCF8091A70490916E04981301C04A
:101F700008958F5F8770FACFB0E0A0E0E2ECFFE059
:101F80000C948A307C0100914303109144038091AA
:101F9000300390913103082B192BCFE0D0E0CC24F3
:101FA000C394D12CBC2EC6010C2E02C0880F991FE1
:101FB0000A94E2F780239123892B49F4219790F723
:101FC000B12C8B2DCDB7DEB7E9E00C94A630B7016C
:101FD0008C2F0E94470E0E94660E019779F3F1CF75
:101FE000CF93DF93EC010E94BC0FBE010E94470E0D
:101FF0000E94660EDF91CF910895983078F5863073
:1020000068F5E82FF0E086E0989FE00DF11D1124BF
:102010009E2F977083E0F695E7958A95E1F7EE0F8E
:10202000FF1FEE0FFF1FE056FD4F50E040E080E045
:10203000219130E0092E02C0369527950A94E2F7E7
:1020400021703327042E01C0220F0A94EAF7822B55
:102050004F5F5F4F4430510559F7089580E0089570
:10206000983098F5863088F5E82FF0E086E0989F64
:10207000E00DF11D11248E2F877041E001C0440F47
:102080008A95EAF783E0F695E7958A95E1F7EE0FF2
:10209000FF1FEE0FFF1FE056FD4F30E020E070E025
:1020A0005191DF011197CB01022E02C096958795C1
:1020B0000A94E2F7817081958527842385278C9384
:1020C0002F5F3F4F2430310559F708959093440313
:1020D00080934303089521E030E002C0220F331FB4
:1020E0008A95E2F7209530958091430390914403BF
:1020F000822393230E94661008959091BF028095D9
:1021000089238093BF02282F277069F4891759F01B
:102110009091530492FF07C08695869586950E94FC
:102120006B101092BF02089521E030E002C0220F30
:10213000331F8A95E2F78091430390914403822BE9
:10214000932B0E946610089590933103809330037F
:102150000895FC0124812223C1F0808191810E9495
:10216000F00F92959F70963091F058F4925F9F70A7
:10217000923058F4803F19F030F4883E30F481E01A
:1021800008959A5FF4CF843FD1F380E00895883EAC
:10219000B0F3813FD1F7F3CFA6E0B0E0E2EDF0E19C
:1021A0000C94903049835A8349815A819923A1F034
:1021B000222391F0CA010E94BC0F182F682F898139
:1021C0009A810E94301069817A81812F0E94470E86
:1021D0002696E3E00C94AC30CA010E94FD0F182F44
:1021E000F2CFCF93DF93682F81E06A3019F06D3022
:1021F00031F480E00E947F11DF91CF9108958091AA
:10220000C1069091C20626E0FC01ABEBB6E001905E
:102210000D922A95E1F7603E08F458C026E0FC01D3
:1022200011922A95E9F7C091C106D091C20646E005
:1022300050E0BE018BEB96E00E9409319E012B5BC2
:102240003440892B41F1C90145E0969587954A951F
:10225000E1F741E050E0BA0102C0660F771F8A95AE
:10226000E2F7CB016091B9047091BA04862B972BE9
:10227000B9016B5F7F4FE5E076956795EA95E1F7E9
:1022800002C0440F551F6A95E2F7842B952B90935B
:10229000BA048093B9042A5F3F4F4091B804642F79
:1022A00070E0C9010E946D30481B463010F4240FC5
:1022B000311D211572E0370710F030E020E0255481
:1022C0003B4F3093C2062093C10696CFF6E06F9F36
:1022D000B00111246657784F46E050E00E9400316B
:1022E000A2CFCF93DF93EC01FE018491811103C053
:1022F000DF91CF9108950E94F1102196F5CFCF93F1
:10230000382FE091C106F091C206EB5BF4402091BA
:10231000B804622F70E0CF010E946D30281B822F1D
:10232000332361F066E00E94B830C82FC15010F42A
:10233000CF91089580E20E94F110F8CF9F01280FFD
:10234000311D2115324018F080E0F0E0E0E08E0F02
:102350009F2F911D85549B4F9093C2068093C10679
:10236000E7CF0E94711181E00E947F110895809152
:102370004301813059F58091520487FF27C00E94A4
:102380008B0F80937F0240E250E062EC72E08EE7B8
:1023900092E00E940931892BC1F080E2EEE7F2E081
:1023A000A2ECB2E001900D928A95E1F7E0914E0423
:1023B000F0914F04309749F086E080937E020480CC
:1023C000F581E02D8EE792E0099508950E948B0F2C
:1023D0008093760248E050E062EE72E086E792E099
:1023E0000E940931892B89F388E0E6E7F2E0A2EE4A
:1023F000B2E001900D928A95E1F7E0914E04F091E0
:102400004F04309711F30280F381E02D86E792E0CC
:10241000DBCF882321F00E94840F0E94B71108951A
:10242000882339F09091EA02982B9093EA020E9457
:10243000B71108950F931F93CF93DF938B01EA0198
:1024400090916404943061F58093E9008FEF90914E
:10245000E800815095FD06C095ED9A95F1F70000D2
:102460008111F5CF8091E80085FF1AC00E942007F6
:10247000811111C08091E80085FD06C08091E800BF
:102480008E778093E800F2CFF80181918F018093DD
:10249000F100219779F78091E8008E778093E8002A
:1024A000DF91CF911F910F91089543E050E0BC015F
:1024B00082E00E941A12089546E050E0BC0182E0DA
:1024C0000E941A12089540E250E0BC0182E00E948E
:1024D0001A120895CF93DF93EC0148E050E0BC015D
:1024E00081E00E941A1288E0FE01AAE5B4E00190A2
:1024F0000D928A95E1F7DF91CF91089581E0809365
:10250000E00080E28093D8001092C9008FE19EE441
:102510000197F1F700C0000087E090EBDC018093A9
:10252000C3069093C406A093C506B093C60688E17F
:102530009CE00FB6F894A895809360000FBE90932E
:102540006000FFCF3BB1377F2BB128604FB7F894C5
:102550008BE993E0FC015191CF0168E02BB90000B9
:1025600000C057FF3BB9550F000000C000C000C0BD
:102570003BB900C06A9591F7F4E08D339F0751F79E
:102580004FBF8FE594E00197F1F700C00000089578
:10259000B0E0A0E0EEECF2E10C9489307C015B014C
:1025A0006A018091210301E010E08A3010F40AE012
:1025B00010E0C1E0D0E0B501C701F6010995811135
:1025C00004C021960C171D072CF4CDB7DEB7EAE046
:1025D0000C94A530CC9F9001CD9F300D300D11246F
:1025E00090E080E045E34A95F1F7000001968217FC
:1025F0009307C1F7E0CFAB0124E630E0BC0188E7E8
:102600000E94212E21E0892B09F020E0822F0895DD
:102610008091990390919A03911103C091E08927C9
:102620000895882369F062E070E08DE196E00E94F1
:10263000FB12811103C080919903089510929903B0
:1026400080919903EBCFCF93C091990380919A0326
:102650008823D1F00E945B08605A75418F4F9F4FCD
:1026600060939503709396038093970390939803D8
:10267000C11108C062E070E08BE196E00E94FB129D
:10268000811105C0C09199038C2FCF91089581E0ED
:1026900080939903F7CFA5E0B0E0E1E5F3E10C9476
:1026A00081300E943C0D6093750370937603809394
:1026B0007703909378033091B004232F2370722E08
:1026C00019F0732E76947694209148012130D1F040
:1026D000222351F0223009F4DDC2233009F4E4C290
:1026E0002596E2E10C949D30109245016093A80478
:1026F0007093A9048093AA049093AB0481E0809323
:102700004801EECF9091400181E079120BC0832FF8
:10271000837020913F0130E091E08217130609F4A5
:1027200090E0892F8170809347018091B50490914A
:102730004601981739F08093460140E060E080E060
:102740000E94950A3FE0371580F0E72DF0E0ED5844
:10275000FE4C0C94FA3080914701882309F404C19F
:1027600040E060E080E00E94950A80E0FDC080913A
:1027700045010E94080A8983192F6091B104709164
:10278000B2048091B3040E94910B062FF72EE82E1D
:102790009981892F90E09D838C83FC81F11710F043
:1027A000812F71C0EC81FD81E35CFD4F80819091B0
:1027B0004601892339F02E2D4F2D602F8C819D816C
:1027C0000E948A0AEC81FD813196FD83EC83E5CF7E
:1027D000809145010E94080A8983192FF090B20464
:1027E0000091B3042091B1042A83622F7F2D802FA2
:1027F0000E94910BE62ED72EC82E6091B4043A8128
:10280000630F7F2D802F0E94910B062FF72EB82E7D
:102810009981892F90E09D838C83FC81F11708F0CA
:10282000BFCFEC81FD81E35CFD4F9081809146013B
:10283000892361F02B2D4F2D602F90FD03C02C2D8F
:102840004D2D6E2D8C819D810E948A0AEC81FD8127
:102850003196FD83EC83E1CF809145010E94080A07
:10286000092FF090B204E090B3042091B40410E476
:10287000129F112D1124282F30E03D832C839C8141
:10288000901720F0802F0E94830B6EC0EC81FD8199
:10289000E35CFD4F8081909146018923C1F0EC817A
:1028A000FD81EE0FFF1FEF55FE4F81A982958F70BE
:1028B0006091B104819F600D11247F2D8E2D0E94A7
:1028C000910B472F282F8C819D810E948A0A8C8131
:1028D0009D8101969D838C83D2CF809145010E947A
:1028E000080A092FF090B204E090B3042091B404D8
:1028F00010E4129F112D1124E82FF0E0FD83EC83EA
:102900003C81301708F0BECFEC81FD81E35CFD4FC8
:102910008081909146018923E1F0EC81FD81EE0FE9
:10292000FF1FEF55FE4F60A9169FB001112495E0DF
:10293000759567959A95E1F78091B104680F7F2DA1
:102940008E2D0E94910B472F282F8C819D810E94F4
:102950008A0A2C813D812F5F3F4F3D832C83D0CF4E
:102960008BE49BE00E94E10C9091450121E0290F4E
:102970002093450181118BC182E0809348018091B1
:102980004701811184C1772009F48CC1892F0E94ED
:10299000080AA6CE81E69AE0E5CF87E39AE0E2CF87
:1029A00081E19BE00E94550CDFCF85EF9AE0FACFE2
:1029B00085E39AE0D7CF8CE19AE0D4CF81EE9AE01C
:1029C000F1CF809145010E94080A192F909147018B
:1029D000911120C06091B40420E1620F08F46FEF00
:1029E0008091A8049091A9040E94790B6AE070E09C
:1029F0000E946D30892B09F0D3CE0E94640BE6E370
:102A00008E9FC001112460914601892F90E00E94A1
:102A10001B0CC6CE282F30E03D832C83E12EF12CF9
:102A2000EC81FD81EE15FF050CF0BACE60914601F8
:102A30008C819D810E941B0C8C819D8101969D83C0
:102A40008C83EECF809145010E94080A8983192F5B
:102A5000F090B2040091B304F091B104FA83609154
:102A6000B4046695669566958091A8049091A90432
:102A70000E94790B0E942C0B805887FD8195880F4E
:102A8000682F2CE0629F612D11242A81620F7F2D17
:102A9000802F0E94910B062FF72EE82E9981892F07
:102AA00090E09D838C83FC81F11708F079CEEC8156
:102AB000FD81E35CFD4F808190914601892339F0CF
:102AC0002E2D4F2D602F8C819D810E948A0AEC81D2
:102AD000FD813196FD83EC83E6CF80914701882309
:102AE00029F040E060E080E00E94950A8091450175
:102AF0000E94080A9B834091A8045091A904609108
:102B0000AA047091AB048091910390919203A091DB
:102B10009303B091940384179507A607B70708F0AD
:102B2000B4C06091B1047091B2048091B3040E946A
:102B3000910B362E7A83282E09E713E021EA31E043
:102B40003D832C83AC80BD8036E0A30EB11C8C800D
:102B50009D8065017801198202C031E03983F70157
:102B600081917F01412C512C612C882319F0422C3A
:102B70005A80632CF40181914F0190E0FC01E35CE9
:102B8000FD4F208130914601232329F0242D452D2E
:102B9000662D0E948A0AF60182916F0190E0FC0185
:102BA000E35CFD4F208130914601232329F0242D41
:102BB000452D662D0E948A0AF70180813197808316
:102BC000F981F13051F6F8018281D12CE12CF12C00
:102BD000882319F0D22CEA80F32CEC81FD818281CC
:102BE00090E0FC01E35CFD4F2081309146012323FE
:102BF00029F02D2D4E2D6F2D0E948A0AEC81FD812A
:102C0000838190E0FC01E35CFD4F2081309146011F
:102C1000232329F02D2D4E2D6F2D0E948A0A0E940C
:102C2000640B837091E009F090E0F80192830D5FEE
:102C30001F4FBD82AC8221ED31E02A153B0509F022
:102C400081CF2091B40430E1230F08F42FEF60E12D
:102C5000822F90E00E94790BBC0188EB9BE00E94E0
:102C60006D308091A8049091A904A091AA04B0911C
:102C7000AB04860F971FA11DB11D80939103909304
:102C80009203A0939303B09394038B81FCCD7110B6
:102C90007DCE26CD70924001832F837080933F01BB
:102CA0000E94A21283E02BCD8091AF04882351F0C3
:102CB00048E050E067E170E080EB94E00E943D3135
:102CC0001092AF04C090A804D090A904E090AA0488
:102CD000F090AB0480914A048823C1F02FB7F89498
:102CE0006091550470915604809157049091580456
:102CF0002FBF6C197D098E099F096031710581050F
:102D0000910508F4EDCC10924801EACC0E943C0DEC
:102D1000F0CF9091530492FB222720F9281779F0E5
:102D200080FB92F990935304609152047091530484
:102D300084E090E00E946B3182E00E947D10089553
:102D4000A4E0B0E0E6EAF6E10C949030409119037B
:102D500050911A0360911B0370911C032FB7F894D4
:102D60008091550490915604A0915704B091580455
:102D70002FBF841B950BA60BB70B11E08436910572
:102D8000A105B10570F10E943C0D6E5F7F4F8F4F22
:102D90009F4F69837A838B839C83809119019091E3
:102DA0001A018D5F9C4F4091180150E0453051054C
:102DB00010F044E050E0BE016F5F7F4F0E9416317B
:102DC00083E090E00E94F72F182F882351F00E9493
:102DD0005B086093190370931A0380931B0390930D
:102DE0001C03812F2496E3E00C94AC30EF92FF9209
:102DF0001F93CF93DF9300D000D00F92CDB7DEB7F3
:102E00007B0190E080E00E94F72F182F882309F4BF
:102E100087C04091030150E04115510511F041E098
:102E200050E060910401709105016D5F7C4FCE010F
:102E300005960E9416314091FB025091FC02609170
:102E4000FD027091FE022FB7F89480915504909185
:102E50005604A0915704B09158042FBF841B950BC2
:102E6000A60BB70B84369105A105B10540F484E0AB
:102E700093E00E94EA069D81891709F451C081E020
:102E800090E00E94F72F81111AC010E08091F702A4
:102E90009091F802A091F902B091FA02F7018083B3
:102EA0009183A283B383812F0F900F900F900F9087
:102EB0000F90DF91CF911F91FF90EF900895409177
:102EC0000B0150E04530510510F044E050E06091B6
:102ED0000C0170910D016D5F7C4FCE0101960E9437
:102EE000163184E093E00E94EA069D818913CDCFDC
:102EF0000E945B086093FB027093FC028093FD02CA
:102F00009093FE0289819A81AB81BC818093F70204
:102F10009093F802A093F902B093FA0211E0B6CFB1
:102F20008091040390910503A0910603B0910703DB
:102F300089839A83AB83BC831111E4CFA7CF4F92CF
:102F40005F926F927F928F929F92AF92BF92EF9219
:102F5000FF920F931F93CF93DF937B01FB01408080
:102F60005180628073809FB7F89480905504909050
:102F70005604A0905704B09058049FBF8418950839
:102F8000A608B708F4E68F169104A104B10418F45A
:102F9000C1E0442329F1C82F880FDD0BFE0183E037
:102FA000EE0FFF1F8A95E1F7E050FF4F818192817C
:102FB0008D5F9C4F408150E00417150708F4A8016D
:102FC000B9010E941631CE010E94F72FC82F882325
:102FD00039F00E945B08F7016083718382839383D9
:102FE0008C2FDF91CF911F910F91FF90EF90BF90A9
:102FF000AF909F908F907F906F905F904F900895CB
:10300000A9E0B0E0E6E0F8E10C948F3088E0E0EB76
:10301000F4E0DE01119601900D928A95E1F7198690
:1030200049E050E060E173E0CE0101960E94093171
:1030300041E0892B09F440E009E010E09E012F5F98
:103040003F4F6DE173E084E00E949F172996E4E012
:103050000C94AB300F931F93CF93DF93EC0144E0BC
:1030600050E068E073E00E94093141E0892B09F4E7
:1030700040E004E010E09E016FEF72E082E00E9409
:103080009F17DF91CF911F910F9108951F920F927B
:103090000FB60F9211242F933F934F935F936F932B
:1030A0007F938F939F93AF93BF93EF93FF93809101
:1030B000E10082FF09C08091E20082FF05C080919B
:1030C000E1008B7F8093E1008091DA0080FF24C0D3
:1030D0008091D80080FF20C08091DA008E7F80939D
:1030E000DA008091D90080FFAAC080E189BD82E129
:1030F00089BD09B400FEFDCF81E080936404809116
:103100005904811109C00E9401070E94A207809101
:10311000E20084608093E2008091E10080FF1AC0A9
:103120008091E20080FF16C08091E2008E7F809344
:10313000E2008091E20080618093E2008091D800FB
:1031400080628093D80019BC85E08093640483E09A
:10315000809344018091E10084FF30C08091E200BF
:1031600084FF2CC080E189BD82E189BD99B5892F9A
:10317000817090FFFBCF9091D8009F7D9093D800F5
:103180009091E1009F7E9093E1009091E2009F7EFC
:103190009093E2009091E20091609093E200909110
:1031A0006504992309F451C094E0909364049091CC
:1031B0006404943009F482E0809344018091E1003A
:1031C00083FF2CC08091E20083FF28C08091E10042
:1031D000877F8093E10082E080936404109265040D
:1031E0008091E1008E7F8093E1008091E2008E7FEC
:1031F0008093E2008091E20080618093E20042E0EF
:1032000060E080E00E9470078091F0008860809309
:10321000F00081E08093440180934301FF91EF919E
:10322000BF91AF919F918F917F916F915F914F91DE
:103230003F912F910F900FBE0F901F90189519BCC2
:10324000109264041092590467CF9091E30097FDA7
:1032500002C0982FAACF93E0A8CF78941F921FB6F0
:103260001F9211248F939F93AF93BF938091550426
:1032700090915604A0915704B09158040196A11D55
:10328000B11D8093550490935604A0935704B093B6
:103290005804BF91AF919F918F911F901FBE1F90B7
:1032A00018959C014FB7F89480915504909156045D
:1032B000A0915704B09158044FBF821B930B0895FF
:1032C0002FB7F8948091550490915604A09157041B
:1032D000B09158042FBF08950E9460199C019091ED
:1032E000460480914704982B21F0309343042093A7
:1032F00042049091480480914904982B21F0309326
:10330000410420934004E0914E04F0914F04309723
:1033100049F082E0809344040680F781E02D84E444
:1033200094E0099508951092EA028091430181305A
:1033300039F58091520487FF23C0E0E8F2E08EE186
:10334000DF011D928A95E9F790E080E00E94EE0887
:1033500090E080E00E94C9081092C1020E94B7115B
:1033600086E0E4E4F4E0DF011D928A95E9F710922B
:103370003D0410923E0410923F040E946C1908957F
:10338000E8E7F2E086E0DCCFAAE2B0E0EAECF9E1BF
:103390000C94903086E694E02091F100FC0121939A
:1033A000CF01F4E08E369F07B9F780916704833030
:1033B00009F470C0B8F4813009F447C0823009F4D0
:1033C000B5C08091E80083FF89C280916604909126
:1033D00067049A3008F082C2E92FF0E0ED57FE4C06
:1033E0000C94FA308A3009F490C08B3009F46FC025
:1033F000893039F780916604813219F780916A0427
:1034000090916B040297E8F68091E800877F8093A3
:10341000E8008091E80082FF38C09091F30080912D
:10342000F200029731F48091F100813011F0863082
:1034300021F48091F100809342018091E8008B7724
:103440008093E8000E945107BCCF80916604813AC6
:1034500009F0B7CF8091E800877F8093E8008091E2
:103460006A0490916B04892B61F468E08AE594E02A
:1034700070E00E94FD078091E8008B778093E80060
:10348000A0CF60E090E080E0F3CF809164048111F0
:10349000C0CF97CF80916604813A09F092CF809196
:1034A0006A0490916B04892B09F08BCF8091E8001E
:1034B000877F8093E8008091E80080FFFCCF8091B7
:1034C00043018093F1008091E8008E77B9CF80911D
:1034D0006604813209F075CF80916A0490916B0483
:1034E000892B09F06ECF8091E800877F8093E800F8
:1034F0000E94510781E090916804911101C080E021
:10350000809343010E9493195CCF809166048132BD
:1035100009F057CF8091E800877F8093E8000E94F0
:10352000510780916904809341014BCF80916604DB
:10353000813A09F046CF8091E800877F8093E800C8
:103540008091E80080FFFCCF80914101BACF8038A4
:1035500099F0823809F0C2C180916A048F70873077
:1035600008F0BCC18093E9008091EB0085FB8827BF
:1035700080F91092E90006C0809162049091630482
:10358000911182609091E800977F9093E80080937A
:10359000F1001092F1008091E8008E779BC18823A2
:1035A00009F489C1823009F099C1809168048111C0
:1035B0008CC180916A048F702FEF280F263008F09D
:1035C0008DC18093E9002091EB0020FF7EC19330F4
:1035D00031F48091EB0080628093EB0076C1909192
:1035E000EB0090619093EB0021E030E001C0220FEE
:1035F0008A95EAF72093EA001092EA008091EB00A6
:103600008860EACF81116AC1109168041F778091A8
:10361000E3008078812B8093E3008091E800877F2E
:103620008093E8000E9451078091E80080FFFCCF62
:103630008091E30080688093E30082E0111183E0D1
:10364000809364044BC18058823008F047C1809158
:103650006804909169048C3D23E09207A1F583E012
:103660008A838AE289834FB7F894DE01139620E0BB
:103670003EE051E2E32FF0E050935700E49120FF49
:1036800003C0E295EF703F5FEF708E2F90E0EA305D
:10369000C0F0C7968D939D932F5F243159F74FBF8C
:1036A0008091E800877F8093E8006AE270E0CE01B5
:1036B00001960E94FD078091E8008B778093E800D7
:1036C0000DC1C096E7CF40916A0450916B04292F39
:1036D00033272330310509F444C078F52130310512
:1036E00009F46FC08BE390E0E9E1F7E022303105A7
:1036F00009F0F4C02091E800277F2093E800209192
:103700006C0430916D048217930708F49C0140E02B
:103710002115310509F064C0411162C08091E800B3
:1037200082FDC9CF80916404882329F2853019F283
:103730008091E80083FFF2CFBECF21323105A9F19D
:103740002232310509F0CAC04115510509F443C0C0
:103750004130510509F0C2C086EB90E0EFE1F6E0A0
:10376000C9CF992781309105C1F0009759F0029790
:1037700009F0B4C0E6E6F7E0E4918E2F90E0E6E6CB
:10378000F7E007C0E6E8F7E0E4918E2F90E0E6E886
:10379000F7E0009709F4A2C0ADCFE4E7F7E0E491C9
:1037A0008E2F90E0E4E7F7E0F4CF4115510571F07A
:1037B0004130510509F092C089E090E0E4E4F7E07F
:1037C00099CF82E190E0E4E5F7E094CF89E090E0E2
:1037D000EBE2F7E08FCF84E490E0E5EDF6E08ACF0E
:1037E00080916404882309F466CF853009F463CF9F
:1037F0008091E80083FD5FCF8091E80082FD8ECF4D
:103800008091E80080FF84CF9091F3008091F200D6
:103810002115310519F08830910550F041E00897E5
:1038200009F040E08091E8008E778093E80070CF47
:1038300044914093F1003196215031090196E8CF2F
:10384000803809F04BC08091E800877F8093E800C2
:10385000809165048093F1009ECE81113FC010914C
:1038600068041230D8F58091E800877F8093E800E3
:10387000109365040E945107112311F084E005C0E4
:103880008091E30087FDFACF81E08093640442E0F9
:1038900061EC81E00E94700742E261EC82E00E94EC
:1038A000700780916404843021F081E080934401AA
:1038B00015C082E0FBCF80916804813079F481E00B
:1038C000933009F080E0809363041092E9008091C6
:1038D000E800877F8093E8000E9451078091E8000C
:1038E00083FF0AC08091E800877F8093E800809181
:1038F000EB0080628093EB00AA96E3E00C94AC307E
:103900001F920F920FB60F9211242F933F934F9354
:103910005F936F937F938F939F93AF93BF93CF9357
:10392000DF93EF93FF93D091E900DF708091EC007B
:10393000C82FC17080FDC0E81092E9008091F000AE
:10394000877F8093F00078940E94C4191092E90058
:103950008091F00088608093F000CD2BCF70C093F1
:10396000E900FF91EF91DF91CF91BF91AF919F91CE
:103970008F917F916F915F914F913F912F910F9018
:103980000FBE0F901F9018950E9493192FEF84E39C
:103990009CE0215080409040E1F700C0000088E1A9
:1039A0009CE00FB6F894A895809360000FBE9093AA
:1039B0006000FFCF662309F45DC08D3C41F40E9496
:1039C00046098195809347040E946C1908958E3CA6
:1039D00019F40E944609F6CF8F3C31F40E94460943
:1039E000819580934604F0CF803D19F40E944609EA
:1039F000F8CF893D29F40E94240980934804E4CF3C
:103A00008A3D21F40E9424098195F7CF8B3D31F442
:103A10000E942409819580934904D6CF8C3D19F4E6
:103A20000E942409F8CF9FE2980F983070F4815DCE
:103A3000990B21E030E001C0220F8A95EAF78091CE
:103A40004504822B80934504BFCF8D3D31F4809196
:103A50003F04816080933F04B7CF8E3D21F4809175
:103A60003F048260F7CF8F3D09F0AECF80913F04D5
:103A70008460F0CF409146048D3C59F48091470416
:103A800087FF0DC01092470441110BC010923D04F6
:103A900008C08E3C81F48091470418169CF344239F
:103AA00081F08091480490914904892B09F08CCFD2
:103AB00010923E0489CF8F3C49F447FFF0CF10921B
:103AC0004604809147048111ECCFE0CF803D19F48A
:103AD0001416ACF3E4CF90914804893D29F41916EB
:103AE000F4F610924804DBCF8A3D19F497FFD7CF44
:103AF000F8CF909149048B3D29F497FFD0CF1092D5
:103B00004904CDCF8C3D19F41916CCF3C8CF9FE2F0
:103B1000980F983090F4815D990B21E030E0B90165
:103B200002C0660F771F8A95E2F7CB0180959091CE
:103B30004504892380934504B2CF8D3D31F48091B3
:103B40003F048E7F80933F04AACF8E3D21F4809165
:103B50003F048D7FF7CF8F3D09F0A1CF80913F04C7
:103B60008B7FF0CF882381F19CEF980F913A28F456
:103B70000E946A080E94B711089590E2980F983049
:103B800050F4877091E001C0990F8A95EAF7892F68
:103B90000E94840FEFCF9BE5980F933028F490E0BC
:103BA00080E00E94EE08089598E5980F9B3128F474
:103BB00090E080E00E94C908089593E3980F933144
:103BC00018F460E00E94DA1C0895CF93C82F882370
:103BD000B9F18CEF8C0F813AA8F5809143018130C7
:103BE00001F58091520487FF1CC0EC2FE695E69505
:103BF000E695F0E0E258FD4F828190E04C2F47704F
:103C000021E030E002C0220F331F4A95E2F7822301
:103C10009323892B81F08C2F0E946A080E94B71190
:103C20000AC0E8E7F2E08EE792E02191C21799F32B
:103C30008E179F07D1F78C2F0E9495080E94B7110D
:103C4000CF91089580E28C0F883068F4C77021E02E
:103C500030E001C0220FCA95EAF78091EA02822B78
:103C60008093EA02EBCFEBE5EC0FE33040F4F0E0B9
:103C7000E45BFE4F808190E00E94EE08E1CFE8E532
:103C8000EC0FEB3150F4F0E0EE0FFF1FE15BFE4F65
:103C9000808191810E94C908D3CF83E38C0F833147
:103CA00078F661E08C2F0E94DA1CCACF0F931F9325
:103CB000CF93DF93C62FD42F022FFC018581882359
:103CC000A9F06093AE040E9460199093AD048093B4
:103CD000AC04C77081E001C0880FCA95EAF70E9462
:103CE0001012DF91CF911F910F9108958091AE0432
:103CF000681335C08091AC049091AD040E945119B5
:103D0000883C910560F510E21D0FCD17B9F080E2F7
:103D10008C0F883040F4C77081E001C0880FCA95CD
:103D2000EAF70E940912183048F481E09D2F97703D
:103D300001C0880F9A95EAF70E941012802F0E9406
:103D4000E51D802F0E94B21D183058F6D77081E013
:103D500001C0880FDA95EAF70E940912C2CFC77036
:103D600081E001C0880FCA95EAF7F6CFB0E0A0E085
:103D7000ECEBFEE10C9489308C01FC0184818823FA
:103D800009F467C021E0408151816281738195818E
:103D90000E94CC10EC01F8019581992309F487C4A5
:103DA000818180934F03808180934E0380E28093D2
:103DB0003501D0934D03C0934C039E013052211521
:103DC000304238F4F8018681807F09F45EC0FE013C
:103DD0000AC09E01305421153041C8F4F801868193
:103DE000807FFE0109F0FF27ED33F10528F4E4554B
:103DF000FF4FE491E0933501FE01E851FC47E730C5
:103E0000F10508F042C0E357FE4C0C94FA309E01D5
:103E10003A9521153F41D8F29E01205A3245203271
:103E2000310550F3FE01E0CF26E241EE61EEC8011C
:103E30000E94561E8091BF02877059F0F80185815B
:103E4000882339F08091530482FF03C082E00E94EE
:103E50007D10CDB7DEB7EAE00C94A53027E245EE41
:103E600065EEE5CF26E241EE60EEE1CF27E245EEDA
:103E700064EEDDCF26E241EE62EED9CF27E245EED9
:103E800066EED5CF28E241E0EBCF1092AE049E0162
:103E900030572332310508F01EC484E090E00E94C0
:103EA00037319093530480935204FE01E150F04760
:103EB000E232F10520F4EC56FE4C0C94FA3080917D
:103EC000520481608093520495C0809153048860AD
:103ED000809353048FC0809152048260F3CF80910D
:103EE00052048460EFCF809152048860EBCF8091C0
:103EF00053048160EDCF809153048260E9CF8091BB
:103F000052048061DFCF809152048062DBCF8091C8
:103F100052048064D7CF0E94931980915204806824
:103F2000D1CF809152048C60CDCF809153048360B7
:103F3000CFCF809152048E7FC5CF80915304877F6D
:103F4000C7CF809152048D7FBDCF809152048B7F6B
:103F5000B9CF80915204877FB5CF809153048E7F73
:103F6000B7CF809153048D7FB3CF809152048F7E61
:103F7000A9CF809152048F7DA5CF809152048F7B71
:103F8000A1CF0E949319809152048F779BCF80918B
:103F90005204837F97CF809153048C7F99CF809177
:103FA000520482FB992790F921E0922790FB82F935
:103FB00090FB83F987CF80915304982F909591704F
:103FC0008E7F892B90FB81F983CF90915204892FAA
:103FD0008F7B96FF806476CF0E9493199091520454
:103FE000892F97FB87F980586DCF61E08EE090E0D4
:103FF0000E944D31609152047091530484E090E02E
:104000000E946B310E94931915CF60E0EFCF909121
:104010005204892F8F7E94FF806154CF9091520477
:10402000892F8E7F90FF81604DCF90915304892F0F
:10403000877F93FF88604CCF85E35DC385E348C3EA
:10404000992369F18272FE01E052F847EB30F105E5
:1040500008F06DC0EA54FE4C0C94FA300E94FA0944
:10406000E9CE882309F448C00E94E509E3CE8823FD
:1040700009F448C00E94D109DDCE882309F448C064
:104080000E94B709D7CE882309F448C00E949D0931
:10409000D1CE882309F448C00E948109CBCE8091FB
:1040A000EA028272FE01E054F847ED30F10508F0B3
:1040B0003EC0EF53FE4C0C94FA308091B0048370F4
:1040C00011F4109248018091B0048C7F816080933C
:1040D000B0048091AF0481608093AF04ABCE809137
:1040E000B004837011F0109248018091B0048C7F6D
:1040F000EECF882309F4B8CF0E94EF099BCE882326
:1041000009F4B8CF0E94DB0995CE882309F4B8CF13
:104110000E94C4098FCE882309F4B8CF0E94AA094F
:1041200089CE882309F4B8CF0E948F0983CE9E01DF
:10413000205E324520323105A8F4911115C0CF71AF
:1041400081E090E0FC0102C0EE0FFF1FCA95E2F78C
:10415000EF016E2F83E090E00E944D31CE010E946E
:10416000A41068CE992381F0C330FCE7DF0709F47F
:1041700078C008F05BC0C1153CE7D30709F464C000
:10418000C130DC4709F473C0F8018581C081D18159
:10419000882309F47AC0CE010E94BC0FF82E682F44
:1041A000CE010E943010BE018F2D0E94470E0E944A
:1041B000660ED82FC92FA82EF801C580B680B294FC
:1041C0003FE0B3228091BF02877009F1EC2CCC2034
:1041D000F9F0892F807F803469F080E28D0F88307C
:1041E000B0F0892F807E803229F4F1E0FD1778F459
:1041F000BB2069F08091530482FF09C082E00E94D5
:104200007D108091BF028770EE24E3948111E12C30
:10421000DC2ED2942FE0D2222BE02D1508F49AC088
:10422000ED2DF0E0E253FE4C0C94FA30CB359CE7D8
:10423000D90749F1CC35ECE7DE07D9F0CA35DC47C0
:1042400009F0A2CF81E01CC00E9493192FEF34E344
:104250008CE0215030408040E1F700C000000E9417
:104260007E126FEF7FEF90E080E00E946B310E9442
:10427000C41C8091530482FB882780F991E0892730
:104280000E94891681CF80E0FBCFCE010E94FD0FF6
:10429000F82E89CF3C2F3F70F32EC07F19F0F29497
:1042A00090EFF922CC20B9F0FF2069F080E28D0F69
:1042B000883010F0A11009C08091EA02F82AF0922B
:1042C000EA020E94B7118D2F43C08091C102F82AE3
:1042D000F092C102F6CF8D2F0E94B21DFF20D1F1C6
:1042E000D05ED83010F0A11004C08F2D0E94840F32
:1042F00006C0F0948091C102F822F092C1020E949F
:10430000B71128C08C2F8F70F82EC07FC03219F0E3
:10431000F29480EFF822AA2059F091E0A91609F44E
:1043200078C0CC2009F484C0BB2009F446C0CBCFB0
:104330008091530482FD3DC0CC20A9F1FF2039F0CB
:104340008091EA02F82AF092EA020E94B71180E016
:104350000E94E51DED2DE850FF0B349710F40E94EC
:104360001309EE20A9F08091BF0280FD11C0F80171
:1043700015828695869586950E949410C8010E94A4
:10438000B61E8091BF028695869586950E946B1019
:1043900020E0F8014081518162817381848195819F
:1043A0000E94CC1056CD80E00E94B21DFF2091F2F9
:1043B0009CCFCC20A1F0B11004C08F2D0E94101210
:1043C000C9CFE1E0BE12C6CF8091C0029F2D9823D5
:1043D000F91609F4BFCFF82AF092C002BBCFB11092
:1043E000B9CF8F2D0E9409129091C0028F2D892381
:1043F00029F08F2D809589238093C00280919F02A0
:104400009F2D982309F4A6CFF094F822F0929F02F2
:10441000A1CFCC2029F0F5E0FB1508F49BCFCDCF40
:1044200024E02B1508F496CF8F2D0E94091292CF0D
:10443000BB20D1F339E3A31209C08FEF97EEE3E07D
:1044400081509040E040E1F700C000008D2F0E94B5
:10445000B21D80CF8C2F86958695837069F0813050
:1044600009F078CF8D2F9C2F9370C11002C080E08F
:1044700090E00E94C9086ECF8D2F9C2F9370C110C1
:1044800002C080E090E00E94EE0864CF6C2D8D2F7A
:104490000E94DA1C5FCF8C2F837009F03FC0C110DF
:1044A00059CF4D2F429546954770440F440F2D2FFD
:1044B0002F7030E0042E02C0220F331F0A94E2F75F
:1044C00090E080E0D4FF09C08FE090E002C0880F48
:1044D000991F4A95E2F780959095C695C695C37049
:1044E000C23099F078F44091300350913103C130DB
:1044F00039F0822B932B842395230E94A4102ACF7A
:10450000242B352B822B932BF8CF822B932B2091AE
:1045100030033091310382279327EFCF8695CC204B
:1045200011F08C2F8170882309F414CF4D2F429500
:1045300046954770440F440F2D2F2F7030E0042E06
:1045400002C0220F331F0A94E2F790E080E0D4FF0C
:1045500009C08FE090E002C0880F991F4A95E2F7EA
:1045600080959095C695C695C370C23099F078F441
:104570004091430350914403C13039F0822B932B77
:10458000842395230E946610E5CE242B352B822BA5
:10459000932BF8CF822B932B20914303309144032C
:1045A00082279327EFCFCF70CC2029F08C2F0E9449
:1045B00094108D2F03CF8D2F0E9409128C2F0E94F3
:1045C0006B10C8CE8D2FF2EFAF1699F1FA1570F07F
:1045D00020EFA216D1F031EFA31691F0CC2009F410
:1045E00056C0B11070CE8C2F8F7127C093EFA916D3
:1045F00039F1E4EFAE12F2CF9091530492FD2EC048
:104600008C2F8F71CC20D9F218C0CC2069F0F4E047
:10461000FB1508F49FCECF7181E090E002C0880FB7
:10462000991FCA95E2F7B8CF25E02B1508F492CE72
:10463000F2CF8C2F8F71C110C2CF0E9494108ACEFE
:1046400090E080E0CC2009F49DCFCF7181E090E034
:1046500002C0880F991FCA95E2F794CFCC2061F071
:104660008C2F8F7192FFE9CF98E0899F90011124E0
:1046700023602093BF02E1CF81E00E947D10E1E042
:10468000EB1508F067CE82E00E947D1063CEBB2060
:1046900059F0893309F0DACEFFEF27EE33E0F1501D
:1046A00020403040E1F7D0CE8C2F8F7188CFFE01B3
:1046B000E851FC47E730F10508F4A5CBC6312CE7FB
:1046C000D20709F0ECCC80919E028111B7CC89E22F
:1046D0000E946A0812C08091EA02C631FCE7DF0737
:1046E00009F0AECC8A7A91E009F490E090939E02B2
:1046F0008111A2CC89E20E9495080E94B7119ACB41
:10470000CF93DF938091BE02807F09F04DC08091EE
:10471000BD02882309F448C0E091A70450916E04BB
:10472000C091B902D091B8026091BA027091BB02F7
:1047300047E05E17C9F18E2F90E0E49FF00111244D
:10474000E159FB4F2481222391F1489FF001499FB9
:10475000F00D1124DF01A159BB4F11962C91119737
:104760002C1325C02C912D1322C015962C91159732
:1047700021111DC012962D913C91261B370B283C10
:104780003105A8F48091BE028F7080618093BE02D3
:10479000EB58FB4F80818F708061808388EB92E0C3
:1047A0000E94B61E0E94B20FDF91CF910895FC01C6
:1047B0003196E770BECFA4E1B0E0E1EEF3E20C94F5
:1047C00087308C0186E0F801DE011F9601900D9282
:1047D0008A95E1F7F8018481E58098EBA92E92E0B3
:1047E000B92E9091BC02911128C0882319F1EE20B6
:1047F000F1F0C8010E94A910F82E8823C1F087E0CB
:10480000F801D50101900D928A95E1F78091BC02E3
:10481000813031F48091B8029091B9020E94F00F7A
:104820000E9480238F2D6496ECE00C94A330C80185
:104830000E94B61EFF24F394F5CFD080C180828001
:104840009380F090BD022091BA023091BB02A40186
:10485000421B530BFF2009F4D9C0483C510508F016
:1048600092C08823F9F29091B9028091BE02282F5C
:10487000207F09F056C0C91214C09091B802D91215
:1048800010C0E11048C08F7080618093BE0288EB39
:1048900092E00E94B61E8091BE02F8018683F12C40
:1048A000C1CFE11038C06C2D8D2D0E94CB066C2D30
:1048B0008D2D0E94CB06E82E8111F1CFDF86C88AAC
:1048C0008F8598890E94F00F292F22952F70243010
:1048D00058F49F70223088F0992399F0F80196815E
:1048E000907F79F4FE2C9ECF2A5F2F70223068F0E3
:1048F000C8010E94B61EEF2CF5CF992311F0882332
:1049000089F3805E883070F3F3CF803F58F3815F86
:10491000833070F7E7CF8091BE0281608093BE0242
:10492000BECFC91207C09091B802D91203C0EE20C1
:1049300009F48DC0C8010E94A910882309F477CF1B
:10494000EE2009F474CF8091BE02803288F020916D
:10495000B8023091B902398728879B868A86909160
:10496000BC029C871D868E87CE0108960E94B61ECB
:1049700087E0F801A8EBB2E001900D928A95E1F78B
:104980000E94802357CF9091BE02292F207F51F49F
:1049900088EB92E00E94B61E87E0F50111928A959D
:1049A000E9F77DCF882309F43DCF8091B9028C11BE
:1049B00010C08091B802D8120CC0E1100AC09683D2
:1049C000C8010E94B61E87E0F50111928A95E9F7A9
:1049D00029CFC8010E94A910882309F428CFEE200E
:1049E00009F425CF8091BE02803210F22091B802E6
:1049F0003091B9023A8329839C828B829091BC02C8
:104A00009D831E828F83CE010196B0CF483C510515
:104A1000D0F6882309F40ECFFE2CEE2009F407CF40
:104A20008091B9028C1120C08091B802D8121CC0AC
:104A30008091BE0280FD0FC0982F907F61F0868329
:104A4000903F31F0982F907F905F8F70892B8683F5
:104A5000C8010E94B61E87E0F801A8EBB2E0019001
:104A60000D928A95E1F7DECEC8010E94A91081114E
:104A70007FCF8091BE0281608093BE02C8010E94F8
:104A8000B61ED0CEABE1B0E0E8E4F5E20C948F3096
:104A90004E8B5F8B688F798F8A8F9B8F192F911127
:104AA0001092C1021D8A86E0FE017696DE011F96F5
:104AB00001900D928A95E1F70A8D002341F021E0E3
:104AC0004F85588969897A89C8010E94CC100B8B5F
:104AD0001C8B87E0FE013F96DE01189601900D9237
:104AE0008A95E1F7CE0108960E94DB2381110CC064
:104AF00087E0FE013896DE01119601900D928A95AD
:104B0000E1F78C8581110BC017E08091A70490918B
:104B10006E04891331C06B96E4E00C94AB302091A5
:104B20006E0430E0C9010196877099274091A7046F
:104B30004817190699F097E0929FD001939FB00D06
:104B40001124A159BB4FFE01319601900D929A9507
:104B5000E1F780936E040E94B20FD6CF0E949319A2
:104B600010926E041092A70487E0E8EBF2E0DF01F8
:104B70001D928A95E9F7C8CF819FC0011124815900
:104B80009B4F0E94DB23882331F28091A70490E0A1
:104B90000196877099278093A704B7CFACE0B0E067
:104BA000E4EDF5E20C9486308E010F5F1F4F88E034
:104BB000D8011D928A95E9F787E8C82E81E0D82EA2
:104BC000F12CE12CAA24A394B12C21E9822E21E01E
:104BD000922EF60181916F018F3F09F442C0F89443
:104BE000E82FE295EF70F0E021A18F70A50102C0DF
:104BF000440F551F8A95E2F7CA01922F982B91A373
:104C000092A18095892382A3789400C0EBE8F1E01B
:104C1000712C31E021912F3F09F4A3C0A22FA2955E
:104C2000AF70B0E090968C9190E02F7002C0959597
:104C300087952A95E2F780FD94C0832F782A330F59
:104C40008E169F0639F7F601319780818F3F11F05C
:104C50000E94250D50EA5A95F1F7F801EE0DFF1D5F
:104C600070828FEFE81AF80A94E0E916F10409F06F
:104C7000B0CF48E050E0B80186E293E00E940931ED
:104C8000009741F028E0F801A6E2B3E001900D9210
:104C90002A95E1F700912F0310E00E5C1C4F892B41
:104CA00009F461C081E08093EF020E946019909343
:104CB000EE028093ED02F12CE0904A04EE2009F41C
:104CC000ACC019861A861B861C86809121038A3007
:104CD00008F06DC046EF56E1BE01675F7F4FC80127
:104CE0000E94C812882309F487C04AE258E1BE0135
:104CF000675F7F4FC8010E94C812882309F47CC0F7
:104D000040EA56E1BE01675F7F4FC8010E94C812AA
:104D1000882309F471C040E058E1BE01675F7F4F0E
:104D2000C8010E94C812882309F466C010922103AA
:104D300080912E0390E044E050E0BE01675F7F4F1A
:104D40008E5C9C4F0E94093121E02093F602892B52
:104D500009F044C0E12C8E2D8F292C96EDE00C94A7
:104D6000A23080E06BCFF090EF02FF2009F4A3CFD8
:104D70008091ED029091EE020E945119059708F47E
:104D80009ACF44E050E066E273E0C8010E94093126
:104D9000892B59F084E0E6E2F3E0D80101900D920E
:104DA0008A95E1F71092EF0287CFF12CFBCF80912B
:104DB000F0029091F1020E945119843F914008F055
:104DC00089CF8091F602882329F2FE01399684E08A
:104DD000DF011D928A95E9F71092F602E0912E0309
:104DE000F0E0EE5CFC4F89859A85AB85BC858083BD
:104DF0009183A283B383AFCF809121038F3F31F0A2
:104E00008F5F809321038A3008F492CF0E9460194B
:104E10009093F1028093F002D4CFC0902E03D12C56
:104E2000F601EE5CFC4F6F0184E0F801A4E0B3E012
:104E300001900D928A95E1F784E093E00E94EA06E2
:104E40008093030384E0E8E0F3E0D60101900D9243
:104E50008A95E1F780900C0390900D03A0900E03CB
:104E6000B0900F038091F2029091F302A091F402AE
:104E7000B091F50288169906AA06BB06B1F0809299
:104E8000F2029092F302A092F402B092F5020E9414
:104E90005B08861A970AA80AB90A809222039092A0
:104EA0002303A0922403B092250388E0E0E1F3E01D
:104EB000A0EBB4E001900D928A95E1F74CCFA6E00B
:104EC000B0E0E5E6F7E20C948F300E9460198C01A7
:104ED0008091EB029091EC028017910781F019828A
:104EE0001A820E946019682F49815A81792F80E0C7
:104EF00090E00E9442251093EC020093EB0226966C
:104F0000E4E00C94AB301F921FB61F9211248F93D4
:104F10009F93AF93BF9380915404811113C08091EC
:104F2000550490915604A0915704B09158044196AD
:104F3000A11DB11D8093550490935604A09357046E
:104F4000B0935804BF91AF919F918F911F901FBE56
:104F50001F901895CDB7DEB762970FB6F894DEBFF5
:104F60000FBECDBF85B7806885BF85B7806885BF18
:104F700084B7877F84BF0FB6F894A89580916000AE
:104F8000886180936000109260000FBE80E890E01E
:104F90000FB6F89480936100909361000FBE81E09A
:104FA0008093440183E29DE09093750280937402A4
:104FB0000E9401070E94A2078091E2008460809312
:104FC000E2007894809164048823A1F01091E900B4
:104FD0001F709091EC00892F817090FD80E8182B54
:104FE0001092E9008091E80083FD0E94C4191F70AF
:104FF0001093E90082E084BD93E095BD9AEF97BDE0
:1050000080936E00109222031092230310922403C7
:105010001092250388EC90E01091E300111F1127F6
:10502000111F61F4AFE3BCE91197F1F700C0000074
:10503000019791F70E9401071092640410934A04AB
:1050400010934B041093280111110E940B2F809193
:1050500028018091280194E0811190E090932F0322
:1050600084E0891B80932E0384E90E94250D86E647
:105070000E94250D87E90E94250D86EC0E94250DD2
:105080000BE811E0F80181918F018F3F11F00E9430
:10509000250DF1E001391F07A9F788E0E2E3F3E00D
:1050A000DF01282F1D922A95E9F7E6E2F3E0DF0100
:1050B0001D928A95E9F790E080E00E943731853EA5
:1050C0009E4F09F461C065EE7EEF90E080E00E94A3
:1050D0006B3160E082E090E00E944D3181E090E031
:1050E000909331038093300361E083E090E00E946D
:1050F0004D3160E074E184E090E00E946B3160E04B
:1051000086E090E00E944D3160E087E090E00E94F0
:105110004D3140E050E0BA0188E090E00E945F31FC
:1051200060E083E290E00E944D3160E08CE090E02E
:105130000E944D3160E08DE090E00E944D31198277
:105140001A821B821C821D821E821F82188648E0E2
:1051500050E067E170E0CE0101960E943D3140E0F1
:1051600050E0BA018FE190E00E945F3140E050E0F2
:10517000BA018FE090E00E945F3140E050E0BA0158
:1051800083E190E00E945F3182E090E00E942F3145
:1051900080933A0384E090E00E9437319093530467
:1051A000809352040E94CE25EFEFF6E721E0E15014
:1051B000F0402040E1F700C000000E94CE25809121
:1051C0004B04E4E08111E0E0F0E0EE5CFC4F808114
:1051D00081FF08C06FEF7FEF90E080E00E946B31AD
:1051E0000E947E1283E090E00E942F3190E00E94A6
:1051F000A4100E947F0981E08093AF0448E050E052
:1052000067E170E080EB94E00E941F311092AF04E0
:105210008091B0048C7FF9F485E08093B004809194
:10522000490190914A01A0914B018093B104909360
:10523000B204A093B3048FE78093B4048FEF8093FC
:10524000B50448E050E067E170E080EB94E00E9434
:105250003D311092AF0480914A048111B7C082E0C1
:105260008093700380E88093B8040E94A92D6BE0BE
:1052700070E08FED92E00E94FB128823E9F18091AB
:10528000700365E070E081FDA3C08AED92E00E94AA
:10529000FB12882389F16DE070E088EC92E00E94B7
:1052A000FB12882349F10E945B08605A75418F4FB9
:1052B0009F4F609395037093960380939703909309
:1052C0009803EBEBF4E080E092E0DF019C011D929B
:1052D00021503040E1F7F093C206E093C1068FEF12
:1052E0009FEF9093BA048093B90481E080939A036E
:1052F000809399031092710380914A04811102C036
:105300000E940E2F89E291E090934F0480934E0407
:105310002AE0422E512C612C712CFF24F3948091B1
:10532000640410E400E192E1E92E853009F48AC0BA
:105330000E94CE250BE313E082E3C82E83E0D82E33
:10534000D601F80191918D9123E433E02E173F07A8
:1053500009F482C09817B1F330904A04E12CD601C9
:10536000BD906D01F80181908F018B1431F18B2478
:10537000A12C99249394882D8921B9F03320A9F088
:10538000A986EA860E9460199C878B87F1E0FD87D9
:1053900091E08B2D892109F490E09E8749855A85FB
:1053A0006B857C858D850E944225A394990C26E00F
:1053B000A212E1CFF8013197B082E39438E0E31212
:1053C000CECF0E943C0DEE24E3944BC080E048CF4A
:1053D00085ED92E05CCF80916404843039F10E94C5
:1053E0004B130E9408131092540468E170E00FB64A
:1053F000F894A895609360000FBE1093600083B787
:10540000817F846083BF83B7816083BF78948895F0
:1054100083B78E7F83BF0FB6F894A8958091600004
:10542000886180936000109260000FBE0E94CE25BC
:10543000E2E3F3E08191811110C38AE393E08E17D8
:105440009F07C1F780916404853009F4C4CF0E949E
:1054500093190E9413096CCF98137ECF0E945F2787
:10546000E12C0E944B1380919A03882309F4B6C063
:1054700080917203909173030E945119C29708F4AE
:105480008DC00E94601990937303809372038BEB1D
:1054900094E09093C2068093C10680914A048823C9
:1054A00009F4C4C18BE093E00E9471112091430381
:1054B00030914403832F9927009751F19C0188E094
:1054C000A901B4E056954795BA95E1F74115510504
:1054D00011F08C5F9A01A90156954795569547950D
:1054E0004115510511F08E5F9A0136952795232BB2
:1054F00009F08F5F813009F453C1882359F082305D
:1055000009F451C1833009F451C18AEE92E004C01C
:1055100080E0D6CF83E093E00E94B11180914F03E9
:10552000805D0E94F11089E193E00E9471118091E9
:105530004E03805D0E94F11085E193E00E9471119D
:1055400080904C0390904D032091330130913401B1
:105550008216930609F02DC120914B03203209F0E9
:1055600028C1E5E4F3E08F0181918032E1F3F80195
:1055700001900020E9F79F012150310969010C15C4
:105580001D0508F44DC183E193E00E9471118091E3
:1055900035010E94F11081E00E947F118091B904D1
:1055A0009091BA04892B09F06FC1809199038823E7
:1055B000A9F00E945B080091950310919603209139
:1055C000970330919803601B710B820B930B6F3F15
:1055D0007F4F8F4F9F4710F40E940813E1100E94E5
:1055E000231386E0E4E4F4E0DE01119601900D92CD
:1055F0008A95E1F7C090450400914604E090470485
:10560000D090480410914904109246041092470427
:105610001092480410924904802F8E2909F445C045
:1056200080914204909143040E9451199C019091F1
:105630003D04992309F436C225313105B0F19F3F6D
:1056400019F09F5F90933D04002359F00E94460992
:105650009FEF10160CF491E0899F802D1124809308
:105660004604EE2059F00E94460991E01E140CF009
:105670009FEF899F802D11248093470480914604D9
:10568000882399F0B0904704BB2079F00E94660906
:10569000882309F4D6C1809346048B2D0E946609A5
:1056A000882309F4D1C180934704812F8D2909F4FF
:1056B00045C080914004909141040E9451199C0181
:1056C00090913E04992309F4E8C121353105B0F1E8
:1056D0009F3F19F09F5F90933E04DD2059F00E9498
:1056E00024099FEF1D140CF491E0899F802D112453
:1056F00080934804112359F00E94240991E0111667
:105700000CF09FEF899F802D112480934904809194
:105710004804882399F0D0904904DD2079F00E9454
:105720006609882309F493C1809348048D2D0E9453
:105730006609882309F48EC1809349048091450449
:105740008C1117C080914604882311F0801311C07A
:1057500020914704222311F02E110BC0909149048F
:10576000992311F0191305C030914804332309F42B
:105770008FC10E946C1986E0FE013196A4E4B4E06A
:1057800001900D928A95E1F70E941309909174039C
:10579000891709F4C4CD809374030E945B08BDCDC2
:1057A0008DEF92E0B9CE87EF92E0B6CE80EF92E037
:1057B000B3CE909234018092330120E220934B03C8
:1057C000B12CA12C10924A0375E4272E73E0372EDA
:1057D000E0E4CE2EE3E0DE2E8101C501B401A30199
:1057E00092010E94D830605D603319F420163106B2
:1057F00031F081149104A104B10409F460E2D801EC
:1058000014966C93C501B401A30192010E94D83093
:1058100049015A0101501109C016D106F1F6A1CE75
:10582000D8018D918D010E94F110A9CE2091B9046B
:105830003091BA04ABEBB4E090E080E0FC01E55EAF
:10584000FC4F64914D916417A9F0AD01415051098D
:10585000FA016083AC0165E0569547956A95E1F7DA
:1058600061E070E002C0660F771F4A95E2F7AB0176
:10587000262B352B0196811572E09707F9F63093A8
:10588000BA042093B9048ACE80919A03882309F43C
:105890008CCE80917103811188CE0E9423132091B8
:1058A000B9043091BA042115310509F47ECE80E0A7
:1058B000082F10E088248394912C082E02C0880CB5
:1058C000991C0A94E2F7A40142235323452B11F4B7
:1058D0008F5FEECF9091700390FF99C0880F880F73
:1058E000880F8093380110923B01895F80933901C2
:1058F00083E080933C0124E630E047E050E066E33B
:1059000071E088E70E94DD2D892B09F04ECEB801A9
:1059100095E0660F771F9A95E1F78091700380FFFD
:1059200088C080E2A0E5B3E01D928A95E9F7E5E939
:10593000F1E0FA8BE98B41E951E087E0C82EE98973
:10594000FA89A191FA8BE98BFA018191AF01860F57
:10595000972F911D9C0125543B4F388B2F87EA2FA1
:10596000F0E0E05BFC4F90E080E0AC2CA81ADD2476
:10597000D394082E01C0DD0C0A94EAF72F843888EE
:1059800000E0D1011D911D011D212A2D201B277032
:10599000B22E022E000C330BB12F01C0BB0FBA94F4
:1059A000EAF7BB2E3195219531092770332701C0C5
:1059B00016952A95EAF7B12A1081B12AB0820F5FB5
:1059C0000830F9F6019631968830910571F6E9892B
:1059D000FA89E959F14009F0B2CF04E610E020E27B
:1059E00030E040E553E060E488E70E94672E892BB1
:1059F00009F0DBCD809490948091B9049091BA0421
:105A0000882299229092BA048092B904CECD8295D0
:105A1000880F8076809338019801369527953695C2
:105A2000279520933B01815E8093390120933C01AF
:105A300062CFAB0145545B4F04E610E020E230E05A
:105A4000D2CFF092460429CEF09247042ECEF092A7
:105A500048046CCEF092490471CE8091630488238F
:105A600009F4F0CC09BDE9BC09B400FEFDCF80917A
:105A7000D8008F7D8093D8008091E0008260809371
:105A8000E0008091E00081FDFCCF0E949319DACC08
:105A9000822B892B09F46FCE6CCE2B30310508F0A8
:105AA00019CE4CCE2B30310508F0CBCDFECDEF9288
:105AB000FF920F931F93CF93DF93182FEB01109258
:105AC000BC0084EA8093BC000E9460197C01809134
:105AD000BC0087FF27C08091B900887F883029F0FB
