:100000000C9441060C9479060C9479060C94C32C3C
:100010000C9479060C9479060C9479060C94790664
:100020000C9479060C9479060C94971B0C94531B32
:100030000C94E4250C9479060C9479060C947906BA
:100040000C9479060C9479060C9479060C94790634
:100050000C9479060C947E1C0C9479060C94790609
:100060000C9479060C9479060C9479060C94790614
:100070000C9479060C9479060C9479060C94790604
:100080000C9479060C9479060C9479060C947906F4
:100090000C9479060C9479060C9479060C947906E4
:1000A0000C9479060C9479060C9479062020202073
:1000B0006162636465666768696A6B6C6D6E6F70B8
:1000C0007172737475767778797A31323334353664
:1000D00037383930524542545F2D3D5B5D5C233BE0
:1000E00027602C2E2F2020202A000F00150006004C
:1000F0000A00090028001631112417380B3D074269
:1001000031321D0019001A00100005000000000027
:100110000000AD3D2C42E300167C33003600370072
:1001200013001C002B44042112240828183D0C4203
:100130003822340014000D000E001B0000000000E7
:100140000000E0002C41E2002500230021001F00F8
:10015000270026001E0230002E02270225022E0054
:100160004500440043004200410040000000000000
:10017000000000002C430000230222022400220081
:1001800020001E00210224022F002F02300226022E
:100190003A003B003C003D003E003F0000000000F4
:1001A00000000000010000004C00D900D200CD008A
:1001B000D10046002D00DA00D000CE00CF0048006C
:1001C000DF00DE00DC006500DB00DD000000000079
:1001D000000000000100000049004B004A005200EE
:1001E0004D00A90039004E00500051004F00A800FA
:1001F0001F022002AC00AE00AB00AA00000000000D
:10020000000000002C43000000000000000000007F
:1002100000000000000000000478007805780278F3
:10022000000000000178017806780000000000005E
:100230000000000000000100007C00000000000041
:10024000000000002078237825782778297800009E
:1002500021782478267828782A7800000000000089
:10026000000000000000010000002D0026006000DA
:100270005F002E020000380023002200210025022A
:100280000000360020001F001E00370000000000A4
:1002900000002E0027000000000000000000000009
:1002A000000000000000000000000000000000004E
:1002B000000000000000000000000000000000003E
:1002C000000000000000000000DA0281FFD9F1DB2D
:1002D00020A4A62EAF00A0C0D30000A1C8D3000068
:1002E000AED580A81F408D142000556E6465660051
:1002F00041646A757374005261697365004C6F776D
:1003000065720044656661756C74004C6179657254
:100310003A20003A002C206B00780000000000001A
:10032000FEFFFFFFFFFFFFFFFFFFFFFFFFFFFFFFDE
:10033000FFFFFFFFFFFFFFFFFFFFFFFFFFFFFFFFCD
:10034000FFFFFFFFFFFFFF0F0F0F0F0FFFFFFFFF6D
:10035000FFFFFFFFFFFFFFFFFFFFFFFFFE000000AB
:10036000000000000000000000000000000000008D
:10037000000000000000000000000000000000007D
:10038000000000000000000000000000000000006D
:10039000000000000000000000000000000000005D
:1003A000FFFFFFFF8383838383FFFF83838383FFB9
:1003B000FF8383838383FFFF83838383FFFF8383A1
:1003C000838383FFFFFFFF8282828282FFFF83831A
:1003D0008383FFFF8383838383FFFFFFFF0000008E
:1003E00000000000000000F8FCFCFC9C9CFCFCF8F9
:1003F000F870000000000030787C3C9CFCFCF8F0B9
:100400000000000000C0F0F8F83C3C9CBCFCB8B810
:10041000A00000000000000000000000000000003C
:10042000FFFFFFFF4141414141FFFFFFFFFFFFFF92
:10043000FF4141414141FFFFFFFFFFFFFFFF4141FE
:10044000414141FFFFFFFF4141414141FFFF7F7FAC
:100450007F7FFFFF4141414141FFFFFFFF0000005F
:10046000000000000000003F3F3F3F03070F3F3FF9
:100470003E382000000000383C3E3F3F3F3B3938CB
:100480000000000000070F1F3F3C383B3B3F1F1F91
:100490000F0000000000000000000000000000004D
:1004A0007FFFFFFFF0F0F0F0F0FFFFFFFFFFFFFF27
:1004B000FFF0F0F0F0F0FFFFFFFFFFFFFFFFF0F0B5
:1004C000F0F0F0FFFFFFFFF0F0F0F0F0FFFFF0F0D2
:1004D000F0F0FFFFF0F0F0F0F0FFFFFF7F00000012
:1004E000000000000000000000000000000000000C
:1004F00000000000000000000000000000000000FC
:1005000000000000000000000000000000000000EB
:1005100000000000000000000000000001010101D7
:1005200001010101010202020202020202020303AE
:10053000030303030303040404040404040505057E
:100540000505060606060607070707070808080840
:10055000090909090A0A0A0B0B0B0C0C0C0D0D0DED
:100560000E0E0E0F0F0F1010111111121213131483
:1005700014151516161717181819191A1A1B1B1CFB
:100580001D1D1E1E1F202021222223242425262655
:10059000272829292A2B2C2D2D2E2F30313232338A
:1005A0003435363738393A3B3C3D3E3F4041424393
:1005B0004445464748494A4C4D4E4F505153545577
:1005C0005658595A5B5D5E5F616264656668696B27
:1005D0006C6D6F7072737577787A7B7D7E808283A5
:1005E0008587888A8C8E8F91939596989A9C9EA0E9
:1005F000A2A3A5A7A9ABADAFB1B3B5B7BABCBEC0F6
:10060000C2C4C6C9CBCDCFD1D4D6D8DBDDDFE2E4BE
:10061000E7E9EBEEF0F3F5F8FAFDFF00AF00AE0509
:10062000010980A101850319012AB700150126B728
:1006300000950175108100C0050C0901A101850418
:1006400019012AA002150126A0029501751081004A
:10065000C005010906A1018506050719E029E7156E
:100660000025019508750181020507190029EF157C
:1006700000250195F07501810205081901290595EC
:100680000575019102950175039101C005010906E7
:10069000A101050719E029E7150025019508750155
:1006A00081029501750881010507190029FF1500D0
:1006B00026FF009506750881000508190129051512
:1006C000002501950575019102950175039101C001
:1006D00009023B00020100A0FA0904000001030125
:1006E00001000921110100012244000705810308CE
:1006F00000010904010001030000000921110100AB
:1007000001226D0007058203200001120100020092
:10071000000008534601000100010200010C0343E0
:10072000006F0072006E0065000000100366006F2D
:10073000006F007300740061006E00000004030984
:10074000040000000000003E5B4F5B3E003E6B4F2C
:100750006B3E001C3E7C3E1C00183C7E3C18001C7E
:10076000577D571C001C5E7F5E1C0000183C180063
:1007700000FFE7C3E7FF00001824180000FFE7DBD5
:10078000E7FF0030483A060E002629792926004066
:100790007F05050700407F05253F005A3CE73C5A8E
:1007A000007F3E1C1C0800081C1C3E7F0014227F9A
:1007B0002214005F5F005F5F0006097F017F000079
:1007C0006689956A0060606060600094A2FFA294F0
:1007D0000008047E04080010207E20100008082A6B
:1007E0001C0800081C2A0808001E10101010000C1D
:1007F0001E0C1E0C0030383E383000060E3E0E0631
:100800000000000000000000005F00000000070082
:10081000070000147F147F1400242A7F2A1200236B
:100820001308646200364956205000000807030090
:1008300000001C224100000041221C00002A1C7FF5
:100840001C2A0008083E08080000807030000008DC
:10085000080808080000006060000020100804027A
:10086000003E5149453E0000427F40000072494928
:100870004946002141494D33001814127F100027CA
:1008800045454539003C4A49493100412111090794
:1008900000364949493600464949291E00000014DE
:1008A0000000000040340000000008142241001441
:1008B00014141414000041221408000201590906FE
:1008C000003E415D594E007C1211127C007F494967
:1008D0004936003E41414122007F4141413E007F77
:1008E00049494941007F09090901003E41415173CD
:1008F000007F0808087F0000417F41000020404140
:100900003F01007F08142241007F40404040007FAB
:10091000021C027F007F0408107F003E4141413EDF
:10092000007F09090906003E4151215E007F091937
:1009300029460026494949320003017F0103003F4F
:100940004040403F001F2040201F003F4038403FB4
:100950000063140814630003047804030061594918
:100960004D4300007F414141000204081020000077
:100970004141417F000402010204004040404040E8
:10098000000003070800002054547840007F2844EA
:10099000443800384444442800384444287F003810
:1009A000545454180000087E0902001824241C78AE
:1009B000007F080404780000447D4000002040408F
:1009C0003D00007F102844000000417F4000007C73
:1009D00004780478007C08040478003844444438DF
:1009E000007C1824241800182424187C007C080497
:1009F00004080048545454240004043F4424003C98
:100A00004040207C001C2040201C003C4030403CEA
:100A1000004428102844004C9090907C004464547A
:100A20004C44000008364100000000770000000040
:100A300041360800000201020402003C2623263C45
:100A400000000000000000000000000000000000A6
:100A500000C0E0F0F8F81800C0F0FCFEFFFFFFFF58
:100A6000FFFFFF7E00000000000000000080C0E0EB
:100A7000E0E0E0E0E0E0E0C0800000000080C0E0F6
:100A8000E0E0E0E0E0E0E0C080000000E0E0C0C0C6
:100A9000E0E0E0E00000E0E0C0C0E0E0E0E0E0C076
:100AA000800000000080C0E0E0E0E0E0E0E0E0C0C6
:100AB000800000000000000000000000000000E0D6
:100AC000F0F0F0E0ECEEF7F37020007C7C7C7E0030
:100AD0007E7E7E7F7F7F000080C0E07E5B4F5BFE7E
:100AE000C00000C000DCD7DEDEDED7DC00C00000C6
:100AF00000000000000000000000000000000000F6
:100B000000000000000000000000F8FCFEFFE00014
:100B1000FFFFFFFFFFFF80FFFFFFFFFFFFFFFFFF64
:100B20001F0701000000000000000000FFFFFF8120
:100B300000000000000081C3C3C30000FFFFFF816D
:100B400000000000000081FFFFFF0000FFFFFF0129
:100B5000000000000000FFFFFF010000000001FF97
:100B6000FFFF0000FFFFFF9D1C1C1C1C1C1C9DDFC9
:100B7000DFDF000000000000000000000000000FA8
:100B80001F3F7F7F7F7F7F3F1E0C001F1F1F3F0087
:100B90003F3F3F7F7F7F00307B7F78302020307861
:100BA0007F3B0003000F7F0F0F0F7F0F000300003C
:100BB0000000000000000000000000000000000035
:100BC00000000000000000000000030F1F3F3F3F37
:100BD0003F1F1F3F3F7F7F7F3F3F1F3F7F7F7F7FC5
:100BE0007C7878381C0F000000000000000103072B
:100BF00007070707070707030100000000010307B5
:100C0000070707070707070301000000070707009A
:100C100000000000000007070700000000000007B8
:100C20000707000000010307070707070707070377
:100C300001000000000000000000000000000000B3
:100C400000000000000000000000000000000000A4
:100C50000000000000000000000000000000000094
:100C60000000000000000000000000000000000084
:100C70000000000000000000000000000000000074
:100C8000000011241FBECFEFDAE0DEBFCDBF04B6F7
:100C900003FE18C08091B6069091B706A091B806E1
:100CA000B091B9068730904BA740B04B59F41092E1
:100CB000B6061092B7061092B8061092B906E0E098
:100CC000F8E3099512E0A0E0B1E0E8E9FEE502C032
:100CD00005900D92A437B107D9F726E0A4E7B2E05A
:100CE00001C01D92A63BB207E1F70E940B260C94AF
:100CF000E32E0C9400009091A304937071F0809304
:100D0000A4046093A504493708F048E74093A6047B
:100D10008091A20481608093A20408959091A3041D
:100D2000937061F081110BC094609093A3041092B2
:100D300048018091A20481608093A20408958031CB
:100D400010F09C63F2CF880F880F982BEECF482FBE
:100D500020919A049091610457E0291302C080E029
:100D6000089530E0529FF001539FF00D1124EE5989
:100D7000FB4F8181681306C08081481303C08581C1
:100D80008111EECF2F5F3F4F2770E7CFFC01AC0101
:100D90004C5F5F4F8FEF91E32191822728E030E095
:100DA00087FF09C0880F892721503109C9F7E41747
:100DB000F50791F70895880FF7CFE8EDF0E080810F
:100DC0008E7F80831092E2001092DA001092E10090
:100DD000A0EEB0E08C9181608C9380818F778083CE
:100DE00019BCA7EDB0E08C918E7F8C9380818F7EB3
:100DF000808310924C0408952091E4003091E50026
:100E000095E6A9012091EC00822F817020FF06C099
:100E10008091E80080FF06C080E008952091E800FE
:100E200022FD1AC080915704882389F0853089F00B
:100E30008091EB0085FD0FC02091E4003091E5002A
:100E400042175307F9F29150E1F684E0089582E0E9
:100E5000089583E0089581E008958091590487FF03
:100E600013C08091E80082FF06C08091E8008B7774
:100E70008093E80004C0809157048111F2CF089557
:100E8000809157048823D9F38091E80080FFF8CF40
:100E90008091E8008E77ECCF982F9093E900242F73
:100EA000762F50E0891731F07091EC002091ED0021
:100EB0005091F00021FD07C09F5F973071F780933C
:100EC000E90081E008953091EB003E7F3093EB0024
:100ED0003091ED003D7F3093ED003091EB003160BB
:100EE0003093EB007093EC002093ED005093F000F2
:100EF0002091EE0027FDE0CF80E00895B0E0A0E073
:100F0000E4E8F7E00C94FD2DC8EDD0E088818F7EF9
:100F10008883E7EDF0E080818160808384E082BF98
:100F200081E080934C0488818E7F888302EE10E0FC
:100F3000F80110821092DA0081EEC82ED12CF60151
:100F4000108288818F7788838881806888838881F0
:100F50008F7D888319BC1092570410925804109208
:100F600056041092550490EEE92EF12CF701808181
:100F70008B7F808388818160888342E060E080E0AD
:100F80000E944C07F60180818E7F8083F80180816A
:100F900081608083808188608083F70180818E7F7B
:100FA0008083888180618883CDB7DEB7E8E00C94C8
:100FB000192EFC0180915F049091600486179707B9
:100FC000A0F06115710529F49091E8009E77909347
:100FD000E80090E06115710551F4911108C080910D
:100FE000E80082FF34C080E00895BC01F2CF809118
:100FF00057048823C1F18530C1F18091E80083FD59
:1010000030C08091E80082FDEACF8091E80080FF47
:10101000E1CF8091F3002091F200382F6115710526
:1010200019F02830310558F091E02830310509F0E9
:1010300090E02091E8002E772093E800CBCF8191BB
:101040008093F100615071092F5F3F4FE7CF80918E
:101050005704882341F0853041F08091E80083FFF8
:10106000BECF81E0089582E0089583E00895089559
:101070002FB7F894609148047091490480914A0414
:1010800090914B042FBF0895809142010895909153
:1010900043019130D1F49091450497FF16C0E82F99
:1010A000E695E695E695EE31E0F4F0E0E258FD4F86
:1010B000282F277081E090E001C0880F2A95EAF779
:1010C00080959281892382830895E8E7F2E09191E7
:1010D000891303C0DF0111971C9292E0EE37F907E4
:1010E000B1F70895909143019130C1F49091450476
:1010F00097FF14C0E82FE695E695E695EE31F8F4F3
:10110000F0E0E258FD4F877021E030E001C0220F8F
:101110008A95EAF78281822B82830895A8E7B2E05C
:10112000EFEF90E02D91821751F0EF3F19F421116C
:1011300001C0E92F9F5F9630A9F7EF3F09F40895AA
:101140000E2E000CFF0BEA58FD4FE6CFA3E0B0E0F7
:10115000ECEAF8E00C94032E20914304309144040F
:1011600028173907A1F09093440480934304E09139
:101170004104F0914204309751F024E029839B838D
:101180008A830084F185E02DCE010196099523968E
:10119000E2E00C941F2EA3E0B0E0E1EDF8E00C9447
:1011A000032E20913F043091400428173907A1F005
:1011B0009093400480933F04E0914104F0914204F5
:1011C000309751F023E029839B838A830084F18543
:1011D000E02DCE01019609952396E2E00C941F2E96
:1011E00080913D04882359F0E0914104F09142043C
:1011F000309729F00190F081E02D0995089580E065
:101200000895FC01EE0FFF1FE80FF91FE556FC4F94
:101210006183408322830895539A0895E3EAF4E0BA
:10122000248130E1231B08F420E024838091A20470
:1012300081608093A2040895E3EAF4E0248130E120
:10124000230F08F42FEF24838091A2048160809300
:10125000A2040895E3EAF4E0438120E1421B08F48C
:1012600040E08181628190E00E947B060895E3EA7C
:10127000F4E0438120E1420F08F44FEF8181628165
:1012800090E00E947B060895E3EAF4E0628120E1A9
:10129000621B08F460E08181438190E00E947B063C
:1012A0000895E3EAF4E0628120E1620F08F46FEF51
:1012B0008181438190E00E947B060895E3EAF4E097
:1012C0008181438162818850990B0E947B06089539
:1012D000E3EAF4E0818190E04381628108960E9414
:1012E0007B0608958091A30486958695815009F424
:1012F0008FE00E948E0608958091A30486958695BE
:101300008F5F803108F081E00E948E060895E3EA45
:10131000F4E0808191E089278083109248018091D8
:10132000A20481608093A20408959BE0899F802D90
:101330001124980F973308F096E320913E0422235E
:1013400021F09C3128F09BE108958B3108F48BE16A
:101350000895322F50E0FA01EE0FFF1FEF55FE4FB8
:1013600091A9905297FD9195440F551FFA01EF52A4
:10137000FE4F2081231B330B290F311D97FD3A951A
:10138000620F0895622F0895E42FF0E0EE0FFF1F23
:10139000EF52FE4F408134EE439F412D1124E82F40
:1013A000F0E050E0445E5F4FDA01A21BB1099D01FD
:1013B000B7FF03C031952195310993E0220F331F08
:1013C0009A95E1F7AF01421B530B9A0157FD20E0BC
:1013D000582F259F212D1124822F0895E42FF0E00E
:1013E000EE0FFF1FEF52FE4F408134EE439F412D21
:1013F0001124E72FF0E050E0445E5F4FDA01A21BBA
:10140000B1099D01B7FF03C031952195310993E0E2
:10141000220F331F9A95E1F7AF01421B530B9A013C
:1014200057FD20E0279F212D1124722F0895309120
:101430003E04311104C08B3191050CF04B970E9492
:1014400001090895FF920F931F93CF93DF93182FF5
:10145000062FF42ED0E0C0E02F2D402F612FCE01BB
:101460000E94170A2196C633D105B1F7CDB7DEB772
:10147000E5E00C941C2EFC019B01009729F480E010
:1014800077FF2BC080E80895AC0197FF04C0442784
:101490005527481B590BB901640F751F37FD10C044
:1014A000241B350BC901A5E0880F991FAA95E1F708
:1014B0000E94362E80E2861BF7FF0FC081950895AB
:1014C000CB0165E0880F991F6A95E1F7BA01621BAD
:1014D000730B0E94362E80E6EECF0895EF920F93A5
:1014E000CF93DF93D72FC82FC9010E19BA010E94DD
:1014F0003B0A602F681B7D2F8C2FDF91CF910F91BE
:10150000EF900895EF920F931F93CF93DF93D62F11
:10151000C72F182FC9010E19010FBA010E943B0AEB
:10152000081B202F219F212D1124822F6D2F7C2F0E
:10153000DF91CF911F910F91EF900895EF920F934C
:101540001F93CF93DF93D62F172FC82FC9010E19E2
:10155000070FBA010E943B0A702F781B719F712DF3
:1015600011246D2F8C2FDF91CF911F910F91EF9050
:101570000895E82F86FDE0952E2F2F7086FD2F5FB2
:10158000E695E695E695E670F0E0E756FE4F918128
:10159000929F902D212D112492959F702295207F4E
:1015A000922B2081920F87FD919580E8890F0895F5
:1015B0001F93CF93DF93D62FC72F182F822F869597
:1015C0000E94B90A805887FD8195880F282F219F96
:1015D000212D1124822F6D2F7C2FDF91CF911F9110
:1015E000089540913D0150913E0125E038E0429F31
:1015F000C001439F900D529F900D1124875E994C1E
:1016000090933E0180933D01890F089530E020E0E2
:10161000869F212D969F200D311D1124C90108950B
:10162000982F80913E04882329F081E09B3128F097
:1016300080E003C081E09633D8F70895B0E0A0E0E1
:10164000E4E2FBE00C94FD2D9B01E82FF0E0E55E69
:10165000FA4F311109C0E4918E2F7E2F6E2FCDB736
:10166000DEB7E8E00C94192EE32EF12CE491FE2F66
:101670000E2F10E046E0649FC0011124CFEFD0E0B0
:10168000BE010E94DF2DAB01822F90E0880F991FD1
:1016900025E5249FB001259F700D1124861B970B13
:1016A000982F990F980FBE016E197F09609FD00186
:1016B000619FB00D709FB00D11248B2F399F900149
:1016C0001124232F3327BE01621B730B609F9001EF
:1016D000619F300D709F300D11246E01C91AD10821
:1016E000CE9CB001CF9C700DDE9C700D1124672F35
:1016F0007727C61BD70BC09F7001C19FF00CD09FEE
:10170000F00C11247F2D42305105A1F050F4411509
:10171000510509F4A3CF4130510581F07B2F832F70
:101720009DCF4430510569F080F04630510509F4F1
:1017300095CFF4CFEB2F8F2D7F2F90CF7E2FE32FE0
:101740008DCFEF2D7B2F8F2F89CF732FEB2FFBCFDB
:10175000B0E0A0E0EEEAFBE00C94FE2D8C01FC0171
:10176000E35CFD4F8081682341F1D090A504D091C6
:10177000A604C091A404EC2EF12C0E94F10A282F9B
:10178000C7018C549F4F68E671E00E94362E8E1977
:101790009F0997FD03969595879595958795237055
:1017A0006C2F289F600D11247D2D8D2F0E941E0B04
:1017B000472F282FC8010E94170ACDB7DEB7E7E0F0
:1017C0000C941A2EB0E0A0E0E8EEFBE00C94FB2DA8
:1017D0005C01809145010E949509C82F192F6091E5
:1017E000A704669580919B0490919C040E94060B2F
:1017F000F82ED0E0CE01880F991F9C012F553E4F47
:101800006901C11740F0812F0E94100BCDB7DEB7E0
:10181000EAE00C94172EFE01E35CFD4F808190916D
:101820004601892309F450C0D601D0964C91D09737
:101830004057550BD1962C912052330B449FB00149
:10184000459F700D700D1124229FC001239F900DA4
:10185000900D1124860F971F082F8230910520F1DB
:10186000EFEF813EBEE19B0738F4FC01B5E0F69551
:10187000E795BA95E1F7E85FF1E0AF2FAE0FBB2730
:10188000BB1FBD0175956795062F669FD001679FA9
:10189000B00DB00D11248A179B07D8F4EFEFE60FB7
:1018A000EF1758F70FEF0F0F6091A4047091A50484
:1018B0008091A604EF2CF50109950E941E0B472F7D
:1018C000282FCE010E94170A2196F2E0CF0ED11CDC
:1018D00098CF6F3F49F3F1E0F60FE2CFEF92FF921E
:1018E0000F931F93CF93DF937C01809145010E945A
:1018F0009509C82F192F6091A7046695669521E078
:10190000620F08F46FEF80919B0490919C040E94F9
:10191000060B082FD0E0C11740F0812F0E94100B5A
:10192000CDB7DEB7E6E00C941B2EFE01E35CFD4F65
:10193000808190914601892389F06091A40470917F
:10194000A5048091A604202F4C2FF70109950E9431
:101950001E0B472F282FCE010E94170A2196DBCF9E
:1019600080E00895F894E82FE295EF70F0E031A15F
:10197000282F2F7081E090E001C0880F2A95EAF7A8
:10198000982F9095932391A392A1892B82A3789469
:1019900008950F931F9380913D04882329F00E949E
:1019A00038081F910F9108950E9438080091220372
:1019B000109123032091240330912503600F711FA0
:1019C000821F931FEECF9091450492FF10C041E01B
:1019D000282F2471243009F040E031E0282F2871AD
:1019E000283009F030E0431711F02CE0822793FFF4
:1019F00010C041E0282F2471243109F040E031E08B
:101A0000282F2871283109F030E0431711F02CE01D
:101A100082273091460430FF10C051E0282F2171F9
:101A2000213009F050E041E0282F2871283009F0DA
:101A300040E0541711F029E0822731FF10C041E047
:101A4000282F2171213109F040E031E0282F287141
:101A5000283109F030E0431711F029E0822794FD86
:101A6000877E089582389105B9F1B0F481339105EC
:101A700009F47DC048F48932910509F46DC08A32B9
:101A8000910509F47BC008958533910509F45FC081
:101A90008933910509F10895833E9105D9F138F410
:101AA000803E910529F1823E910579F10895863EA7
:101AB0009105D9F1873E910509F43EC0843E910518
:101AC00041F52091460421FF24C08091450484FD06
:101AD00019C087EE90E0089520914504237009F025
:101AE0005AC02091460423FF14C089E290E0089573
:101AF0002091450420FD38C03091460430FF09C0D4
:101B000024FF43C090E080E008952091450422FD29
:101B1000F7CF08952091450422FD3AC03091460444
:101B200030FD39C024FFF5CFEDCF2091450423FFD0
:101B3000F0CF24FDE7CFCDCF2091450423FD2EC06B
:101B40003091460431FFEECF84EE90E0089520916D
:101B5000450425FFDECFC9CF2091450425FD21C0D6
:101B60002091460423FFD5CF89E390E0D2CF209186
:101B7000450426FFCECF8AE290E0089520914504E7
:101B800026FFC7CF81E390E0089583EE90E00895AB
:101B900082EE90E0089580EE90E0089586EE90E069
:101BA000089585E390E00895972F7830B8F4663073
:101BB000A8F48530B0F470E026E0929F600D711DAE
:101BC0001124FB0190E3899FE00DF11D1124EE0F1C
:101BD000FF1FE851FF4F85919491089580E090E0B8
:101BE000089581E0FCCF1F93CF93DF930E94320DC5
:101BF000EC01C11580E5D807F0F5C11580E4D807E0
:101C000008F09CC0C03ED10520F5CD3CD10508F0C0
:101C100082C0C83AD10578F4C53AD10508F073C03E
:101C2000C130D10519F1209709F1C430D105F0F484
:101C3000D0E0C0E01BC0C33CD105D0F7C85AD0E00B
:101C4000CC0FDD1FC15BDE4F0990D881C02DD4645D
:101C50000DC0C11580E2D80708F0D1C0C11581E0E0
:101C6000D80708F05AC0C83ED10510F7CE01DF9161
:101C7000CF911F910895C03682E5D80718F5C0347A
:101C800082E5D80708F06BC0C03282E5D80708F0BB
:101C90005FC0C11582E5D80708F497C02C2F2695A0
:101CA000269580E2289F900111248C2F8370C1E03B
:101CB000D0E002C0CC0FDD1F8A95E2F7C22BD32BF8
:101CC000DD68D4CFC03A82E5D80760F4C03882E539
:101CD000D80708F459C0CF71D0E0DC2FCC27C46FEF
:101CE000D06AC4CFC03C82E5D80708F462C0C03EC9
:101CF00082E5D80708F09CCFDC2FCC27CC27DF71FA
:101D0000C06FD06AB3CFC55AD0E0C45BDE4FC88184
:101D1000D0E0D064ABCFD065A9CF8D2F0E94E30C6B
:101D2000182FCE0199270E94320DC12FD0E0DC2F51
:101D3000CC27CC27DF71C82BD92B98CFCE01992780
:101D40000E94320DCC27DF70C82BD92BD06A8ECFE2
:101D5000CF71D0E0DC2FCC27C16FD06A87CF2C2F7A
:101D600026952695277080E2289F900111248C2FBC
:101D70008370C1E0D0E002C0CC0FDD1F8A95E2F78E
:101D8000C22BD32BDC6872CF2C2F2695269527707B
:101D900080E2289F900111248C2F8370C1E0D0E055
:101DA00002C0CC0FDD1F8A95E2F7C22BD32BDA6875
:101DB0005DCF8C2F8F710E94E30CC82FD0E0DC2FF9
:101DC000CC27CC27DF71D06251CF8C2F8F710E942E
:101DD000E30C55E0D695C7955A95E1F7CF70D0E062
:101DE000DC2FCC27282F30E084FF05C044E0220FF1
:101DF000331F4A95E1F7C22BD32BD06937CF8D2FF4
:101E00008F710E94E30C182FCE0199270E94320D8A
:101E1000C12FD0E0DC2FCC27CC27DF71C82BD92BEA
:101E2000D2CF80959091EA0298239093EA02089588
:101E30008091EA029091C102892B9091C00299236E
:101E400091F0892B90914301913071F49091450468
:101E500097FF0AC09EE120E832E040E0915040F454
:101E600041111092C002089596E028E732E0F5CFC4
:101E7000F90151919F01552389F34F5FEFCF809175
:101E80009A0490916104981301C008958F5F877040
:101E9000FACFB0E0A0E0EFE4FFE00C94FC2D7C0171
:101EA00000914303109144038091300390913103DA
:101EB000082B192BCFE0D0E0CC24C394D12CBC2E1E
:101EC000C6010C2E02C0880F991F0A94E2F78023E6
:101ED0009123892B49F4219790F7B12C8B2DCDB705
:101EE000DEB7E9E00C94182EB7018C2F0E94D40DB8
:101EF0000E94F30D019779F3F1CFCF93DF93EC01BB
:101F00000E94490FBE010E94D40D0E94F30DDF9183
:101F1000CF910895983078F5863068F5E82FF0E095
:101F200086E0989FE00DF11D11249E2F977083E0AD
:101F3000F695E7958A95E1F7EE0FFF1FEE0FFF1F6D
:101F4000E056FD4F50E040E080E0219130E0092E66
:101F500002C0369527950A94E2F721703327042EA4
:101F600001C0220F0A94EAF7822B4F5F5F4F443083
:101F7000510559F7089580E00895983098F5863016
:101F800088F5E82FF0E086E0989FE00DF11D112420
:101F90008E2F877041E001C0440F8A95EAF783E0F5
:101FA000F695E7958A95E1F7EE0FFF1FEE0FFF1FFD
:101FB000E056FD4F30E020E070E05191DF011197D5
:101FC000CB01022E02C0969587950A94E2F78170A4
:101FD00081958527842385278C932F5F3F4F24305D
:101FE000310559F70895909344038093430308956E
:101FF00021E030E002C0220F331F8A95E2F72095DE
:1020000030958091430390914403822393230E944F
:10201000F30F08959091BF02809589238093BF02AA
:10202000282F277069F4891759F09091460492FF80
:1020300007C08695869586950E94F80F1092BF027C
:10204000089521E030E002C0220F331F8A95E2F7A5
:102050008091430390914403822B932B0E94F30FB2
:10206000089590933103809330030895FC012481F7
:102070002223C1F0808191810E947D0F92959F70F3
:10208000963091F058F4925F9F70923058F4803FF0
:1020900019F030F4883E30F481E008959A5FF4CF6F
:1020A000843FD1F380E00895883EB0F3813FD1F7BB
:1020B000F3CFA6E0B0E0EFE5F0E10C94022E498307
:1020C0005A8349815A819923A1F0222391F0CA01B0
:1020D0000E94490F182F682F89819A810E94BD0F95
:1020E00069817A81812F0E94D40D2696E3E00C94B9
:1020F0001E2ECA010E948A0F182FF2CFCF93DF93B2
:10210000682F81E06A3019F06D3031F480E00E9470
:102110000C11DF91CF9108958091B4069091B5068E
:1021200026E0FC01AEEAB6E001900D922A95E1F7B7
:10213000603E08F458C026E0FC0111922A95E9F7A8
:10214000C091B406D091B50646E050E0BE018EEADB
:1021500096E00E947B2E9E012E5A3440892B41F13D
:10216000C90145E0969587954A95E1F741E050E031
:10217000BA0102C0660F771F8A95E2F7CB01609122
:10218000AC047091AD04862B972BB9016B5F7F4F28
:10219000E5E076956795EA95E1F702C0440F551F93
:1021A0006A95E2F7842B952B9093AD048093AC0451
:1021B0002A5F3F4F4091AB04642F70E0C9010E9439
:1021C000DF2D481B463010F4240F311D211572E01D
:1021D000370710F030E020E022553B4F3093B50632
:1021E0002093B40696CFF6E06F9FB00111246F5B89
:1021F000784F46E050E00E94722EA2CFCF93DF933B
:10220000EC01FE018491811103C0DF91CF9108950B
:102210000E947E102196F5CFCF93382FE091B4061F
:10222000F091B506EE5AF4402091AB04622F70E0B5
:10223000CF010E94DF2D281B822F332361F066E03F
:102240000E942A2EC82FC15010F4CF91089580E229
:102250000E947E10F8CF9F01280F311D21153240BA
:1022600018F080E0F0E0E0E08E0F9F2F911D825586
:102270009B4F9093B5068093B406E7CF0E94FE1063
:1022800081E00E940C11089580914301813059F53D
:102290008091450487FF27C00E94180F80937F021A
:1022A00040E250E062EC72E08EE792E00E947B2E0A
:1022B000892BC1F080E2EEE7F2E0A2ECB2E00190FF
:1022C0000D928A95E1F7E0914104F0914204309734
:1022D00049F086E080937E020480F581E02D8EE750
:1022E00092E0099508950E94180F8093760248E0C5
:1022F00050E062EE72E086E792E00E947B2E892B2E
:1023000089F388E0E6E7F2E0A2EEB2E001900D92F8
:102310008A95E1F7E0914104F0914204309711F37E
:102320000280F381E02D86E792E0DBCF1092EA0293
:10233000809143018130C1F48091450487FF14C02E
:10234000E0E8F2E08EE1DF011D928A95E9F790E086
:1023500080E00E94CB0890E080E00E94A6081092E6
:10236000C1020E9444110895E8E7F2E086E0EBCF55
:10237000AAE2B0E0EEEBF1E10C94022E89E594E0E4
:102380002091F100FC012193CF01F4E081369F07F9
:10239000B9F780915A04833009F470C0B8F48130E1
:1023A00009F447C0823009F4B5C08091E80083FF8A
:1023B00089C28091590490915A049A3008F082C2DF
:1023C000E92FF0E0EB51F14D0C946C2E8A3009F4BA
:1023D00090C08B3009F46FC0893039F7809159046F
:1023E000813219F780915D0490915E040297E8F6BE
:1023F0008091E800877F8093E8008091E80082FF69
:1024000038C09091F3008091F200029731F48091EE
:10241000F100813011F0863021F48091F100809339
:1024200042018091E8008B778093E8000E942D079D
:10243000BCCF80915904813A09F0B7CF8091E80070
:10244000877F8093E80080915D0490915E04892BE2
:1024500061F468E08DE494E070E00E94D907809117
:10246000E8008B778093E800A0CF60E090E080E008
:10247000F3CF809157048111C0CF97CF8091590439
:10248000813A09F092CF80915D0490915E04892B8E
:1024900009F08BCF8091E800877F8093E8008091DE
:1024A000E80080FFFCCF809143018093F100809190
:1024B000E8008E77B9CF80915904813209F075CF49
:1024C00080915D0490915E04892B09F06ECF80911C
:1024D000E800877F8093E8000E942D0781E09091BB
:1024E0005B04911101C080E0809343010E9496112A
:1024F0005CCF80915904813209F057CF8091E80078
:10250000877F8093E8000E942D0780915C04809370
:1025100041014BCF80915904813A09F046CF809117
:10252000E800877F8093E8008091E80080FFFCCF7F
:1025300080914101BACF803899F0823809F0C2C148
:1025400080915D048F70873008F0BCC18093E900F2
:102550008091EB0085FB882780F91092E90006C086
:102560008091550490915604911182609091E800F9
:10257000977F9093E8008093F1001092F100809192
:10258000E8008E779BC1882309F489C1823009F065
:1025900099C180915B0481118CC180915D048F7021
:1025A0002FEF280F263008F08DC18093E90020918D
:1025B000EB0020FF7EC1933031F48091EB0080620C
:1025C0008093EB0076C19091EB0090619093EB00CB
:1025D00021E030E001C0220F8A95EAF72093EA005B
:1025E0001092EA008091EB008860EACF81116AC105
:1025F00010915B041F778091E3008078812B80939A
:10260000E3008091E800877F8093E8000E942D0717
:102610008091E80080FFFCCF8091E3008068809388
:10262000E30082E0111183E0809357044BC180588E
:10263000823008F047C180915B0490915C048C3D2E
:1026400023E09207A1F583E08A838AE289834FB76A
:10265000F894DE01139620E03EE051E2E32FF0E033
:1026600050935700E49120FF03C0E295EF703F5F65
:10267000EF708E2F90E0EA30C0F0C7968D939D9357
:102680002F5F243159F74FBF8091E800877F8093F7
:10269000E8006AE270E0CE0101960E94D9078091BD
:1026A000E8008B778093E8000DC1C096E7CF40919A
:1026B0005D0450915E04292F33272330310509F43E
:1026C00044C078F52130310509F46FC08BE390E008
:1026D000E0EDF6E02230310509F0F4C02091E80089
:1026E000277F2093E80020915F04309160048217D7
:1026F000930708F49C0140E02115310509F064C0FE
:10270000411162C08091E80082FDC9CF80915704D9
:10271000882329F2853019F28091E80083FFF2CFF7
:10272000BECF21323105A9F12232310509F0CAC0EC
:102730004115510509F443C04130510509F0C2C0AB
:102740008DE690E0EFE1F6E0C9CF99278130910561
:10275000C1F0009759F0029709F0B4C0EDE1F7E03D
:10276000E4918E2F90E0EDE1F7E007C0EDE3F7E0B4
:10277000E4918E2F90E0EDE3F7E0009709F4A2C01A
:10278000ADCFEBE2F7E0E4918E2F90E0EBE2F7E0E3
:10279000F4CF4115510571F04130510509F092C057
:1027A00089E090E0EBEFF6E099CF82E190E0EBE09A
:1027B000F7E094CF89E090E0E2EEF6E08FCF84E49A
:1027C00090E0ECE8F6E08ACF80915704882309F482
:1027D00066CF853009F463CF8091E80083FD5FCF39
:1027E0008091E80082FD8ECF8091E80080FF84CF49
:1027F0009091F3008091F2002115310519F0883095
:10280000910550F041E0089709F040E08091E80020
:102810008E778093E80070CF44914093F100319619
:10282000215031090196E8CF803809F04BC08091E2
:10283000E800877F8093E800809158048093F1003E
:102840009ECE81113FC010915B041230D8F580916B
:10285000E800877F8093E800109358040E942D07BA
:10286000112311F084E005C08091E30087FDFACFC9
:1028700081E08093570442E061EC81E00E944C07C4
:1028800042E261EC82E00E944C0780915704843060
:1028900021F081E08093440115C082E0FBCF80915C
:1028A0005B04813079F481E0933009F080E080931B
:1028B00056041092E9008091E800877F8093E80039
:1028C0000E942D078091E80083FF0AC08091E800F4
:1028D000877F8093E8008091EB0080628093EB001B
:1028E000AA96E3E00C941E2E882321F00E94110F7B
:1028F0000E9444110895882339F09091EA02982BA0
:102900009093EA020E9444110895882339F19CEFC4
:10291000980F913A28F40E9447080E9444110895A4
:1029200090E2980F983050F4877091E001C0990FB1
:102930008A95EAF7892F0E94110FEFCF9BE5980F38
:10294000933028F490E080E00E94CB080895885AE4
:102950008B3120F490E080E00E94A6080895CF9388
:10296000C82F8823B1F18CEF8C0F813AA0F58091AC
:102970004301813001F58091450487FF1CC0EC2F95
:10298000E695E695E695F0E0E258FD4F828190E00D
:102990004C2F477021E030E002C0220F331F4A95D0
:1029A000E2F782239323892B79F08C2F0E9447082A
:1029B0000E94441109C0E8E7F2E08191C817A9F329
:1029C00082E0EE37F807C9F78C2F0E9472080E9448
:1029D0004411CF91089580E28C0F883068F4C7705D
:1029E00021E030E001C0220FCA95EAF78091EA02A7
:1029F000822B8093EA02EBCFEBE5EC0FE33040F45F
:102A0000F0E0E45BFE4F808190E00E94CB08E1CFD4
:102A1000C85ACB31F0F6EC2FF0E0EE0FFF1FE15B70
:102A2000FE4F808191810E94A608D3CF0F931F9300
:102A3000CF93DF938B01EA0190915704943061F5B5
:102A40008093E9008FEF9091E800815095FD06C0DA
:102A500095ED9A95F1F700008111F5CF8091E8008E
:102A600085FF1AC00E94FC06811111C08091E80008
:102A700085FD06C08091E8008E778093E800F2CF54
:102A8000F80181918F018093F100219779F780916E
:102A9000E8008E778093E800DF91CF911F910F912E
:102AA000089543E050E0BC0182E00E9416150895AD
:102AB00040E250E0BC0182E00E9416150895CF93D9
:102AC000DF93EC0148E050E0BC0181E00E94161564
:102AD00088E0FE01ADE4B4E001900D928A95E1F743
:102AE000DF91CF91089581E08093E00080E28093B0
:102AF000D8001092C9008FE19EE40197F1F700C061
:102B0000000087E090EBDC018093B6069093B70657
:102B1000A093B806B093B90688E19CE00FB6F8948C
:102B2000A895809360000FBE90936000FFCF3BB1EB
:102B3000377F2BB128604FB7F8948BE993E0FC0105
:102B40005191CF0168E02BB9000000C057FF3BB99D
:102B5000550F000000C000C000C03BB900C06A951E
:102B600091F7F4E08D339F0751F74FBF8FE594E065
:102B70000197F1F700C000000895B0E0A0E0E3EC99
:102B8000F5E10C94FB2D7C015B016A01809121032E
:102B900001E010E08A3010F40AE010E0C1E0D0E07B
:102BA000B501C701F6010995811104C021960C17E2
:102BB0001D072CF4CDB7DEB7EAE00C94172ECC9F9E
:102BC0009001CD9F300D300D112490E080E045E361
:102BD0004A95F1F70000019682179307C1F7E0CFFD
:102BE0000E9496112FEF84E39CE02150804090409A
:102BF000E1F700C0000088E19CE00FB6F894A895CA
:102C0000809360000FBE90936000FFCFAB0124E67D
:102C100030E0BC0188E70E94932B21E0892B09F06A
:102C200020E0822F08958091990390919A03911149
:102C300003C091E089270895882369F062E070E07D
:102C40008DE196E00E940616811103C080919903E0
:102C500008951092990380919903EBCFCF93C0917F
:102C6000990380919A038823D1F00E943808605A12
:102C700075418F4F9F4F6093950370939603809398
:102C8000970390939803C11108C062E070E08BE154
:102C900096E00E940616811105C0C09199038C2F01
:102CA000CF91089581E080939903F7CFA5E0B0E03C
:102CB000ECE5F6E10C94F32D0E94C90C60937503CA
:102CC0007093760380937703909378033091A304F5
:102CD000232F2370722E19F0732E76947694209100
:102CE00048012130D1F0222351F0223009F4DFC213
:102CF000233009F4E6C22596E2E10C940F2E1092DF
:102D0000450160939B0470939C0480939D04909371
:102D10009E0481E080934801EECF9091400181E0D4
:102D200079120BC0832F837020913F0130E091E036
:102D30008217130609F490E0892F81708093470170
:102D40008091A80490914601981739F0809346012C
:102D500040E060E080E00E94220A3FE0371580F00A
:102D6000E72DF0E0E151F14D0C946C2E809147017C
:102D7000882309F404C140E060E080E00E94220A58
:102D800080E0FDC0809145010E9495098983192F3B
:102D90006091A4047091A5048091A6040E941E0B6A
:102DA000062FF72EE82E9981892F90E09D838C8342
:102DB000FC81F11710F0812F71C0EC81FD81E35C83
:102DC000FD4F808190914601892339F02E2D4F2DA2
:102DD000602F8C819D810E94170AEC81FD813196C4
:102DE000FD83EC83E5CF809145010E94950989839D
:102DF000192FF090A5040091A6042091A4042A8321
:102E0000622F7F2D802F0E941E0BE62ED72EC82EFC
:102E10006091A7043A81630F7F2D802F0E941E0BC3
:102E2000062FF72EB82E9981892F90E09D838C83F1
:102E3000FC81F11708F0BFCFEC81FD81E35CFD4F11
:102E4000908180914601892361F02B2D4F2D602FB9
:102E500090FD03C02C2D4D2D6E2D8C819D810E94E7
:102E6000170AEC81FD813196FD83EC83E1CF8091DF
:102E700045010E949509092FF090A504E090A60451
:102E80002091A70410E4129F112D1124282F30E067
:102E90003D832C839C81901720F0802F0E94100B83
:102EA0006EC0EC81FD81E35CFD4F80819091460115
:102EB0008923C1F0EC81FD81EE0FFF1FEF55FE4F1E
:102EC00081A982958F706091A404819F600D112467
:102ED0007F2D8E2D0E941E0B472F282F8C819D81C8
:102EE0000E94170A8C819D8101969D838C83D2CF8D
:102EF000809145010E949509092FF090A504E0906A
:102F0000A6042091A70410E4129F112D1124E82F8C
:102F1000F0E0FD83EC833C81301708F0BECFEC81FC
:102F2000FD81E35CFD4F8081909146018923E1F0B2
:102F3000EC81FD81EE0FFF1FEF55FE4F60A9169F3C
:102F4000B001112495E0759567959A95E1F7809108
:102F5000A404680F7F2D8E2D0E941E0B472F282F53
:102F60008C819D810E94170A2C813D812F5F3F4FEC
:102F70003D832C83D0CF88ED9AE00E946E0C909117
:102F8000450121E0290F2093450181118CC182E088
:102F90008093480180914701811185C1772009F410
:102FA0008EC1892F0E949509A6CE8EEE99E0E5CFBD
:102FB00084EC99E0E2CF8EE99AE00E94E20BDFCF49
:102FC00082E89AE0FACF82EC99E0D7CF89EA99E0DB
:102FD000D4CF8EE69AE0F1CF809145010E94950909
:102FE000192F90914701911120C06091A70420E111
:102FF000620F08F46FEF80919B0490919C040E94F3
:10300000060B6AE070E00E94DF2D892B09F0D3CE19
:103010000E94F10AE6E38E9FC001112460914601EF
:10302000892F90E00E94A80BC6CE282F30E03D8368
:103030002C83E12EF12CEC81FD81EE15FF050CF0C7
:10304000BACE609146018C819D810E94A80B8C8133
:103050009D8101969D838C83EECF809145010E94D6
:1030600095098983192FF090A5040091A604F09189
:10307000A404FA836091A70466956695669580918D
:103080009B0490919C040E94060B0E94B90A8058F0
:1030900087FD8195880F682F2CE0629F612D112498
:1030A0002A81620F7F2D802F0E941E0B062FF72E84
:1030B000E82E9981892F90E09D838C83FC81F11704
:1030C00008F079CEEC81FD81E35CFD4F8081909129
:1030D0004601892339F02E2D4F2D602F8C819D8143
:1030E0000E94170AEC81FD813196FD83EC83E6CFC7
:1030F00080914701882329F040E060E080E00E9451
:10310000220A809145010E9495099B8340919B046E
:1031100050919C0460919D0470919E048091910354
:1031200090919203A0919303B09194038417950713
:10313000A607B70708F0B5C06091A4047091A50474
:103140008091A6040E941E0B362E7A83282E09E752
:1031500013E021EA31E03D832C83AC80BD8036E072
:10316000A30EB11C8C809D806501780182E089836B
:1031700002C031E03983F70181917F01412C512C4C
:10318000612C882319F0422C5A80632CF401819120
:103190004F0190E0FC01E35CFD4F2081309146013E
:1031A000232329F0242D452D662D0E94170AF601B0
:1031B00082916F0190E0FC01E35CFD4F2081309132
:1031C0004601232329F0242D452D662D0E94170A40
:1031D000F701808131978083F981F13051F6F80150
:1031E0008281D12CE12CF12C882319F0D22CEA8099
:1031F000F32CEC81FD81828190E0FC01E35CFD4FCA
:10320000208130914601232329F02D2D4E2D6F2D45
:103210000E94170AEC81FD81838190E0FC01E35C50
:10322000FD4F208130914601232329F02D2D4E2D75
:103230006F2D0E94170A0E94F10A837091E009F035
:1032400090E0F80192830D5F1F4FBD82AC8221EDAB
:1032500031E02A153B0509F080CF2091A70430E129
:10326000230F08F42FEF60E1822F90E00E94060BFD
:10327000BC0188EB9BE00E94DF2D80919B04909124
:103280009C04A0919D04B0919E04860F971FA11DE0
:10329000B11D8093910390939203A0939303B093F5
:1032A00094038B81FBCD772009F425CD7ACE7092E3
:1032B0004001832F837080933F010E94971583E024
:1032C00029CD8091A204882351F048E050E067E1C5
:1032D00070E083EA94E00E94AF2E1092A204C090A6
:1032E0009B04D0909C04E0909D04F0909E048091FB
:1032F0003D048823C1F02FB7F89460914804709181
:10330000490480914A0490914B042FBF6C197D09A8
:103310008E099F09603171058105910508F4EBCC98
:1033200010924801E8CC0E94C90CF0CF909146045D
:1033300092FB222720F9281779F080FB92F99093CD
:103340004604609145047091460484E090E00E9438
:10335000DD2E82E00E940A100895A4E0B0E0E3EBC5
:10336000F9E10C94022E4091190350911A036091D7
:103370001B0370911C032FB7F8948091480490911F
:103380004904A0914A04B0914B042FBF841B950BB4
:10339000A60BB70B11E084369105A105B10570F1BC
:1033A0000E94C90C6E5F7F4F8F4F9F4F69837A8356
:1033B0008B839C838091190190911A018D5F9C4FA2
:1033C0004091180150E04530510510F044E050E0C4
:1033D000BE016F5F7F4F0E94882E83E090E00E94C5
:1033E000692D182F882351F00E9438086093190323
:1033F00070931A0380931B0390931C03812F2496D0
:10340000E3E00C941E2EEF92FF921F93CF93DF9375
:1034100000D000D00F92CDB7DEB77B0190E080E006
:103420000E94692D182F882309F46DC04091030173
:1034300050E04115510511F041E050E06091040168
:10344000709105016D5F7C4FCE0105960E94882E1C
:103450004091FB025091FC026091FD027091FE02CE
:103460002FB7F8948091480490914904A0914A04A0
:10347000B0914B042FBF841B950BA60BB70B843662
:103480009105A105B10538F484E093E00E94C606D9
:103490009D818917C1F181E090E00E94692D882308
:1034A00009F458C040910B0150E04530510510F02F
:1034B00044E050E060910C0170910D016D5F7C4F14
:1034C000CE0101960E94882E84E093E00E94C606F9
:1034D0009D8189133FC00E9438086093FB0270935E
:1034E000FC028093FD029093FE0289819A81AB8158
:1034F000BC818093F7029093F802A093F902B093F5
:10350000FA0211E00EC08091040390910503A0918E
:103510000603B091070389839A83AB83BC8311119F
:10352000E4CF8091F7029091F802A091F902B09156
:10353000FA02F70180839183A283B383812F0F90D6
:103540000F900F900F900F90DF91CF911F91FF90F0
:10355000EF90089510E0E5CF4F925F926F927F92C7
:103560008F929F92AF92BF92EF92FF920F931F9311
:10357000CF93DF937B01FB01408051806280738099
:103580009FB7F8948090480490904904A0904A0412
:10359000B0904B049FBF84189508A608B708F4E6BE
:1035A0008F169104A104B10418F4C1E0442329F159
:1035B000C82F880FDD0BFE0183E0EE0FFF1F8A95F9
:1035C000E1F7E050FF4F818192818D5F9C4F4081F8
:1035D00050E00417150708F4A801B9010E94882ECD
:1035E000CE010E94692DC82F882339F00E94380827
:1035F000F70160837183828393838C2FDF91CF9156
:103600001F910F91FF90EF90BF90AF909F908F9080
:103610007F906F905F904F900895A9E0B0E0E3E154
:10362000FBE10C94012E88E0E3EAF4E0DE01119660
:1036300001900D928A95E1F7198649E050E060E12A
:1036400073E0CE0101960E947B2E41E0892B09F4A4
:1036500040E009E010E09E012F5F3F4F6DE173E015
:1036600084E00E94AC1A2996E4E00C941D2E0F937E
:103670001F93CF93DF93EC0144E050E068E073E0E8
:103680000E947B2E41E0892B09F440E004E010E029
:103690009E016FEF72E082E00E94AC1ADF91CF9141
:1036A0001F910F9108951F920F920FB60F92112440
:1036B0002F933F934F935F936F937F938F939F933A
:1036C000AF93BF93CF93DF93EF93FF93D091E90034
:1036D000DF708091EC00C82FC17080FDC0E81092AF
:1036E000E9008091F000877F8093F00078940E9439
:1036F000B8111092E9008091F00088608093F0008A
:10370000CD2BCF70C093E900FF91EF91DF91CF9166
:10371000BF91AF919F918F917F916F915F914F91E9
:103720003F912F910F900FBE0F901F9018951F92F1
:103730000F920FB60F9211242F933F934F935F93E5
:103740006F937F938F939F93AF93BF93EF93FF9369
:103750008091E10082FF09C08091E20082FF05C0F4
:103760008091E1008B7F8093E1008091DA0080FFFF
:1037700024C08091D80080FF20C08091DA008E7F25
:103780008093DA008091D90080FFAAC080E189BDD2
:1037900082E189BD09B400FEFDCF81E0809357042A
:1037A00080914C04811109C00E94DD060E947E07B1
:1037B0008091E20084608093E2008091E10080FFCC
:1037C0001AC08091E20080FF16C08091E2008E7FD7
:1037D0008093E2008091E20080618093E20080911A
:1037E000D80080628093D80019BC85E0809357048C
:1037F00083E0809344018091E10084FF30C0809198
:10380000E20084FF2CC080E189BD82E189BD99B5C9
:10381000892F817090FFFBCF9091D8009F7D90936E
:10382000D8009091E1009F7E9093E1009091E2009A
:103830009F7E9093E2009091E20091609093E2006D
:1038400090915804992309F451C094E0909357043F
:1038500090915704943009F482E080934401809160
:10386000E10083FF2CC08091E20083FF28C080919B
:10387000E100877F8093E10082E0809357041092FB
:1038800058048091E1008E7F8093E1008091E200F6
:103890008E7F8093E2008091E20080618093E2005D
:1038A00042E060E080E00E944C078091F000886078
:1038B0008093F00081E08093440180934301FF9165
:1038C000EF91BF91AF919F918F917F916F915F9198
:1038D0004F913F912F910F900FBE0F901F90189511
:1038E00019BC1092570410924C0467CF9091E300DA
:1038F00097FD02C0982FAACF93E0A8CF78941F928B
:103900001FB61F9211248F939F93AF93BF93809103
:10391000480490914904A0914A04B0914B04019647
:10392000A11DB11D8093480490934904A0934A04BB
:10393000B0934B04BF91AF919F918F911F901FBE89
:103940001F9018959C014FB7F8948091480490916E
:103950004904A0914A04B0914B044FBF821B930BC2
:1039600008952FB7F8948091480490914904A0914C
:103970004A04B0914B042FBF08950F931F93CF9328
:10398000DF93C62FD42F022FFC0185818823A9F055
:103990006093A1040E94B11C9093A00480939F04A3
:1039A000C77081E001C0880FCA95EAF70E947B14B6
:1039B000DF91CF911F910F9108958091A104681319
:1039C00035C080919F049091A0040E94A21C883C65
:1039D000910560F510E21D0FCD17B9F080E28C0F54
:1039E000883040F4C77081E001C0880FCA95EAF7BB
:1039F0000E947414183048F481E09D2F977001C024
:103A0000880F9A95EAF70E947B14802F0E94AF14CA
:103A1000802F0E948514183058F6D77081E001C0BD
:103A2000880FDA95EAF70E947414C2CFC77081E05C
:103A300001C0880FCA95EAF7F6CFB0E0A0E0E3E254
:103A4000FDE10C94FB2D8C01FC018481882309F499
:103A500067C021E0408151816281738195810E941C
:103A60005910EC01F8019581992309F482C48181F0
:103A700080934F03808180934E0380E280933501D1
:103A8000D0934D03C0934C039E0130522115304218
:103A900038F4F8018681807F09F45EC0FE010AC017
:103AA0009E01305421153041C8F4F8018681807F91
:103AB000FE0109F0FF27ED33F10528F4E455FF4F2F
:103AC000E491E0933501FE01E851FC47E730F10550
:103AD00008F042C0E150F14D0C946C2E9E013A95D5
:103AE00021153F41D8F29E01205A3245203231053E
:103AF00050F3FE01E0CF26E241EE61EEC8010E94E4
:103B0000BD1C8091BF02877059F0F8018581882320
:103B100039F08091460482FF03C082E00E940A10BF
:103B2000CDB7DEB7EAE00C94172E27E245EE65EE3E
:103B3000E5CF26E241EE60EEE1CF27E245EE64EE0E
:103B4000DDCF26E241EE62EED9CF27E245EE66EE0A
:103B5000D5CF28E241E0EBCF1092A1049E0130576F
:103B60002332310508F019C484E090E00E94A92EA8
:103B70009093460480934504FE01E150F047E23201
:103B8000F10520F4EA5FF04D0C946C2E8091450411
:103B900081608093450495C080914604886080933D
:103BA00046048FC0809145048260F3CF8091450424
:103BB0008460EFCF809145048860EBCF809146040C
:103BC0008160EDCF809146048260E9CF8091450409
:103BD0008061DFCF809145048062DBCF8091450416
:103BE0008064D7CF0E949611809145048068D1CF20
:103BF000809145048C60CDCF809146048360CFCF07
:103C0000809145048E7FC5CF80914604877FC7CFC2
:103C1000809145048D7FBDCF809145048B7FB9CFC6
:103C200080914504877FB5CF809146048E7FB7CFC2
:103C3000809146048D7FB3CF809145048F7EA9CFBC
:103C4000809145048F7DA5CF809145048F7BA1CFC6
:103C50000E949611809145048F779BCF80914504F7
:103C6000837F97CF809146048C7F99CF80914504C4
:103C700082FB992790F921E0922790FB82F990FB33
:103C800083F987CF80914604982F909591708E7F0D
:103C9000892B90FB81F983CF90914504892F8F7BED
:103CA00096FF806476CF0E94961190914504892FEB
:103CB00097FB87F980586DCF61E08EE090E00E941D
:103CC000BF2E609145047091460484E090E00E940C
:103CD000DD2E0E94961115CF60E0EFCF9091450444
:103CE000892F8F7E94FF806154CF90914504892F56
:103CF0008E7F90FF81604DCF90914604892F877F02
:103D000093FF88604CCF85E358C385E343C3992371
:103D100069F18272FE01E052F847EB30F10508F0DC
:103D20006DC0E85DF04D0C946C2E0E948709E9CEC1
:103D3000882309F448C00E947209E3CE882309F45D
:103D400048C00E945E09DDCE882309F448C00E9465
:103D50004409D7CE882309F448C00E942A09D1CE4D
:103D6000882309F448C00E940E09CBCE8091EA0254
:103D70008272FE01E054F847ED30F10508F03EC0D4
:103D8000ED5CF04D0C946C2E8091A304837011F4C3
:103D9000109248018091A3048C7F81608093A304DA
:103DA0008091A20481608093A204ABCE8091A30491
:103DB000837011F0109248018091A3048C7FEECFA4
:103DC000882309F4B8CF0E947C099BCE882309F48C
:103DD000B8CF0E94680995CE882309F4B8CF0E9415
:103DE00051098FCE882309F4B8CF0E94370989CEB4
:103DF000882309F4B8CF0E941C0983CE9E01205E5F
:103E0000324520323105A8F4911115C0CF7181E0FF
:103E100090E0FC0102C0EE0FFF1FCA95E2F7EF0130
:103E20006E2F83E090E00E94BF2ECE010E943110E1
:103E300068CE992381F0C330FCE7DF0709F478C02E
:103E400008F05BC0C1153CE7D30709F464C0C1307A
:103E5000DC4709F473C0F8018581C081D1818823D2
:103E600009F47AC0CE010E94490FF82E682FCE01C6
:103E70000E94BD0FBE018F2D0E94D40D0E94F30D34
:103E8000D82FC92FA82EF801C580B680B2943FE084
:103E9000B3228091BF02877009F1EC2CCC20F9F09D
:103EA000892F807F803469F080E28D0F8830B0F0F8
:103EB000892F807E803229F4F1E0FD1778F4BB2051
:103EC00069F08091460482FF09C082E00E940A10D6
:103ED0008091BF028770EE24E3948111E12CDC2EE7
:103EE000D2942FE0D2222BE02D1508F49AC0ED2DAC
:103EF000F0E0E05CF04D0C946C2ECB359CE7D907DC
:103F000049F1CC35ECE7DE07D9F0CA35DC4709F0DA
:103F1000A2CF81E01CC00E9496112FEF34E38CE009
:103F2000215030408040E1F700C000000E9473152E
:103F30006FEF7FEF90E080E00E94DD2E0E94F01591
:103F40008091460482FB882780F991E089270E94AE
:103F5000961981CF80E0FBCFCE010E948A0FF82E08
:103F600089CF3C2F3F70F32EC07F19F0F29490EF71
:103F7000F922CC20B9F0FF2069F080E28D0F883063
:103F800010F0A11009C08091EA02F82AF092EA022A
:103F90000E9444118D2F43C08091C102F82AF092F3
:103FA000C102F6CF8D2F0E948514FF20D1F1D05E83
:103FB000D83010F0A11004C08F2D0E94110F06C040
:103FC000F0948091C102F822F092C1020E94441143
:103FD00028C08C2F8F70F82EC07FC03219F0F29459
:103FE00080EFF822AA2059F091E0A91609F478C0D0
:103FF000CC2009F484C0BB2009F446C0CBCF80910B
:10400000460482FD3DC0CC20A9F1FF2039F080910B
:10401000EA02F82AF092EA020E94441180E00E942B
:10402000AF14ED2DE850FF0B349710F40E94F00808
:10403000EE20A9F08091BF0280FD11C0F801158229
:104040008695869586950E942110C8010E941D1DA7
:104050008091BF028695869586950E94F80F20E094
:10406000F8014081518162817381848195810E9430
:10407000591056CD80E00E948514FF2091F29CCF0C
:10408000CC20A1F0B11004C08F2D0E947B14C9CFA9
:10409000E1E0BE12C6CF8091C0029F2D9823F91691
:1040A00009F4BFCFF82AF092C002BBCFB110B9CF4C
:1040B0008F2D0E9474149091C0028F2D892329F0B6
:1040C0008F2D809589238093C00280919F029F2D20
:1040D000982309F4A6CFF094F822F0929F02A1CF82
:1040E000CC2029F0F5E0FB1508F49BCFCDCF24E0E0
:1040F0002B1508F496CF8F2D0E94741492CFBB20FD
:10410000D1F339E3A31209C08FEF97EEE3E08150BA
:104110009040E040E1F700C000008D2F0E94851420
:1041200080CF8C2F86958695837069F0813009F059
:1041300078CF8D2F9C2F9370C11002C080E090E04B
:104140000E94A6086ECF8D2F9C2F9370C11002C0C5
:1041500080E090E00E94CB0864CF8C2F837009F040
:104160003FC0C1105ECF4D2F429546954770440F1A
:10417000440F2D2F2F7030E0042E02C0220F331F6A
:104180000A94E2F790E080E0D4FF09C08FE090E06D
:1041900002C0880F991F4A95E2F780959095C695C1
:1041A000C695C370C23099F078F4409130035091B5
:1041B0003103C13039F0822B932B842395230E9445
:1041C00031102FCF242B352B822B932BF8CF822B22
:1041D000932B209130033091310382279327EFCF27
:1041E0008695CC2011F08C2F8170882309F419CF8B
:1041F0004D2F429546954770440F440F2D2F2F7039
:1042000030E0042E02C0220F331F0A94E2F790E040
:1042100080E0D4FF09C08FE090E002C0880F991FB2
:104220004A95E2F780959095C695C695C370C230C1
:1042300099F078F44091430350914403C13039F030
:10424000822B932B842395230E94F30FEACE242BF9
:10425000352B822B932BF8CF822B932B209143036A
:104260003091440382279327EFCFCF70CC2029F0E1
:104270008C2F0E9421108D2F08CF8D2F0E94741437
:104280008C2F0E94F80FCDCE8D2FF2EFAF1699F143
:10429000FA1570F020EFA216D1F031EFA31691F0CD
:1042A000CC2009F456C0B11075CE8C2F8F7127C069
:1042B00093EFA91639F1E4EFAE12F2CF90914604D4
:1042C00092FD2EC08C2F8F71CC20D9F218C0CC203B
:1042D00069F0F4E0FB1508F4A4CECF7181E090E022
:1042E00002C0880F991FCA95E2F7B8CF25E02B15B9
:1042F00008F497CEF2CF8C2F8F71C110C2CF0E94DD
:1043000021108FCE90E080E0CC2009F49DCFCF71BA
:1043100081E090E002C0880F991FCA95E2F794CF20
:10432000CC2061F08C2F8F7192FFE9CF98E0899FAC
:104330009001112423602093BF02E1CF81E00E940D
:104340000A10E1E0EB1508F06CCE82E00E940A1042
:1043500068CEBB2059F0893309F0DFCEFFEF27EE9E
:1043600033E0F15020403040E1F7D5CE8C2F8F71F3
:1043700088CFFE01E851FC47E730F10508F4AACBED
:10438000C6312CE7D20709F0F1CC80919E02811151
:10439000BCCC89E20E94470812C08091EA02C63173
:1043A000FCE7DF0709F0B3CC8A7A91E009F490E0EA
:1043B00090939E028111A7CC89E20E9472080E940C
:1043C00044119FCBCF93DF938091BE02807F09F091
:1043D0004DC08091BD02882309F448C0E0919A0441
:1043E00050916104C091B902D091B8026091BA02B3
:1043F0007091BB0247E05E17C9F18E2F90E0E49FF9
:10440000F0011124EE59FB4F2481222391F1489FA2
:10441000F001499FF00D1124DF01AE59BB4F1196F9
:104420002C9111972C1325C02C912D1322C0159679
:104430002C91159721111DC012962D913C91261B90
:10444000370B283C3105A8F48091BE028F70806143
:104450008093BE02E859FB4F80818F70806180831A
:1044600088EB92E00E941D1D0E943F0FDF91CF91CB
:104470000895FC013196E770BECFA4E1B0E0E3E41B
:10448000F2E20C94F92D8C0186E0F801DE011F9612
:1044900001900D928A95E1F7F8018481E58098EB0F
:1044A000A92E92E0B92E9091BC02911128C08823C8
:1044B00019F1EE20F1F0C8010E943610F82E882381
:1044C000C1F087E0F801D50101900D928A95E1F7DE
:1044D0008091BC02813031F48091B8029091B90290
:1044E0000E947D0F0E94E2218F2D6496ECE00C94D7
:1044F000152EC8010E941D1DFF24F394F5CFD08016
:10450000C18082809380F090BD022091BA023091E8
:10451000BB02A401421B530BFF2009F4D9C0483C45
:10452000510508F092C08823F9F29091B902809168
:10453000BE02282F207F09F056C0C91214C09091E6
:10454000B802D91210C0E11048C08F70806180930A
:10455000BE0288EB92E00E941D1D8091BE02F80110
:104560008683F12CC1CFE11038C06C2D8D2D0E94B7
:10457000A7066C2D8D2D0E94A706E82E8111F1CF84
:10458000DF86C88A8F8598890E947D0F292F229502
:104590002F70243058F49F70223088F0992399F0BE
:1045A000F8019681907F79F4FE2C9ECF2A5F2F70C0
:1045B000223068F0C8010E941D1DEF2CF5CF992311
:1045C00011F0882389F3805E883070F3F3CF803F49
:1045D00058F3815F833070F7E7CF8091BE0281602E
:1045E0008093BE02BECFC91207C09091B802D91203
:1045F00003C0EE2009F48DC0C8010E943610882344
:1046000009F477CFEE2009F474CF8091BE02803296
:1046100088F02091B8023091B902398728879B86AB
:104620008A869091BC029C871D868E87CE01089653
:104630000E941D1D87E0F801A8EBB2E001900D92E9
:104640008A95E1F70E94E22157CF9091BE02292F6F
:10465000207F51F488EB92E00E941D1D87E0F50158
:1046600011928A95E9F77DCF882309F43DCF809197
:10467000B9028C1110C08091B802D8120CC0E110A0
:104680000AC09683C8010E941D1D87E0F5011192A2
:104690008A95E9F729CFC8010E943610882309F4CA
:1046A00028CFEE2009F425CF8091BE02803210F28F
:1046B0002091B8023091B9023A8329839C828B827F
:1046C0009091BC029D831E828F83CE010196B0CF54
:1046D000483C5105D0F6882309F40ECFFE2CEE207D
:1046E00009F407CF8091B9028C1120C08091B802E3
:1046F000D8121CC08091BE0280FD0FC0982F907F01
:1047000061F08683903F31F0982F907F905F8F709B
:10471000892B8683C8010E941D1D87E0F801A8EB44
:10472000B2E001900D928A95E1F7DECEC8010E94B9
:10473000361081117FCF8091BE0281608093BE02CE
:10474000C8010E941D1DD0CEABE1B0E0EAEAF3E261
:104750000C94012E4E8B5F8B688F798F8A8F9B8F85
:10476000192F91111092C1021D8A86E0FE017696E2
:10477000DE011F9601900D928A95E1F70A8D0023C4
:1047800041F021E04F85588969897A89C8010E94E2
:1047900059100B8B1C8B87E0FE013F96DE011896AB
:1047A00001900D928A95E1F7CE0108960E943D2274
:1047B00081112AC087E0FE013896DE011196019032
:1047C0000D928A95E1F78C858823F1F020916104A0
:1047D00030E0C90101968770992740919A044817E3
:1047E0001906E9F097E0929FD001939FB00D112434
:1047F000AE59BB4FFE01319601900D929A95E1F7AB
:10480000809361040E943F0F17E080919A04909179
:104810006104891312C06B96E4E00C941D2E0E9473
:1048200096111092610410929A0487E0E8EBF2E08E
:10483000DF011D928A95E9F7E7CF819FC00111241E
:104840008E599B4F0E943D22882329F380919A0420
:1048500090E001968770992780939A04D6CFACE0B8
:10486000B0E0E5E3F4E20C94F82D8E010F5F1F4FEA
:1048700088E0D8011D928A95E9F787E8C82E81E083
:10488000D82EF12CE12CAA24A394B12C21E9822E5C
:1048900021E0922EF60181916F018F3F09F442C011
:1048A000F894E82FE295EF70F0E021A18F70A50158
:1048B00002C0440F551F8A95E2F7CA01922F982B28
:1048C00091A392A18095892382A3789400C0EBE8FC
:1048D000F1E0712C31E021912F3F09F4A3C0A22F08
:1048E000A295AF70B0E090968C9190E02F7002C0CE
:1048F000959587952A95E2F780FD94C0832F782AB5
:10490000330F8E169F0639F7F601319780818F3F5E
:1049100011F00E94B20C50EA5A95F1F7F801EE0D31
:10492000FF1D70828FEFE81AF80A94E0E916F1048F
:1049300009F0B0CF48E050E0B80186E293E00E9471
:104940007B2E009741F028E0F801A6E2B3E0019049
:104950000D922A95E1F700912F0310E00E5C1C4F99
:10496000892B09F461C081E08093EF020E94B11CA1
:104970009093EE028093ED02F12CE0903D04EE2046
:1049800009F4ACC019861A861B861C868091210307
:104990008A3008F06DC043E05AE1BE01675F7F4F87
:1049A000C8010E94BD15882309F487C047E35BE175
:1049B000BE01675F7F4FC8010E94BD15882309F4BF
:1049C0007CC04DEA59E1BE01675F7F4FC8010E947C
:1049D000BD15882309F471C04DE05BE1BE01675F3E
:1049E0007F4FC8010E94BD15882309F466C010924C
:1049F000210380912E0390E044E050E0BE01675F08
:104A00007F4F8E5C9C4F0E947B2E21E02093F6020C
:104A1000892B09F044C0E12C8E2D8F292C96EDE0D6
:104A20000C94142E80E06BCFF090EF02FF2009F47D
:104A3000A3CF8091ED029091EE020E94A21C0597F7
:104A400008F49ACF44E050E066E273E0C8010E94A7
:104A50007B2E892B59F084E0E6E2F3E0D801019047
:104A60000D928A95E1F71092EF0287CFF12CFBCFE0
:104A70008091F0029091F1020E94A21C843F91402B
:104A800008F089CF8091F602882329F2FE01399639
:104A900084E0DF011D928A95E9F71092F602E09119
:104AA0002E03F0E0EE5CFC4F89859A85AB85BC85D2
:104AB00080839183A283B383AFCF809121038F3F03
:104AC00031F08F5F809321038A3008F492CF0E94E7
:104AD000B11C9093F1028093F002D4CFC0902E03CA
:104AE000D12CF601EE5CFC4F6F0184E0F801A4E0EC
:104AF000B3E001900D928A95E1F784E093E00E9483
:104B0000C6068093030384E0E8E0F3E0D601019059
:104B10000D928A95E1F780900C0390900D03A09080
:104B20000E03B0900F038091F2029091F302A091D6
:104B3000F402B091F50288169906AA06BB06B1F0F8
:104B40008092F2029092F302A092F402B092F502E7
:104B50000E943808861A970AA80AB90A8092220386
:104B600090922303A0922403B092250388E0E0E111
:104B7000F3E0A3EAB4E001900D928A95E1F74CCFFF
:104B8000A6E0B0E0E6ECF5E20C94012E0E94B11C28
:104B90008C018091EB029091EC028017910781F0DB
:104BA00019821A820E94B11C682F49815A81792F7B
:104BB00080E090E00E94A4231093EC020093EB02AB
:104BC0002696E4E00C941D2E1F921FB61F9211240E
:104BD0008F939F93AF93BF9380914704811113C02C
:104BE0008091480490914904A0914A04B0914B04EB
:104BF0004196A11DB11D8093480490934904A09350
:104C00004A04B0934B04BF91AF919F918F911F9035
:104C10001FBE1F901895CDB7DEB72B970FB6F8942F
:104C2000DEBF0FBECDBF85B7806885BF85B7806802
:104C300085BF84B7877F84BF0FB6F894A89580910D
:104C40006000886180936000109260000FBE80E871
:104C500090E00FB6F89480936100909361000FBECE
:104C600081E08093440180EB9CE0909375028093F7
:104C700074020E94DD060E947E078091E20084603B
:104C80008093E2007894809157048823A1F01091DA
:104C9000E9001F709091EC00892F817090FD80E8F1
:104CA000182B1092E9008091E80083FD0E94B81152
:104CB0001F701093E90082E084BD93E095BD9AEFE8
:104CC00097BD80936E0010922203109223031092DE
:104CD00024031092250388EC90E01091E300111F4B
:104CE0001127111F61F4AFE3BCE91197F1F700C080
:104CF0000000019791F70E94DD061092570410936F
:104D00003D0410933E041093280111110E947D2C44
:104D1000809128018091280194E0811190E0909386
:104D20002F0384E0891B80932E0384E90E94B20C38
:104D300086E60E94B20C87E90E94B20C86EC0E94C3
:104D4000B20C0BE811E021E9E22E21E0F22EF8018D
:104D500081918F018F3F11F00E94B20CE016F10695
:104D6000B1F788E0E2E3F3E0DF01282F1D922A95F6
:104D7000E9F7E6E2F3E0DF011D928A95E9F790E0BA
:104D800080E00E94A92E853E9E4F09F461C065EE29
:104D90007EEF90E080E00E94DD2E60E082E090E017
:104DA0000E94BF2E81E090E0909331038093300306
:104DB00061E083E090E00E94BF2E60E074E184E057
:104DC00090E00E94DD2E60E086E090E00E94BF2E21
:104DD00060E087E090E00E94BF2E40E050E0BA0122
:104DE00088E090E00E94D12E60E083E290E00E9493
:104DF000BF2E60E08CE090E00E94BF2E60E08DE06E
:104E000090E00E94BF2E19821A821B821C821D8292
:104E10001E821F82188648E050E067E170E0CE01F4
:104E200001960E94AF2E40E050E0BA018FE190E081
:104E30000E94D12E40E050E0BA018FE090E00E9445
:104E4000D12E40E050E0BA0183E190E00E94D12EE3
:104E500082E090E00E94A12E80933A0384E090E0EB
:104E60000E94A92E90934604809345040E942F240B
:104E7000EFEFF6E721E0E150F0402040E1F700C01D
:104E800000000E942F2480913E04E4E08111E0E0C4
:104E9000F0E0EE5CFC4F808181FF08C06FEF7FEF98
:104EA00090E080E00E94DD2E0E94731583E090E088
:104EB0000E94A12E90E00E9431100E940C0981E016
:104EC0008093A20448E050E067E170E083EA94E058
:104ED0000E94912E1092A2048091A3048C7FF9F479
:104EE00085E08093A3048091490190914A01A091AB
:104EF0004B018093A4049093A504A093A6048FE78C
:104F00008093A7048FEF8093A80448E050E067E106
:104F100070E083EA94E00E94AF2E1092A204809188
:104F20003D048111B3C082E08093700380E88093D8
:104F3000AB040E941B2B6BE070E08FED92E00E94AF
:104F400006168823E9F18091700365E070E081FD29
:104F50009FC08AED92E00E940616882389F16DE0D9
:104F600070E088EC92E00E940616882349F10E94C6
:104F70003808605A75418F4F9F4F60939503709327
:104F800096038093970390939803EEEAF4E080E011
:104F900092E0DF019C011D9221503040E1F7F09337
:104FA000B506E093B4068FEF9FEF9093AD04809326
:104FB000AC0481E080939A0380939903109271036B
:104FC00080913D04811102C00E94802C89E291E011
:104FD00090934204809341049AE0C92ED12CE12C95
:104FE000F12C8091570410E402E1853009F48AC065
:104FF0000E942F240BE313E082E3A82E83E0B82E57
:10500000D501F80191918D9123E433E02E173F07EC
:1050100009F482C09817B1F330903D04912CD5016A
:105020008D905D01F80141908F01481431F1712C90
:10503000552453944824842D8521B9F03320A9F0B8
:1050400079829A820E94B11C9C838B83F1E0FD835C
:1050500091E0852D882109F490E09E8349815A8151
:105060006B817C818D810E94A4237394550C26E072
:105070007212E1CFF80131978082939438E0931255
:10508000CECF0E94C90C41E049874BC080E04CCF95
:1050900085ED92E060CF80915704843039F10E9411
:1050A00056160E9413161092470468E170E00FB67E
:1050B000F894A895609360000FBE1093600083B7CA
:1050C000817F846083BF83B7816083BF7894889534
:1050D00083B78E7F83BF0FB6F894A8958091600048
:1050E000886180936000109260000FBE0E942F24A0
:1050F000E2E3F3E08191811130C28AE393E08E17FD
:105100009F07C1F780915704853009F4C4CF0E94EE
:1051100096110E94F0086CCF98137ECF0E94C02594
:1051200019860E94561680919A03882309F4B6C006
:1051300080917203909173030E94A21CC29708F49D
:105140008DC00E94B11C90937303809372038EEA0A
:1051500094E09093B5068093B40680913D04882333
:1051600009F4F2C08BE093E00E94FE10209143030B
:1051700030914403832F9927009751F19C0188E0D7
:10518000A901B4E056954795BA95E1F74115510547
:1051900011F08C5F9A01A901569547955695479550
:1051A0004115510511F08E5F9A0136952795232BF5
:1051B00009F08F5F813009F481C0882359F0823073
:1051C00009F47FC0833009F47FC08AEE92E004C006
:1051D00080E0D6CF83E093E00E943E1180914F03A0
:1051E000805D0E947E1089E193E00E94FE10809114
:1051F0004E03805D0E947E1085E193E00E94FE10C8
:1052000040904C0350904D038091330190913401B4
:105210004816590609F05BC080914B03803209F0B3
:1052200056C0E5E4F3E08F0181918032E1F3F801AB
:1052300001900020E9F79F012150310959010A1519
:105240001B0508F47BC083E193E00E94FE1080916F
:1052500035010E947E1081E00E940C118091AC0407
:105260009091AD04892B09F09DC08091990388230A
:10527000A9F00E943808009195031091960320919F
:10528000970330919803601B710B820B930B6F3F58
:105290007F4F8F4F9F4710F40E941316498541118D
:1052A0000E942E160E94F00890917403891709F449
:1052B00098CE809374030E94380893CE8DEF92E0CD
:1052C0008BCF87EF92E088CF80EF92E085CF50922E
:1052D00034014092330180E280934B03712C612CA6
:1052E00010924A0375E4872E73E0972EE0E4AE2E09
:1052F000E3E0BE2E8401C301B201A70196010E9422
:105300004A2E605D603319F48016910631F0411425
:1053100051046104710409F460E2D80114966C939D
:10532000C301B201A70196010E944A2E29013A0148
:1053300001501109A016B106F1F673CFD8018D9175
:105340008D010E947E107BCF2091AC043091AD0482
:10535000AEEAB4E090E080E0FC01E55EFC4F6491D1
:105360004D916417A9F0AD0141505109FA016083D4
:10537000AC0165E0569547956A95E1F761E070E00C
:1053800002C0660F771F4A95E2F7AB01262B352B3B
:105390000196811572E09707F9F63093AD042093DA
:1053A000AC045CCF80919A03882309F45ECF80918E
:1053B000710381115ACF0E942E162091AC043091B6
:1053C000AD042115310509F450CF80E0082F10E01D
:1053D00044244394512C082E02C0440C551C0A94BA
:1053E000E2F7A20142235323452B11F48F5FEECF46
:1053F0009091700390FF98C0880F880F880F80935A
:10540000380110923B01895F8093390183E08093DA
:105410003C0124E630E047E050E066E371E088E7D5
:105420000E944F2B892B09F020CFA80195E0440F53
:10543000551F9A95E1F78091700380FF87C0E0E5E2
:10544000F3E080E2DF011D928A95E9F7E5E9F1E0FA
:10545000FB87EA8761E971E087E0A82EAA85BB8512
:105460002D91BB87AA87FB012190BF01240E352E09
:10547000311CC10182559B4F1C01E22FF0E0E05B23
:10548000FC4F90E080E08A2C881ABB24B394082E4D
:1054900001C0BB0C0A94EAF7310100E0D3011D9171
:1054A0003D011B21282D201B2770922E022E000C5F
:1054B000330BB12F01C0BB0F9A94EAF79B2E3195A5
:1054C000219531092770332701C016952A95EAF7EF
:1054D000912A1081912A90820F5F0830F9F6019687
:1054E00031968830910579F6EA85FB85E959F140D6
:1054F00009F0B4CF04E610E020E230E040E553E0EC
:1055000060E488E70E94D92B892B09F0AECE409445
:1055100050948091AC049091AD044822592250924D
:10552000AD044092AC04A1CE8295880F8076809322
:1055300038019801369527953695279520933B019C
:10554000815E8093390120933C0163CF42555B4FCC
:1055500004E610E020E230E0D3CF809156048823A7
:1055600009F4D0CD90E199BD09BD09B400FEFDCF8D
:105570008091D8008F7D8093D8008091E000826078
:105580008093E0008091E00081FDFCCF0E949611A5
:10559000B9CDEF92FF920F931F93CF93DF93182F04
:1055A000EB011092BC0084EA8093BC000E94B11C05
:1055B0007C018091BC0087FF27C08091B900887F63
:1055C000883029F08091B900887F803189F5109367
:1055D000BB0084E88093BC000E94B11C8C018091C8
:1055E000BC0087FF1EC02091B900287F90E080E0BA
:1055F000283191F081E090E0203411F490E080E0D7
:1056000091958195910908C0C7010E94A21CC817F5
:10561000D90778F68EEF9FEFCDB7DEB7E6E00C94B2
:105620001B2EC8010E94A21CC817D907C0F6F2CFD2
:105630008FEF9FEFF1CF1092B9008CE08093B8000C
:1056400008950F931F93CF93DF93EB018093BB00DB
:1056500084E88093BC000E94B11C8C018091BC0046
:1056600087FF11C02091B900287F81E090E02832A7
:1056700011F490E080E0919581959109DF91CF91AF
:105680001F910F910895CF3FDC0741F3C8010E949D
:10569000A21CC817D90710F78EEF9FEFEFCFB0E02D
:1056A000A0E0E5E5FBE20C94F82D782E5B016A01A1
:1056B00089010E94B11C4C01C1E0D0E00431110508
:1056C00058F0C5E0D0E00F3F100731F0C80164E1A9
:1056D00070E00E94DF2DEB01BE01872D0E94C92AD8
:1056E0007C0197FF09C00F3F1007B1F3C4010E946E
:1056F000A21C0817190780F7E501CA0CDB1CCC15A2
:10570000DD0511F0F7FE09C084E98093BC00C701F4
:10571000CDB7DEB7EDE00C94142EB80189910E944C
:10572000212B7C01ECCFB0E0A0E0E9E9FBE20C9496
:10573000F82D782E5B016A0189010E94B11C4C0191
:10574000C1E0D0E00431110558F0C5E0D0E00F3FD2
:10575000100731F0C80164E170E00E94DF2DEB0119
:10576000BE01872D0E94C92A7C0197FF09C00F3F07
:105770001007B1F3C4010E94A21C0817190780F793
:10578000E501CA0CDB1CCC15DD0511F0F7FE09C0E4
:1057900084E98093BC00C701CDB7DEB7EDE00C947F
:1057A000142EFE018491B8010E94212B7C012196C8
:1057B000EACFB0E0A0E0EFEDFBE20C94F72D682E0D
:1057C000762E5A0169010E94B11C4C01C1E0D0E063
:1057D0000431110558F0C5E0D0E00F3F100731F05B
:1057E000C80164E170E00E94DF2DEB01BE01862D4F
:1057F0000E94C92A7C0197FF1DC00F3F1007B1F31B
:10580000C4010E94A21C0817190780F784E980933D
:10581000BC00C701CDB7DEB7EEE00C94132EB80183
:1058200089910E94212B7C01CC16DD0679F3F7FECD
:10583000F6CFECCFB801872D0E94212B7C01E5012A
:10584000CA0CDB1CF1CF8EE14A9B02C08150E1F70C
:105850004A9BFECF08955A9880E28A95F1F75A9AAA
:105860000895FC013BE03A95F1F798E020E080E0F4
:1058700031E040E14A95F1F7880F4A9B02C0816010
:10588000232742E04A95F1F7000040E14A95F1F7FD
:10589000915079F790E19A95F1F799B132E03A9504
:1058A000F1F7000040E14A95F1F792FB992790F952
:1058B00092272081920F90830895A1E0B0E0E3E663
:1058C000FCE20C94FF2D19828C017C01E60EF11C88
:1058D0000E151F0541F481E09981911180E0219618
:1058E000E6E00C941B2E0E94232CCE0101960E9410
:1058F000312CF80181938F01EBCF529A5A9A089577
:1059000052985A9AEA9AE9E6F0E080818F7C808387
:1059100008956150770B91E001C0990F6A95EAF7FD
:1059200020E031E0911108C0222391F05A9A80E2E0
:105930008A95F1F75A980895492F482339F05A9AD1
:10594000232740E24A95F1F79695ECCF5A98F9CF84
:105950005A98EDCFFF920F931F93CF93DF93EC01F3
:105960008C01060F111DC017D10729F4CDB7DEB782
:10597000E5E00C941C2EF9900E942B2C68E08F2DF2
:105980000E94892CF0CF1F920F920FB60F92112414
:105990000F931F932F933F934F935F936F937F9337
:1059A0008F939F93AF93BF93EF93FF93CF93DF9327
:1059B0000F92CDB7DEB719820E94232CCE0101963B
:1059C0000E94312C082F069506950695282F2295C2
:1059D0002570902F9570290F922F937026952695FC
:1059E000920F982797708981982B09F05CC0063038
:1059F00008F059C080E18A95F1F75A9A529A82E0EC
:105A00008A95F1F700C05A9888E0089F8001112418
:105A1000D801A050BF4F1696ED91FC911797309783
:105A2000A9F0609185017091860114962D913C91A9
:105A30001597260F371F11968D919C911297680F1D
:105A4000791F13964C9113978C910995F801E050AA
:105A5000FF4F6381662351F02091850130918601CB
:105A600084819581820F931F0E94AA2C0E942B2C67
:105A700080E18A95F1F75A9852985A9A80E18A956E
:105A8000F1F7F801E050FF4F6081662351F020915B
:105A900085013091860181819281820F931F0E943E
:105AA0005D2C0E94232C0F90DF91CF91FF91EF91FD
:105AB000BF91AF919F918F917F916F915F914F9126
:105AC0003F912F911F910F910F900FBE0F901F903C
:105AD00018950F931F93CF93DF93EC0106970CF06B
