:100000000C9435060C946D060C946D060C943730E8
:100010000C946D060C946D060C946D060C946D0694
:100020000C946D060C946D060C945B1A0C947A1E5D
:100030000C9453290C946D060C946D060C946D066B
:100040000C946D060C946D060C946D060C946D0664
:100050000C946D060C94341B0C946D060C946D0678
:100060000C946D060C946D060C946D060C946D0644
:100070000C946D060C946D060C946D060C946D0634
:100080000C946D060C946D060C946D060C946D0624
:100090000C946D060C946D060C946D060C946D0614
:1000A0000C946D060C946D060C946D062020202097
:1000B0006162636465666768696A6B6C6D6E6F70B8
:1000C0007172737475767778797A31323334353664
:1000D00037383930524542545F2D3D5B5D5C233BE0
:1000E00027602C2E2F202020167C3300360037006E
:1000F00013001C002B0004001200080018000C0064
:100100003822340014000D000E001B000000000017
:1001100000002D212C41E2002A000F0015000600EE
:100120000A00090028001600110017000B00070044
:1001300031321D0019001A001000050000000000F7
:100140000000AB522C42E3002302220224002200D2
:1001500020001E00210224022F002F02300226025E
:100160003A003B003C003D003E003F000000000024
:1001700000000000010000002500230021001F00F6
:10018000270026001E0230002E02270225022E0024
:1001900045004400430042004100400000000000D0
:1001A000000000002C43000039004B004A005200C0
:1001B0004D00A9004C004E00500051004F00A80017
:1001C0001F022002AC00AE00AB00AA00000000003D
:1001D000000000002C4300000000000000000000B0
:1001E000000000000000000000000000000000000F
:1001F00000000000000000000000000000000000FF
:100200000000000001000000007C00000000000071
:1002100000000000207823782578277829780000CE
:1002200021782478267828782A78000000000000B9
:1002300000000000000001000000000000000000BD
:1002400000000000000000000478007805780278C3
:10025000000000000178017806780000000000002E
:10026000000000000000010000DA0281FFD9F1DB8C
:1002700020A4A62EAF00A0C0D30000A1C8D30000C8
:10028000AED580A81F408D142000556E64656600B1
:1002900041646A757374005261697365004C6F77CD
:1002A00065720044656661756C74004C61796572B5
:1002B0003A20003A002C206B00780000000000007B
:1002C000FEFFFFFFFFFFFFFFFFFFFFFFFFFFFFFF3F
:1002D000FFFFFFFFFFFFFFFFFFFFFFFFFFFFFFFF2E
:1002E000FFFFFFFFFFFFFF0F0F0F0F0FFFFFFFFFCE
:1002F000FFFFFFFFFFFFFFFFFFFFFFFFFE0000000C
:1003000000000000000000000000000000000000ED
:1003100000000000000000000000000000000000DD
:1003200000000000000000000000000000000000CD
:1003300000000000000000000000000000000000BD
:10034000FFFFFFFF8383838383FFFF83838383FF19
:10035000FF8383838383FFFF83838383FFFF838301
:10036000838383FFFFFFFF8282828282FFFF83837A
:100370008383FFFF8383838383FFFFFFFF000000EE
:1003800000000000000000F8FCFCFC9C9CFCFCF859
:10039000F870000000000030787C3C9CFCFCF8F019
:1003A0000000000000C0F0F8F83C3C9CBCFCB8B871
:1003B000A00000000000000000000000000000009D
:1003C000FFFFFFFF4141414141FFFFFFFFFFFFFFF3
:1003D000FF4141414141FFFFFFFFFFFFFFFF41415F
:1003E000414141FFFFFFFF4141414141FFFF7F7F0D
:1003F0007F7FFFFF4141414141FFFFFFFF000000C0
:10040000000000000000003F3F3F3F03070F3F3F59
:100410003E382000000000383C3E3F3F3F3B39382B
:100420000000000000070F1F3F3C383B3B3F1F1FF1
:100430000F000000000000000000000000000000AD
:100440007FFFFFFFF0F0F0F0F0FFFFFFFFFFFFFF87
:10045000FFF0F0F0F0F0FFFFFFFFFFFFFFFFF0F015
:10046000F0F0F0FFFFFFFFF0F0F0F0F0FFFFF0F032
:10047000F0F0FFFFF0F0F0F0F0FFFFFF7F00000072
:10048000000000000000000000000000000000006C
:10049000000000000000000000000000000000005C
:1004A000000000000000000000000000000000004C
:1004B0000000000000000000000000000101010138
:1004C000010101010102020202020202020203030F
:1004D00003030303030304040404040404050505DF
:1004E00005050606060606070707070708080808A1
:1004F000090909090A0A0A0B0B0B0C0C0C0D0D0D4E
:100500000E0E0E0F0F0F10101111111212131314E3
:1005100014151516161717181819191A1A1B1B1C5B
:100520001D1D1E1E1F2020212222232424252626B5
:10053000272829292A2B2C2D2D2E2F3031323233EA
:100540003435363738393A3B3C3D3E3F40414243F3
:100550004445464748494A4C4D4E4F5051535455D7
:100560005658595A5B5D5E5F616264656668696B87
:100570006C6D6F7072737577787A7B7D7E80828305
:100580008587888A8C8E8F91939596989A9C9EA049
:10059000A2A3A5A7A9ABADAFB1B3B5B7BABCBEC056
:1005A000C2C4C6C9CBCDCFD1D4D6D8DBDDDFE2E41F
:1005B000E7E9EBEEF0F3F5F8FAFDFF00AF00AE056A
:1005C000010902A10185020901A1000509190129FA
:1005D00008150025019508750181020501093009FA
:1005E000311581257F950275088106093815812509
:1005F0007F950175088106050C0A38021581257F53
:10060000950175088106C0C005010980A101850317
:1006100019012AB700150126B70095017510810050
:10062000C0050C0901A101850419012AA0021501C8
:1006300026A002950175108100C005010906A101DF
:100640008506050719E029E71500250195087501BC
:1006500081020507190029EF1500250195F07501A4
:100660008102050819012905950575019102950179
:1006700075039101C005010906A101050719E029CB
:10068000E71500250195087501810295017508811E
:10069000010507190029FF150026FF0095067508BA
:1006A0008100050819012905150025019505750129
:1006B0009102950175039101C009023B00020100FE
:1006C000A0FA090400000103010100092111010041
:1006D000012244000705810308000109040100010B
:1006E0000300000009211101000122B60007058264
:1006F000032000011201000200000008534601001F
:100700000100010200010C0343006F0072006E0043
:1007100065000000100366006F006F007300740036
:1007200061006E00000004030904000000000000E6
:100730003E5B4F5B3E003E6B4F6B3E001C3E7C3E83
:100740001C00183C7E3C18001C577D571C001C5E8A
:100750007F5E1C0000183C180000FFE7C3E7FF00A5
:10076000001824180000FFE7DBE7FF0030483A06D6
:100770000E00262979292600407F05050700407FC5
:1007800005253F005A3CE73C5A007F3E1C1C0800F0
:10079000081C1C3E7F0014227F2214005F5F005F54
:1007A0005F0006097F017F00006689956A0060602E
:1007B0006060600094A2FFA2940008047E04080018
:1007C00010207E20100008082A1C0800081C2A0897
:1007D00008001E10101010000C1E0C1E0C003038EB
:1007E0003E383000060E3E0E0600000000000000FD
:1007F00000005F000000000700070000147F147F66
:100800001400242A7F2A1200231308646200364948
:1008100056205000000807030000001C2241000081
:100820000041221C00002A1C7F1C2A0008083E08E8
:100830000800008070300000080808080800000068
:10084000606000002010080402003E5149453E004F
:1008500000427F4000007249494946002141494D0C
:1008600033001814127F10002745454539003C4AD3
:1008700049493100412111090700364949493600EB
:10088000464949291E0000001400000000403400C1
:100890000000000814224100141414141400004134
:1008A000221408000201590906003E415D594E001C
:1008B0007C1211127C007F49494936003E4141417A
:1008C00022007F4141413E007F49494941007F0963
:1008D000090901003E41415173007F0808087F006B
:1008E00000417F4100002040413F01007F08142269
:1008F00041007F40404040007F021C027F007F0497
:1009000008107F003E4141413E007F090909060071
:100910003E4151215E007F09192946002649494977
:10092000320003017F0103003F4040403F001F2091
:1009300040201F003F4038403F006314081463000C
:100940000304780403006159494D4300007F41418D
:100950004100020408102000004141417F000402D0
:10096000010204004040404040000003070800002E
:100970002054547840007F2844443800384444448C
:100980002800384444287F00385454541800000884
:100990007E0902001824241C78007F0804047800D3
:1009A00000447D4000002040403D00007F1028446E
:1009B000000000417F4000007C04780478007C083F
:1009C000040478003844444438007C182424180077
:1009D000182424187C007C0804040800485454544B
:1009E000240004043F4424003C4040207C001C20A0
:1009F00040201C003C4030403C004428102844006B
:100A00004C9090907C004464544C44000008364163
:100A100000000000770000000041360800000201DD
:100A2000020402003C2623263C00000000000000D7
:100A300000000000000000000000C0E0F0F8F8181E
:100A400000C0F0FCFEFFFFFFFFFFFFFF7E00000085
:100A500000000000000080C0E0E0E0E0E0E0E0E056
:100A6000C0800000000080C0E0E0E0E0E0E0E0E006
:100A7000C080000000E0E0C0C0E0E0E0E00000E096
:100A8000E0C0C0E0E0E0E0E0C0800000000080C026
:100A9000E0E0E0E0E0E0E0E0C08000000000000016
:100AA0000000000000000000E0F0F0F0E0ECEEF7E5
:100AB000F37020007C7C7C7E007E7E7E7F7F7F00CA
:100AC0000080C0E07E5B4F5BFEC00000C000DCD752
:100AD000DEDEDED7DC00C000000000000000000009
:100AE0000000000000000000000000000000000006
:100AF000000000F8FCFEFFE000FFFFFFFFFFFF80AB
:100B0000FFFFFFFFFFFFFFFFFF1F070100000000C7
:100B10000000000000FFFFFF8100000000000081D6
:100B2000C3C3C30000FFFFFF81000000000000817D
:100B3000FFFFFF0000FFFFFF01000000000000FFBB
:100B4000FFFF010000000001FFFFFF0000FFFFFFAB
:100B50009D1C1C1C1C1C1C9DDFDFDF000000000016
:100B600000000000000000000F1F3F7F7F7F7F7F9D
:100B70003F1E0C001F1F1F3F003F3F3F7F7F7F0036
:100B8000307B7F7830202030787F3B0003000F7F60
:100B90000F0F0F7F0F000300000000000000000097
:100BA0000000000000000000000000000000000045
:100BB000000000030F1F3F3F3F3F1F1F3F3F7F7F4E
:100BC0007F3F3F1F3F7F7F7F7F7C7878381C0F00FF
:100BD00000000000000001030707070707070707D9
:100BE00003010000000001030707070707070707C5
:100BF00003010000000707070000000000000007D5
:100C000007070000000000000707070000000103BD
:100C10000707070707070707030100000000000098
:100C200000000000000000000000000000000000C4
:100C300000000000000000000000000000000000B4
:100C400000000000000000000000000000000000A4
:100C50000000000000000000000000000000000094
:100C60000000000000000000000011241FBECFEFB4
:100C7000DAE0DEBFCDBF04B603FE18C08091CE0619
:100C80009091CF06A091D006B091D1068730904BBD
:100C9000A740B04B59F41092CE061092CF06109296
:100CA000D0061092D106E0E0F8E3099512E0A0E04A
:100CB000B1E0EAE7F5E602C005900D92A037B10772
:100CC000D9F726E0A0E7B2E001C01D92AE3CB20722
:100CD000E1F70E947A290C9457320C9400008F920D
:100CE0009F92AF92BF92CF92DF92EF92FF9290913C
:100CF0004401981305C09091C204903209F44BC08E
:100D00008093440190E29093C204C82ED12CF12C20
:100D1000E12C1092C104C701B6012AE030E040E0A6
:100D200050E00E94BE31605D603331F0C114D104E7
:100D3000E104F10409F460E26093C00460E28AE037
:100D4000C816D104E104F10490F08AE0882E912CB9
:100D5000A12CB12CC701B601A50194010E94BE319E
:100D6000CA01B901A50194010E94BE31605D609382
:100D7000BF0420E284E6C816D104E104F10448F07F
:100D8000C701B60124E630E040E050E00E94BE31E9
:100D9000205D2093BE048EEB94E0FF90EF90DF90F7
:100DA000CF90BF90AF909F908F9008959091B60490
:100DB000937061F081110BC094609093B60410920F
:100DC00043018091B50481608093B504089580311A
:100DD00010F09C63F2CF880F880F982BEECF482F2E
:100DE0002091AD049091740457E0291302C080E073
:100DF000089530E0529FF001539FF00D1124EB58FD
:100E0000FB4F8181681306C08081481303C0858130
:100E10008111EECF2F5F3F4F2770E7CFFC01AC0170
:100E20004C5F5F4F8FEF91E32191822728E030E004
:100E300087FF09C0880F892721503109C9F7E417B6
:100E4000F50791F70895880FF7CF9091B604937046
:100E500071F08093B7046093B804493708F048E70D
:100E60004093B9048091B50481608093B5040895DE
:100E7000E8EDF0E080818E7F80831092E200109296
:100E8000DA001092E100A0EEB0E08C9181608C93CA
:100E900080818F77808319BCA7EDB0E08C918E7F25
:100EA0008C9380818F7E80831092450408952091D9
:100EB000E4003091E50095E6A9012091EC00822F35
:100EC000817020FF06C08091E80080FF06C080E0AE
:100ED00008952091E80022FD1AC080916A048823B9
:100EE00089F0853089F08091EB0085FD0FC020915D
:100EF000E4003091E50042175307F9F29150E1F612
:100F000084E0089582E0089583E0089581E00895E3
:100F100080916C0487FF13C08091E80082FF06C0B7
:100F20008091E8008B778093E80004C080916A0488
:100F30008111F2CF089580916A048823D9F38091BA
:100F4000E80080FFF8CF8091E8008E77ECCF982FF3
:100F50009093E900242F762F50E0891731F070919B
:100F6000EC002091ED005091F00021FD07C09F5F43
:100F7000973071F78093E90081E008953091EB009C
:100F80003E7F3093EB003091ED003D7F3093ED00DC
:100F90003091EB0031603093EB007093EC002093C4
:100FA000ED005093F0002091EE0027FDE0CF80E0AF
:100FB0000895B0E0A0E0EFEDF7E00C947131C8EDDA
:100FC000D0E088818F7E8883E7EDF0E080818160CA
:100FD000808384E082BF81E08093450488818E7F96
:100FE000888302EE10E0F80110821092DA0081EEA0
:100FF000C82ED12CF601108288818F778883888152
:101000008068888388818F7D888319BC10926A04E8
:1010100010926B04109269041092680490EEE92E0D
:10102000F12CF70180818B7F8083888181608883A8
:1010300042E060E080E00E94A707F60180818E7F99
:101040008083F801808181608083808188608083D3
:10105000F70180818E7F8083888180618883CDB70E
:10106000DEB7E8E00C948D31FC0180917204909120
:10107000730486179707A0F06115710529F4909104
:10108000E8009E779093E80090E06115710551F4B7
:10109000911108C08091E80082FF34C080E008957B
:1010A000BC01F2CF80916A048823C1F18530C1F17F
:1010B0008091E80083FD30C08091E80082FDEACF96
:1010C0008091E80080FFE1CF8091F3002091F20051
:1010D000382F6115710519F02830310558F091E06D
:1010E0002830310509F090E02091E8002E77209318
:1010F000E800CBCF81918093F100615071092F5F9F
:101100003F4FE7CF80916A04882341F0853041F05A
:101110008091E80083FFBECF81E0089582E00895CA
:1011200083E008958091470408952FB7F894609163
:101130003F047091400480914104909142042FBF7C
:10114000089520913F012223C9F02091430427FFF5
:1011500015C0E62FE695E695E695EE31D8F4E80F52
:10116000F92FF11D677021E030E001C0220F6A9570
:10117000EAF720958281282322830895FC01329684
:1011800008962191621303C0DF0111971C92E817A2
:10119000F907B9F7089520913F012223C1F020916A
:1011A000430427FF14C0E62FE695E695E695EE3159
:1011B000F8F4E80FF92FF11D677021E030E001C06D
:1011C000220F6A95EAF78281822B82830895FC01BF
:1011D00032962FEF30E04191641751F02F3F19F410
:1011E000411101C0232F3F5F3630A9F72F3F09F48B
:1011F0000895820F911D27FD9A95FC016283089541
:10120000A3E0B0E0E6E0F9E00C94773120913C04F3
:1012100030913D0428173907A1F090933D04809345
:101220003C04E0913A04F0913B04309751F024E003
:1012300029839B838A830680F781E02DCE01019666
:1012400009952396E2E00C949331A3E0B0E0EBE241
:10125000F9E00C9477312091380430913904281743
:101260003907A1F09093390480933804E0913A044F
:10127000F0913B04309751F023E029839B838A83CC
:101280000680F781E02DCE01019609952396E2E0D4
:101290000C949331FA01811101C0FB010995089565
:1012A00010928F030895E6EBF4E0248130E1231BD4
:1012B00008F420E024838091B50481608093B50414
:1012C0000895E6EBF4E0248130E1230F08F42FEFDA
:1012D00024838091B50481608093B5040895E6EB82
:1012E000F4E0438120E1421B08F440E08181628107
:1012F00090E00E9425070895E6EBF4E0438120E1A9
:10130000420F08F44FEF8181628190E00E9425072F
:101310000895E6EBF4E0628120E1621B08F460E0EE
:101320008181438190E00E9425070895E6EBF4E077
:10133000628120E1620F08F46FEF8181438190E0C8
:101340000E9425070895E6EBF4E0818143816281E4
:101350008850990B0E9425070895E6EBF4E08181FF
:1013600090E04381628108960E942507089580914C
:10137000B60486958695815009F48FE00E94D606C2
:1013800008958091B604869586958F5F803108F028
:1013900081E00E94D6060895322F50E0FA01EE0F48
:1013A000FF1FE356FE4F91A9905297FD9195440F70
:1013B000551FFA01E353FE4F2081231B330B290FE6
:1013C000311D97FD3A95620F0895622F0895E42F1D
:1013D000F0E0EE0FFF1FE353FE4F408134EE439FDA
:1013E000412D1124E82FF0E050E0445E5F4FDA0118
:1013F000A21BB1099D01B7FF03C0319521953109A9
:1014000093E0220F331F9A95E1F7AF01421B530B74
:101410009A0157FD20E0582F259F212D1124822F5E
:101420000895E42FF0E0EE0FFF1FE353FE4F4081DD
:1014300034EE439F412D1124E72FF0E050E0445E4D
:101440005F4FDA01A21BB1099D01B7FF03C03195BF
:101450002195310993E0220F331F9A95E1F7AF01EF
:10146000421B530B9A0157FD20E0279F212D112489
:10147000722F08950E9429120895FF920F931F93CF
:10148000CF93DF93182F062FF42ED0E0C0E02F2D3E
:10149000402F612FCE010E943A0A2196C633D10512
:1014A000B1F7CDB7DEB7E5E00C949031FC019B01BC
:1014B000009729F480E077FF2BC080E80895AC0105
:1014C00097FF04C044275527481B590BB901640FE7
:1014D000751F37FD10C0241B350BC901A5E0880F0F
:1014E000991FAA95E1F70E94AA3180E2861BF7FFB7
:1014F0000FC081950895CB0165E0880F991F6A950B
:10150000E1F7BA01621B730B0E94AA3180E6EECFAD
:101510000895EF920F93CF93DF93D72FC82FC90170
:101520000E19BA010E94560A602F681B7D2F8C2F5E
:10153000DF91CF910F91EF900895EF920F931F934A
:10154000CF93DF93D62FC72F182FC9010E19010F84
:10155000BA010E94560A081B202F219F212D112419
:10156000822F6D2F7C2FDF91CF911F910F91EF90E4
:101570000895EF920F931F93CF93DF93D62F172FDA
:10158000C82FC9010E19070FBA010E94560A702F01
:10159000781B719F712D11246D2F8C2FDF91CF91AE
:1015A0001F910F91EF900895E82F86FDE0952E2F63
:1015B0002F7086FD2F5FE695E695E695E670F0E0E4
:1015C000EB56FE4F9181929F902D212D11249295E3
:1015D0009F702295207F922B2081920F87FD9195FD
:1015E00080E8890F089540913B0150913C0125E02E
:1015F00038E0429FC001439F900D529F900D1124EF
:10160000875E994C90933C0180933B01890F08952C
:1016100030E020E0869F212D969F200D311D112462
:10162000C9010895AF92BF92CF92DF92FF920F93BC
:101630001F93CF93DF93362F472FE82FF0E0E55429
:10164000FB4F71110FC0E4918E2F2E2F6E2F722F32
:10165000DF91CF911F910F91FF90DF90CF90BF90BE
:10166000AF900895C72FD0E02491F22E022F10E002
:1016700056E0659FC0011124EFEFF0E0BF010E942A
:101680005331832F90E0880F991F35E5369FD001A5
:10169000379FB00D11248A1B9B0B982F990F980F21
:1016A0006F01CC1ADD0AC09ED001C19EB00DD09E44
:1016B000B00D11248B2F499FA0011124452F5527D0
:1016C0006F01C41AD50AC09EA001C19E500DD09EC4
:1016D000500D11245F01A91AB108AC9E6001AD9EA6
:1016E000D00CBC9ED00C1124CD2CDD24EC19FD09AE
:1016F000E09FE001E19FD00DF09FD00D1124ED2F70
:1017000062307105A1F050F46115710509F49ECFA6
:101710006130710581F0EB2F852F98CF6430710512
:1017200069F080F06630710509F490CFF4CFE22FB4
:101730002B2F8D2F8BCFE22F252F88CFEB2F822FB2
:101740002D2F84CF2B2F8F2DE52F80CFB0E0A0E061
:10175000ECEAFBE00C9472318C01FC01E75CFD4F7C
:101760008081682349F1D090B804D091B904C09128
:10177000B704EC2EF12C0E94F30A282FC7018C54D9
:101780009F4F68E671E00E94AA318E199F0997FD6C
:101790000396959587959595879523706C2F289F2F
:1017A000600D11247D2D8D2F0E94120B462F282FA6
:1017B000672FC8010E943A0ACDB7DEB7E7E00C9464
:1017C0008E318091640380FD16C081FD16C082FDBC
:1017D00016C0809163038823A1F0883280F428E04A
:1017E000829FC001112468E270E00E94AA31862F16
:1017F000672B39F0089582E0089584E0089588E029
:10180000089581E008958091640380FD14C081FDF6
:1018100014C082FD16C080916203882381F08E314E
:1018200080F420E5829FC00111246EE170E00E94E7
:10183000AA31862F089584E1089588E2089588E00A
:10184000089580E50895282F35EB2303C001112466
:1018500097FF04C080589109892F089580589F4FA1
:10186000FBCF80E00895F894E82FE295EF70F0E068
:1018700031A1282F2F7081E090E001C0880F2A95B8
:10188000EAF7982F9095932391A392A1892B82A395
:10189000789408959091430492FF10C041E0282F5E
:1018A0002471243009F040E031E0282F28712830DD
:1018B00009F030E0431711F02CE0822793FF10C0AD
:1018C00041E0282F2471243109F040E031E0282F35
:1018D0002871283109F030E0431711F02CE08227FD
:1018E0003091440430FF10C051E0282F2171213085
:1018F00009F050E041E0282F2871283009F040E03D
:10190000541711F029E0822731FF10C041E0282F41
:101910002171213109F040E031E0282F2871283170
:1019200009F030E0431711F029E0822794FD877E0B
:10193000089582389105B9F1B0F48133910509F425
:101940007DC048F48932910509F46DC08A32910551
:1019500009F47BC008958533910509F45FC089338C
:10196000910509F10895833E9105D9F138F4803E3F
:10197000910529F1823E910579F10895863E910500
:10198000D9F1873E910509F43EC0843E910541F5A9
:101990002091440421FF24C08091430484FD19C098
:1019A00087EE90E0089520914304237009F05AC017
:1019B0002091440423FF14C089E290E0089520910F
:1019C000430420FD38C03091440430FF09C024FF97
:1019D00043C090E080E008952091430422FDF7CFBA
:1019E00008952091430422FD3AC03091440430FD13
:1019F00039C024FFF5CFEDCF2091430423FFF0CF72
:101A000024FDE7CFCDCF2091430423FD2EC030919C
:101A1000440431FFEECF84EE90E00895209143041A
:101A200025FFDECFC9CF2091430425FD21C02091A1
:101A3000440423FFD5CF89E390E0D2CF2091430423
:101A400026FFCECF8AE290E008952091430426FF3E
:101A5000C7CF81E390E0089583EE90E0089582EE91
:101A600090E0089580EE90E0089586EE90E008956D
:101A700085E390E00895972F7830B8F46630A8F4A5
:101A80008430B0F470E026E0929F600D711D112447
:101A9000FB0190E3899FE00DF11D1124EE0FFF1F64
:101AA000E851FF4F85919491089580E090E008956A
:101AB00081E0FCCF1F93CF93DF930E94990CEC0140
:101AC000C11580E5D807F0F5C11580E4D80708F006
:101AD0009CC0C03ED10520F5CD3CD10508F082C0A8
:101AE000C83AD10578F4C53AD10508F073C0C130C1
:101AF000D10519F1209709F1C430D105F0F4D0E0F7
:101B0000C0E01BC0C33CD105D0F7C85AD0E0CC0F11
:101B1000DD1FC55BDE4F0990D881C02DD4640DC098
:101B2000C11580E2D80708F0D1C0C11581E0D807FF
:101B300008F05AC0C83ED10510F7CE01DF91CF9111
:101B40001F910895C03682E5D80718F5C03482E5A4
:101B5000D80708F06BC0C03282E5D80708F05FC034
:101B6000C11582E5D80708F497C02C2F2695269535
:101B700080E2289F900111248C2F8370C1E0D0E077
:101B800002C0CC0FDD1F8A95E2F7C22BD32BDD6894
:101B9000D4CFC03A82E5D80760F4C03882E5D807D0
:101BA00008F459C0CF71D0E0DC2FCC27C46FD06AC5
:101BB000C4CFC03C82E5D80708F462C0C03E82E5CD
:101BC000D80708F09CCFDC2FCC27CC27DF71C06F63
:101BD000D06AB3CFC55AD0E0C85BDE4FC881D0E031
:101BE000D064ABCFD065A9CF8D2F0E944A0C182F9F
:101BF000CE0199270E94990CC12FD0E0DC2FCC2771
:101C0000CC27DF71C82BD92B98CFCE0199270E9402
:101C1000990CCC27DF70C82BD92BD06A8ECFCF710F
:101C2000D0E0DC2FCC27C16FD06A87CF2C2F269530
:101C30002695277080E2289F900111248C2F8370B5
:101C4000C1E0D0E002C0CC0FDD1F8A95E2F7C22BC5
:101C5000D32BDC6872CF2C2F26952695277080E237
:101C6000289F900111248C2F8370C1E0D0E002C026
:101C7000CC0FDD1F8A95E2F7C22BD32BDA685DCF3C
:101C80008C2F8F710E944A0CC82FD0E0DC2FCC27FC
:101C9000CC27DF71D06251CF8C2F8F710E944A0CFC
:101CA00055E0D695C7955A95E1F7CF70D0E0DC2F77
:101CB000CC27282F30E084FF05C044E0220F331FDB
:101CC0004A95E1F7C22BD32BD06937CF8D2F8F7177
:101CD0000E944A0C182FCE0199270E94990CC12FFF
:101CE000D0E0DC2FCC27CC27DF71C82BD92BD2CF6B
:101CF00080959091D60298239093D6020895809172
:101D0000AD0490917404981301C008958F5F87709B
:101D1000FACFB0E0A0E0EFE8FEE00C9470317C0177
:101D200000913003109131038091D7029091D80235
:101D3000082B192BCFE0D0E0CC24C394D12CBC2E9F
:101D4000C6010C2E02C0880F991F0A94E2F7802367
:101D50009123892B49F4219790F7B12C8B2DCDB786
:101D6000DEB7E9E00C948C31B7018C2F0E943B0D5B
:101D70000E945A0D019779F3F1CFCF93DF93EC01D5
:101D80000E94890EBE010E943B0D0E945A0DDF91F8
:101D9000CF910895983078F5863068F5E82FF0E017
:101DA00086E0989FE00DF11D11249E2F977083E02F
:101DB000F695E7958A95E1F7EE0FFF1FEE0FFF1FEF
:101DC000EC56FD4F50E040E080E0219130E0092EDC
:101DD00002C0369527950A94E2F721703327042E26
:101DE00001C0220F0A94EAF7822B4F5F5F4F443005
:101DF000510559F7089580E00895983098F5863098
:101E000088F5E82FF0E086E0989FE00DF11D1124A1
:101E10008E2F877041E001C0440F8A95EAF783E076
:101E2000F695E7958A95E1F7EE0FFF1FEE0FFF1F7E
:101E3000EC56FD4F30E020E070E05191DF0111974A
:101E4000CB01022E02C0969587950A94E2F7817025
:101E500081958527842385278C932F5F3F4F2430DE
:101E6000310559F708959093310380933003089515
:101E700021E030E002C0220F331F8A95E2F720955F
:101E800030958091300390913103822393230E94F7
:101E9000330F08959091B302809589238093B30204
:101EA000282F277069F4891759F09091440492FF04
:101EB00007C08695869586950E94380F1092B302CA
:101EC000089521E030E002C0220F331F8A95E2F727
:101ED0008091300390913103822B932B0E94330F1A
:101EE00008959093D8028093D7020895FC0124812D
:101EF0002223C1F0808191810E94BD0E92959F7036
:101F0000963091F058F4925F9F70923058F4803F71
:101F100019F030F4883E30F481E008959A5FF4CFF0
:101F2000843FD1F380E00895883EB0F3813FD1F73C
:101F3000F3CFA6E0B0E0EFE9FFE00C9476314983FF
:101F40005A8349815A819923A1F0222391F0CA0131
:101F50000E94890E182F682F89819A810E94FD0E98
:101F600069817A81812F0E943B0D2696E3E00C94D3
:101F70009231CA010E94CA0E182FF2CFCF93DF937D
:101F8000682F81E06A3019F06D3031F480E00E94F2
:101F90004C10DF91CF9108958091CC069091CD06A1
:101FA00026E0FC01A6ECB6E001900D922A95E1F73F
:101FB000603E08F458C026E0FC0111922A95E9F72A
:101FC000C091CC06D091CD0646E050E0BE0186EC33
:101FD00096E00E94EF319E01265C3440892B41F14E
:101FE000C90145E0969587954A95E1F741E050E0B3
:101FF000BA0102C0660F771F8A95E2F7CB016091A4
:10200000C4047091C504862B972BB9016B5F7F4F79
:10201000E5E076956795EA95E1F702C0440F551F14
:102020006A95E2F7842B952B9093C5048093C404A2
:102030002A5F3F4F4091C304642F70E0C9010E94A2
:102040005331481B463010F4240F311D211572E026
:10205000370710F030E020E02A533B4F3093CD0695
:102060002093CC0696CFF6E06F9FB0011124665DF9
:10207000784F46E050E00E94E631A2CFCF93DF9345
:10208000EC01FE018491811103C0DF91CF9108958D
:102090000E94BE0F2196F5CFCF93382FE091CC064A
:1020A000F091CD06E65CF4402091C304622F70E00D
:1020B000CF010E945331281B822F332361F066E049
:1020C0000E949E31C82FC15010F4CF91089580E234
:1020D0000E94BE0FF8CF9F01280F311D21153240FD
:1020E00018F080E0F0E0E0E08E0F9F2F911D8A5302
:1020F0009B4F9093CD068093CC06E7CF0E943E1075
:1021000081E00E944C1008958091D6029091D502F2
:10211000892B809372029091D4029923A1F0892B8C
:102120008093720280913F018823E1F18091430402
:1021300087FF38C08EE1E4E7F2E090E08150A0F53F
:1021400091111092D40240E250E064EB72E082E719
:1021500092E00E94EF31892B21F180E2E2E7F2E088
:10216000A4EBB2E001900D928A95E1F7E0913A0478
:10217000F0913B043097A9F080913F01882359F0FA
:102180008091430487FF07C080917202809373029D
:1021900086E0809372020280F381E02D82E792E074
:1021A0000995089586E0C7CF2191222339F29F5FD8
:1021B000C5CF882321F00E94780E0E9484100895D4
:1021C000882339F09091D602982B9093D6020E94E2
:1021D000841008950F931F93CF93DF93EC01FC01BC
:1021E00001900020E9F78F0101501109C017D107B4
:1021F00028F0DF91CF911F910F91089589910E944E
:10220000BE0FF4CF0F931F93CF93DF938B01EA019F
:1022100090916A04943061F58093E9008FEF90917A
:10222000E800815095FD06C095ED9A95F1F7000004
:102230008111F5CF8091E80085FF1AC00E945707F1
:10224000811111C08091E80085FD06C08091E800F1
:102250008E778093E800F2CFF80181918F0180930F
:10226000F100219779F78091E8008E778093E8005C
:10227000DF91CF911F910F91089543E050E0BC0191
:1022800082E00E940211089546E050E0BC0182E025
:102290000E9402110895CF93DF93EC0180913F01DA
:1022A000811111C048E050E0BE0181E00E9402119E
:1022B00080E2FE01A8E4B4E001900D928A95E1F776
:1022C000DF91CF9108958091430487FF05C040E2DC
:1022D00082E050E0BE01EACF48E081E0FACF81E041
:1022E0008093E00080E28093D8001092C9008FE1D3
:1022F0009EE40197F1F700C0000087E090EBDC015D
:102300008093CE069093CF06A093D006B093D106CB
:1023100088E19CE00FB6F894A895809360000FBE0A
:1023200090936000FFCF80918F03882341F1539AEF
:102330003BB1377F2BB128604FB7F89480E993E029
:10234000FC015191CF0168E02BB9000000C057FF9C
:102350003BB9550F000000C000C000C03BB900C031
:102360006A9591F7F4E082339F0751F74FBF8FE5ED
:1023700094E00197F1F700C0000010928F030895D8
:10238000B0E0A0E0E6ECF1E10C946F317C015B0180
:102390006A018091100301E010E08A3010F40AE035
:1023A00010E0C1E0D0E0B501C701F6010995811147
:1023B00004C021960C171D072CF4CDB7DEB7EAE058
:1023C0000C948B31CC9F9001CD9F300D300D11249A
:1023D00090E080E045E34A95F1F70000019682170E
:1023E0009307C1F7E0CF8091E502811119C088EC15
:1023F00090E02091E30027FD10C0EFE3FCE9319766
:10240000F1F700C000000197A1F782E08093E50298
:102410000E94380710926A0403C081E08093E502AD
:1024200081E09091E502913011F080E008950895E7
:102430000E94F311882359F0E0913A04F0913B0493
:10244000309729F00190F081E02D0995089580E002
:102450000895FF920F931F93CF93DF93EC01F62E15
:10246000042F122F0E94F311811123C0CB31D1050B
:102470001CF16B97FE01EE0FFF1FDF01AC0FBD1FBC
:10248000A057BC4F11968C9111978F1107C08C915A
:10249000801304C012968C91811771F081E08093B3
:1024A0008F03EC0FFD1FE057FC4FF1820083128376
:1024B00003C0CB31D105F4F2CDB7DEB7E5E00C9423
:1024C0009031CF93C82F0E94F311882329F081E027
:1024D000CB3128F080E003C081E0C633D8F7CF913C
:1024E0000895B0E0A0E0E7E7F2E10C946F316C01F1
:1024F000C09140018BE0C89FC02D11241BE01C0F30
:10250000173308F016E30E94F311882319F01C31E9
:1025100008F01BE10E94F311811103C0CB3108F4D4
:10252000CBE16091BA0466958091AE049091AF04BE
:102530000E94080BF82ED0E0CE01880F991F9C0155
:1025400023563E4F5901C11740F0812F0E9461125E
:10255000CDB7DEB7EAE00C948B31FE01E75CFD4FAE
:10256000808190914101892309F451C0D501D09611
:102570004C91D0974057550BD1962C912052330B4C
:10258000449FB001459F700D700D1124229FC00122
:10259000239F900D900D1124860F971F082F8230D6
:1025A000910520F1EFEF813EBEE19B0738F4FC017D
:1025B000B5E0F695E795BA95E1F7E85FF1E0AF2F62
:1025C000AE0FBB27BB1FBD0175956795062F669F94
:1025D000D001679FB00DB00D11248A179B07E0F45E
:1025E000EFEFE60FEF1758F70FEF0F0F6091B704FB
:1025F0007091B8048091B904EF2CF60109950E94FE
:10260000120B462F282F672FCE010E943A0A2196DF
:10261000F2E0AF0EB11C97CF6F3F41F3F1E0F60F40
:10262000E1CFEF92FF920F931F93CF93DF937C0143
:10263000C09140018BE0C89FC02D11241BE01C0FEE
:10264000173308F016E30E94F311882319F01C31A8
:1026500008F01BE10E94F311811103C0CB3108F493
:10266000CBE16091BA046695669521E0620F08F4AB
:102670006FEF8091AE049091AF040E94080B082F79
:10268000D0E0C11740F0812F0E946112CDB7DEB7B4
:10269000E6E00C948F31FE01E75CFD4F8081909164
:1026A0004101892391F06091B7047091B804809141
:1026B000B904202F4C2FF70109950E94120B462FC9
:1026C000282F672FCE010E943A0A2196DACF0F9366
:1026D0001F930E94F311882329F00E9495081F91EF
:1026E0000F9108950E949508009111031091120313
:1026F0002091130330911403600F711F821F931FE9
:10270000EECFB0E0A0E0E7E8F3E10C9471316C01AA
:102710007B0164E670E088E70E94B12E8C01E6013F
:10272000EC0CFD1C17FD0BC0FE01849164E670E00B
:102730000E941D2F8C012196CE15DF0599F70E946E
:10274000932F81E00115110509F080E0CDB7DEB7C8
:10275000E8E00C948D31809136049091370491110A
:1027600003C091E089270895882369F062E070E052
:102770008DEB95E00E948113811103C08091360496
:1027800008951092360480913604EBCFCF93C09118
:102790003604809137048823D1F00E949508605A4E
:1027A00075418F4F9F4F6093320470933304809331
:1027B000340490933504C11108C062E070E08BEBE3
:1027C00095E00E948113811105C0C09136048C2FC1
:1027D000CF91089581E080933604F7CFA3E0B0E075
:1027E000E4EFF3E10C9468310E94671360936F0388
:1027F0007093700380937103909372033091B604C9
:10280000232F2370722E19F0732E769476942091D4
:1028100043012130D1F0222351F0223009F4C6C304
:10282000233009F4CDC32396E1E10C948431109256
:1028300040016093AE047093AF048093B004909312
:10284000B10481E080934301EECF90913E0181E09D
:1028500079120BC0832F837020913D0130E091E00D
:102860008217130609F490E0892F8170809342014A
:102870008091BB0490914101981739F080934101F8
:1028800040E060E080E00E943D0A3FE0371580F0C4
:10289000E72DF0E0E75AFD4C0C94E03180914201C5
:1028A000882309F4C5C140E060E080E00E943D0A51
:1028B00080E0BEC18091400189838BE09981989F1F
:1028C000802D11248983182F155F173308F016E324
:1028D0000E94F311882319F01C3108F01BE10E94BB
:1028E000F311811105C0E981EB3110F4FBE1F983AB
:1028F0006091B7047091B8048091B9040E94120BE2
:10290000062FF72EE82E3981232F30E03B832A83D0
:102910009A81911720F0812F0E94611289C1EA816A
:10292000FB81E75CFD4F808190914101892339F063
:102930002E2D402F6F2D8A819B810E943A0A8A8119
:102940009B8101969B838A83E3CFE09140018BE0DA
:10295000E89F802D11248983182F155F173308F005
:1029600016E30E94F311882319F01C3108F01BE1D3
:102970000E94F311811105C0F981FB3110F42BE1A4
:102980002983F090B8040091B9043091B7043A83D8
:10299000632F7F2D802F0E94120BE62ED72EC82E7C
:1029A0006091BA048A81680F7F2D802F0E94120BDC
:1029B000062FF72EB82EF981EF2FF0E0FB83EA8384
:1029C0003A81311708F0A7CFEA81FB81E75CFD4F20
:1029D000908180914101892361F02B2D402F6F2D33
:1029E00090FD03C02C2D4E2D6D2D8A819B810E9460
:1029F0003A0A2A813B812F5F3F4F3B832A83E0CFF6
:102A00008091400189838BE09981989F802D1124CA
:102A10008983182F155F173308F016E30E94F3110E
:102A2000882319F01C3108F01BE10E94F311811179
:102A300005C0E981EB3110F4FBE1F983F090B804B3
:102A4000E090B9042091BA0400E4029F012D112402
:102A50003981232F30E03B832A839A81911708F034
:102A60005ACFEA81FB81E75CFD4F80819091410163
:102A70008923C9F0EA81FB81EE0FFF1FE356FE4F69
:102A800081A982958F706091B704809F600D112499
:102A90007F2D8E2D0E94120B462F282F672F8A81A3
:102AA0009B810E943A0A8A819B8101969B838A833B
:102AB000D4CFE09140018BE0E89F802D11248983E1
:102AC000182F155F173308F016E30E94F3118823BF
:102AD00019F01C3108F01BE10E94F311811105C0AF
:102AE000F981FB3110F42BE12983F090B804E090D8
:102AF000B9042091BA0400E4029F012D11249981A8
:102B0000892F90E09B838A83FA81F11708F003CF25
:102B1000EA81FB81E75CFD4F80819091410189232F
:102B2000E9F0EA81FB81EE0FFF1FE356FE4F60A93B
:102B3000069FB001112435E0759567953A95E1F748
:102B40008091B704680F7F2D8E2D0E94120B462FA7
:102B5000282F672F8A819B810E943A0AEA81FB8194
:102B60003196FB83EA83D0CF209140018BE0289FF0
:102B7000802D11248983182F155F173308F016E371
:102B80000E94F311882319F01C3108F01BE10E9408
:102B9000F311811105C039813B3110F48BE1898338
:102BA0000091B7049091B8049A83F090B9046091B1
:102BB000BA046695669566958091AE049091AF04CF
:102BC0000E94080B0E94D40A805887FD8195880FC7
:102BD000282F3F2D239F212D1124822F602F7A81B2
:102BE0000E94120B062FF72EE82E9981892F90E074
:102BF0009B838A83FA81F11708F08DCEEA81FB81ED
:102C0000E75CFD4F808190914101892339F02E2DA1
:102C1000402F6F2D8A819B810E943A0AEA81FB81B5
:102C20003196FB83EA83E6CF81E19AE00E9411139B
:102C3000909140019F5F909340018111B4C182E067
:102C400080934301809142018111ADC1772009F445
:102C5000B5C10E94F3110E94F311E5CD87EE99E012
:102C6000E5CF89EB9AE00E947112E2CF8DE99AE0FC
:102C7000FACF85EE99E0DACF8CEC99E0D7CF89E8EE
:102C80009AE0F1CF209140018BE0289F802D112404
:102C90008983182F155F173308F016E30E94F3118C
:102CA000882319F01C3108F01BE10E94F3118111F7
:102CB00005C039813B3110F48BE189838091420159
:102CC000811120C06091BA0420E1620F08F46FEF17
:102CD0008091AE049091AF040E94080B6AE070E00E
:102CE0000E945331892B09F016CE0E94F30AE6E3C5
:102CF0008E9FC001112460914101892F90E00E94B4
:102D0000A60B09CE3981232F30E03B832A83E12EA5
:102D1000F12CEA81FB81EE15FF050CF0FCCD6091F2
:102D200041018A819B810E94A60B8A819B81019629
:102D30009B838A83EECFF09140018BE0F89F802D3A
:102D400011248983182F155F173308F016E30E94AA
:102D5000F311882319F01C3108F01BE10E94F311D4
:102D6000811105C029812B3110F43BE13983F090AA
:102D7000B8040091B9048091B7048A836091BA04C1
:102D80006695669566958091AE049091AF040E9419
:102D9000080B0E94D40A805887FD8195880F682F00
:102DA0002CE0629F612D11249A81690F7F2D802F65
:102DB0000E94120B062FF72EE82EF981EF2FF0E07C
:102DC000FB83EA833A81311708F0A5CDEA81FB81C4
:102DD000E75CFD4F808190914101892339F02E2DD0
:102DE000402F6F2D8A819B810E943A0A2A813B8164
:102DF0002F5F3F4F3B832A83E5CF80914201882399
:102E000029F040E060E080E00E943D0A909140019E
:102E10008BE0682E989F600C112486E3861510F4D1
:102E200096E3692E0E94F311882329F09BE1961501
:102E300010F48BE1682E0E94F3114091AE04509182
:102E4000AF046091B0047091B10480918B039091B4
:102E50008C03A0918D03B0918E0384179507A6076C
:102E6000B70708F08CC06091B7047091B8048091E6
:102E7000B9040E94120B562E372E482E03E713E09A
:102E8000EDE9F1E0FB83EA83AA80BB80450178018C
:102E900092E0998302C0F1E0F983F70121917F016B
:102EA000F40181914F0190E0F501C580D12C2223DE
:102EB00009F467C0242D452D632D0E943A0A242D64
:102EC000452D632DC6010E943A0AF7018081319792
:102ED0008083F1E0AF1AB10829812130E1F6EA815F
:102EE000FB81828190E0E380F12CF8012281222392
:102EF00009F450C0242D452D632D0E943A0A242D3B
:102F0000452D632DC7010E943A0A0E94F30A83707F
:102F100091E009F090E0F80192830D5F1F4F2A8144
:102F20003B812A5F3F4F3B832A838DEC91E08217E0
:102F3000930709F0A9CF2091BA0430E1230F08F4D8
:102F40002FEF60E1822F90E00E94080BBC0188EB1C
:102F50009BE00E9453318091AE049091AF04A09108
:102F6000B004B091B104860F971FA11DB11D8093CD
:102F70008B0390938C03A0938D03B0938E03862DC7
:102F8000CBCC20E040E060E00E943A0A20E040E044
:102F900060E098CF20E040E060E00E943A0A20E044
:102FA00040E060E0AFCF711054CE3DCC70923E0156
:102FB000832F837080933D010E94931183E042CC64
:102FC0008091B504882351F048E050E068E170E05A
:102FD00086EB94E00E9423321092B504C090AE04B8
:102FE000D090AF04E090B004F090B1040E94F311CF
:102FF0008823C1F02FB7F89460913F04709140048A
:1030000080914104909142042FBF6C197D098E0973
:103010009F09603171058105910508F404CC109277
:10302000430101CC0E946713F0CFE6EBF4E085E0AA
:1030300080838091450190914601A0914701818351
:103040009283A3838FE784838FEF858348E050E0EA
:1030500068E170E0CF010E9423321092B504089518
:103060009091440492FB222720F9281779F080FBE5
:1030700092F990934404609143047091440484E075
:1030800090E00E94513282E00E944A0F0895A4E02D
:10309000B0E0EDE4F8E10C947631409108035091F2
:1030A000090360910A0370910B032FB7F894809184
:1030B0003F0490914004A0914104B09142042FBF7D
:1030C000841B950BA60BB70B11E084369105A10567
:1030D000B10570F10E9467136E5F7F4F8F4F9F4F56
:1030E00069837A838B839C838091190190911A0163
:1030F0008E509D4F4091180150E04530510510F021
:1031000044E050E0BE016F5F7F4F0E94FC3183E0DE
:1031100090E00E94DD30182F882351F00E9495081E
:10312000609308037093090380930A0390930B0341
:10313000812F2496E3E00C949231EF92FF921F933B
:10314000CF93DF9300D000D00F92CDB7DEB77B01D5
:1031500090E080E00E94DD30182F882309F46DC0D4
:103160004091030150E04115510511F041E050E05C
:1031700060910401709105016E507D4FCE0105965E
:103180000E94FC314091EA025091EB026091EC0206
:103190007091ED022FB7F89480913F049091400414
:1031A000A0914104B09142042FBF841B950BA60B44
:1031B000B70B84369105A105B10538F483EF92E091
:1031C0000E940E079D818917C1F181E090E00E9465
:1031D000DD30882309F458C040910B0150E04530A0
:1031E000510510F044E050E060910C0170910D0128
:1031F0006E507D4FCE0101960E94FC3183EF92E02C
:103200000E940E079D8189133FC00E94950860931C
:10321000EA027093EB028093EC029093ED028981B5
:103220009A81AB81BC818093E6029093E702A093E0
:10323000E802B093E90211E00EC08091F302909190
:10324000F402A091F502B091F60289839A83AB83D0
:10325000BC831111E4CF8091E6029091E702A09126
:10326000E802B091E902F70180839183A283B383DE
:10327000812F0F900F900F900F900F90DF91CF91B3
:103280001F91FF90EF90089510E0E5CF4F925F926D
:103290006F927F928F929F92AF92BF92EF92FF9226
:1032A0000F931F93CF93DF937B01FB0140805180ED
:1032B000628073809FB7F89480903F0490904004A0
:1032C000A0904104B09042049FBF84189508A608BE
:1032D000B708F4E68F169104A104B10418F4C1E014
:1032E000442329F1C82F880FDD0BFE0183E0EE0F88
:1032F000FF1F8A95E1F7E050FF4F818192818E5048
:103300009D4F408150E00417150708F4A801B9014A
:103310000E94FC31CE010E94DD30C82F882339F095
:103320000E949508F70160837183828393838C2FB9
:10333000DF91CF911F910F91FF90EF90BF90AF90D1
:103340009F908F907F906F905F904F900895A9E02D
:10335000B0E0EDEAF9E10C94753188E0E6EBF4E0D9
:10336000DE01119601900D928A95E1F7198649E0E8
:1033700050E06FEF72E0CE0101960E94EF3141E024
:10338000892B09F440E009E010E09E012F5F3F4FD8
:103390006CE073E084E00E9446192996E4E00C9406
:1033A00091310F931F93CF93DF93EC0144E050E0F2
:1033B00067EF72E00E94EF3141E0892B09F440E0B1
:1033C00004E010E09E016EEE72E082E00E94461979
:1033D000DF91CF911F910F910895A8E0B0E0E3EF46
:1033E000F9E10C94773166EE7EEF90E080E00E9488
:1033F000513260E082E090E00E94333260E083E08E
:1034000090E00E9433321092D8021092D70260E00E
:1034100074E184E090E00E94513260E086E090E048
:103420000E9433326FEF87E090E00E94333240E039
:1034300050E0BA0188E090E00E94453260E084E20A
:1034400090E00E94333260E087E190E00E943332E6
:1034500060E08CE090E00E94333260E08DE090E02C
:103460000E94333219821A821B821C821D821E82A4
:103470001F82188648E050E068E170E0CE010196B6
:103480000E94233240E050E0BA0180E290E00E94C6
:10349000453240E050E0BA018FE090E00E944532B2
:1034A00040E050E0BA0183E190E00E944532289666
:1034B000E2E00C9493311F920F920FB60F921124F9
:1034C0002F933F934F935F936F937F938F939F932C
:1034D000AF93BF93EF93FF938091E10082FF09C008
:1034E0008091E20082FF05C08091E1008B7F809394
:1034F000E1008091DA0080FF24C08091D80080FF35
:1035000020C08091DA008E7F8093DA008091D9000C
:1035100080FF9DC080E189BD82E189BD09B400FEC4
:10352000FDCF81E080936A0480914504811109C038
:103530000E9438070E94D9078091E200846080933E
:10354000E2008091E10080FF17C08091E20080FFDF
:1035500013C08091E2008E7F8093E2008091E200B0
:1035600080618093E2008091D80080628093D800CF
:1035700019BC85E080936A048091E10084FF2BC030
:103580008091E20084FF27C080E189BD82E189BD8E
:1035900089B5982F917080FFFBCF8091D8008F7DE7
:1035A0008093D8008091E1008F7E8093E10080912C
:1035B000E2008F7E8093E2008091E2008160809340
:1035C000E20080916B04882309F447C084E0809373
:1035D0006A0480916A048091E10083FF27C0809192
:1035E000E20083FF23C08091E100877F8093E100A8
:1035F00082E080936A0410926B048091E1008E7FD8
:103600008093E1008091E2008E7F8093E2008091C0
:10361000E20080618093E20042E060E080E00E948E
:10362000A7078091F00088608093F000FF91EF91F0
:10363000BF91AF919F918F917F916F915F914F91CA
:103640003F912F910F900FBE0F901F90189519BCAE
:1036500010926A041092450474CF8091E30087FDB4
:1036600093E090936A04B5CF78941F921FB61F928F
:1036700011248F939F93AF93BF9380913F049091B8
:103680004004A0914104B09142040196A11DB11DD6
:1036900080933F0490934004A0934104B09342046C
:1036A000BF91AF919F918F911F901FBE1F90189552
:1036B0009C014FB7F89480913F0490914004A091F1
:1036C0004104B09142044FBF821B930B08952FB762
:1036D000F89480913F0490914004A0914104B091EE
:1036E00042042FBF08950E94671B9C0190916B03B9
:1036F00080916C03982B21F030936803209367032B
:1037000090916D0380916E03982B21F030936603A6
:1037100020936503E0913A04F0913B04309749F01F
:1037200082E0809369030480F581E02D89E693E0CF
:10373000099508951092D60280913F01E4E7F2E0E6
:10374000882329F18091430487FF21C08EE1DF01A6
:103750001D928A95E9F790E080E00E94250990E0AB
:1037600080E00E9400091092D5020E94841086E039
:10377000E9E6F3E0DF011D928A95E9F71092620312
:1037800010926303109264030E94731B089586E0F5
:10379000DECFAAE2B0E0EFECFBE10C9476318CE6F0
:1037A00094E02091F100FC012193CF01F4E08437F3
:1037B0009F07B9F780916D04833009F470C0B8F4A5
:1037C000813009F447C0823009F4B1C08091E8002B
:1037D00083FF7EC280916C0490916D049A3008F052
:1037E00077C2E92FF0E0E759FD4C0C94E0318A30C4
:1037F00009F48CC08B3009F46FC0893039F780919F
:103800006C04813219F780917004909171040297D1
:10381000E8F68091E800877F8093E8008091E800D7
:1038200082FF38C09091F3008091F200029731F44A
:103830008091F100813011F0863021F48091F10007
:10384000809347048091E8008B778093E8000E9482
:103850008807BCCF80916C04813A09F0B7CF809182
:10386000E800877F8093E800809170049091710454
:10387000892B61F460E288E494E070E00E943408EF
:103880008091E8008B778093E800A0CF60E090E023
:1038900080E0F3CF80916A048111C0CF97CF8091EF
:1038A0006C04813A09F092CF809170049091710478
:1038B000892B09F08BCF8091E800877F8093E80007
:1038C0008091E80080FFFCCF80913F018093F10060
:1038D0008091E8008E77B9CF80916C04813209F035
:1038E00075CF8091700490917104892B09F06ECF8F
:1038F0008091E800877F8093E8000E94880780918C
:103900006E0480933F010E949A1B60CF80916C04EB
:10391000813209F05BCF8091E800877F8093E800D7
:103920000E94880780916F04809346044FCF809156
:103930006C04813A09F04ACF8091E800877F809338
:10394000E8008091E80080FFFCCF80914604BECF64
:10395000803899F0823809F0BBC1809170048F7073
:10396000873008F0B5C18093E9008091EB0085FBBA
:10397000882780F91092E90006C080916804909130
:103980006904911182609091E800977F9093E8001C
:103990008093F1001092F1008091E8008E7794C13D
:1039A000882309F482C1823009F092C180916E04AB
:1039B000811185C1809170048F702FEF280F263000
:1039C00008F086C18093E9002091EB0020FF77C1C9
:1039D000933031F48091EB0080628093EB006FC1F3
:1039E0009091EB0090619093EB0021E030E001C0FA
:1039F000220F8A95EAF72093EA001092EA0080915C
:103A0000EB008860EACF811163C110916E041F77CB
:103A10008091E3008078812B8093E3008091E8001F
:103A2000877F8093E8000E9488078091E80080FFEC
:103A3000FCCF8091E30080688093E30082E0111165
:103A400083E080936A0444C18058823008F040C10A
:103A500080916E0490916F048C3D23E09207A1F554
:103A600083E08A838AE289834FB7F894DE01139654
:103A700020E03EE051E2E32FF0E050935700E49164
:103A800020FF03C0E295EF703F5FEF708E2F90E054
:103A9000EA30C0F0C7968D939D932F5F243159F77C
:103AA0004FBF8091E800877F8093E8006AE270E072
:103AB000CE0101960E9434088091E8008B778093B4
:103AC000E80006C1C096E7CF4091700450917104A0
:103AD000292F33272330310509F444C078F52130EC
:103AE000310509F46FC08BE390E0E9EBF6E022309A
:103AF000310509F0EDC02091E800277F2093E80010
:103B000020917204309173048217930708F49C018A
:103B100040E02115310509F064C0411162C0809177
:103B2000E80082FDC9CF80916A04882329F285309C
:103B300019F28091E80083FFF2CFBECF2132310528
:103B4000A9F12232310509F0C3C04115510509F42C
:103B500043C04130510509F0BBC086EB90E0EFEB6C
:103B6000F5E0C9CF992781309105C1F0009759F050
:103B7000029709F0ADC0E6E0F7E0E4918E2F90E007
:103B8000E6E0F7E007C0E6E2F7E0E4918E2F90E090
:103B9000E6E2F7E0009709F49BC0ADCFE4E1F7E07F
:103BA000E4918E2F90E0E4E1F7E0F4CF4115510568
:103BB00071F04130510509F08BC089E090E0E4EEEE
:103BC000F6E099CF82E190E0E4EFF6E094CF89E06F
:103BD00090E0EBECF6E08FCF84E490E0E5E7F6E0F0
:103BE0008ACF80916A04882309F466CF853009F46E
:103BF00063CF8091E80083FD5FCF8091E80082FD74
:103C00008ECF8091E80080FF84CF9091F300809167
:103C1000F2002115310519F08830910550F041E08E
:103C2000089709F040E08091E8008E778093E800E3
:103C300070CF44914093F1003196215031090196A3
:103C4000E8CF803809F044C08091E800877F8093F6
:103C5000E80080916B048093F1009ECE811138C002
:103C600010916E041230A0F58091E800877F809358
:103C7000E80010936B040E948807112311F084E080
:103C800005C08091E30087FDFACF81E080936A044C
:103C900042E061EC81E00E94A70742E261EC82E031
:103CA0000E94A70780916A0413C080916E0481303E
:103CB00079F481E0933009F080E0809369041092F8
:103CC000E9008091E800877F8093E8000E948807E0
:103CD0008091E80083FF0AC08091E800877F80938D
:103CE000E8008091EB0080628093EB00AA96E3E00D
:103CF0000C9492311F920F920FB60F9211242F93B2
:103D00003F934F935F936F937F938F939F93AF9363
:103D1000BF93CF93DF93EF93FF93D091E900DF70D0
:103D20008091EC00C82FC17080FDC0E81092E900BE
:103D30008091F000877F8093F00078940E94C91BE7
:103D40001092E9008091F00088608093F000CD2B04
:103D5000CF70C093E900FF91EF91DF91CF91BF91B8
:103D6000AF919F918F917F916F915F914F913F9113
:103D70002F910F900FBE0F901F9018950E949A1BC5
:103D80002FEF84E39CE0215080409040E1F700C099
:103D9000000088E19CE00FB6F894A895809360003D
:103DA0000FBE90936000FFCF662309F45DC08D3C89
:103DB00041F40E94030C819580936C030E94731B55
:103DC00008958E3C19F40E94030CF6CF8F3C31F419
:103DD0000E94030C819580936B03F0CF803D19F412
:103DE0000E94030CF8CF893D29F40E94E10B8093D7
:103DF0006D03E4CF8A3D21F40E94E10B8195F7CF5A
:103E00008B3D31F40E94E10B819580936E03D6CFF8
:103E10008C3D19F40E94E10BF8CF9FE2980F983087
:103E200070F4815D990B21E030E001C0220F8A958A
:103E3000EAF780916A03822B80936A03BFCF8D3D9E
:103E400031F480916403816080936403B7CF8E3D29
:103E500021F4809164038260F7CF8F3D09F0AECFEB
:103E6000809164038460F0CF40916B038D3C59F4E2
:103E700080916C0387FF0DC010926C0341110BC041
:103E80001092620308C08E3C81F480916C03181676
:103E90009CF3442381F080916D0390916E03892BF4
:103EA00009F08CCF1092630389CF8F3C49F447FF10
:103EB000F0CF10926B0380916C038111ECCFE0CFB7
:103EC000803D19F41416ACF3E4CF90916D03893D55
:103ED00029F41916F4F610926D03DBCF8A3D19F41C
:103EE00097FFD7CFF8CF90916E038B3D29F497FFC2
:103EF000D0CF10926E03CDCF8C3D19F41916CCF3B0
:103F0000C8CF9FE2980F983090F4815D990B21E023
:103F100030E0B90102C0660F771F8A95E2F7CB0146
:103F2000809590916A03892380936A03B2CF8D3D77
:103F300031F4809164038E7F80936403AACF8E3D19
:103F400021F4809164038D7FF7CF8F3D09F0A1CFDD
:103F5000809164038B7FF0CF882399F19CEF980FB9
:103F6000913A40F4682F82E792E00E94A1080E94F3
:103F70008410089590E2980F983050F4877091E083
:103F800001C0990F8A95EAF7892F0E94780EEFCF2A
:103F90009BE5980F933028F490E080E00E9425097B
:103FA000089598E5980F9B3128F490E080E00E94F6
:103FB0000009089593E3980F933118F460E00E948C
:103FC000D41E0895CF93C82F8823D1F18CEF8C0F86
:103FD000813AC0F580913F01882311F1809143041B
:103FE00087FF1EC0EC2FE695E695E695F0E0EE58CB
:103FF000FD4F828190E04C2F477021E030E002C0FD
:10400000220F331F4A95E2F782239323892B89F0ED
:104010006C2F82E792E00E94A1080E94841009C0E0
:10402000E4E7F2E08191C81799F382E0EA37F807F4
:10403000C9F76C2F82E792E00E94CB080E9484109F
:10404000CF91089580E28C0F883068F4C77021E02A
:1040500030E001C0220FCA95EAF78091D602822B88
:104060008093D602EBCFEBE5EC0FE33040F4F0E0C9
:10407000E85BFE4F808190E00E942509E1CFE8E5F2
:10408000EC0FEB3150F4F0E0EE0FFF1FE55BFE4F5D
:10409000808191810E940009D3CF83E38C0F83310B
:1040A00078F661E08C2F0E94D41ECACF0F931F9325
:1040B000CF93DF93C62FD42F022FFC018581882355
:1040C000A9F06093B4040E94671B9093B30480939B
:1040D000B204C77081E001C0880FCA95EAF70E9458
:1040E000E010DF91CF911F910F9108958091B4045A
:1040F000681335C08091B2049091B3040E94581B9C
:10410000883C910560F510E21D0FCD17B9F080E2F3
:104110008C0F883040F4C77081E001C0880FCA95C9
:10412000EAF70E94D910183048F481E09D2F97706B
:1041300001C0880F9A95EAF70E94E010802F0E9434
:10414000E21F802F0E94AC1F183058F6D77081E014
:1041500001C0880FDA95EAF70E94D910C2CFC77064
:1041600081E001C0880FCA95EAF7F6CFB0E0A0E081
:10417000ECEBF0E20C946F318C01FC01848188231C
:1041800009F468C021E04081518162817381958189
:104190000E94990FEC01F8019581992309F448C414
:1041A00080E280933301D0933A03C09339039E0198
:1041B00030522115304238F4F8018681807F09F4AD
:1041C00065C0FE010AC09E0130542115304100F542
:1041D000F8018681807FFE0109F0FF27ED33F105AC
:1041E00060F4E455FF4FE491E0933301F8018181DD
:1041F00080933C03808180933B03FE01E851FC47A0
:10420000E730F10508F042C0ED58FD4C0C94E03168
:104210009E013A9521153F41A0F29E01205A324558
:104220002032310550F3FE01D9CF26E241EE61EE96
:10423000C8010E9456208091B302877059F0F8019E
:104240008581882339F08091440482FF03C082E095
:104250000E944A0FCDB7DEB7EAE00C948B3127E21B
:1042600045EE65EEE5CF26E241EE60EEE1CF27E2D6
:1042700045EE64EEDDCF26E241EE62EED9CF27E2D5
:1042800045EE66EED5CF28E241E0EBCF1092B404C4
:104290009E0130572332310508F0E4C384E090E0FA
:1042A0000E941D329093440480934304FE01E15028
:1042B000F047E232F10520F4E658FD4C0C94E03171
:1042C0008091430481608093430495C080914404AD
:1042D0008860809344048FC0809143048260F3CF50
:1042E000809143048460EFCF809143048860EBCFDA
:1042F000809144048160EDCF809144048260E9CFD5
:10430000809143048061DFCF809143048062DBCFE2
:10431000809143048064D7CF0E949A1B809143040C
:104320008068D1CF809143048C60CDCF80914404CC
:104330008360CFCF809143048E7FC5CF80914404AA
:10434000877FC7CF809143048D7FBDCF8091430489
:104350008B7FB9CF80914304877FB5CF8091440490
:104360008E7FB7CF809144048D7FB3CF809143047B
:104370008F7EA9CF809143048F7DA5CF8091430488
:104380008F7BA1CF0E949A1B809143048F779BCF94
:1043900080914304837F97CF809144048C7F99CF91
:1043A0008091430482FB992790F921E0922790FBAA
:1043B00082F990FB83F987CF80914404982F9095E0
:1043C00091708E7F892B90FB81F983CF909143046C
:1043D000892F8F7B96FF806476CF0E949A1B9091E5
:1043E0004304892F97FB87F980586DCF61E08EE0F9
:1043F00090E00E943332609143047091440484E061
:1044000090E00E9451320E949A1B15CF60E0EFCFDE
:1044100090914304892F8F7E94FF806154CF9091B7
:104420004304892F8E7F90FF81604DCF909144048B
:10443000892F877F93FF88604CCF8091920269E239
:10444000811165E382E792E00E94A1081FC39923CE
:1044500009F4FAC2C3302CE7D20709F4BDC008F052
:10446000A0C0C1158CE7D80709F4A9C0C130DC474A
:1044700009F4B8C0F8018581C081D181882309F48D
:10448000BFC0CE010E94890EF82E682FCE010E9477
:10449000FD0EBE018F2D0E943B0D0E945A0DD82F9C
:1044A000C92FA82EF801C580B680B2943FE0B32290
:1044B0008091B3028770F1F0EC2CCC20E1F0892FD1
:1044C000807F803451F080E28D0F883098F0B110F9
:1044D00004C0892F807E803269F08091440482FF7D
:1044E00009C082E00E944A0F8091B3028770EE24D7
:1044F000E3948111E12CDC2ED2942FE0D222FBE058
:10450000FD1508F4E2C0ED2DF0E0E456FD4C0C94EE
:10451000E0318091B60491E089278093B60410922F
:1045200043018091B50481608093B50484CE47EB4C
:1045300059E061EC79E00E944A097DCE41EC59E0F6
:1045400067EB79E0F8CF43EA59E06DEA79E0F3CF21
:104550004DEA59E063EA79E0EECF49E859E066E9CF
:1045600079E0E9CF46E959E069E879E0E4CF4FE640
:1045700059E06CE779E0DFCF4CE759E06FE679E08E
:10458000DACF43E559E061E679E0D5CF41E659E07D
:1045900063E579E0D0CF81E00E94D6064CCE85E07D
:1045A000FBCFCB35ECE7DE0749F1CC35FCE7DF0785
:1045B000D9F0CA35DC4709F05DCF81E01CC00E940C
:1045C0009A1B3FEF84E39CE0315080409040E1F73C
:1045D00000C000000E946F116FEF7FEF90E080E05D
:1045E0000E9451320E94BE1E8091440482FB8827A3
:1045F00080F991E089270E9430183CCF80E0FBCF02
:10460000CE010E94CA0EF82E44CF2C2F2F70F22E0E
:10461000C07F19F0F29490EFF922CC20B9F0FF207E
:1046200069F080E28D0F883010F0A11009C08091F0
:10463000D602F82AF092D6020E9484108D2F43C031
:104640008091D502F82AF092D502F6CF8D2F0E94E4
:10465000AC1FFF20D1F1D05ED83010F0A11004C003
:104660008F2D0E94780E06C0F0948091D502F8221A
:10467000F092D5020E94841028C03C2F3F70F32E88
:10468000C07FC03219F0F29480EFF822AA2059F0CE
:1046900081E0A81609F479C0CC2009F485C0BB20BC
:1046A00009F447C0CBCF8091440482FD3EC0CC20AA
:1046B000B1F1FF2039F08091D602F82AF092D602AB
:1046C0000E94841080E00E94E21F2D2D2850330BA1
:1046D0002430310510F40E941812EE20A9F08091C8
:1046E000B30280FD11C0F8011582869586958695E6
:1046F0000E94610FC8010E94B6208091B302869586
:10470000869586950E94380F20E0F80140815181FE
:1047100062817381848195810E94990F9BCD80E095
:104720000E94AC1FFF2089F29BCFCC20A1F0B110DA
:1047300004C08F2D0E94E010C8CF91E0B912C5CF00
:104740008091D4029F2D9823F91609F4BECFF82A40
:10475000F092D402BACFB110B8CF8F2D0E94D910E9
:104760009091D4028F2D892329F08F2D8095892354
:104770008093D402809193029F2D982309F4A5CFB2
:10478000F094F822F0929302A0CFCC2029F0E5E03B
:10479000EB1508F49ACFCDCFF4E0FB1508F495CFD4
:1047A0008F2D0E94D91091CFBB20D1F329E3A21203
:1047B00009C03FEF87EE93E0315080409040E1F731
:1047C00000C000008D2F0E94AC1F7FCF8C2F8695DC
:1047D0008695837069F0813009F077CF8D2F9C2FFB
:1047E0009370C11002C080E090E00E9400096DCF7C
:1047F0008D2F9C2F9370C11002C080E090E00E942A
:10480000250963CF6C2D8D2F0E94D41E5ECF8C2F77
:10481000837009F03FC0C11058CF4D2F4295469587
:104820004770440F440F2D2F2F7030E0042E02C02C
:10483000220F331F0A94E2F790E080E0D4FF09C012
:104840008FE090E002C0880F991F4A95E2F78095AB
:104850009095C695C695C370C23099F078F4409192
:10486000D7025091D802C13039F0822B932B842388
:1048700095230E94710F29CF242B352B822B932B4C
:10488000F8CF822B932B2091D7023091D802822728
:104890009327EFCF8695CC2011F08C2F8170882341
:1048A00009F413CF4D2F429546954770440F440F9E
:1048B0002D2F2F7030E0042E02C0220F331F0A94D8
:1048C000E2F790E080E0D4FF09C08FE090E002C002
:1048D000880F991F4A95E2F780959095C695C695E1
:1048E000C370C23099F078F4409130035091310395
:1048F000C13039F0822B932B842395230E94330FF0
:10490000E4CE242B352B822B932BF8CF822B932BA9
:10491000209130033091310382279327EFCFCF705E
:10492000CC2029F08C2F0E94610F8D2F03CF8D2F6B
:104930000E94D9108C2F0E94380FC7CE8D2FE2EF26
:10494000AE1699F1EA1570F0F0EFAF16D1F021EF45
:10495000A21691F0CC2009F45BC0B1106FCE8C2F61
:104960008F7127C033EFA31639F194EFA912F2CF5C
:104970008091440482FD2EC08C2F8F71CC20D9F2FF
:1049800018C0CC2069F0E4E0EB1508F49ECECF719E
:1049900081E090E002C0880F991FCA95E2F7B8CF76
:1049A000F5E0FB1508F491CEF2CF8C2F8F71C1107A
:1049B000C2CF0E94610F89CE90E080E0CC2009F444
:1049C0009DCFCF7181E090E002C0880F991FCA95FA
:1049D000E2F794CFCC2089F0CF718C2F0E94610F29
:1049E0008091440482FF07C028E0C29FC0011124C7
:1049F00083608093B3028C2FDCCF81E00E944A0F4A
:104A000031E03B1508F061CE82E00E944A0F5DCE96
:104A1000BB2059F0893309F0D5CE8FEF97EEE3E054
:104A200081509040E040E1F7CBCE8C2F8F7183CF47
:104A3000FE01E851FC47E730F10508F4E5CBC6314B
:104A4000FCE7DF0709F4F9CC8091D6028272FE01FF
:104A5000E052F847E531F10508F00CCDE855FD4C82
:104A60000C94E031C631FCE7DF0709F0F0CC80910F
:104A7000D6028A7A91E009F490E09093920269E27A
:104A8000811165E382E792E00E94CB080E948410C6
:104A9000D2CBCF93DF938091B202807F09F04DC0DB
:104AA0008091B102882309F448C0E091AD0450918F
:104AB0007404C091AD02D091AC026091AE027091CD
:104AC000AF0247E05E17C9F18E2F90E0E49FF0013E
:104AD0001124EB58FB4F2481222391F1489FF001D0
:104AE000499FF00D1124DF01AB58BB4F11962C915B
:104AF00011972C1325C02C912D1322C015962C91A3
:104B0000159721111DC012962D913C91261B370B34
:104B1000283C3105A8F48091B2028F7080618093A7
:104B2000B202E558FB4F80818F70806180838CEAF0
:104B300092E00E94B6200E947F0EDF91CF910895EF
:104B4000FC013196E770BECFA4E1B0E0EAEAF5E2FD
:104B50000C946D318C0186E0F801DE011F96019006
:104B60000D928A95E1F7F8018481E5809CEAA92EEF
:104B700092E0B92E9091B002911128C0882319F1CA
:104B8000EE20F1F0C8010E94760FF82E8823C1F0C4
:104B900087E0F801D50101900D928A95E1F78091A7
:104BA000B002813031F48091AC029091AD020E944C
:104BB000BD0E0E9449258F2D6496ECE00C9489313E
:104BC000C8010E94B620FF24F394F5CFD080C180A5
:104BD00082809380F090B1022091AE023091AF02BA
:104BE000A401421B530BFF2009F4D9C0483C5105D6
:104BF00008F092C08823F9F29091AD028091B20240
:104C0000282F207F09F056C0C91214C09091AC0221
:104C1000D91210C0E11048C08F7080618093B20239
:104C20008CEA92E00E94B6208091B202F80186835D
:104C3000F12CC1CFE11038C06C2D8D2D0E94EF06F4
:104C40006C2D8D2D0E94EF06E82E8111F1CFDF86AD
:104C5000C88A8F8598890E94BD0E292F22952F70B2
:104C6000243058F49F70223088F0992399F0F8018D
:104C70009681907F79F4FE2C9ECF2A5F2F70223090
:104C800068F0C8010E94B620EF2CF5CF992311F0EF
:104C9000882389F3805E883070F3F3CF803F58F328
:104CA000815F833070F7E7CF8091B202816080939B
:104CB000B202BECFC91207C09091AC02D91203C094
:104CC000EE2009F48DC0C8010E94760F882309F4F4
:104CD00077CFEE2009F474CF8091B202803288F051
:104CE0002091AC023091AD02398728879B868A8655
:104CF0009091B0029C871D868E87CE0108960E94F7
:104D0000B62087E0F801ACEAB2E001900D928A95F6
:104D1000E1F70E94492557CF9091B202292F207FB9
:104D200051F48CEA92E00E94B62087E0F5011192DE
:104D30008A95E9F77DCF882309F43DCF8091AD02B4
:104D40008C1110C08091AC02D8120CC0E1100AC0C6
:104D50009683C8010E94B62087E0F50111928A95DA
:104D6000E9F729CFC8010E94760F882309F428CFDC
:104D7000EE2009F425CF8091B202803210F220910A
:104D8000AC023091AD023A8329839C828B82909150
:104D9000B0029D831E828F83CE010196B0CF483C26
:104DA0005105D0F6882309F40ECFFE2CEE2009F42D
:104DB00007CF8091AD028C1120C08091AC02D81237
:104DC0001CC08091B20280FD0FC0982F907F61F0CF
:104DD0008683903F31F0982F907F905F8F70892B62
:104DE0008683C8010E94B62087E0F801ACEAB2E0F1
:104DF00001900D928A95E1F7DECEC8010E94760FF0
:104E000081117FCF8091B20281608093B202C8018C
:104E10000E94B620D0CEABE1B0E0E1E1F7E20C9425
:104E200075314E8B5F8B688F798F8A8F9B8F192F8F
:104E300091111092D5021D8A86E0FE017696DE0160
:104E40001F9601900D928A95E1F70A8D002341F09B
:104E500021E04F85588969897A89C8010E94990F94
:104E60000B8B1C8B87E0FE013F96DE0118960190AC
:104E70000D928A95E1F7CE0108960E94A425811132
:104E80002AC087E0FE013896DE01119601900D924E
:104E90008A95E1F78C858823F1F02091740430E045
:104EA000C9010196877099274091AD0448171906EA
:104EB000E9F097E0929FD001939FB00D1124AB5879
:104EC000BB4FFE01319601900D929A95E1F78093C8
:104ED00074040E947F0E17E08091AD0490917404D9
:104EE000891312C06B96E4E00C9491310E949A1BD6
:104EF000109274041092AD0487E0ECEAF2E0DF0156
:104F00001D928A95E9F7E7CF819FC00111248B5844
:104F10009B4F0E94A425882329F38091AD0490E043
:104F20000196877099278093AD04D6CFACE0B0E0AE
:104F3000ECE9F7E20C946C318E010F5F1F4F88E0B3
:104F4000D8011D928A95E9F783E8C82E81E0D82E12
:104F5000F12CE12CAA24A394B12C2DE8822E21E07F
:104F6000922EF60181916F018F3F09F442C0F894AF
:104F7000E82FE295EF70F0E021A18F70A50102C04B
:104F8000440F551F8A95E2F7CA01922F982B91A3DF
:104F900092A18095892382A3789400C0E7E8F1E08C
:104FA000712C31E021912F3F09F46BC0A22FA29503
:104FB000AF70B0E090968C9190E02F7002C0959504
:104FC00087952A95E2F780FD5CC0832F782A330FFE
:104FD0008E169F0639F7F601319780818F3F11F0C9
:104FE0000E94330C50EA5A95F1F7F801EE0DFF1DBF
:104FF00070828FEFE81AF80AA4E0EA16F10409F0CB
:10500000B0CF48E050E0B80185E193E00E94EF3175
:10501000009741F028E0F801A5E1B3E001900D927E
:105020002A95E1F700911E03892B69F181E08093B5
:10503000DD020E94671B9093DC028093DB0280916B
:10504000DB029091DC020E94581B059700F110E0F2
:10505000015E1C4F44E050E065E173E0C8010E942E
:10506000EF31B12C892B51F084E0E5E1F3E0D80178
:1050700001900D928A95E1F7BB24B3941092DD0262
:1050800007C080E0A3CF8091DD028111D8CFB12C81
:105090000E94F311A82EE0911E03882309F489C011
:1050A00019861A861B861C860E2F10E0015E1C4F87
:1050B000809110038A3008F046C04DE958E1BE01E6
:1050C000675F7F4FC8010E94C011882309F460C048
:1050D00041ED59E1BE01675F7F4FC8010E94C011D9
:1050E000882309F455C047E458E1BE01675F7F4F4C
:1050F000C8010E94C011882309F44AC047EA59E157
:10510000BE01675F7F4FC8010E94C011882309F468
:105110003FC01092100380911D0390E044E050E0E6
:10512000BE01675F7F4F815E9C4F0E94EF3121E09F
:105130002093E402892BF1F4A12C8A2D8B292C9643
:10514000EDE00C9488318091DE029091DF020E94A4
:10515000581B843F914008F0B0CF8091E40288232F
:1051600059F3FE01399684E0DF011D928A95E9F733
:105170001092E402E0911D03F0E0E15EFC4F8985AE
:105180009A85AB85BC8580839183A283B383D5CF79
:10519000809110038F3F31F08F5F809310038A302E
:1051A00008F4B9CF0E94671B9093DF028093DE0260
:1051B000D4CF00911D0310E0015E1C4FF0E0E15ED2
:1051C000FC4F84E0A3EFB2E001900D928A95E1F7E5
:1051D00083EF92E00E940E078093F20284E0E7EFF3
:1051E000F2E0D80101900D928A95E1F7C090FB02A0
:1051F000D090FC02E090FD02F090FE028091E0026F
:105200009091E102A091E202B091E302C816D906A2
:10521000EA06FB06D1F0C092E002D092E102E092F1
:10522000E202F092E3020E94F31181110EC00E948B
:105230009508C61AD70AE80AF90AC0921103D09253
:105240001203E0921303F092140388E0EFEFF2E010
:10525000A6EBB4E001900D928A95E1F76ECFA6E03F
:10526000B0E0E5E3F9E20C9475310E94671B8C0114
:105270008091D9029091DA028017910781F019820A
:105280001A820E94671B682F49815A81792F80E01A
:1052900090E00E940B271093DA020093D902269621
:1052A000E4E00C9491311F921FB61F9211248F934A
:1052B0009F93AF93BF9380913E04811113C080915F
:1052C0003F0490914004A0914104B0914204419662
:1052D000A11DB11D80933F0490934004A09341040D
:1052E000B0934204BF91AF919F918F911F901FBEC9
:1052F0001F901895CDB7DEB760970FB6F894DEBF54
:105300000FBECDBF85B7806885BF85B7806885BF74
:1053100084B7877F84BF0FB6F894A895809160000A
:10532000886180936000109260000FBE80E890E07A
:105330000FB6F89480936100909361000FBE81E3F3
:105340009CE090937102809370020E9438070E9443
:10535000D9078091E20084608093E2007894809184
:105360006A048823A1F01091E9001F709091EC006D
:10537000892F817090FD80E8182B1092E9008091B0
:10538000E80083FD0E94C91B1F701093E90082E0B2
:1053900084BD93E095BD9AEF97BD80936E00109207
:1053A00011031092120310921303109214030E941F
:1053B000F311809328010E94F31181110E94F12FB3
:1053C000809128018091280194E0811190E09093D0
:1053D0001E0384E0891B80931D0384E90E94330C23
:1053E00086E60E94330C87E90E94330C86EC0E940B
:1053F000330C07E811E08DE8E82E81E0F82ED801A3
:105400008D918D018F3F11F00E94330CE016F10653
:10541000B1F788E0EFE1F3E0DF01282F1D922A9534
:10542000E9F7E5E1F3E0DF011D928A95E9F790E005
:1054300080E00E941D32863E9E4F11F00E94ED19C1
:1054400082E090E00E9415328093270384E090E090
:105450000E941D3290934404809343040E94962737
:10546000EFEFF6E721E0E150F0402040E1F700C027
:1054700000000E9496270E94F311E4E08111E0E011
:10548000F0E0E15EFC4F808181FF08C06FEF7FEFAD
:1054900090E080E00E9451320E946F1183E090E022
:1054A0000E94153290E00E94710F0E94500990E016
:1054B00080E00E941D32863E9E4F21F00E94ED1931
:1054C0000E94151881E08093B50448E050E068E13F
:1054D00070E086EB94E00E9405321092B504809152
:1054E000B6048C7F11F40E9415180E94F3118111EB
:1054F000B8C082E080935D0380E88093C3040E947B
:10550000AB2E6BE070E08FE792E00E94811388235E
:10551000E9F180915D0365E070E081FDA4C08AE758
:1055200092E00E948113882389F16DE070E088E6A3
:1055300092E00E948113882349F10E949508605AE5
:1055400075418F4F9F4F6093320470933304809363
:10555000340490933504E6ECF4E080E092E0DF015F
:105560009C011D9221503040E1F7F093CD06E0936D
:10557000CC068FEF9FEF9093C5048093C40481E025
:10558000809337048093360410925E030E94F311D7
:10559000811102C00E94F42F89E291E090933B04B4
:1055A00080933A04A0E46A2EBAE0CB2ED12CE12CF1
:1055B000F12C80916A0400E112E1853009F490C079
:1055C0000E949627E8E2AE2EE3E0BE2EFFE18F2E8A
:1055D000F3E09F2E20E333E0D401F50191918D910A
:1055E0002E173F0709F486C09817C1F30E94F311E4
:1055F000382E10E022242394D4010D914D01F501A1
:1056000041905F01401629F1712C55245394402696
:10561000842D8521B1F03320A1F07F8218870E946C
:10562000671B9A8789872B8691E0802F852109F453
:1056300090E09C874F81588569857A858B850E948B
:105640000B277394550CF6E07F12E2CFF5013197EA
:1056500000831F5F183081F60E94671377247394CC
:105660004EC080E047CF85E792E05BCF80916A042F
:10567000843039F10E94EE130E94AB1310923E0465
:1056800088E190E00FB6F894A895809360000FBE73
:105690006092600083B7817F846083BF83B781603D
:1056A00083BF7894889583B78E7F83BF0FB6F894B5
:1056B000A8958091600088618093600010926000DE
:1056C0000FBE80916904882359F00E949627EFE16C
:1056D000F3E0819181111AC393E0E732F907C9F72A
:1056E00080916A04853009F4C1CF0E949A1B0E9400
:1056F000181266CF98137ACF0E942F29712C0E941E
:10570000F3110E94EE1380913704882309F4BAC084
:1057100080915F03909160030E94581BC29708F428
:1057200091C00E94671B9093600380935F0386EC97
:1057300094E09093CD068093CC060E94F3118823C9
:1057400009F4C2C18BEA92E00E943E10209130031E
:1057500030913103832F9927009751F19C0188E004
:10576000A90164E0569547956A95E1F74115510501
:1057700011F08C5F9A01A90156954795569547956A
:105780004115510511F08E5F9A0136952795232B0F
:1057900009F08F5F813009F457C1882359F08230B6
:1057A00009F455C1833009F455C18AE892E004C078
:1057B00080E0D6CF83EA92E00E947E1080913C0385
:1057C0000E946F06FC01019620812032D9F3CF019F
:1057D0000E94EA1089EB92E00E943E1080913B0308
:1057E0000E946F06FC01019620812032D9F3CF017F
:1057F0000E94EA1085EB92E00E943E10209039034F
:1058000030903A0380913101909132012816390687
:1058100009F023C180913803803209F01EC122E3D0
:1058200033E0C9012F5F3F4FFC0140814032C9F393
:105830000E94EA1083EB92E00E943E1080913301B7
:105840000E94BE0F8091C4049091C504892B09F079
:1058500078C1809136048823A9F00E9495080091B0
:105860003204109133042091340430913504601BCC
:10587000710B820B930B6F3F7F4F8F4F9F4710F43D
:105880000E94AB1371100E94C61386E0E9E6F3E0B4
:10589000DE01119601900D928A95E1F790906A03CE
:1058A00010916B0300916C03A0906D03B0906E0398
:1058B00010926B0310926C0310926D0310926E03A2
:1058C000812F802B09F445C0809167039091680374
:1058D0000E94581B9C0190916203992309F436C2DF
:1058E00025313105B0F19F3F19F09F5F909362031E
:1058F000112359F00E94030C9FEF11160CF491E054
:10590000899F802D112480936B03002359F00E94FE
:10591000030C91E010160CF09FEF899F802D11244D
:1059200080936C0380916B03882399F080906C03C3
:10593000882079F00E94230C882309F4DFC180932A
:105940006B03882D0E94230C882309F4D9C180930E
:105950006C038A2D8B2909F445C0809165039091D1
:1059600066030E94581B9C0190916303992309F4DC
:10597000E8C121353105B0F19F3F19F09F5F909349
:105980006303AA2059F00E94E10B9FEF1A140CF454
:1059900091E0899F802D112480936D03BB2059F0E5
:1059A0000E94E10B91E01B140CF09FEF899F802D6A
:1059B000112480936E0380916D03882399F0A09049
:1059C0006E03AA2079F00E94230C882309F49AC15F
:1059D00080936D038A2D0E94230C882309F494C1BF
:1059E00080936E0380916A03981217C080916B03B5
:1059F000882311F0181311C020916C03222311F099
:105A000002130BC090916E03992311F09B1105C0F6
:105A100030916D03332309F48FC10E94731B86E01C
:105A2000FE013196A9E6B3E001900D928A95E1F767
:105A30000E94181290916103891709F4BACD8093DE
:105A400061030E949508B5CD8DE992E0B5CE87E956
:105A500092E0B2CE80E992E0AFCE30923201209255
:105A6000310180E280933803512C412C109237038E
:105A7000B2E38B2EB3E09B2E1DE2A12E13E0B12EDC
:105A80008401C201B101A70196010E94BE31605D8F
:105A9000603319F48016910631F021143104410469
:105AA000510409F460E2D80114966C93C201B1016B
:105AB000A70196010E94BE3119012A010150110966
:105AC000A016B106F1F6ABCE8091CC069091CD0632
:105AD000865C94409C013E5F21303240A0F020E083
