:100000000C94CE060C9406070C9406070C94AF30A3
:100010000C9406070C9406070C9406070C9406072C
:100020000C9406070C9406070C94F4170C94AA1C65
:100030000C94B2280C9406070C9406070C9406073F
:100040000C9406070C9406070C9406070C940607FC
:100050000C9406070C94CD180C9406070C94060714
:100060000C9406070C9406070C9406070C940607DC
:100070000C9406070C9406070C9406070C940607CC
:100080000C9406070C9406070C9406070C940607BC
:100090000C9406070C9406070C9406070C940607AC
:1000A0000C9406070C9406070C94060729443400A8
:1000B0003600370013001C002B000400120008005B
:1000C00018000C003862330014000D000E001B00F5
:1000D000000000000000E0002841E2002E000F00B8
:1000E000150006000A0009002D6116001100170016
:1000F0000B00070031721D0019001A0010000500E6
:100100000000000000002A742C42E70035001E00A9
:100110001F00200021002200210224022F002F02B4
:10012000300226023A003B003C003D003E003F000A
:10013000000000000000E0000100E20020022700B3
:1001400026002500240023001E0230002E02270274
:1001500025022E00450044004300420041004000BB
:100160000000000000002A742C43E30035021E0248
:100170001F022002210222020000000000000000F5
:10018000000000000000000000000000000000006F
:10019000000000000000E0002843E200F500270214
:1001A0002602250224022302000000004F00520014
:1001B000510050000000000000000000000000009E
:1001C0000000000000002A740100E700005C00004D
:1001D0000000000000000000C35CC65CC85CCA5C94
:1001E000CC5C0000C45CC75CC95CCB5CCD5C00002F
:1001F00000000000000000000100000000000000FE
:10020000000000000000000000000000BF5CBC5CBB
:10021000C15CC05C00000000BD5CBD5CC25C000055
:1002200000000000000000000100000001000000CC
:1002300000004600470048000000000000004900A0
:100240004A004B000000000000004C004D004E0032
:100250000000000000000000000000002A00000074
:10026000610060005F005300850057005E005D0084
:100270005C005500670056005B005A0059005400AE
:1002800000000000000058006300620000DA0281F4
:10029000FFD9F1DB20A4A62EAF00A0C000A1C800AA
:1002A000AED580A81FD300408D1420001E0F05007E
:1002B000047F3F1F643214643214783C1E1E140AFB
:1002C0000541646A757374005261697365004C6F0F
:1002D0007765720044656661756C74004C61796580
:1002E000723A20003A002C206B00780000000000D9
:1002F00000FEFFFFFFFFFFFFFFFFFFFFFFFFFFFF0E
:10030000FFFFFFFFFFFFFFFFFFFFFFFFFFFFFFFFFD
:10031000FFFFFFFFFFFFFFFF0F0F0F0F0FFFFFFF9D
:10032000FFFFFFFFFFFFFFFFFFFFFFFFFFFE0000DC
:1003300000000000000000000000000000000000BD
:1003400000000000000000000000000000000000AD
:10035000000000000000000000000000000000009D
:10036000000000000000000000000000000000008D
:1003700000FFFFFFFF8383838383FFFF83838383E8
:10038000FFFF8383838383FFFF83838383FFFF8355
:1003900083838383FFFFFFFF8282828282FFFF834A
:1003A000838383FFFF8383838383FFFFFFFF00003B
:1003B0000000000000000000F8FCFCFC9C9CFCFC21
:1003C000F8F870000000000030787C3C9CFCFCF8E1
:1003D000F00000000000C0F0F8F83C3C9CBCFCB809
:1003E000B8A00000000000000000000000000000B5
:1003F00000FFFFFFFF4141414141FFFFFFFFFFFFC2
:10040000FFFF4141414141FFFFFFFFFFFFFFFF4170
:1004100041414141FFFFFFFF4141414141FFFF7F1A
:100420007F7F7FFFFF4141414141FFFFFFFF000010
:1004300000000000000000003F3F3F3F03070F3F68
:100440003F3E382000000000383C3E3F3F3F3B39F4
:10045000380000000000070F1F3F3C383B3B3F1FA8
:100460001F0F00000000000000000000000000005E
:10047000007FFFFFFFF0F0F0F0F0FFFFFFFFFFFF56
:10048000FFFFF0F0F0F0F0FFFFFFFFFFFFFFFFF0D6
:10049000F0F0F0F0FFFFFFFFF0F0F0F0F0FFFFF002
:1004A000F0F0F0FFFFF0F0F0F0F0FFFFFF7F000052
:1004B000000000000000000000000000000000003C
:1004C000000000000000000000000000000000002C
:1004D000000000000000000000000000000000001C
:1004E0000000000000000000000000000001010109
:1004F00001010101010102020202020202020203E1
:1005000003030303030303040404040404040505B0
:100510000505050606060606070707070708080873
:1005200008090909090A0A0A0B0B0B0C0C0C0D0D22
:100530000D0E0E0E0F0F0F101011111112121313BA
:100540001414151516161717181819191A1A1B1B33
:100550001C1D1D1E1E1F202021222223242425268F
:1005600026272829292A2B2C2D2D2E2F30313232C7
:10057000333435363738393A3B3C3D3E3F404142D3
:10058000434445464748494A4C4D4E4F50515354B9
:10059000555658595A5B5D5E5F616264656668696D
:1005A0006B6C6D6F7072737577787A7B7D7E8082ED
:1005B000838587888A8C8E8F91939596989A9C9E36
:1005C000A0A2A3A5A7A9ABADAFB1B3B5B7BABCBE46
:1005D000C0C2C4C6C9CBCDCFD1D4D6D8DBDDDFE213
:1005E000E4E7E9EBEEF0F3F5F8FAFDFFFFAA7F553B
:1005F000402223252628292A2C2D2F303233353628
:10060000383A3B3D3E4042434547494A4C4E5051A3
:10061000535557595A5C5E6062646668696B6D6FCA
:1006200071737577797B7D7F81838587898A8C8ECD
:1006300090929496989A9C9E9FA1A3A5A7A8AAACD5
:10064000AEAFB1B3B4B6B8B9BBBCBEBFC1C2C3C50F
:10065000C6C7C9CACBCCCDCED0D1D2D2D3D4D5D6B1
:10066000D7D7D8D9D9DADADBDBDBDCDCDCDCDCDDE4
:10067000DDDDDDDCDCDCDCDCDBDBDBDADAD9D9D8C8
:10068000D7D7D6D5D4D3D2D2D1D0CECDCCCBCAC960
:10069000C7C6C5C3C2C1BFBEBCBBB9B8B6B4B3B18F
:1006A000AFAEACAAA8A7A5A3A19F9E9C9A9896942A
:1006B00092908E8C8A89878583817F7D7B797775FF
:1006C00073716F6D6B6968666462605E5C5A5957DE
:1006D000555351504E4C4A4947454342403E3D3B9D
:1006E0003A3836353332302F2D2C2A292826252327
:1006F0002200AF00AE05010902A10185020901A196
:1007000000050919012908150025019508750181C1
:10071000020501093009311581257F95027508818F
:100720000609381581257F950175088106050C0A93
:1007300038021581257F950175088106C0C0050125
:100740000980A101850319012AB700150126B70008
:10075000950175108100C0050C0901A101850419DE
:10076000012AA002150126A002950175108100C082
:1007700005010906A1018506050719E029E715000D
:1007800025019508750181020507190029EF15005B
:10079000250195F0750181020508190129059505C6
:1007A00075019102950175039101C005010906A12A
:1007B00001050719E029E715002501950875018154
:1007C000029501750881010507190029FF1500260A
:1007D000FF00950675088100050819012905950592
:1007E00075019102950175039101C009023B000258
:1007F0000100A0FA09040000010301010009211110
:1008000001000122400007058103080001090401DD
:1008100000010300000009211101000122B60007B8
:100820000582032000011201000200000008534667
:1008300001000100010200010C0343006F0072007F
:100840006E0065000000100366006F006F0073000B
:10085000740061006E000000040309040000000041
:1008600000003E5B4F5B3E003E6B4F6B3E001C3E0C
:100870007C3E1C00183C7E3C18001C577D571C0019
:100880001C5E7F5E1C0000183C180000FFE7C3E7F9
:10089000FF00001824180000FFE7DBE7FF003048E6
:1008A0003A060E00262979292600407F0505070013
:1008B000407F05253F005A3CE73C5A007F3E1C1C08
:1008C0000800081C1C3E7F0014227F2214005F5F7A
:1008D000005F5F0006097F017F00006689956A005E
:1008E00060606060600094A2FFA2940008047E042F
:1008F000080010207E20100008082A1C0800081C90
:100900002A0808001E10101010000C1E0C1E0C00EF
:1009100030383E383000060E3E0E06000000000063
:10092000000000005F000000000700070000147FC7
:10093000147F1400242A7F2A120023130864620003
:10094000364956205000000807030000001C2241D1
:1009500000000041221C00002A1C7F1C2A000808FD
:100960003E080800008070300000080808080800F1
:100970000000606000002010080402003E5149455C
:100980003E0000427F400000724949494600214133
:10099000494D33001814127F100027454545390092
:1009A0003C4A49493100412111090700364949496A
:1009B0003600464949291E0000001400000000408E
:1009C0003400000000081422410014141414140010
:1009D0000041221408000201590906003E415D59F8
:1009E0004E007C1211127C007F49494936003E417D
:1009F000414122007F4141413E007F494949410038
:100A00007F09090901003E41415173007F08080830
:100A10007F0000417F4100002040413F01007F08EE
:100A2000142241007F40404040007F021C027F00B2
:100A30007F0408107F003E4141413E007F090909C3
:100A400006003E4151215E007F09192946002649D2
:100A50004949320003017F0103003F4040403F000D
:100A60001F2040201F003F4038403F0063140814FF
:100A700063000304780403006159494D4300007F7B
:100A800041414100020408102000004141417F0023
:100A900004020102040040404040400000030708F7
:100AA00000002054547840007F28444438003844E3
:100AB00044442800384444287F00385454541800D3
:100AC00000087E0902001824241C78007F08040412
:100AD000780000447D4000002040403D00007F1031
:100AE0002844000000417F4000007C047804780026
:100AF0007C08040478003844444438007C182424DA
:100B00001800182424187C007C08040408004854A9
:100B10005454240004043F4424003C4040207C0002
:100B20001C2040201C003C4030403C004428102841
:100B300044004C9090907C004464544C4400000865
:100B40003641000000007700000000413608000038
:100B50000201020402003C2623263C0000000000A3
:100B6000000000000000000000000000C0E0F0F8FD
:100B7000F81800C0F0FCFEFFFFFFFFFFFFFF7E0044
:100B8000000000000000000080C0E0E0E0E0E0E0E5
:100B9000E0E0C0800000000080C0E0E0E0E0E0E0D5
:100BA000E0E0C080000000E0E0C0C0E0E0E0E00085
:100BB00000E0E0C0C0E0E0E0E0E0C0800000000055
:100BC00080C0E0E0E0E0E0E0E0E0C08000000000A5
:100BD00000000000000000000000E0F0F0F0E0EC99
:100BE000EEF7F37020007C7C7C7E007E7E7E7F7F33
:100BF0007F000080C0E07E5B4F5BFEC00000C00055
:100C0000DCD7DEDEDED7DC00C00000000000000024
:100C100000000000000000000000000000000000D4
:100C20000000000000F8FCFEFFE000FFFFFFFFFFF8
:100C3000FF80FFFFFFFFFFFFFFFFFF1F0701000017
:100C400000000000000000FFFFFF81000000000026
:100C50000081C3C3C30000FFFFFF8100000000004C
:100C60000081FFFFFF0000FFFFFF01000000000008
:100C700000FFFFFF010000000001FFFFFF0000FF79
:100C8000FFFF9D1C1C1C1C1C1C9DDFDFDF000000E7
:100C9000000000000000000000000F1F3F7F7F7F6A
:100CA0007F7F3F1E0C001F1F1F3F003F3F3F7F7F86
:100CB0007F00307B7F7830202030787F3B0003003E
:100CC0000F7F0F0F0F7F0F000300000000000000D8
:100CD0000000000000000000000000000000000014
:100CE0000000000000030F1F3F3F3F3F1F1F3F3F1B
:100CF0007F7F7F3F3F1F3F7F7F7F7F7C7878381CDF
:100D00000F000000000000000103070707070707A6
:100D10000707030100000000010307070707070793
:100D2000070703010000000707070000000000009C
:100D30000007070700000000000007070700000089
:100D40000103070707070707070703010000000063
:100D50000000000000000000000000000000000093
:100D60000000000000000000000000000000000083
:100D70000000000000000000000000000000000073
:100D80000000000000000000000000000000000063
:100D900000000000000000000000000011241FBE41
:100DA000CFEFDAE0DEBFCDBF04B603FE18C08091FE
:100DB000470790914807A0914907B0914A078730AB
:100DC000904BA740B04B59F4109247071092480738
:100DD0001092490710924A07E0E0F8E3099527E0EE
:100DE000ACEFB1E001C01D92A734B207E1F711E00A
:100DF000A0E0B1E0E8E4F7E602C005900D92AC3F58
:100E0000B107D9F70E94D9280C948C330C940000B8
:100E10008F929F92AF92BF92CF92DF92EF92FF920A
:100E200090914F01981305C090913B05903209F4C1
:100E30004BC080934F0190E290933B05C82ED12C7C
:100E4000F12CE12C10923A05C701B6012AE030E0FE
:100E500040E050E00E945B33605D603331F0C114CC
:100E6000D104E104F10409F460E26093390560E221
:100E70008AE0C816D104E104F10490F08AE0882EDB
:100E8000912CA12CB12CC701B601A50194010E949F
:100E90005B33CA01B901A50194010E945B33605D17
:100EA0006093380520E284E6C816D104E104F10419
:100EB00048F0C701B60124E630E040E050E00E946F
:100EC0005B33205D2093370587E395E0FF90EF903B
:100ED000DF90CF90BF90AF909F908F900895FC01CE
:100EE000AC014C5F5F4F8FEF91E32191822728E0A7
:100EF00030E087FF09C0880F892721503109C9F7E1
:100F0000E417F50791F70895880FF7CFE8EDF0E0C3
:100F100080818E7F80831092E2001092DA0010921E
:100F2000E100A0EEB0E08C9181608C9380818F779E
:100F3000808319BCA7EDB0E08C918E7F8C9380816B
:100F40008F7E80831092050508952091E4003091F2
:100F5000E50095E6A9012091EC00822F817020FF29
:100F600006C08091E80080FF06C080E008952091CF
:100F7000E80022FD1AC080912A05882389F0853077
:100F800089F08091EB0085FD0FC02091E400309145
:100F9000E50042175307F9F29150E1F684E0089515
:100FA00082E0089583E0089581E00895EF92FF9232
:100FB0000F931F93CF937C018B010E94A507C82F2D
:100FC000811117C08091E80085FD0BC08091E80079
:100FD0008E778093E8000E94A507882399F3C82F95
:100FE00008C0F70181917F018093F1000150110940
:100FF00049F78C2FCF911F910F91FF90EF9008959B
:1010000080912C0587FF13C08091E80082FF06C005
:101010008091E8008B778093E80004C080912A05D6
:101020008111F2CF089580912A058823D9F3809108
:10103000E80080FFF8CF8091E8008E77ECCF982F02
:101040009093E900242F762F50E0891731F07091AA
:10105000EC002091ED005091F00021FD07C09F5F52
:10106000973071F78093E90081E008953091EB00AB
:101070003E7F3093EB003091ED003D7F3093ED00EB
:101080003091EB0031603093EB007093EC002093D3
:10109000ED005093F0002091EE0027FDE0CF80E0BE
:1010A0000895B0E0A0E0E7E5F8E00C94E931C8ED80
:1010B000D0E088818F7E8883E7EDF0E080818160D9
:1010C000808384E082BF81E08093050588818E7FE4
:1010D000888302EE10E0F80110821092DA0081EEAF
:1010E000C82ED12CF601108288818F778883888161
:1010F0008068888388818F7D888319BC10922A0537
:1011000010922B05109229051092280590EEE92ED9
:10111000F12CF70180818B7F8083888181608883B7
:1011200042E060E080E00E941F08F60180818E7F2F
:101130008083F801808181608083808188608083E2
:10114000F70180818E7F8083888180618883CDB71D
:10115000DEB7E8E00C940532FC01809132059091F5
:10116000330586179707A0F06115710529F4909152
:10117000E8009E779093E80090E06115710551F4C6
:10118000911108C08091E80082FF34C080E008958A
:10119000BC01F2CF80912A058823C1F18530C1F1CD
:1011A0008091E80083FD30C08091E80082FDEACFA5
:1011B0008091E80080FFE1CF8091F3002091F20060
:1011C000382F6115710519F02830310558F091E07C
:1011D0002830310509F090E02091E8002E77209327
:1011E000E800CBCF81918093F100615071092F5FAE
:1011F0003F4FE7CF80912A05882341F0853041F0A9
:101200008091E80083FFBECF81E0089582E00895D9
:1012100083E0089508958091070508952FB7F89405
:101220006091FC047091FD048091FE049091FF0494
:101230002FBF089520914E012223C9F0209100056F
:1012400027FF15C0E62FE695E695E695EE31D8F432
:10125000E80FF92FF11D677021E030E001C0220F87
:101260006A95EAF720958281282322830895FC015C
:10127000329608962191621303C0DF0111971C92E8
:10128000E817F907B9F7089520914E012223C1F01C
:101290002091000527FF14C0E62FE695E695E69518
:1012A000EE31F8F4E80FF92FF11D677021E030E01E
:1012B00001C0220F6A95EAF78281822B828308950A
:1012C000FC0132962FEF30E04191641751F02F3F2F
:1012D00019F4411101C0232F3F5F3630A9F72F3F8A
:1012E00009F40895820F911D27FD9A95FC016283F0
:1012F00008952091F9043091FA042817390771F004
:101300009093FA048093F904E091F704F091F804C3
:10131000309721F00084F185E02D09950895209102
:10132000F5043091F6042817390771F09093F6040C
:101330008093F504E091F704F091F804309721F0E0
:101340000680F781E02D09950895FA01811101C009
:10135000FB01099508950895E4E3F3E01182828189
:101360008460828308958091EA04982F9E7F61F4BF
:10137000817082608093EA048091ED04893718F0CF
:1013800088E78093ED0408958635B0F38170846515
:10139000F1CFAF92BF92DF92EF92FF920F931F9324
:1013A000CF93DF93182F062FE901493708F048E75C
:1013B000E42FF0E0E451FB4F011110C0E4915E2FE7
:1013C0004E2F4983E8835A83DF91CF911F910F916C
:1013D000FF90EF90DF90BF90AF900895202F30E006
:1013E0004491D42EE42EF12C56E0159FC001112417
:1013F000EFEFF0E0BF010E94CB31812F90E0880F2A
:10140000991F55E5569FD001579FB00D11248A1B97
:101410009B0B982F990F890F5F01A21AB30AAE9CFC
:10142000D001AF9CB00DBE9CB00D11245B2F089F66
:1014300080011124012F11275F01A01AB10AAE9C6F
:101440008001AF9C100DBE9C100D11245F01A81AE5
:10145000B108A29EC001A39E900DB29E900D1124D2
:10146000892F9927E81BF90BEE9DC001EF9D900D88
:10147000FE9D900D1124E92F62307105A1F050F40A
:101480006115710509F49DCF6130710581F0EB2F75
:10149000512F97CF6430710569F080F06630710587
:1014A00009F48FCFF4CFE42F4B2F592F8ACFE42F9D
:1014B000412F87CFEB2F542F492F83CF4B2F5D2DFB
:1014C000E12F7FCF40912A038D3E59F480912B0369
:1014D00087FF0DC010922B0341110BC01092220305
:1014E00008C08E3E81F480912B0318169CF3442390
:1014F00081F080912C0390912D03892B09F05AC023
:101500001092210308958F3E49F447FFF0CF1092C7
:101510002A0380912B038111ECCFE0CF803F19F497
:101520001416ACF3E4CF90912C03893F29F41916DB
:10153000F4F610922C03DBCF8A3F19F497FFD7CF34
:10154000F8CF90912D038B3F29F497FFD0CF1092C5
:101550002D03CDCF8C3F19F41916CCF3C8CF9FE0E3
:10156000980F983090F4815F990B21E030E0B90139
:1015700002C0660F771F8A95E2F7CB0180959091A4
:101580002903892380932903B2CF8D3F31F48091C1
:1015900023038E7F80932303AACF8E3F21F4809173
:1015A00023038D7FF7CF8F3F09F0A1CF80912303D5
:1015B0008B7FF0CF08958091230380FD16C081FDBD
:1015C00016C082FD16C0809121038823A1F08832C5
:1015D00080F428E0829FC001112468E270E00E943C
:1015E0003032862F672B39F0089582E0089584E029
:1015F000089588E0089581E008958091230380FD97
:1016000014C081FD14C082FD16C08091220388237E
:1016100081F08E3180F420E5829FC00111246EE1BB
:1016200070E00E943032862F089584E1089588E2A8
:10163000089588E0089580E508958D3E31F40E9474
:10164000FD0A819580932B0308958E3E19F40E9424
:10165000FD0AF8CF8F3E31F40E94FD0A81958093F8
:101660002A030895803F19F40E94FD0AF8CF893FAC
:1016700029F40E94DB0A80932C0308958A3F21F409
:101680000E94DB0A8195F7CF8B3F31F40E94DB0A81
:10169000819580932D0308958C3F19F40E94DB0AF5
:1016A000F8CF9FE0980F983070F4815F990B21E09C
:1016B00030E001C0220F8A95EAF780912903822B3E
:1016C0008093290308958D3F31F480912303816035
:1016D0008093230308958E3F21F480912303826039
:1016E000F7CF8F3FB9F7809123038460F1CF80E07B
:1016F0000895F894E82FE295EF70F0E031A1282FDB
:101700002F7081E090E001C0880F2A95EAF7982FAA
:101710009095932391A392A1892B82A37894089505
:101720009091000592FF06C0282F28712830F9F407
:10173000877F846093FF06C0282F28712831F1F439
:10174000877E84612091010520FF06C0382F387103
:101750003830D9F4877F816021FF06C0282F287197
:101760002831D1F4877E816194FD877E0895282FEA
:1017700024712430F9F68B7F8860DCCF282F247108
:10178000243101F78B7E8861DDCF382F3171313004
:1017900019F78E7F8860E0CF282F2171213121F742
:1017A0008E7E8861E1CF972F7830A8F4663098F468
:1017B00070E026E0929F600D711D1124FB0190E303
:1017C000899FE00DF11D1124EE0FFF1FE455FF4F1F
:1017D00085919491089580E090E00895CF93DF93F0
:1017E000EC0182389105A9F1D8F58133910509F40E
:1017F00096C048F58932910509F48AC08A9709F4A0
:1018000095C0C11521E5D20708F0BCC0C11530E56F
:10181000D30708F014C1C83ED10508F09CC0C03EF3
:10182000D10560F5C83AD10508F087C0C53AD105A1
:1018300008F0FDC0C130D10509F12097F9F0C4309E
:10184000D105E0F440C08533910509F45AC0C99729
:10185000C1F680910005837089F0C0EED0E00EC023
:10186000833E910599F170F4803E910501F1823E2D
:10187000910539F68091000582FD21C0CE01DF91EE
:10188000CF910895863E910561F1873E910571F1F2
:10189000843E910509F0B5CF8091010581FFEECF1F
:1018A00080910005C7EED0E084FD0DC0E7CF8091A8
:1018B000000580FD12C19091010590FFDFCFC3EEBE
:1018C000D0E084FFDBCFD0E0C0E0D8CF809100052E
:1018D00082FD06C19091010590FDBFCF84FFCECF60
:1018E000F2CF8091000583FDDDCFC8CF8091000548
:1018F00083FDF9C09091010591FFF0CFC4EED0E0D7
:10190000BDCF8091000585FFB9CFC9E2D0E0B6CF49
:101910008091000585FFB2CFC5E3D0E0AFCF8091C5
:10192000000586FFABCFCAE2D0E0A8CF80910005CA
:1019300086FFA4CFC1E3D0E0A1CFCF3BD10518F6FD
:10194000C85AD0E0CC0FDD1FC157DE4F0990D881B7
:10195000C02DD46493CFC11540E2D40758F4C1150B
:1019600081E0D80708F08ACFCD3ED10508F4ABCF8F
:10197000D06584CFC11590E4D90708F4A4CFDF70F7
:10198000D06A7CCFC11525E5D20700F5C11534E535
:10199000D30708F08AC0C11543E5D40708F071C029
:1019A000C11582E5D80708F467C0CE018370992776
:1019B00021E030E002C0220F331F8A95E2F7C6957E
:1019C000C69580E2C89FE001112452C0C11599E577
:1019D000D907A8F4C11528E5D20708F06BC0C115D6
:1019E00036E5D30708F06FCF8C2F0E94900BC82FDD
:1019F000D0E0DC2FCC27CC27DF71D0623FCFC115E0
:101A00004AE5D40708F45BC0CE0190568115904298
:101A100008F059CF8D2F8F710E94900B90E0982F76
:101A2000882788279F719C012C2BE901E6CFC55A96
:101A3000D0E0C457DE4FC881D0E0D0641FCFCE01C4
:101A4000E4E096958795EA95E1F783702C2F26952B
:101A50002695237040E2249F90011124382B8C2F6F
:101A60008370C1E0D0E002C0CC0FDD1F8A95E2F7A1
:101A7000C22BD32BDC6802CFDC2FCC27C16FD06AFE
:101A8000FDCECE018370992721E030E002C0220F05
:101A9000331F8A95E2F7C695C69590E2C99FE0018B
:101AA0001124C22BD32BDA68E9CEDC2FCC27C46FEC
:101AB000D06AE4CEDC2FCC27C06FD06ADFCE8C2F6B
:101AC0008F700E94900B34E0D695C7953A95E1F758
:101AD000CF709C2FEC01D069D1CEC9E3D0E0CECE3F
:101AE000C2EED0E0CBCEC6EED0E0C8CE8091980258
:101AF00081111092980208958095909197029823F1
:101B000090939702089580917402909143029813E4
:101B100001C008958F5F8770FACFB0E0A0E0E3E9DD
:101B2000FDE00C94E8318C01C090ED02D090EE0203
:101B3000E090EF02F090F0028091990290919A0269
:101B4000A0919B02B0919C02C82AD92AEA2AFB2ABA
:101B5000CFE1D0E0BC2ED701C6010C2E04C0B69553
:101B6000A795979587950A94D2F780FD09C021978C
:101B700088F7B12C8B2DCDB7DEB7E9E00C94043299
:101B8000B8018C2F0E94D30B0E94EE0B019779F3C2
:101B9000F1CFCF93DF93EC010E948D0DBE010E9427
:101BA000D30B0E94EE0BDF91CF910895292F98302F
:101BB00080F5863070F590E036E0239F800D911D12
:101BC0001124682F677023E0969587952A95E1F791
:101BD00025E0289FF001299FF00D1124E15EFD4FC3
:101BE00050E040E080E0219130E0062E02C03695C2
:101BF00027950A94E2F721703327042E01C0220FA3
:101C00000A94EAF7822B4F5F5F4F4530510559F731
:101C1000089580E00895292F9830A0F5863090F53A
:101C200090E036E0239F800D911D1124282F27700E
:101C300041E001C0440F2A95EAF723E09695879585
:101C40002A95E1F725E0289FF001299FF00D112446
:101C5000E15EFD4F30E020E070E05191DF0111972F
:101C6000CB01022E02C0969587950A94E2F7817007
:101C700081958527842385278C932F5F3F4F2530BF
:101C8000310559F70895FC01808191810E94C90DA9
:101C900092959F70963091F058F4925F9F709230B9
:101CA00058F4803F19F030F4883E30F481E0089514
:101CB0009A5FF4CF843FD1F380E00895883EB0F37B
:101CC000813FD1F7F3CFCF93DF93682F81E06A3064
:101CD00019F06D3031F480E00E94F10EDF91CF9168
:101CE0000895809145079091460726E0FC01AFE3F7
:101CF000B7E001900D922A95E1F7603E08F458C0D4
:101D000026E0FC0111922A95E9F7C0914507D09190
:101D1000460746E050E0BE018FE397E00E94CB32D9
:101D20009E012F533540892B41F1C90145E096951D
:101D300087954A95E1F741E050E0BA0102C0660F8D
:101D4000771F8A95E2F7CB0160913D0570913E05C2
:101D5000862B972BB9016B5F7F4FE5E076956795F2
:101D6000EA95E1F702C0440F551F6A95E2F7842B0C
:101D7000952B90933E0580933D052A5F3F4F409100
:101D80003C05642F70E0C9010E94CB31481B4630EE
:101D900010F4240F311D211572E0370710F030E0E8
:101DA00020E0215C3A4F309346072093450796CFB9
:101DB000F6E06F9FB0011124645A774F46E050E07F
:101DC0000E94B532A2CFCF93DF93EC01FE01849144
:101DD000811103C0DF91CF9108950E94630E219677
:101DE000F5CFCF93382FE0914507F0914607EF5399
:101DF000F54020913C05622F70E0CF010E94CB316D
:101E0000281B822F332361F066E00E941632C82F10
:101E1000C15010F4CF91089580E20E94630EF8CF74
:101E20009F01280F311D2115324018F080E0F0E0AD
:101E3000E0E08E0F9F2F911D815C9A4F9093460793
:101E400080934507E7CF8091970290919602892B66
:101E50008093FE01909198029923A1F0892B8093A1
:101E6000FE0180914E018823E1F18091000587FFFA
:101E700038C08EE1E0E0F2E090E08150A0F59111F1
:101E80000E94760D40E250E066E772E08EEF91E04E
:101E90000E94CB32892B21F180E2EEEFF1E0A6E740
:101EA000B2E001900D928A95E1F7E091F704F0918C
:101EB000F8043097A9F080914E01882359F0809161
:101EC000000587FF07C08091FE018093FF0186E037
:101ED0008093FE010280F381E02D8EEF91E0099561
:101EE000089586E0C7CF2191222339F29F5FC5CFA5
:101EF000882321F00E947C0D0E94230F08958823DF
:101F000039F090919702982B909397020E94230F9B
:101F100008950F931F93CF93DF93EC01FC01019081
:101F20000020E9F78F0101501109C017D10728F0EF
:101F3000DF91CF911F910F91089589910E94630EB7
:101F4000F4CF80930205709304056093030580919C
:101F50002A05843001F582E08093E9008FEF9091AB
:101F6000E800815095FD06C095ED9A95F1F70000C7
:101F70008111F5CF8091E80085FF0DC050E040E071
:101F800063E070E082E095E00E94D6078091E8006F
:101F90008E778093E8000895BC0184E00E94A10F31
:101FA0000895BC0183E00E94A10F08959C0182E086
:101FB0008093E9009FEF8091E800915085FD06C075
:101FC00085ED8A95F1F700009111F5CF8091E80039
:101FD00085FF0CC050E040E066E070E0C9010E945F
:101FE000D6078091E8008E778093E8000895CF931C
:101FF000DF93EC0180914E018823B1F180910005BF
:1020000087FF32C060E282E08093E9008FEF909119
:10201000E800815095FD06C095ED9A95F1F7000016
:102020008111F5CF8091E80085FF1BC080914E01A2
:1020300070E050E040E0811104C050E040E068E012
:1020400070E0CE010E94D6078091E8008E778093E1
:10205000E80080E2FE01A8E0B5E001900D928A95CB
:10206000E1F7DF91CF91089568E081E0CDCF81E085
:102070008093E00080E28093D8001092C9008FE145
:102080009EE40197F1F700C0000087E090EBDC01CF
:102090008093470790934807A0934907B0934A0756
:1020A00088E19CE00FB6F894A895809360000FBE7D
:1020B00090936000FFCF60914A018091EA0480FF15
:1020C00020C08091490143E0849FC0011124865CB7
:1020D0009C4F539A2BB1277F3BB138605FB7F89480
:1020E000FC01649FE00DF11D1124BF016817790701
:1020F000D1F45FBF8FE594E00197F1F700C00000D5
:10210000089580914B0190914C0123E0829FF00152
:102110001124E65CFC4F8917A0F61182108212820E
:102120008F5F3396F8CFFC014191CF01E8E03BB9D6
:10213000000000C047FF2BB9440F000000C000C0E2
:1021400000C02BB900C0EA9591F7D0CF0F931F9331
:10215000CF93DF93EC0110E000E090914D019017D8
:10216000110609F06CF40E945B108C8190E00196DE
:10217000817099278C83DF91CF911F910F910895E2
:1021800020914B01A801420F511D9A01220F331FCC
:10219000240F351F265C3C4F4C816091EC048091EC
:1021A000EB0496959017110651F04CF0442349F03A
:1021B0004091ED040E94C9090F5F1F4FCECF442309
:1021C000B9F340E0F7CFB0E0A0E0E9EEF0E10C9425
:1021D000E531EC014C81042F10E09801D8010E94F8
:1021E0007D339B01AC010E9448334B015C01E0E26E
:1021F000F0E0E01BF10BA5E5B0E0AC019B010E9413
:1022000048336B017C019F01DF010E944A329B0130
:10221000AC010E9453339B01AC01280D391D4A1DAE
:102220005B1DC701B6010E945B33F22E822F90E046
:1022300039E23F1520F143E0249F900111243595A8
:102240002795122F109500E085E5E82EEF18809174
:102250004D01081718F10E945B109C8181E09923C1
:1022600019F0903219F48FEF809348018091480162
:10227000890F8C83CDB7DEB7ECE00C94013225E5F5
:1022800030E0B901681B790B9B01220F331F260F29
:10229000371F37FFD4CF2F5F3F4FD1CF8E2D01FD9A
:1022A0008F2D20914B01622F600F7727771F9B01A5
:1022B000220F331F260F371F265C3C4F412F6091A2
:1022C000EC040E94C9090F5FC2CFEF92FF920F93F7
:1022D0001F93CF93DF93EC018C81811109C081E0C2
:1022E0008C831092380392E09093470180934601CB
:1022F00080914B0190914C0123E0829FF0011124C9
:10230000E65CFC4F891758F110E003E060914D0145
:10231000161758F10E945B108091460120913803F6
:10232000280F2093380390914701980F909347010D
:10233000191654F4022E000C330B40914D014150FC
:10234000550B2417350734F0819580934601813071
:1023500009F41C82CDB7DEB7E6E00C940732118297
:10236000108212828F5F3396CDCFE12EF12C70E078
:10237000C7010E94303220914B01820F482F50E05C
:1023800020913803022E000C330BE216F306BCF04A
:1023900020914701022E000C330B2E153F057CF0D7
:1023A000809F90011124265C3C4F4091ED04609188
:1023B000EC048091EB040E94C9091F5FA7CFFA01CA
:1023C000EE0FFF1FE40FF51FE65CFC4F1182108239
:1023D0001282F3CFB0E0A0E0E0EFF1E10C94E53140
:1023E000EC018A81BB24BA9480FD02C0BB24B39463
:1023F000A0904D018C81811109C081E0B81220C0EC
:102400008FEF8A0D8093370381E08C83F12CE12CD0
:1024100046E3942EEA14B8F00E945B1080913703D3
:1024200091E0B91257C0811150C080914D01815087
:10243000809337031C82CDB7DEB7ECE00C940132F9
:1024400010923703E1CF00914B010E0D1F2D111D8E
:10245000C801880F991F080F191F065C1C4FF8014F
:1024600011821082128234E0C32ED12C812C8091F3
:102470003703880D87332CF1692D0E942232892F72
:10248000082E000C990B8E159F0591F48091ED0498
:102490008C9DA0018D9D500D112455954795559506
:1024A000479598016091EC048091EB040E94C90962
:1024B0008B0CF1E0CF1AD108D1F68FEFE81AF80AA9
:1024C000A9CF87FFDDCF8A0DDBCF81508093370303
:1024D000BC82B1CF90E0019660914D0170E00E9406
:1024E0003032809337038C83A6CFEF92FF921F93F5
:1024F000CF93DF93EC0110E0EE24EA94F12C60918D
:102500004D01161770F00E945B109A818C8190FF2C
:1025100027C08F5F8C83DF91CF911F91FF90EF9049
:10252000089520914B01422F410F5527551FCA0195
:102530009A01220F331F280F391F265C3C4F70E091
:10254000C7010E943032962F8C814091ED0460913A
:10255000EC04199F800D11240E94C9091F5FCFCF81
:102560008150D8CF9091EA0490FF0EC090914B011A
:1025700020914C0133E0939FF0011124E65CFC4F65
:10258000921718F00E945B10089581836083428344
:102590009F5F3396F5CFA3E0B0E0E1EDF2E10C945C
:1025A000ED318C018091390381110AC09E012F5FAA
:1025B0003F4F48E76FEF0E94C9098A818093390332
:1025C000F8016481613069F08091390340E066234D
:1025D00061F040E0623011F44091390380E060E046
:1025E00004C06091390340E080E00E94B212F8011B
:1025F000848190E0019663E070E00E943032848331
:102600002396E4E00C940932A3E0B0E0EAE0F3E1C1
:102610000C94EF319091EA0490FF0AC09E012F5F65
:102620003F4F0E94C9094B8169818A810E94B21281
:102630002396E2E00C940B32CF93DF93EC01EAEEA9
:10264000F4E0438162818C810E9404138C818F5F4E
:102650008C83DF91CF910895CF93DF93EC01EC81D0
:10266000F0E0EF50FA4F4491EAEEF4E062818181AC
:102670000E9404138C818F5F8C83DF91CF9108952A
:10268000B0E0A0E0E6E4F3E10C94E7317C015B010B
:102690006A018091C90201E010E08A3010F40AE07A
:1026A00010E0C1E0D0E0B501C701F6010995811144
:1026B00004C021960C171D072CF4CDB7DEB7EAE055
:1026C0000C940332CC9F9001CD9F300D300D11241E
:1026D00090E080E045E34A95F1F70000019682170B
:1026E0009307C1F7E0CF8091A702811118C088EC51
:1026F0009091E30097FD10C0EFE3FCE93197F1F70B
:1027000000C000008150A1F782E08093A7020E94E0
:10271000860710922A0503C081E08093A70281E01A
:102720009091A702913011F080E0089508950E94E1
:102730007313882359F0E091F704F091F80430976F
:1027400029F00190F081E02D0995089580E0089529
:102750000F931F930E947313882329F00E940E0980
:102760001F910F9108950E940E090091CA021091C5
:10277000CB022091CC023091CD02600F711F821FDD
:10278000931FEECFB0E0A0E0E8ECF3E10C94E93168
:102790006C017B0164E670E088E70E94262FEC0163
:1027A00097FD12C010E000E0F601E00FF11F8491E8
:1027B00064E670E00E94942FEC01892B29F40F5FEE
:1027C0001F4F0E151F0581F70E940B30CE01CDB7AC
:1027D000DEB7E8E00C9405328091F3049091F404A4
:1027E000911103C091E089270895882369F062E080
:1027F00070E083EF96E00E94C213892B19F080915C
:10280000F30408951092F3048091F304EBCFCF9377
:10281000C091F3048091F4048823D1F00E940E0942
:10282000605A75418F4F9F4F6093EF047093F0048F
:102830008093F1049093F204C11108C062E070E04B
:1028400081EF96E00E94C213892B29F0C091F30416
:102850008C2FCF91089581E08093F304F7CFB0E0FF
:10286000A0E0E5E3F4E10C94E131FC0162804480F6
:1028700081E08483E1EFF5E07490E0E7F6E0E49135
:10288000812C75E0972EF2E0CF2EDD24D394AA247C
:10289000AA94B12C55245A94E7190E2F10E0809178
:1028A0004D01881638F00E945B10CDB7DEB7E0E12D
:1028B0000C94FD31E82CF12C82E0861568F09E9C8A
:1028C000F0019F9CF00D1124E452FC4F8091EB0429
:1028D00080838091EC048183411023C09E9CF00191
:1028E0009F9CF00D1124E452FC4F13821282209120
:1028F0004B01C701820F911D9C01220F331F280F2E
:10290000391F265C3C4F9E9CF0019F9CF00D1124CA
:10291000E452FC4F4281618180810E94C909839405
:10292000BECF9E9CE0019F9CD00D1124C452DC4F71
:102930008B818823E9F081508B83859DC001112410
:102940006C8170E00E94CB31FB01FF27EF50FA4F02
:102950008491E82FE719E59DC0011124B8010E9478
:10296000CB318091ED04689FB00111247A83BFCFF1
:102970000E94A5322091ED04269521582C9DA0019E
:102980002D9D500D1124452F5527841795070CF0C8
:10299000AECF82E0861588F40E94A532B5010E9470
:1029A000303288830E94A5322091EC042695622F54
:1029B00070E00E943032280F29839E9CF0019F9C7A
:1029C000F00D1124E452FC4F12828091ED04893CF9
:1029D00058F088EC9E9CF0019F9CF00D1124E4526D
:1029E000FC4F8483838383CF8431A0F784E1F2CFCB
:1029F000CF92DF92EF92FF926B017C010E94B309AC
:102A0000B701A60188E090E00E940733FF90EF90A5
:102A1000DF90CF900895A3E0B0E0E1E1F5E10C9400
:102A2000E831082FD62EF42EC22E9091EA0490FFA2
:102A30003AC0E92FE695AE2FB0E0AF52BE4F8C9171
:102A4000809334039E7F923091F59E012F5F3F4F1C
:102A5000802F0E94C9094B8169818A810E94B2122C
:102A60008091EB04801308C08091EC048D1104C0A8
:102A70008091ED048F1529F0809136038260809358
:102A800036030093EB04D092EC04F092ED04CC20DA
:102A900051F06091EA047091EB048091EC04909104
:102AA000ED040E94F8142396E9E00C94043282307D
:102AB00019F4F090ED04D4CF863019F40091EB04B2
:102AC000CFCF8930D9F3893159F6E9516E2F617032
:102AD000B62EE695F0E0E451FA4F1491E12C6091A6
:102AE0004D01E61618F00E945B10BACFE19EC001BE
:102AF000112470E00E94CB31802FB11014C0860FDA
:102B000020914B01622F6E0D7727771F9B01220FBB
:102B1000331F260F371F265C3C4F4F2D6D2D0E9413
:102B2000C909E394DCCF861BEBCFEAEEF4E04381E6
:102B300021E1421B08F440E021E0628181810E9492
:102B40000B150895EAEEF4E0438121E1420F08F409
:102B50004FEF21E0628181810E940B150895EAEE1A
:102B6000F4E0628121E1621B08F460E021E043812E
:102B700081810E940B150895EAEEF4E0628121E163
:102B8000620F08F46FEF21E0438181810E940B15F1
:102B90000895EAEEF4E0818121E04381628188506A
:102BA0000E940B150895EAEEF4E0818121E0438153
:102BB0006281885F0E940B1508958091EE0488233E
:102BC00019F081508093EE046091EA047091EB0457
:102BD0008091EC049091ED040E94F8140895809186
:102BE000EE04833018F48F5F8093EE046091EA0462
:102BF0007091EB048091EC049091ED040E94F81424
:102C00000895EAEEF4E083E0808311828FEF8283FF
:102C100088E783831482A4E3B3E012968C91129721
:102C2000836012968C9360817181828193810E946E
:102C3000F8140895CF9384E090E00E94E132C82F09
:102C400082E290E00E94E132982F8C2FCF9108957C
:102C5000A4E0B0E0EEE2F6E10C94EE314091B00277
:102C60005091B1026091B2027091B3022FB7F89403
:102C70008091FC049091FD04A091FE04B091FF04AA
:102C80002FBF841B950BA60BB70B11E08436910563
:102C9000A105B10570F10E94A8136E5F7F4F8F4FA1
:102CA0009F4F69837A838B839C83809115019091D8
:102CB00016018C549D4F4091140150E04530510550
:102CC00010F044E050E0BE016F5F7F4F0E94D832A9
:102CD00082E090E00E945531182F882351F00E9425
:102CE0000E096093B0027093B1028093B202909388
:102CF000B302812F2496E3E00C940A32A8E0B0E0FE
:102D0000E4E8F6E10C94EF3185E0EAEEF4E0DE0170
:102D1000119601900D928A95E1F78091340390917C
:102D20003503A09136038E839F83A8872885409121
:102D3000C5025091C6026091C7027091C8023FB7A8
:102D4000F8948091FC049091FD04A091FE04B09150
:102D5000FF043FBF841B950BA60BB70B8436910570
:102D6000A105B10510F4222319F180911D01909164
:102D70001E018C549D4F40911C0150E0493051057B
:102D800010F048E050E0BE016F5F7F4F0E94D832E4
:102D900083E090E00E945531882369F00E940E097B
:102DA0006093C5027093C6028093C7029093C802D5
:102DB0001092360381E02896E2E00C940B32EF92F9
:102DC000FF921F93CF93DF9300D000D00F92CDB727
:102DD000DEB77B0190E080E00E945531182F8823F8
:102DE00009F46DC04091070150E04115510511F003
:102DF00041E050E060910801709109016C547D4FF1
:102E0000CE0105960E94D8324091AC025091AD029D
:102E10006091AE027091AF022FB7F8948091FC04DC
:102E20009091FD04A091FE04B091FF042FBF841B7C
:102E3000950BA60BB70B84369105A105B10538F4A7
:102E400085EB92E00E946F079D818917C1F181E0B7
:102E500090E00E945531882309F458C040910F0139
:102E600050E04530510510F044E050E06091100111
:102E7000709111016C547D4FCE0101960E94D832A1
:102E800085EB92E00E946F079D8189133FC00E94ED
:102E90000E096093AC027093AD028093AE029093E2
:102EA000AF0289819A81AB81BC818093A802909303
:102EB000A902A093AA02B093AB0211E00EC08091C8
:102EC000B5029091B602A091B702B091B802898381
:102ED0009A83AB83BC831111E4CF8091A8029091B7
:102EE000A902A091AA02B091AB02F701808391835D
:102EF000A283B383812F0F900F900F900F900F90AC
:102F0000DF91CF911F91FF90EF90089510E0E5CFF2
:102F100068EE7EEF90E080E00E94133360E082E094
:102F200090E00E94F53260E083E090E00E94F5328C
:102F30001092990210929A0210929B0210929C0297
:102F400060E084E090E00E94F53264E082E290E08C
:102F50000E94F53260E085E090E00E94F53260E08A
:102F600086E090E00E94F5326FEF87E090E00E94EB
:102F7000F53240E050E0BA0188E090E00E9407336B
:102F800060E08DE090E00E94F53240E050E0BA0150
:102F900088E190E00E94073360E087E190E00E94C2
:102FA000F53240E050E0BA018CE190E00E94073336
:102FB00070E060E080E290E00E94133340E050E077
:102FC000BA0188E190E00E94073340E050E0BA0186
:102FD0008FE090E00E94073340E050E0BA0183E1C7
:102FE00090E00E94073308951F920F920FB60F9240
:102FF00011242F933F934F935F936F937F938F93FE
:103000009F93AF93BF93EF93FF938091E10082FF73
:1030100009C08091E20082FF05C08091E1008B7FB2
:103020008093E1008091DA0080FF24C08091D80075
:1030300080FF20C08091DA008E7F8093DA0080913B
:10304000D90080FF9DC080E189BD82E189BD09B4BE
:1030500000FEFDCF81E080932A0580910505811156
:1030600009C00E9486070E9451088091E200846096
:103070008093E2008091E10080FF17C08091E20020
:1030800080FF13C08091E2008E7F8093E2008091E8
:10309000E20080618093E2008091D800806280939A
:1030A000D80019BC85E080932A058091E10084FF57
:1030B0002BC08091E20084FF27C080E189BD82E1BE
:1030C00089BD89B5982F917080FFFBCF8091D80082
:1030D0008F7D8093D8008091E1008F7E8093E10006
:1030E0008091E2008F7E8093E2008091E200816017
:1030F0008093E20080912B05882309F447C084E087
:1031000080932A0580912A058091E10083FF27C0E2
:103110008091E20083FF23C08091E100877F80934C
:10312000E10082E080932A0510922B058091E10056
:103130008E7F8093E1008091E2008E7F8093E20099
:103140008091E20080618093E20042E060E080E0F4
:103150000E941F088091F00088608093F000FF912A
:10316000EF91BF91AF919F918F917F916F915F91FF
:103170004F913F912F910F900FBE0F901F90189578
:1031800019BC10922A051092050574CF8091E300B6
:1031900087FD93E090932A05B5CF78941F921FB6D0
:1031A0001F9211248F939F93AF93BF938091FC0440
:1031B0009091FD04A091FE04B091FF040196A11D21
:1031C000B11D8093FC049093FD04A093FE04B09382
:1031D000FF04BF91AF919F918F911F901FBE1F90D1
:1031E00018959C014FB7F8948091FC049091FD04D0
:1031F000A091FE04B091FF044FBF821B930B089572
:103200002FB7F8948091FC049091FD04A091FE04E6
:10321000B091FF042FBF08950E9400199C01909166
:103220002A0380912B03982B21F0309327032093BE
:10323000260390912C0380912D03982B21F030933D
:10324000250320932403E091F704F091F8043097CC
:1032500049F082E0809328030480F581E02D88E224
:1032600093E00995089590E080E00E948F0990E036
:1032700080E00E947909109296020E94230F86E056
:10328000E8E2F3E0DF011D928A95E9F7109222034C
:1032900010922103109223030E940C190895609349
:1032A000ED027093EE028093EF029093F0020E9481
:1032B000331908950F931F9341E050E060E070E0F0
:1032C00004C0440F551F661F771F8A95D2F7CB01A4
:1032D000BA0160957095809590950091ED021091DE
:1032E000EE022091EF023091F002602371238223DD
:1032F00093230E944F191F910F9108959091750289
:103300008095892380937502282F277091F4282FA8
:10331000082E000C330B9217130659F090910105FB
:1033200092FF07C08595859585950E945A19109240
:1033300075020895CF93C0910105C2FB992790F9BA
:10334000981791F080FBC2F9C093010560910005C8
:1033500084E090E00E94F5326C2F82E290E00E94BF
:10336000F53282E00E947E19CF9108950F931F934A
:1033700041E050E060E070E004C0440F551F661F5C
:10338000771F8A95D2F78091ED029091EE02A0917D
:10339000EF02B091F0028A019B01082B192B2A2B16
:1033A0003B2BC901B8010E944F191F910F9108953D
:1033B0006093990270939A0280939B0290939C026F
:1033C0000E94331908951092970280914E01E0E017
:1033D000F2E0882361F08091000587FF08C08EE14C
:1033E000DF011D928A95E9F70E943319089586E05E
:1033F000F7CFAAE2B0E0EFEFF9E10C94EE318CE206
:1034000095E02091F100FC012193CF01F5E0843398
:103410009F07B9F780912D05833009F470C0B8F487
:10342000813009F447C0823009F4B1C08091E800CE
:1034300083FF7EC280912C0590912D059A3008F073
:1034400077C2E92FF0E0E257FC4C0C9444328A300A
:1034500009F48CC08B3009F46FC0893039F7809142
:103460002C05813219F78091300590913105029732
:10347000E8F68091E800877F8093E8008091E8007B
:1034800082FF38C09091F3008091F200029731F4EE
:103490008091F100813011F0863021F48091F100AB
:1034A000809307058091E8008B778093E8000E9465
:1034B0000008BCCF80912C05813A09F0B7CF8091EC
:1034C000E800877F8093E800809130059091310576
:1034D000892B61F460E288E095E070E00E94AC081E
:1034E0008091E8008B778093E800A0CF60E090E0C7
:1034F00080E0F3CF80912A058111C0CF97CF8091D2
:103500002C05813A09F092CF8091300590913105D8
:10351000892B09F08BCF8091E800877F8093E800AA
:103520008091E80080FFFCCF80914E018093F100F4
:103530008091E8008E77B9CF80912C05813209F017
:1035400075CF8091300590913105892B09F06ECFB0
:103550008091E800877F8093E8000E9400088091B6
:103560002E0580934E010E94E31960CF80912C05B7
:10357000813209F05BCF8091E800877F8093E8007B
:103580000E94000880912F05809306054FCF8091FF
:103590002C05813A09F04ACF8091E800877F80931B
:1035A000E8008091E80080FFFCCF80910605BECF47
:1035B000803899F0823809F0BBC1809130058F7056
:1035C000873008F0B5C18093E9008091EB0085FB5E
:1035D000882780F91092E90006C080912805909113
:1035E0002905911182609091E800977F9093E800FF
:1035F0008093F1001092F1008091E8008E7794C1E1
:10360000882309F482C1823009F092C180912E058D
:10361000811185C1809130058F702FEF280F2630E2
:1036200008F086C18093E9002091EB0020FF77C16C
:10363000933031F48091EB0080628093EB006FC196
:103640009091EB0090619093EB0021E030E001C09D
:10365000220F8A95EAF72093EA001092EA008091FF
:10366000EB008860EACF811163C110912E051F77AE
:103670008091E3008078812B8093E3008091E800C3
:10368000877F8093E8000E9400088091E80080FF17
:10369000FCCF8091E30080688093E30082E0111109
:1036A00083E080932A0544C18058823008F040C1ED
:1036B00080912E0590912F058C3D23E09207A1F576
:1036C00083E08A838AE289834FB7F894DE011396F8
:1036D00020E03EE051E2E32FF0E050935700E49108
:1036E00020FF03C0E295EF703F5FEF708E2F90E0F8
:1036F000EA30C0F0C7968D939D932F5F243159F720
:103700004FBF8091E800877F8093E8006AE270E015
:10371000CE0101960E94AC088091E8008B778093DF
:10372000E80006C1C096E7CF4091300550913105C1
:10373000292F33272330310509F444C078F521308F
:10374000310509F46FC08BE390E0EBEEF7E0223037
:10375000310509F0EDC02091E800277F2093E800B3
:1037600020913205309133058217930708F49C01AC
:1037700040E02115310509F064C0411162C080911B
:10378000E80082FDC9CF80912A05882329F285307F
:1037900019F28091E80083FFF2CFBECF21323105CC
:1037A000A9F12232310509F0C3C04115510509F4D0
:1037B00043C04130510509F0BBC086EB90E0E5EF16
:1037C000F6E0C9CF992781309105C1F0009759F0F3
:1037D000029709F0ADC0E8E3F8E0E4918E2F90E0A5
:1037E000E8E3F8E007C0E8E5F8E0E4918E2F90E028
:1037F000E8E5F8E0009709F49BC0ADCFE6E4F8E017
:10380000E4918E2F90E0E6E4F8E0F4CF4115510505
:1038100071F04130510509F08BC089E090E0E6E19C
:10382000F8E099CF82E190E0E6E2F8E094CF89E019
:1038300090E0EDEFF7E08FCF80E490E0EBEAF7E087
:103840008ACF80912A05882309F466CF853009F450
:1038500063CF8091E80083FD5FCF8091E80082FD17
:103860008ECF8091E80080FF84CF9091F30080910B
:10387000F2002115310519F08830910550F041E032
:10388000089709F040E08091E8008E778093E80087
:1038900070CF44914093F100319621503109019647
:1038A000E8CF803809F044C08091E800877F80939A
:1038B000E80080912B058093F1009ECE811138C0E5
:1038C00010912E051230A0F58091E800877F80933B
:1038D000E80010932B050E940008112311F084E0EA
:1038E00005C08091E30087FDFACF81E080932A052F
:1038F00042E061EC81E00E941F0842E261EC82E05C
:103900000E941F0880912A0513C080912E058130E6
:1039100079F481E0933009F080E0809329051092DA
:10392000E9008091E800877F8093E8000E9400080A
:103930008091E80083FF0AC08091E800877F809330
:10394000E8008091EB0080628093EB00AA96E3E0B0
:103950000C940A321F920F920FB60F9211242F93DC
:103960003F934F935F936F937F938F939F93AF9307
:10397000BF93CF93DF93EF93FF93D091E900DF7074
:103980008091EC00C82FC17080FDC0E81092E90062
:103990008091F000877F8093F00078940E94F9195D
:1039A0001092E9008091F00088608093F000CD2BA8
:1039B000CF70C093E900FF91EF91DF91CF91BF915C
:1039C000AF919F918F917F916F915F914F913F91B7
:1039D0002F910F900FBE0F901F9018950E94E31922
:1039E0002FEF84E39CE0215080409040E1F700C03D
:1039F000000088E19CE00FB6F894A89580936000E1
:103A00000FBE90936000FFCF882391F19CEF980F39
:103A1000913A40F4682F8EEF91E00E941A090E94BB
:103A2000230F089590E2980F983050F4877091E03A
:103A300001C0990F8A95EAF7892F0E947C0DEFCF7C
:103A40009BE5980F933028F490E080E00E948F0966
:103A5000089598E5980F973128F490E080E00E944F
:103A6000790908958D3E20F00E94620A0E940C1987
:103A70000895CF93C82F8823D1F18CEF8C0F813A12
:103A8000C0F580914E01882311F18091000587FFD8
:103A90001EC0EC2FE695E695E695F0E0E250FE4F6D
:103AA000828190E04C2F477021E030E002C0220F6D
:103AB000331F4A95E2F782239323892B89F06C2FD9
:103AC0008EEF91E00E941A090E94230F09C0E0E0E6
:103AD000F2E08191C81799F382E0E630F807C9F760
:103AE0006C2F8EEF91E00E9444090E94230FCF912A
:103AF000089580E28C0F883068F4C77021E030E0D0
:103B000001C0220FCA95EAF780919702822B809319
:103B10009702EBCFEBE5EC0FE33040F4F0E0E45735
:103B2000FE4F808190E00E948F09E1CFE8E5EC0F25
:103B3000E73150F4F0E0EE0FFF1FE157FE4F8081B8
:103B400091810E947909D3CFCD3E88F28C2F0E94BB
:103B50001D0B0E940C19CBCF0F931F93CF93DF93B4
:103B6000C62FD42F022FFC0182818823A9F06093F5
:103B700036050E9400199093350580933405C7706F
:103B800081E001C0880FCA95EAF70E947F0FDF919C
:103B9000CF911F910F91089580913605681335C01C
:103BA00080913405909135050E94F118883C91056B
:103BB00060F510E21D0FCD17B9F080E28C0F883050
:103BC00040F4C77081E001C0880FCA95EAF70E94EF
:103BD000780F183048F481E09D2F977001C0880F4E
:103BE0009A95EAF70E947F0F802F0E94391D802F3F
:103BF0000E94041D183058F6D77081E001C0880F6C
:103C0000DA95EAF70E94780FC2CFC77081E001C051
:103C1000880FCA95EAF7F6CF0E947313882319F02C
:103C20000E94001908950E94A813CB010895609185
:103C3000EA04669570E04BE050E08BE391E00E946F
:103C4000BE32892B19F481E0809335030E940C1E4B
:103C500090932F0380932E0380913603846080938A
:103C6000360308959091EA0490FF31C0917081115C
:103C70002FC092609093EA04809136038160809314
:103C80003603662351F06091EA047091EB04809151
:103C9000EC049091ED040E94F8146091EA0466959A
:103CA00070E04BE050E08BE391E00E94BE32892B44
:103CB000B1F00E94AC0981E08093310320E0409193
:103CC000ED046091EC048091EB040E940B150895C3
:103CD0008B3210F09465CECF880F982BCBCF0E94FB
:103CE000171EE9CF8091EA048695815009F48AE293
:103CF00061E00E94321E08958091EA0486958F5FEC
:103D00008B3208F081E061E00E94321E08959091AC
:103D1000EA0490FF08C09695981728F0961718F4B3
:103D20000E947C1E089561E00E94321E0895A5E065
:103D3000B0E0EDE9FEE10C94E1317C01FC0183810E
:103D40009481892B31F08081918189238F3F09F003
:103D5000FFC52596E0E10C94FD310E948D0D182FD2
:103D6000682F89819A810E940B0E69817A81812F47
:103D70000E94D30B8C01F7018281882309F4B5C519
:103D800090E290933301980130562115F0E23F07FD
:103D900008F445C0305E2115304108F440C010934E
:103DA000F9020093F8020C33110530F4F801E05BDE
:103DB000FE4F908190933301F70191819093FB0224
:103DC00090819093FA02043FFCE51F0709F48AC032
:103DD00068F5093D3CE5130709F480C00A3D9CE500
:103DE000190709F48BC0083DECE51E0759F526E2DA
:103DF00041EE61EEC7010E94AC1D80917502877093
:103E000009F4A7CFF7018281882309F4A2CF80911A
:103E1000010582FF9ECF82E00E947E199ACF980111
:103E200033273093F9022093F802BDCF063FFCE51B
:103E30001F0709F45FC008F459C0073F3CE51307AA
:103E400009F482C51092360504309DE5190708F083
:103E500058C00B3FECE51E0738F4980122503C4552
:103E60002431310508F057C00E941A1690930105BD
:103E70008093000501318CE5180709F42BC108F087
:103E8000A9C00930ECE51E0709F416C108F071C09D
:103E900005302CE5120709F407C108F056C00330BD
:103EA0008CE5180709F4F6C008F0FAC08091000507
:103EB00081600230ECE51E0709F4EFC06091000557
:103EC0001091010584E090E00E94F532612F82E2BA
:103ED00090E00E94F5320E94E3198FCF27E245EE71
:103EE00065EE88CF26E241EE60EE84CF27E245EE14
:103EF00064EE80CF26E241EE62EE7CCF28E241E024
:103F0000EFCF0236FDE51F0709F4AECF063A2DE5E7
:103F1000120709F4A9CF0631FCE51F0709F004C117
:103F2000882309F4FCC4809197028A7A91E009F40D
:103F300090E090931E0269E2811165E38EEF91E0BB
:103F40000E9444090E94230F58CF8091000580628F
:103F50000730FCE51F0709F4A0C0809100058061CF
:103F600008302CE5120708F498C0809100058064A1
:103F700094C0809100058B7F0D303CE5130709F458
:103F80008CC0A0F4809100058E7F0B309CE5190752
:103F900009F483C0809100058C600C30ECE51E07AD
:103FA00008F47BC0809100058D7F77C0809100056B
:103FB0008F7E0F30FCE51F0709F46FC0809100056C
:103FC000877F00312CE5120708F467C08091000557
:103FD0008F7D63C00E3F3CE5130709F477C058F5A9
:103FE00005319CE5190709F47FC098F4809100051C
:103FF000837F0331FCE51F0709F44FC008F46EC04E
:104000000E94E31990910005892F97FB87F980584A
:1040100044C00C3F3CE5130709F44AC008F052C005
:104020008091010581600B3F9CE5190709F046CF9F
:104030008093010543CF0230EDE51E0709F460C00F
:10404000C0F4809101058C7F01152DE5120781F3E5
:1040500080910105836001303DE5130748F38091AD
:104060000105982F909591708E7F892B90FB81F997
:10407000DFCF02368DE5180709F448C0063A9DE502
:10408000190709F44AC00330EDE51E0709F016CF01
:1040900060E037C0809100058260809300050ECFFC
:1040A000809100058460F9CF809100058860F5CF8C
:1040B000809101058260BCCF0E94E31980910005C8
:1040C0008068EBCF809101058E7FB2CF8091010592
:1040D0008D7FAECF809100058F7BDFCF0E94E319EB
:1040E000809100058F77D9CF8091000582FB9927B9
:1040F00090F921E0922790FB82F990FB83F9CDCFD4
:1041000061E08EE090E00E94F532D8CE90910005FB
:10411000892F8F7E94FF8061C0CF90910005892FF9
:104120008E7F90FF8160B9CF811137C18091970256
:1041300082720D3C2CE5120709F415C108F08EC0FF
:10414000073C9CE5190709F4FAC008F065C0043C77
:10415000FCE51F0709F4E9C008F04DC0033C3CE54D
:10416000130709F4B8C0F701828100811181882307
:1041700009F449C1C8010E948D0DD82E682FC801CD
:104180000E940B0EB8018D2D0E94D30B0E94EE0BE6
:104190008C01882EF701D280958092943FE0932283
:1041A000809175028770C1F0BD2CDD20B1F0812FA8
:1041B000807F803421F080E2800F883068F0809129
:1041C000010582FF09C082E00E947E19809175027C
:1041D0008770BB24B3948111B12CA12EA2942FE03F
:1041E000A222FBE0FA1508F47AC1EA2DF0E0E856C5
:1041F000FC4C0C944432053C9CE5190709F49AC028
:1042000049EC55E163ED75E1063CECE51E0709F06C
:10421000AACF0E94A509F1CD0A3CFCE51F0709F4CD
:1042200098C070F4083C3CE5130709F48DC04CEBD2
:1042300055E16FEA75E1093C9CE5190751F393CF0D
:104240000B3CECE51E0709F489C04DED55E16FEE1E
:1042500075E10C3CFCE51F07E1F285CF023D2CE542
:10426000120709F48EC0B0F40F3C8CE5180709F46E
:1042700082C008F47DC0003DECE51E0709F47EC055
:104280006EE089E0013DFCE51F0709F06CCF0E945C
:10429000871EB3CD053D2CE5120709F478C078F4EC
:1042A000033D8CE5180709F46FC061E088E1043D27
:1042B0009CE5190709F057CF0E94321E9ECD063D9E
:1042C000ECE51E0709F466C06AE285E20E35FDE5FD
:1042D0001F07E9F248CF8091EA0480FF20C08E7F5B
:1042E0008093EA046091EA047091EB048091EC04FD
:1042F0009091ED040E94F8140E94AC09809136035D
:104300008160809336032FEF30E782E02150304008
:104310008040E1F700C000000E945B106ECD81601C
:104320008093EA0461E08695C7CF42E75EE16CE7DF
:104330007EE16FCF4CE75EE162E77EE16ACF43ED5D
:1043400055E169EC75E165CF4FEA55E16CEB75E13C
:1043500060CF45E955E162EA75E15BCF42EA55E19C
:1043600065E975E156CF4FEE55E16DED75E151CF41
:1043700061E081E0A1CF65E082E089CF68E086E07E
:1043800086CF64E18FE083CF67E185E180CF62E291
:1043900089E17DCF61E083E28FCF0B359DE5190781
:1043A00071F158F40115FCE51F0791F00F3D1C4514
:1043B00009F0D9CE0E94881709C00D353DE51307D5
:1043C000A1F0F8F0083A1D4509F0CDCE0E94EE1C90
:1043D0000E94E319EFEFF4E32CE0E150F0402040BD
:1043E000E1F700C000000E9437108091010582FBB8
:1043F000882780F991E089270E949A19B4CE81E03C
:10440000FBCF80E0F9CFC8010E94D60DD82EBACEDE
:10441000212F2F70C22E107F19F0C29490EFC92265
:10442000DD20B9F0CC2069F080E2800F883010F0F8
:10443000811009C080919702C82AC09297020E94F9
:10444000230F802F4AC080919602C82AC0929602FC
:10445000F6CF802F0E94041DCC2009F440C0005EDE
:10446000083010F0811004C08C2D0E947C0D06C015
:10447000C09480919602C822C09296020E94230F97
:104480002EC0312F3F70C32E107F103219F0C2940E
:1044900080EFC822882089F081E0881609F477C06F
:1044A000DD2009F481C0992009F477C0F7018581E6
:1044B00080FFC7CF8F70858370C02091010522FDDA
:1044C00043C0DD20D9F1CC2039F080919702C82A71
:1044D000C09297020E94230F80E00E94391DEA2DAE
:1044E000E850FF0B349710F40E949713BB20A9F0FB
:1044F0008091750280FD11C0F70112828595859526
:1045000085950E94B619C7010E94971E8091750279
:104510008595859585950E945A1985E0F701DE01FC
:10452000119601900D928A95E1F709811A81C801CF
:104530000E94D60DB8010E94D30B0BCC80E00E94E4
:10454000041DCC2061F290CFDD20A1F09091980263
:104550008C2D892B911003C00E947F0FC0CFE1E00A
:104560009E12FACF22FFBBCF981709F4B8CF8093E1
:104570009802B5CF911006C00E94760D8C2D0E9436
:10458000780FADCFF1E09F1609F4A9CFF5CFDD206C
:1045900031F025E0291508F4A2CF8C2DDDCF34E0D1
:1045A000391508F49CCFEACF992041F3F9E38F1233
:1045B00095C12FEF37EE83E0215030408040E1F786
:1045C00000C000008BC1812F86958695837061F0B5
:1045D000813009F084CFC8019370D11002C090E0FF
:1045E00080E00E9479097BCFC8019370D11002C08E
:1045F00090E080E00E948F0972CF802FDD2029F0AB
:104600000E941D0B0E940C196ACF0E94620AFACF09
:10461000812F837009F066C0D11061CF802F829501
:1046200086958770880F880F602F6F70462E512CEB
:10463000712C612C082E04C0440C551C661C771C80
:104640000A94D2F740E050E0BA0104FF0FC04FE0F7
:1046500050E060E070E004C0440F551F661F771FF4
:104660008A95D2F74095509560957095812F8695E3
:1046700086958370823019F1D8F4009199021091D7
:104680009A0220919B0230919C02813069F044296A
:10469000552966297729CB01BA016023712382232A
:1046A00093230E94D8191BCF402A512A622A732AC9
:1046B000CB01BA016429752986299729F2CF4429AB
:1046C0005529662977290091990210919A02209123
:1046D0009B0230919C02CB01BA016027712782278F
:1046E0009327DFCF8695DD2011F0812F81708823FD
:1046F00009F4F5CE802F829586958770880F880FF4
:10470000602F6F70462E512C712C612C082E04C026
:10471000440C551C661C771C0A94D2F740E050E00C
:10472000BA0104FF0FC04FE050E060E070E004C049
:10473000440F551F661F771F8A95D2F740955095F5
:1047400060957095812F869586958370823019F1DA
:10475000D8F40091ED021091EE022091EF02309119
:10476000F002813069F04429552966297729CB0167
:10477000BA0160237123822393230E944F19AFCE85
:10478000402A512A622A732ACB01BA016429752969
:1047900086299729F2CF442955296629772900913E
:1047A000ED021091EE022091EF023091F002CB0168
:1047B000BA016027712782279327DFCF1F70DD2082
:1047C00029F0812F0E94B619802FC6CE802F0E941B
:1047D000780F812F0E945A1982CE802F92EF89166E
:1047E00009F43FC0981570F0E0EF8E16D1F0F1EFAC
:1047F0008F1691F0DD2009F46CC0911022CE812F2C
:104800008F7133C023EF821699F134EF8312F2CF08
:104810008091010582FD3FC0812F8F71DD20D1F293
:1048200024C0DD20C9F084E0891508F458CE1F713A
:1048300061E070E080E090E004C0660F771F881FA1
:10484000991F1A95D2F70091ED021091EE02209176
:10485000EF023091F002ADCF95E0991508F43FCE0C
:10486000E6CF812F8F71D110B5CF0E94B61937CE08
:1048700060E070E0CB01DD2009F47FCF1F7161E0C3
:1048800070E080E090E004C0660F771F881F991FDA
:104890001A95D2F772CFDD2089F01F71812F0E9407
:1048A000B6198091010582FF07C0E8E01E9FC00194
:1048B0001124836080937502812FD7CF81E00E94FD
:1048C0007E19F1E0F91508F00ACE82E00E947E1907
:1048D00006CE992039F0893309F46BCE802F0E94DF
:1048E000041DFDCD812F8F7175CF043FFCE51F079F
:1048F00009F4F8CAF0F4093D3CE5130709F4EECADF
:104900000A3D8CE5180709F4F9CA083D9CE519072A
:1049100009F46DCA06313CE5130709F007CC809114
:104920001E0269E2811165E38EEF91E00E941A098F
:1049300009CB063FECE51E0709F4DCCA08F4D6CA29
:10494000073F2CE5120731F727E245EE66EE52CA23
:1049500085E0DE01119601900D928A95E1F7F7014D
:10496000228189819A812111F8C90E94D60D182FC0
:10497000FCC91F93CF93DF9380914202807F09F09F
:1049800049C080913F02882309F444C08091740299
:10499000D091430260913D0270913E02A09140028D
:1049A000B0914102C62FC72316E0D81799F190E0C5
:1049B000109711F0CF3F19F401968770F6CF189F2A
:1049C0009001199F300D1124F901EC5BFD4F4181DD
:1049D0004713F2CF40814613EFCF42814111ECCF14
:1049E000438154814A1B5B0B483C510528F7809159
:1049F00042028F70806180934202F901E75BFD4FB4
:104A000080818F70806180838DE392E00E94971E89
:104A10000E94830DDF91CF911F910895A1E1B0E035
:104A2000E4E1F5E20C94E7318C0185E0F801DE0168
:104A30001D9601900D928A95E1F7F801E2808DE3D1
:104A4000A82E82E0B82E609140027091410261155B
:104A5000710509F426C190913D0240913E02892FD3
:104A600084238F3F09F41DC120813181C380D4800C
:104A7000F0903F02F601E61BF70BFF2009F4DCC0C3
:104A800080914202582F507FE83CF10508F09FC00A
:104A900051116BC0FE2C431314C0921312C0E110CD
:104AA00010C08F70806180934202C5010E94971EE2
:104AB00080914202F80185838F2D6196EAE00C9483
:104AC0000332C114D10429F0822F83238F3F09F0D0
:104AD00003C180E0F82FF170DF2E80FF3CC0809191
:104AE00074024091430256E0841315C02D873E871F
:104AF0008D859E850E94C90D292F22952F70223009
:104B0000F0F0243018F59F70F1F0F8019581907F56
:104B1000D1F4D12C1EC090E0589FF001599FF00DA8
:104B20001124EC5BFD4F6181361306C060812613B2
:104B300003C06281E6120FC001968770D5CF9F70C7
:104B400011F0882331F3805E883018F3C8010E9489
:104B5000971EFD2CB1CFEE2009F4AECF809142021A
:104B6000816080934202F12CA7CF431306C09213B9
:104B700004C0F801EE2009F479C0C8010E94430E78
:104B8000882309F1EE20F9F080914202803270F022
:104B900020913D0230913E0238872F831986DB86B3
:104BA000CA868C87CE0107960E94971E86E0F80180
:104BB000ADE3B2E001900D928A95E1F70E94B9242D
:104BC000FF24F39479CFC8010E94971EF9CF5111A9
:104BD0000AC08DE392E00E94971E86E0F5011192D3
:104BE0008A95E9F7C0CF43130FC092130DC0E110AF
:104BF0000BC0F8018583C8010E94971E86E0F5016D
:104C000011928A95E9F758CFC8010E94430E882374
:104C1000D1F2EE20C1F280914202803238F220912E
:104C20003D0230913E023A8329831B82DD82CC8291
:104C30008E83CE010196B8CFE83CF105F8F6FE2C44
:104C4000EE2009F243131FC092131DC0809142024F
:104C500080FD10C0982F907F69F0F8018583903F08
:104C600031F0982F907F905F8F70892B8583C801DA
:104C70000E94971E86E0F801ADE3B2E001900D922C
:104C80008A95E1F719CFC8010E94430E81118ECF9A
:104C900080914202816080934202C8010E94971E67
:104CA0000BCFEE2009F48FCFC8010E94430EF82EDF
:104CB000882309F488CF86E0F801ADE3B2E00190E3
:104CC0000D928A95E1F780913D0290913E020E94FB
:104CD000C90D0E94B924F0CE81E08E25FBCEA7E15C
:104CE000B0E0E5E7F6E20C94EE314B8B5C8B6D8B1C
:104CF0007E8B8F8B6111109296021A8A198A85E039
:104D0000FE017396DE011D9601900D928A95E1F7E2
:104D100086E0FE013D96DE01179601900D928A9580
:104D2000E1F7CE0107960E940E25811112C086E0A0
:104D3000FE013796DE01119601900D928A95E1F7FA
:104D40008A859B85892B29F088859F8189238F3FC0
:104D500081F516E08091740290914302891317C087
:104D60006796E3E00C940A3296E0929FD001939FFD
:104D7000B00D1124AC5BBD4FFE01319601900D9238
:104D80009A95E1F7809343020E94830DE2CF819FC1
:104D9000C00111248C5B9D4F0E940E25882301F3D6
:104DA0008091740290E00196877099278093740235
:104DB000D1CF2091430230E0C90101968770992735
:104DC000409174024817190679F60E94E31910926F
:104DD00043021092740286E0EDE3F2E0DF011D92DF
:104DE0008A95E9F7B6CFACE0B0E0E9EFF6E20C94D3
:104DF000E4318E010F5F1F4F88E0D8011D928A9524
:104E0000E9F78FEBC82E81E0D82EF12CE12CAA24F3
:104E1000A394B12C29EC822E21E0922EF6018191EF
:104E20006F018F3F09F442C0F894E82FE295EF70CC
:104E3000F0E021A18F70A50102C0440F551F8A9593
:104E4000E2F7CA01922F982B91A392A18095892312
:104E500082A3789400C0E3ECF1E0712C31E0219161
:104E60002F3F09F46EC0A22FA295AF70B0E09096CC
:104E70008C9190E02F7002C0959587952A95E2F766
:104E800080FD5FC0832F782A330F8E169F0639F777
:104E9000F601319780818F3F11F00E94790B50EA23
:104EA0005A95F1F7F801EE0DFF1D70828FEFE81AA9
:104EB000F80A94E0E916F10409F0B0CF48E050E0B8
:104EC000B8018EEC92E00E94CB327C01892B41F03C
:104ED00088E0F801AEECB2E001900D928A95E1F71E
:104EE0001091D702E114F10471F181E080939F02E7
:104EF0000E94001990939E0280939D0280919D02D2
:104F000090919E020E94F118059790F0E12FF0E039
:104F1000E752FD4F8091CE0280838091CF02818342
:104F20008091D00282838091D102838310929F026C
:104F300081E090E0E114F10451F02C96EDE00C9446
:104F4000003280E0A0CF80919F028111D7CF0E94D4
:104F50007313F82EE091D702882309F476C01986DE
:104F60001A861B861C860E2F10E007521D4F80915B
:104F7000C9028A30A0F54FED56E1BE01675F7F4F51
:104F8000C8010E9440138823C9F148E256E1BE01DE
:104F9000675F7F4FC8010E944013882379F14EE775
:104FA00056E1BE01675F7F4FC8010E94401388230E
:104FB00029F11092C9028091D60290E044E050E0BD
:104FC000BE01675F7F4F87529D4F0E94CB3221E029
:104FD0002093A602892B59F5F12C8F2DAECF80910D
:104FE000A0029091A1020E94F118843F914018F60E
:104FF0008091A602811112C080E09FCF8091C902EA
:105000008F3F29F08F5F8093C9028A30A0F20E94FF
:1050100000199093A1028093A002EACFFE01399675
:1050200084E0DF011D928A95E9F71092A602E091D3
:10503000D602F0E0E752FD4F89859A85AB85BC85A5
:1050400080839183A283B383C8CFF0E0E752FD4F02
:1050500084E0A5EBB2E001900D928A95E1F785EB33
:1050600092E00E946F078093B402C090B902D09082
:10507000BA02E090BB02F090BC028091A202909133
:10508000A302A091A402B091A502C816D906EA060F
:10509000FB06D1F0C092A202D092A302E092A40239
:1050A000F092A5020E94731381110EC00E940E0996
:1050B000C61AD70AE80AF90AC092CA02D092CB02ED
:1050C000E092CC02F092CD028091C402882309F4D0
:1050D00093CF80FF0DC08091BD029091EA0480FFC4
:1050E00028C091609093EA0460E086950E94321E89
:1050F0008091C40281FF09C020E04091C00260910C
:10510000BF028091BE020E940B158091C40282FFF3
:1051100006C08091C302882311F10E94171E80915E
:10512000C40283FF03C081E0809331031092C40264
:1051300063CF9E7F9093EA040E94AC09809136036E
:10514000816080933603BFEFE0E7F2E0B150E040CA
:10515000F040E1F700C000000E945B10C9CF0E9440
:10516000AC09DDCF1F921FB61F9211248F939F931E
:10517000AF93BF938091FB04811113C08091FC0415
:105180009091FD04A091FE04B091FF044196A11DF1
:10519000B11D8093FC049093FD04A093FE04B09392
:1051A000FF04BF91AF919F918F911F901FBE1F90E1
:1051B0001895CDB7DEB765970FB6F894DEBF0FBE72
:1051C000CDBF85B7806885BF85B7806885BF84B748
:1051D000877F84BF0FB6F894A8958091600088619E
:1051E00080936000109260000FBE80E890E00FB6E0
:1051F000F89480936100909361000FBE87E79BE075
:105200009093FD018093FC010E9486070E94510843
:105210008091E20084608093E200789480912A0576
:105220008823A1F01091E9001F709091EC00892F64
:10523000817090FD80E8182B1092E9008091E800C1
:1052400083FD0E94F9191F701093E90082E084BD6C
:1052500093E095BD9AEF97BD80936E001092CA02BD
:105260001092CB021092CC021092CD020E947313C6
:105270008093240180912401882309F470C0109246
:1052800049018BE180934A010E94731381110E94AE
:105290006930809124018091240194E0811190E093
:1052A0009093D70284E0891B8093D60284E90E9400
:1052B000790B86E60E94790B87E90E94790B86ECD0
:1052C0000E94790B03EC11E0D8018D918D018F3F85
:1052D00011F00E94790BB1E0093C1B07A9F788E0A7
:1052E000E9EDF2E0DF01282F1D922A95E9F7EEECB7
:1052F000F2E0DF011D928A95E9F790E080E00E94DC
:10530000EF32883E9E4F11F00E94881782E090E0B5
:105310000E94E1328093E1020E941A1690930105E7
:10532000809300050E94F326EFE3FCE93197F1F743
:1053300000C000000E94F3260E947313E4E0811174
:10534000E0E0F0E0E752FD4F808181FF0CC06FEF9D
:105350007FEF90E080E00E9413330E9437108BE1D2
:10536000809349018FCF83E090E00E94E132682F63
:1053700070E090E080E00E94D8190E9473138111C0
:1053800056C282E080931C0380E880933C050E9413
:10539000202F6DE070E08FE992E00E94C213892B0C
:1053A000E9F580911C0363E070E081FD42C28CE965
:1053B00092E00E94C213892B89F56DE070E08CE8C1
:1053C00092E00E94C213892B49F50E940E09605A8F
:1053D00075418F4F9F4F6093EF047093F00480935B
:1053E000F1049093F204EFE3F5E080E092E0DF0156
:1053F0009C011D9221503040E1F7F0934607E09365
:1054000045078FEF9FEF90933E0580933D0581E028
:105410008093F4048093F30410921D038091D802CA
:1054200081113BC090E080E00E94EF32883E9E4FA9
:1054300021F00E9488170E94011688E090E00E94E7
:10544000E9326093EA047093EB048093EC04909348
:10545000ED04809136038360809336036E7F71F490
:105460000E94011688E090E00E94E9326093EA040D
:105470007093EB048093EC049093ED040E94B309C5
:105480000E94AC098091EA0480FF04C060E0869528
:105490000E94321E81E08093D8020E947313811112
:1054A00002C00E946C3085E291E09093F8048093F2
:1054B000F704CC24C394D12CAAE04A2E512C612CA1
:1054C000712C80912A0500E112E1853009F4EDC1CB
:1054D0000E94F326898B81110E940E09E9EDF2E00A
:1054E000A2EEB2E010E000E0A02EE1908D918E15CA
:1054F00009F4EAC1B12CFF24F3948E25982F9F2143
:1055000009F4DDC10E947313882399F0BF82A88635
:10551000EF2081E009F480E089870E940019816012
:10552000782F9B878A874F81588569858B850E9454
:105530006F26F801EE51FD4F8081F826F0820E941F
:10554000731380913503882309F464C08091340378
:10555000E091EA04E695E81BE0933003823009F01D
:10556000CAC1F0E0E354FD4FE4910E2F10E0ECE2ED
:10557000EE2EE3E1FE2E80913103882361F010923C
:1055800031030E940C1E90932F0380932E031092E0
:105590003303109232030E940C1EE0912E03F0910F
:1055A0002F039C012E1B3F0B2F3F3F4798F5209167
:1055B000EC022223B1F01092EC022091EA02309129
:1055C000EB02821B930B8F3F9F4758F4205D3A48B4
:1055D0003093EB022093EA02809136038860809337
:1055E0003603A0903203B0903303E00FF11FF09325
:1055F0002F03E0932E038EE293E0F701099580914B
:10560000320390913303892B29F4AB2819F081E000
:105610008093EC028091F404882351F180911E0361
:1056200090911F030E94F118C29708F0D0C12091F9
:105630003D0530913E052115310509F001C38091EA
:10564000F3048823A9F00E940E090091EF04109141
:10565000F0042091F1043091F204601B710B820B75
:10566000930B6F3F7F4F8F4F9F4710F40E94EC13B7
:10567000498941110E94071486E0E8E2F3E0DE0167
:10568000119601900D928A95E1F710922A031092DB
:105690002B0310922C0310922D038B819C81892B5C
:1056A00009F44AC080912603909127030E94F118C3
:1056B0009C0190912203992309F4BDC32531310542
:1056C000D8F19F3F19F09F5F909322031B81112314
:1056D00059F00E94FD0A9FEF11160CF491E0899F8A
:1056E000802D112480932A031C81112359F00E94DC
:1056F000FD0A9FEF11160CF491E0899F802D112473
:1057000080932B0330912A033323B1F020912B0394
:10571000222391F045EB3403C0011124992309F4AD
:105720005FC390932A0345EB240390011124332394
:1057300009F45AC330932B038D819E81892B09F480
:105740004AC080912403909125030E94F1189C0186
:1057500090912103992309F469C321353105D8F1CA
:105760009F3F19F09F5F909321031D81112359F0F2
:105770000E94DB0A9FEF11160CF491E0899F802DA7
:10578000112480932C031E81112359F00E94DB0AFF
:105790009FEF11160CF491E0899F802D11248093C6
:1057A0002D0330912C033323B1F020912D032223BC
:1057B00091F045EB3403C0011124992309F418C377
:1057C00090932C0345EB240390011124332309F417
:1057D00013C330932D0346E050E0BE016F5F7F4F4F
:1057E00088E293E00E94CB32892B61F480912A03F6
:1057F00090912B03892B90912C03892B90912D0351
:10580000892B11F00E940C1986E0FE013196A8E266
:10581000B3E001900D928A95E1F70E949713909161
:105820002003891709F44DCE809320034ACE80E0EF
:10583000A9CD89E992E0BDCD80912A05843031F16E
:105840000E94EC131092FB0488E190E0A0E40FB6F4
:10585000F894A895809360000FBEA093600083B772
:10586000817F846083BF83B7816083BF789488958C
:1058700083B78E7F83BF0FB6F894A89580916000A0
:10588000886180936000109260000FBE80912905AE
:10589000882359F00E94F326E9EDF2E0819181110D
:1058A000AFC2B2E0E13EFB07C9F780912A0585301F
:1058B00009F4C2CF0E94E3190E94971309CEB39452
:1058C000FF0C26E0B2121ACE0F5F1F4F08301105F1
:1058D00009F00ACE8FEF8C878D871E860E940019F3
:1058E0008160782F988B8F874C855D856E85888940
:1058F0000E946F2624CE863059F4F0E0E654FD4F26
:10590000E4910E2F10E07CE1E72E73E1F72E33CE09
:10591000893061F4E695F0E0E954FD4FE4910E2FF3
:1059200010E065E7E62E62E1F62E25CE8F3061F4B9
:10593000E695F0E0EC54FD4FE4910E2F10E05AEEA6
:10594000E52E51E1F52E17CE853159F4F0E0EF54F4
:10595000FD4FE4910E2F10E045E6E42E41E1F42ED8
:105960000ACE08E210E093EEE92E90E1F92E88319C
:1059700009F401CE833249F4EFEAF2E00591149183
:105980003BECE32E32E1F32EF6CD8432C9F000ED8C
:1059900017E0BBEAEB2EB9E0FB2E853209F0EBCD28
:1059A0008E2F63E00E941632E92FF0E0E455FD4FA0
:1059B000E4910E2F10E02FE2E22E24E1F22EDBCD57
:1059C00004EF11E086EAE82E80E1F82ED4CD0E94A3
:1059D000001990931F0380931E038FE395E090932B
:1059E0004607809345070E947313882309F4ECC08F
:1059F0008CED92E00E94E30E4091ED025091EE0298
:105A00006091EF027091F002CB01AA27BB270097AB
:105A1000A105B10509F48EC0AC01BD0180E1052FDF
:105A2000162F272F3327011511052105310519F0F0
:105A3000885FB901A8018A019B01E4E036952795AA
:105A400017950795EA95D1F701151105210531053F
:105A500019F08C5FB901A8018A019B0192E036958B
:105A60002795179507959A95D1F7011511052105E9
:105A7000310519F08E5FB901A801769567955795A4
:105A80004795452B462B472B09F08F5F813009F452
:105A90005BC0882309F450C0823009F458C08330B9
:105AA00009F458C08091FB020E940807FC0101968E
:105AB00020812032D9F3CF010E94890F8AEE92E033
:105AC0000E94E30E8091FA020E940807FC010196F1
:105AD00020812032D9F3CF010E94890F86EE92E017
