:100000000C94CE060C9406070C9406070C94D92E7B
:100010000C9406070C9406070C9406070C9406072C
:100020000C9406070C9406070C9439170C94581B73
:100030000C94E1260C9406070C9406070C94060712
:100040000C9406070C9406070C9406070C940607FC
:100050000C9406070C9412180C9406070C940607CF
:100060000C9406070C9406070C9406070C940607DC
:100070000C9406070C9406070C9406070C940607CC
:100080000C9406070C9406070C9406070C940607BC
:100090000C9406070C9406070C9406070C940607AC
:1000A0000C9406070C9406070C9406072A000F0010
:1000B000150006000A0009002800160011001700AC
:1000C0000B00070031321D0019001A001000050056
:1000D000000000000000AB522C42E300167C33000D
:1000E0003600370013001C002B000400120008002B
:1000F00018000C003822340014000D000E001B0004
:100100000000000000002D212C41E200250023000A
:1001100021001F00270026001E0230002E022702A9
:1001200025022E00450044004300420041004000EB
:10013000000000000000AB522C43E3002302220227
:100140002400220020001E00210224022F002F0282
:10015000300226023A003B003C003D003E003F00DA
:10016000000000000000E0000100E20000000000CC
:10017000000000000000000000000000000000007F
:10018000000000000000000000000000000000006F
:1001900000000000000000002C43000039004B006C
:1001A0004A0052004D00A9004C004E005000510082
:1001B0004F00A8001F022002AC00AE00AB00AA0056
:1001C000000000000000000001000000000000002E
:1001D000000000000000000000000000047800782B
:1001E00005780278000000000178017806780000A8
:1001F000000000000000000001000000007C000082
:10020000000000000000000020782378257827787F
:100210002978000021782478267828782A78000028
:1002200000000000000000000100000000000000CD
:1002300000000000000000000000000000000000BE
:1002400000000000000000000000000000000000AE
:10025000000000000000000000000000000000009E
:10026000000000000000000000000000000000008E
:10027000000000000000000000000000000000007E
:1002800000000000000000000000000000DA028111
:10029000FFD9F1DB20A4A62EAF00A0C000A1C800AA
:1002A000AED580A81FD300408D1420001E0F05007E
:1002B000047F3F1F643214643214783C1E1E140AFB
:1002C0000541646A757374005261697365004C6F0F
:1002D0007765720044656661756C74004C61796580
:1002E000723A20003A002C206B00780000000000D9
:1002F00000FEFFFFFFFFFFFFFFFFFFFFFFFFFFFF0E
:10030000FFFFFFFFFFFFFFFFFFFFFFFFFFFFFFFFFD
:10031000FFFFFFFFFFFFFFFF0F0F0F0F0FFFFFFF9D
:10032000FFFFFFFFFFFFFFFFFFFFFFFFFFFE0000DC
:1003300000000000000000000000000000000000BD
:1003400000000000000000000000000000000000AD
:10035000000000000000000000000000000000009D
:10036000000000000000000000000000000000008D
:1003700000FFFFFFFF8383838383FFFF83838383E8
:10038000FFFF8383838383FFFF83838383FFFF8355
:1003900083838383FFFFFFFF8282828282FFFF834A
:1003A000838383FFFF8383838383FFFFFFFF00003B
:1003B0000000000000000000F8FCFCFC9C9CFCFC21
:1003C000F8F870000000000030787C3C9CFCFCF8E1
:1003D000F00000000000C0F0F8F83C3C9CBCFCB809
:1003E000B8A00000000000000000000000000000B5
:1003F00000FFFFFFFF4141414141FFFFFFFFFFFFC2
:10040000FFFF4141414141FFFFFFFFFFFFFFFF4170
:1004100041414141FFFFFFFF4141414141FFFF7F1A
:100420007F7F7FFFFF4141414141FFFFFFFF000010
:1004300000000000000000003F3F3F3F03070F3F68
:100440003F3E382000000000383C3E3F3F3F3B39F4
:10045000380000000000070F1F3F3C383B3B3F1FA8
:100460001F0F00000000000000000000000000005E
:10047000007FFFFFFFF0F0F0F0F0FFFFFFFFFFFF56
:10048000FFFFF0F0F0F0F0FFFFFFFFFFFFFFFFF0D6
:10049000F0F0F0F0FFFFFFFFF0F0F0F0F0FFFFF002
:1004A000F0F0F0FFFFF0F0F0F0F0FFFFFF7F000052
:1004B000000000000000000000000000000000003C
:1004C000000000000000000000000000000000002C
:1004D000000000000000000000000000000000001C
:1004E0000000000000000000000000000001010109
:1004F00001010101010102020202020202020203E1
:1005000003030303030303040404040404040505B0
:100510000505050606060606070707070708080873
:1005200008090909090A0A0A0B0B0B0C0C0C0D0D22
:100530000D0E0E0E0F0F0F101011111112121313BA
:100540001414151516161717181819191A1A1B1B33
:100550001C1D1D1E1E1F202021222223242425268F
:1005600026272829292A2B2C2D2D2E2F30313232C7
:10057000333435363738393A3B3C3D3E3F404142D3
:10058000434445464748494A4C4D4E4F50515354B9
:10059000555658595A5B5D5E5F616264656668696D
:1005A0006B6C6D6F7072737577787A7B7D7E8082ED
:1005B000838587888A8C8E8F91939596989A9C9E36
:1005C000A0A2A3A5A7A9ABADAFB1B3B5B7BABCBE46
:1005D000C0C2C4C6C9CBCDCFD1D4D6D8DBDDDFE213
:1005E000E4E7E9EBEEF0F3F5F8FAFDFFFFAA7F553B
:1005F000402223252628292A2C2D2F303233353628
:10060000383A3B3D3E4042434547494A4C4E5051A3
:10061000535557595A5C5E6062646668696B6D6FCA
:1006200071737577797B7D7F81838587898A8C8ECD
:1006300090929496989A9C9E9FA1A3A5A7A8AAACD5
:10064000AEAFB1B3B4B6B8B9BBBCBEBFC1C2C3C50F
:10065000C6C7C9CACBCCCDCED0D1D2D2D3D4D5D6B1
:10066000D7D7D8D9D9DADADBDBDBDCDCDCDCDCDDE4
:10067000DDDDDDDCDCDCDCDCDBDBDBDADAD9D9D8C8
:10068000D7D7D6D5D4D3D2D2D1D0CECDCCCBCAC960
:10069000C7C6C5C3C2C1BFBEBCBBB9B8B6B4B3B18F
:1006A000AFAEACAAA8A7A5A3A19F9E9C9A9896942A
:1006B00092908E8C8A89878583817F7D7B797775FF
:1006C00073716F6D6B6968666462605E5C5A5957DE
:1006D000555351504E4C4A4947454342403E3D3B9D
:1006E0003A3836353332302F2D2C2A292826252327
:1006F0002200AF00AE05010902A10185020901A196
:1007000000050919012908150025019508750181C1
:10071000020501093009311581257F95027508818F
:100720000609381581257F950175088106050C0A93
:1007300038021581257F950175088106C0C0050125
:100740000980A101850319012AB700150126B70008
:10075000950175108100C0050C0901A101850419DE
:10076000012AA002150126A002950175108100C082
:1007700005010906A1018506050719E029E715000D
:1007800025019508750181020507190029EF15005B
:10079000250195F0750181020508190129059505C6
:1007A00075019102950175039101C005010906A12A
:1007B00001050719E029E715002501950875018154
:1007C000029501750881010507190029FF1500260A
:1007D000FF00950675088100050819012905950592
:1007E00075019102950175039101C009023B000258
:1007F0000100A0FA09040000010301010009211110
:1008000001000122400007058103080001090401DD
:1008100000010300000009211101000122B60007B8
:100820000582032000011201000200000008534667
:1008300001000100010200010C0343006F0072007F
:100840006E0065000000100366006F006F0073000B
:10085000740061006E000000040309040000000041
:1008600000003E5B4F5B3E003E6B4F6B3E001C3E0C
:100870007C3E1C00183C7E3C18001C577D571C0019
:100880001C5E7F5E1C0000183C180000FFE7C3E7F9
:10089000FF00001824180000FFE7DBE7FF003048E6
:1008A0003A060E00262979292600407F0505070013
:1008B000407F05253F005A3CE73C5A007F3E1C1C08
:1008C0000800081C1C3E7F0014227F2214005F5F7A
:1008D000005F5F0006097F017F00006689956A005E
:1008E00060606060600094A2FFA2940008047E042F
:1008F000080010207E20100008082A1C0800081C90
:100900002A0808001E10101010000C1E0C1E0C00EF
:1009100030383E383000060E3E0E06000000000063
:10092000000000005F000000000700070000147FC7
:10093000147F1400242A7F2A120023130864620003
:10094000364956205000000807030000001C2241D1
:1009500000000041221C00002A1C7F1C2A000808FD
:100960003E080800008070300000080808080800F1
:100970000000606000002010080402003E5149455C
:100980003E0000427F400000724949494600214133
:10099000494D33001814127F100027454545390092
:1009A0003C4A49493100412111090700364949496A
:1009B0003600464949291E0000001400000000408E
:1009C0003400000000081422410014141414140010
:1009D0000041221408000201590906003E415D59F8
:1009E0004E007C1211127C007F49494936003E417D
:1009F000414122007F4141413E007F494949410038
:100A00007F09090901003E41415173007F08080830
:100A10007F0000417F4100002040413F01007F08EE
:100A2000142241007F40404040007F021C027F00B2
:100A30007F0408107F003E4141413E007F090909C3
:100A400006003E4151215E007F09192946002649D2
:100A50004949320003017F0103003F4040403F000D
:100A60001F2040201F003F4038403F0063140814FF
:100A700063000304780403006159494D4300007F7B
:100A800041414100020408102000004141417F0023
:100A900004020102040040404040400000030708F7
:100AA00000002054547840007F28444438003844E3
:100AB00044442800384444287F00385454541800D3
:100AC00000087E0902001824241C78007F08040412
:100AD000780000447D4000002040403D00007F1031
:100AE0002844000000417F4000007C047804780026
:100AF0007C08040478003844444438007C182424DA
:100B00001800182424187C007C08040408004854A9
:100B10005454240004043F4424003C4040207C0002
:100B20001C2040201C003C4030403C004428102841
:100B300044004C9090907C004464544C4400000865
:100B40003641000000007700000000413608000038
:100B50000201020402003C2623263C0000000000A3
:100B6000000000000000000000000000C0E0F0F8FD
:100B7000F81800C0F0FCFEFFFFFFFFFFFFFF7E0044
:100B8000000000000000000080C0E0E0E0E0E0E0E5
:100B9000E0E0C0800000000080C0E0E0E0E0E0E0D5
:100BA000E0E0C080000000E0E0C0C0E0E0E0E00085
:100BB00000E0E0C0C0E0E0E0E0E0C0800000000055
:100BC00080C0E0E0E0E0E0E0E0E0C08000000000A5
:100BD00000000000000000000000E0F0F0F0E0EC99
:100BE000EEF7F37020007C7C7C7E007E7E7E7F7F33
:100BF0007F000080C0E07E5B4F5BFEC00000C00055
:100C0000DCD7DEDEDED7DC00C00000000000000024
:100C100000000000000000000000000000000000D4
:100C20000000000000F8FCFEFFE000FFFFFFFFFFF8
:100C3000FF80FFFFFFFFFFFFFFFFFF1F0701000017
:100C400000000000000000FFFFFF81000000000026
:100C50000081C3C3C30000FFFFFF8100000000004C
:100C60000081FFFFFF0000FFFFFF01000000000008
:100C700000FFFFFF010000000001FFFFFF0000FF79
:100C8000FFFF9D1C1C1C1C1C1C9DDFDFDF000000E7
:100C9000000000000000000000000F1F3F7F7F7F6A
:100CA0007F7F3F1E0C001F1F1F3F003F3F3F7F7F86
:100CB0007F00307B7F7830202030787F3B0003003E
:100CC0000F7F0F0F0F7F0F000300000000000000D8
:100CD0000000000000000000000000000000000014
:100CE0000000000000030F1F3F3F3F3F1F1F3F3F1B
:100CF0007F7F7F3F3F1F3F7F7F7F7F7C7878381CDF
:100D00000F000000000000000103070707070707A6
:100D10000707030100000000010307070707070793
:100D2000070703010000000707070000000000009C
:100D30000007070700000000000007070700000089
:100D40000103070707070707070703010000000063
:100D50000000000000000000000000000000000093
:100D60000000000000000000000000000000000083
:100D70000000000000000000000000000000000073
:100D80000000000000000000000000000000000063
:100D900000000000000000000000000011241FBE41
:100DA000CFEFDAE0DEBFCDBF04B603FE18C08091FE
:100DB0003C0790913D07A0913E07B0913F078730D7
:100DC000904BA740B04B59F410923C0710923D074E
:100DD00010923E0710923F07E0E0F8E3099527E004
:100DE000ACEFB1E001C01D92AC33B207E1F711E006
:100DF000A0E0B1E0E8E1F4E602C005900D92AC3F5E
:100E0000B107D9F70E9408270C94B6310C94000062
:100E10008F929F92AF92BF92CF92DF92EF92FF920A
:100E200090914B01981305C090913005903209F4D0
:100E30004BC080934B0190E290933005C82ED12C8B
:100E4000F12CE12C10922F05C701B6012AE030E009
:100E500040E050E00E948531605D603331F0C114A4
:100E6000D104E104F10409F460E260932E0560E22C
:100E70008AE0C816D104E104F10490F08AE0882EDB
:100E8000912CA12CB12CC701B601A50194010E949F
:100E90008531CA01B901A50194010E948531605DC7
:100EA00060932D0520E284E6C816D104E104F10424
:100EB00048F0C701B60124E630E040E050E00E946F
:100EC0008531205D20932C058CE295E0FF90EF901A
:100ED000DF90CF90BF90AF909F908F900895FC01CE
:100EE000AC014C5F5F4F8FEF91E32191822728E0A7
:100EF00030E087FF09C0880F892721503109C9F7E1
:100F0000E417F50791F70895880FF7CFE8EDF0E0C3
:100F100080818E7F80831092E2001092DA0010921E
:100F2000E100A0EEB0E08C9181608C9380818F779E
:100F3000808319BCA7EDB0E08C918E7F8C9380816B
:100F40008F7E80831092FA0408952091E4003091FE
:100F5000E50095E6A9012091EC00822F817020FF29
:100F600006C08091E80080FF06C080E008952091CF
:100F7000E80022FD1AC080911F05882389F0853082
:100F800089F08091EB0085FD0FC02091E400309145
:100F9000E50042175307F9F29150E1F684E0089515
:100FA00082E0089583E0089581E00895809121050D
:100FB00087FF13C08091E80082FF06C08091E8009F
:100FC0008B778093E80004C080911F058111F2CFD8
:100FD000089580911F058823D9F38091E80080FF50
:100FE000F8CF8091E8008E77ECCF982F9093E900AE
:100FF000242F762F50E0891731F07091EC0020916A
:10100000ED005091F00021FD07C09F5F973071F710
:101010008093E90081E008953091EB003E7F3093AA
:10102000EB003091ED003D7F3093ED003091EB000F
:1010300031603093EB007093EC002093ED005093FF
:10104000F0002091EE0027FDE0CF80E00895B0E0B1
:10105000A0E0EDE2F8E00C941330C8EDD0E0888118
:101060008F7E8883E7EDF0E080818160808384E07B
:1010700082BF81E08093FA0488818E7F888302EEAC
:1010800010E0F80110821092DA0081EEC82ED12C07
:10109000F601108288818F778883888180688883B1
:1010A00088818F7D888319BC10921F0510922005BE
:1010B00010921E0510921D0590EEE92EF12CF701FD
:1010C00080818B7F808388818160888342E060E0BB
:1010D00080E00E94F507F60180818E7F8083F80111
:1010E000808181608083808188608083F701808136
:1010F0008E7F8083888180618883CDB7DEB7E8E00A
:101100000C942F30FC0180912705909128058617BB
:101110009707A0F06115710529F49091E8009E777A
:101120009093E80090E06115710551F4911108C0A9
:101130008091E80082FF34C080E00895BC01F2CFC6
:1011400080911F058823C1F18530C1F18091E800AD
:1011500083FD30C08091E80082FDEACF8091E800F5
:1011600080FFE1CF8091F3002091F200382F6115CC
:10117000710519F02830310558F091E0283031051B
:1011800009F090E02091E8002E772093E800CBCF83
:1011900081918093F100615071092F5F3F4FE7CF3C
:1011A00080911F05882341F0853041F08091E8004F
:1011B00083FFBECF81E0089582E0089583E0089523
:1011C0008091FC0408952FB7F8946091F404709115
:1011D000F5048091F6049091F7042FBF08952091B3
:1011E0004A012223C9F02091F80427FF15C0E62FF9
:1011F000E695E695E695EE31D8F4E80FF92FF11D66
:10120000677021E030E001C0220F6A95EAF720956F
:101210008281282322830895FC0132960896219129
:10122000621303C0DF0111971C92E817F907B9F7A1
:10123000089520914A012223C1F02091F80427FF4C
:1012400014C0E62FE695E695E695EE31F8F4E80F42
:10125000F92FF11D677021E030E001C0220F6A957F
:10126000EAF78281822B82830895FC0132962FEF68
:1012700030E04191641751F02F3F19F4411101C042
:10128000232F3F5F3630A9F72F3F09F40895820FCF
:10129000911D27FD9A95FC0162830895A3E0B0E0BB
:1012A000E4E5F9E00C9419302091F1043091F20456
:1012B00028173907A1F09093F2048093F104E0918C
:1012C000EF04F091F004309751F024E029839B83E0
:1012D0008A830680F781E02DCE0101960995239639
:1012E000E2E00C943530A3E0B0E0E9E7F9E00C94DB
:1012F00019302091ED043091EE0428173907A1F040
:101300009093EE048093ED04E091EF04F091F004EB
:10131000309751F023E029839B838A830680F781ED
:10132000E02DCE01019609952396E2E00C9435302C
:10133000FA01811101C0FB01099508950895ECE2BD
:10134000F3E0118282818460828308958091E204B7
:10135000982F9E7F61F4817082608093E204809177
:10136000E504893718F088E78093E5040895863509
:10137000B0F381708465F1CFAF92BF92DF92EF92AC
:10138000FF920F931F93CF93DF93182F062FE9013E
:10139000493708F048E7E42FF0E0E451FB4F011132
:1013A00010C0E4915E2F4E2F4983E8835A83DF916A
:1013B000CF911F910F91FF90EF90DF90BF90AF9072
:1013C0000895202F30E04491D42EE42EF12C56E0E5
:1013D000159FC0011124EFEFF0E0BF010E94F52F2F
:1013E000812F90E0880F991F55E5569FD001579F98
:1013F000B00D11248A1B9B0B982F990F890F5F0149
:10140000A21AB30AAE9CD001AF9CB00DBE9CB00D29
:1014100011245B2F089F80011124012F11275F01E8
:10142000A01AB10AAE9C8001AF9C100DBE9C100D9D
:1014300011245F01A81AB108A29EC001A39E900DBD
:10144000B29E900D1124892F9927E81BF90BEE9D70
:10145000C001EF9D900DFE9D900D1124E92F62308B
:101460007105A1F050F46115710509F49DCF61304B
:10147000710581F0EB2F512F97CF6430710569F022
:1014800080F06630710509F48FCFF4CFE42F4B2F35
:10149000592F8ACFE42F412F87CFEB2F542F492F7D
:1014A00083CF4B2F5D2DE12F7FCF80911B0380FDDC
:1014B00016C081FD16C082FD16C080911A038823D4
:1014C000A1F0883280F428E0829FC001112468E2F4
:1014D00070E00E945A30862F672B39F0089582E021
:1014E000089584E0089588E0089581E0089580914A
:1014F0001B0380FD14C081FD14C082FD16C08091C5
:101500001903882381F08E3180F420E5829FC00189
:1015100011246EE170E00E945A30862F089584E114
:10152000089588E2089588E0089580E5089580E0B0
:101530000895F894E82FE295EF70F0E031A1282F9C
:101540002F7081E090E001C0880F2A95EAF7982F6C
:101550009095932391A392A1892B82A378940895C7
:101560009091F80492FF06C0282F28712830F9F4D2
:10157000877F846093FF06C0282F28712831F1F4FB
:10158000877E84612091F90420FF06C0382F3871CE
:101590003830D9F4877F816021FF06C0282F287159
:1015A0002831D1F4877E816194FD877E0895282FAC
:1015B00024712430F9F68B7F8860DCCF282F2471CA
:1015C000243101F78B7E8861DDCF382F31713130C6
:1015D00019F78E7F8860E0CF282F2171213121F704
:1015E0008E7E8861E1CF972F7830B8F46630A8F40A
:1015F000853098F470E026E0929F600D711D1124F3
:10160000FB0190E3899FE00DF11D1124EE0FFF1FF8
:10161000E455FF4F85919491089580E090E00895FE
:10162000CF93DF93EC0182389105B9F108F041C006
:101630008133910509F49FC050F58932910509F471
:101640008FC08A9709F49EC0C11520E5D20708F023
:10165000BDC0C11530E4D30708F00AC1C03ED105B2
:1016600008F0A5C0CD3CD10508F000C1C83AD105AD
:1016700008F08FC0C53AD10508F0F0C0C130D105DF
:1016800039F1209729F1C430D10510F546C08533D2
:10169000910509F460C0C997B9F68091F804837088
:1016A00009F044C18091F90483FF12C0C9E2D0E07F
:1016B0000FC0833E9105A1F178F4803E910509F1B8
:1016C000823E910509F0C0CF8091F80482FD21C0CF
:1016D000CE01DF91CF910895863E910561F1873E5D
:1016E000910571F1843E910509F0AECF8091F90426
:1016F00081FFEECF8091F804C7EED0E084FD0DC0ED
:10170000E7CF8091F80480FD33C09091F90490FFF9
:10171000DFCFC3EED0E084FFDBCFD0E0C0E0D8CF96
:101720008091F80482FDFFC09091F90490FDFEC005
:1017300084FFCECFF2CF8091F80483FDDDCFC8CFF8
:101740008091F80483FDF5C09091F90491FFF0CFEA
:10175000C4EED0E0BDCF8091F80485FFB9CFA6CF0D
:101760008091F80485FDE8C08091F90483FFB0CF33
:10177000C9E3D0E0ADCF8091F80486FFA9CFCAE2DB
:10178000D0E0A6CF8091F80486FFA2CFC1E3D0E0DD
:101790009FCFC13CD10508F6C85AD0E0CC0FDD1F61
:1017A000C557DE4F0990D881C02DD46491CFC115A3
:1017B00040E2D40708F0AAC0C11581E0D80708F0BC
:1017C00087CFC83ED10508F483CFA7CFC03622E526
:1017D000D20718F5C03432E5D30708F053C0C03241
:1017E00042E5D40708F047C0C11582E5D80708F4E0
:1017F0007FC02C2F2695269540E2249F900111242E
:101800008C2F8370C1E0D0E002C0CC0FDD1F8A9521
:10181000E2F7C22BD32BDD685BCFC03A22E5D207BB
:1018200060F4C03832E5D30708F441C0CF71D0E08E
:10183000DC2FCC27C46FD06A4BCFC03C42E5D40725
:1018400008F44AC0C03E82E5D80708F066CFDC2F16
:10185000CC27CC27DF71C06FD06A3ACFC55AD0E011
:10186000C857DE4FC881D0E0D06432CFD06530CFCA
:10187000DF70D06A2DCFCF71D0E0DC2FCC27C16FC5
:10188000D06A26CF2C2F26952695277080E2289F98
:10189000900111248C2F8370C1E0D0E002C0CC0FE6
:1018A000DD1F8A95E2F7C22BD32BDC6811CF2C2FDA
:1018B00026952695277040E2249F900111248C2FB5
:1018C0008370C1E0D0E002C0CC0FDD1F8A95E2F743
:1018D000C22BD32BDA68FCCE8C2F8F710E94B00AFA
:1018E000C82FD0E0DC2FCC27CC27DF71D062F0CE20
:1018F0008C2F8F710E94B00A35E0D695C7953A9526
:10190000E1F7CF709C2FEC01D069E2CE8D2F8F7163
:101910000E94B00A90E0982F882788279F719C0129
:101920002C2BE901E3CFC2EED0E0D2CEC0EED0E066
:10193000CFCEC6EED0E0CCCEC5E3D0E0C9CE80910C
:1019400092028111109292020895809590919102D5
:10195000982390939102089580916E0290913D0298
:10196000981301C008958F5F8770FACFB0E0A0E0B0
:10197000ECEBFCE00C9412307C010091E70210913A
:10198000E8028091930290919402082B192BCFE0EA
:10199000D0E0CC24C394D12CBC2EC6010C2E02C0A6
:1019A000880F991F0A94E2F780239123892B49F429
:1019B000219790F7B12C8B2DCDB7DEB7E9E00C94D1
:1019C0002E30B7018C2F0E94F30A0E94100B019752
:1019D00079F3F1CFCF93DF93EC010E94B60CBE01F7
:1019E0000E94F30A0E94100BDF91CF910895983066
:1019F00078F5863068F5E82FF0E086E0989FE00DF6
:101A0000F11D11249E2F977083E0F695E7958A9536
:101A1000E1F7EE0FFF1FEE0FFF1FE15EFD4F50E0FD
:101A200040E080E0219130E0092E02C036952795F4
:101A30000A94E2F721703327042E01C0220F0A9482
:101A4000EAF7822B4F5F5F4F4430510559F70895F5
:101A500080E00895983098F5863088F5E82FF0E01A
:101A600086E0989FE00DF11D11248E2F877041E0D4
:101A700001C0440F8A95EAF783E0F695E7958A95C9
:101A8000E1F7EE0FFF1FEE0FFF1FE15EFD4F30E0AD
:101A900020E070E05191DF011197CB01022E02C0CE
:101AA000969587950A94E2F781708195852784231E
:101AB00085278C932F5F3F4F2430310559F70895C8
:101AC0009093E8028093E702089521E030E002C09D
:101AD000220F331F8A95E2F7209530958091E70217
:101AE0009091E802822393230E94600D08959091C3
:101AF0006F028095892380936F02282F277091F4BD
:101B0000282F082E000C330B9217130659F09091D2
:101B1000F90492FF07C08595859585950E94650D0E
:101B200010926F02089521E030E002C0220F331FAF
:101B30008A95E2F78091E7029091E802822B932B3D
:101B40000E94600D089590939402809393020895EB
:101B5000FC0183819481892B29F0808191818923E3
:101B60008F3F51F480E00895843FE1F717C0883E2D
:101B7000A8F0813FB9F712C0808191810E94EA0CE0
:101B800092959F70963099F358F4925F9F709230BF
:101B900048F7803F19F040F7883E20F781E008952C
:101BA0009A5FF4CFCF93DF93682F81E06A3019F00A
:101BB0006D3031F480E00E94600EDF91CF91089586
:101BC00080913A0790913B0726E0FC01A4E3B7E03F
:101BD00001900D922A95E1F7603E08F458C026E086
:101BE000FC0111922A95E9F7C0913A07D0913B0781
:101BF00046E050E0BE0184E397E00E94F5309E018C
:101C000024533540892B41F1C90145E096958795CC
:101C10004A95E1F741E050E0BA0102C0660F771F34
:101C20008A95E2F7CB016091320570913305862BDE
:101C3000972BB9016B5F7F4FE5E076956795EA9545
:101C4000E1F702C0440F551F6A95E2F7842B952BEC
:101C500090933305809332052A5F3F4F40913105C1
:101C6000642F70E0C9010E94F52F481B463010F424
:101C7000240F311D211572E0370710F030E020E00D
:101C80002C5C3A4F30933B0720933A0796CFF6E00F
:101C90006F9FB0011124645A774F46E050E00E94D4
:101CA000DF30A2CFCF93DF93EC01FE01849181114D
:101CB00003C0DF91CF9108950E94D20D2196F5CFF8
:101CC000CF93382FE0913A07F0913B07E453F5406A
:101CD00020913105622F70E0CF010E94F52F281B63
:101CE000822F332361F066E00E944030C82FC1503C
:101CF00010F4CF91089580E20E94D20DF8CF9F0199
:101D0000280F311D2115324018F080E0F0E0E0E0AE
:101D10008E0F9F2F911D8C5C9A4F90933B07809361
:101D20003A07E7CF8091910290919002892B80939E
:101D3000FE01909192029923A1F0892B8093FE01DC
:101D400080914A018823E1F18091F80487FF38C02F
:101D50008EE1E0E0F2E090E08150A0F591110E9468
:101D60009F0C40E250E060E772E08EEF91E00E944D
:101D7000F530892B21F180E2EEEFF1E0A0E7B2E04F
:101D800001900D928A95E1F7E091EF04F091F00453
:101D90003097A9F080914A01882359F08091F80486
:101DA00087FF07C08091FE018093FF0186E080934A
:101DB000FE010280F381E02D8EEF91E009950895F8
:101DC00086E0C7CF2191222339F29F5FC5CF8823B8
:101DD00021F00E94A50C0E94920E0895882339F0EC
:101DE00090919102982B909391020E94920E0895E7
:101DF0000F931F93CF93DF93EC01FC010190002020
:101E0000E9F78F0101501109C017D10728F0DF91C0
:101E1000CF911F910F91089589910E94D20DF4CF17
:101E20000F931F93CF93DF938B01EA0190911F05CE
:101E3000943061F58093E9008FEF9091E800815034
:101E400095FD06C095ED9A95F1F700008111F5CF4B
:101E50008091E80085FF1AC00E94A507811111C07A
:101E60008091E80085FD06C08091E8008E77809320
:101E7000E800F2CFF80181918F018093F100219762
:101E800079F78091E8008E778093E800DF91CF9119
:101E90001F910F91089543E050E0BC0182E00E9441
:101EA000100F089546E050E0BC0182E00E94100F40
:101EB0000895CF93DF93EC0180914A01811111C005
:101EC00048E050E0BE0181E00E94100F80E2FE0178
:101ED000ADEFB4E001900D928A95E1F7DF91CF91DB
:101EE00008958091F80487FF05C040E282E050E049
:101EF000BE01EACF48E081E0FACF81E08093E000C4
:101F000080E28093D8001092C9008FE19EE401978F
:101F1000F1F700C0000087E090EBDC0180933C0704
:101F200090933D07A0933E07B0933F0788E19CE064
:101F30000FB6F894A895809360000FBE9093600050
:101F4000FFCF609146018091E20480FF20C0809124
:101F5000450143E0849FC00111248E5C9C4F539A3D
:101F60002BB1277F3BB138605FB7F894FC01649FC9
:101F7000E00DF11D1124BF0168177907D1F45FBF8F
:101F80008FE594E00197F1F700C00000089580917B
:101F900047019091480123E0829FF0011124EE5CFB
:101FA000FC4F8917A0F61182108212828F5F339640
:101FB000F8CFFC014191CF01E8E03BB9000000C03F
:101FC00047FF2BB9440F000000C000C000C02BB970
:101FD00000C0EA9591F7D0CF0F931F93CF93DF9373
:101FE000EC0110E000E0909149019017110609F012
:101FF0006CF40E94A10F8C8190E00196817099276A
:102000008C83DF91CF911F910F910895209147010B
:10201000A801420F511D9A01220F331F240F351FB3
:102020002E5C3C4F4C816091E4048091E3049695D2
:102030009017110651F04CF0442349F04091E5040B
:102040000E94BC090F5F1F4FCECF4423B9F340E07D
:10205000F7CFB0E0A0E0EFE2F0E10C940F30EC013C
:102060004C81042F10E09801D8010E94A7319B01F8
:10207000AC010E9472314B015C01E0E2F0E0E01B38
:10208000F10BA5E5B0E0AC019B010E9472316B0140
:102090007C019F01DF010E9474309B01AC010E9412
:1020A0007D319B01AC01280D391D4A1D5B1DC70107
:1020B000B6010E948531F22E822F90E039E23F1561
:1020C00020F143E0249F9001112435952795122F8C
:1020D000109500E085E5E82EEF188091490108177A
:1020E00018F10E94A10F9C8181E0992319F0903290
:1020F00019F48FEF8093440180914401890F8C8300
:10210000CDB7DEB7ECE00C942B3025E530E0B9011B
:10211000681B790B9B01220F331F260F371F37FFD8
:10212000D4CF2F5F3F4FD1CF8E2D01FD8F2D20912A
:102130004701622F600F7727771F9B01220F331F04
:10214000260F371F2E5C3C4F412F6091E4040E9404
:10215000BC090F5FC2CFEF92FF920F931F93CF93F3
:10216000DF93EC018C81811109C081E08C83109296
:10217000300392E0909343018093420180914701A4
:102180009091480123E0829FF0011124EE5CFC4F06
:10219000891758F110E003E060914901161758F1D2
:1021A0000E94A10F8091420120913003280F2093BB
:1021B000300390914301980F90934301191654F402
:1021C000022E000C330B409149014150550B24174E
:1021D000350734F0819580934201813009F41C82E7
:1021E000CDB7DEB7E6E00C94313011821082128256
:1021F0008F5F3396CDCFE12EF12C70E0C7010E94A6
:102200005A3020914701820F482F50E0209130032F
:10221000022E000C330BE216F306BCF020914301B2
:10222000022E000C330B2E153F057CF0809F900191
:1022300011242E5C3C4F4091E5046091E4048091B0
:10224000E3040E94BC091F5FA7CFFA01EE0FFF1F36
:10225000E40FF51FEE5CFC4F118210821282F3CF67
:10226000B0E0A0E0E6E3F1E10C940F30EC018A81EC
:10227000BB24BA9480FD02C0BB24B394A090490152
:102280008C81811109C081E0B81220C08FEF8A0DC6
:1022900080932F0381E08C83F12CE12C46E3942E74
:1022A000EA14B8F00E94A10F80912F0391E0B912B7
:1022B00057C0811150C080914901815080932F03F4
:1022C0001C82CDB7DEB7ECE00C942B3010922F03BC
:1022D000E1CF009147010E0D1F2D111DC801880F80
:1022E000991F080F191F0E5C1C4FF80111821082F4
:1022F000128234E0C32ED12C812C80912F03880DC3
:1023000087332CF1692D0E944C30892F082E000C48
:10231000990B8E159F0591F48091E5048C9DA00189
:102320008D9D500D112455954795559547959801CC
:102330006091E4048091E3040E94BC098B0CF1E0FD
:10234000CF1AD108D1F68FEFE81AF80AA9CF87FF84
:10235000DDCF8A0DDBCF815080932F03BC82B1CFBC
:1023600090E001966091490170E00E945A3080939C
:102370002F038C83A6CFEF92FF921F93CF93DF930F
:10238000EC0110E0EE24EA94F12C6091490116175B
:1023900070F00E94A10F9A818C8190FF27C08F5FFF
:1023A0008C83DF91CF911F91FF90EF900895209142
:1023B0004701422F410F5527551FCA019A01220F8D
:1023C000331F280F391F2E5C3C4F70E0C7010E945D
:1023D0005A30962F8C814091E5046091E404199F56
:1023E000800D11240E94BC091F5FCFCF8150D8CF30
:1023F0009091E20490FF0EC0909147012091480116
:1024000033E0939FF0011124EE5CFC4F921718F01B
:102410000E94A10F08958183608342839F5F33965A
:10242000F5CFA3E0B0E0E7E1F2E10C9417308C01C6
:102430008091310381110AC09E012F5F3F4F48E711
:102440006FEF0E94BC098A8180933103F801648197
:10245000613069F08091310340E0662361F040E033
:10246000623011F44091310380E060E004C060917B
:10247000310340E080E00E94F811F801848190E08F
:10248000019663E070E00E945A3084832396E4E072
:102490000C943330A3E0B0E0E0E5F2E10C941930A5
:1024A0009091E20490FF0AC09E012F5F3F4F0E946F
:1024B000BC094B8169818A810E94F8112396E2E070
:1024C0000C943530CF93DF93EC01E2EEF4E04381DE
:1024D00062818C810E944A128C818F5F8C83DF9194
:1024E000CF910895CF93DF93EC01EC81F0E0EF50B2
:1024F000FA4F4491E2EEF4E0628181810E944A1237
:102500008C818F5F8C83DF91CF910895B0E0A0E044
:10251000ECE8F2E10C9411307C015B016A018091DE
:10252000C10201E010E08A3010F40AE010E0C1E0DE
:10253000D0E0B501C701F6010995811104C02196CB
:102540000C171D072CF4CDB7DEB7EAE00C942D3044
:10255000CC9F9001CD9F300D300D112490E080E094
:1025600045E34A95F1F70000019682179307C1F7FA
:10257000E0CF80919F02811119C088EC90E02091FA
:10258000E30027FD10C0EFE3FCE93197F1F700C04D
:1025900000000197A1F782E080939F020E948607C6
:1025A00010921F0503C081E080939F0281E090910B
:1025B0009F02913011F080E0089508950E94B912B1
:1025C000882359F0E091EF04F091F004309729F05E
:1025D0000190F081E02D0995089580E008950F9312
:1025E0001F930E94B912882329F00E94E3081F91CB
:1025F0000F9108950E94E3080091C2021091C30256
:102600002091C4023091C502600F711F821F931F79
:10261000EECFB0E0A0E0EFE0F3E10C9413306C01FA
:102620007B0164E670E088E70E94532DEC0197FD82
:1026300012C010E000E0F601E00FF11F849164E6A3
:1026400070E00E94BF2DEC01892B29F40F5F1F4F12
:102650000E151F0581F70E94352ECE01CDB7DEB7CE
:10266000E8E00C942F308091EB049091EC049111F0
:1026700003C091E089270895882369F062E070E043
:1026800083EF96E00E940913892B19F08091EB04E7
:1026900008951092EB048091EB04EBCFCF93C0919F
:1026A000EB048091EC048823D1F00E94E308605A87
:1026B00075418F4F9F4F6093E7047093E8048093B8
:1026C000E9049093EA04C11108C062E070E081EF70
:1026D00096E00E940913892B29F0C091EB048C2FFE
:1026E000CF91089581E08093EB04F7CFB0E0A0E0B4
:1026F000ECE7F3E10C940B30FC016280448081E054
:102700008483E1EFF5E07490E0E7F6E0E491C091B6
:10271000E504C695C158D0E0CC0FDD1FCD2FDD27D5
:10272000812C75E0972EAA24AA94B12C55245A9492
:10273000E719EE2EF12C80914901881638F00E949D
:10274000A10FCDB7DEB7E0E10C942730C82CD12C17
:1027500082E0861568F09C9CF0019D9CF00D112490
:10276000EC52FC4F8091E30480838091E4048183E8
:10277000411023C09C9CF0019D9CF00D1124EC5253
:10278000FC4F1382128220914701C601820F911DD6
:102790009C01220F331F280F391F2E5C3C4F9C9C3D
:1027A000F0019D9CF00D1124EC52FC4F428161819F
:1027B00080810E94BC098394BECF9C9C80019D9C1B
:1027C000100D11240C521C4FF80183818823F1F065
:1027D00081508383859DC0011124648170E00E9433
:1027E000F52FFB01FF27EF50FA4F8491E82FE719EF
:1027F000E59DC0011124B7010E94F52F8091E504E9
:10280000689FB0011124F8017283BDCF0E94CF30C0
:10281000B5010E945A308C179D070CF0B4CFF2E03E
:10282000F61598F40E94CF30B5010E945A30F80195
:1028300080830E94CF302091E4042695622F70E0BF
:102840000E945A30280FF80121839C9CF0019D9C26
:10285000F00D1124EC52FC4F12828091E504893C6A
:1028600058F088EC9C9CF0019D9CF00D1124EC52DA
:10287000FC4F8483838387CF8431A0F784E1F2CF38
:10288000CF92DF92EF92FF926B017C010E94A6092A
:10289000B701A60188E090E00E943131FF90EF90EF
:1028A000DF90CF900895A3E0B0E0E9E5F4E10C9467
:1028B0001230082FD62EF42EC22E9091E20490FFF3
:1028C0003CC02091E304281308C08091E4048613DF
:1028D00004C08091E504841729F080912E03826062
:1028E00080932E03E92FE695AE2FB0E0AF52BE4F96
:1028F0008C9180932C039E7F923019F59E012F5F5F
:102900003F4F4F2D6D2D802F0E94BC094B81698157
:102910008A810E94F8110093E304D092E404F092BB
:10292000E504CC2051F06091E2047091E3048091C1
:10293000E4049091E5040E9440142396E9E00C948D
:102940002E30823019F4F090E504E5CF8630A1F105
:10295000893091F18931F9F6E9516E2F6170B62E07
:10296000E695F0E0E451FA4F1491E12C60914901B1
:10297000E61618F00E94A10FCECFE19EC0011124EF
:1029800070E00E94F52F802FB11014C0860F2091A7
:102990004701622F6E0D7727771F9B01220F331F90
:1029A000260F371F2E5C3C4F4F2D6D2D0E94BC090A
:1029B000E394DCCF861BEBCF022FADCFE2EEF4E049
:1029C000438121E1421B08F440E021E062818181E2
:1029D0000E9453140895E2EEF4E0438121E1420F96
:1029E00008F44FEF21E0628181810E945314089521
:1029F000E2EEF4E0628121E1621B08F460E021E094
:102A0000438181810E9453140895E2EEF4E06281D3
:102A100021E1620F08F46FEF21E0438181810E9480
:102A200053140895E2EEF4E0818121E04381628154
:102A300088500E9453140895E2EEF4E0818121E071
:102A400043816281885F0E94531408958091E60457
:102A5000882319F081508093E6046091E20470911C
:102A6000E3048091E4049091E5040E9440140895E9
:102A70008091E604833018F48F5F8093E6046091C0
:102A8000E2047091E3048091E4049091E5040E94D3
:102A900040140895E2EEF4E083E0808311828FEF2A
:102AA000828388E783831482ACE2B3E012968C9130
:102AB0001297836012968C936081718182819381D9
:102AC0000E94401408959091F90492FB222720F966
:102AD000281779F080FB92F99093F9046091F8043B
:102AE0007091F90484E090E00E943D3182E00E9400
:102AF000770D0895A4E0B0E0E0E8F5E10C9418301B
:102B00004091A8025091A9026091AA027091AB0273
:102B10002FB7F8948091F4049091F504A091F604F5
:102B2000B091F7042FBF841B950BA60BB70B11E0D8
:102B300084369105A105B10570F10E94EF126E5F18
:102B40007F4F8F4F9F4F69837A838B839C838091C4
:102B500015019091160184559D4F4091140150E04C
:102B60004530510510F044E050E0BE016F5F7F4FEB
:102B70000E94023182E090E00E947F2F182F88236C
:102B800051F00E94E3086093A8027093A902809319
:102B9000AA029093AB02812F2496E3E00C94343088
:102BA000A8E0B0E0E6EDF5E10C94193085E0E2EE46
:102BB000F4E0DE01119601900D928A95E1F7809183
:102BC0002C0390912D03A0912E038E839F83A887C1
:102BD00028854091BD025091BE026091BF02709164
:102BE000C0023FB7F8948091F4049091F504A0914D
:102BF000F604B091F7043FBF841B950BA60BB70BEF
:102C000084369105A105B10510F4222319F18091B4
:102C10001D0190911E0184559D4F40911C0150E073
:102C20004930510510F048E050E0BE016F5F7F4F22
:102C30000E94023183E090E00E947F2F882369F098
:102C40000E94E3086093BD027093BE028093BF02AE
:102C50009093C00210922E0381E02896E2E00C943B
:102C60003530EF92FF921F93CF93DF9300D000D0C7
:102C70000F92CDB7DEB77B0190E080E00E947F2FFE
:102C8000182F882309F46DC04091070150E04115C9
:102C9000510511F041E050E0609108017091090187
:102CA00064557D4FCE0105960E9402314091A402E9
:102CB0005091A5026091A6027091A7022FB7F894D7
:102CC0008091F4049091F504A091F604B091F7047A
:102CD0002FBF841B950BA60BB70B84369105A1055E
:102CE000B10538F48DEA92E00E946F079D81891743
:102CF000C1F181E090E00E947F2F882309F458C041
:102D000040910F0150E04530510510F044E050E093
:102D1000609110017091110164557D4FCE010196B3
:102D20000E9402318DEA92E00E946F079D81891313
:102D30003FC00E94E3086093A4027093A5028093B1
:102D4000A6029093A70289819A81AB81BC8180936E
:102D5000A0029093A102A093A202B093A30211E05B
:102D60000EC08091AD029091AE02A091AF02B091E1
:102D7000B00289839A83AB83BC831111E4CF809125
:102D8000A0029091A102A091A202B091A302F7012A
:102D900080839183A283B383812F0F900F900F9034
:102DA0000F900F90DF91CF911F91FF90EF900895BA
:102DB00010E0E5CF67EE7EEF90E080E00E943D31CD
:102DC00060E082E090E00E941F3160E083E090E0EC
:102DD0000E941F31109294021092930260E074E1FD
:102DE00084E090E00E943D3160E086E090E00E9447
:102DF0001F316FEF87E090E00E941F3140E050E00C
:102E0000BA0188E090E00E94313160E08DE090E00E
:102E10000E941F3140E050E0BA0188E190E00E943A
:102E2000313160E087E190E00E941F3140E050E0E6
:102E3000BA018CE190E00E94313170E060E080E204
:102E400090E00E943D3140E050E0BA0188E190E01E
:102E50000E94313140E050E0BA018FE090E00E94E2
:102E6000313140E050E0BA0183E190E00E9431311D
:102E700008951F920F920FB60F9211242F933F9334
:102E80004F935F936F937F938F939F93AF93BF9372
:102E9000EF93FF938091E10082FF09C08091E200EF
:102EA00082FF05C08091E1008B7F8093E1008091DB
:102EB000DA0080FF24C08091D80080FF20C080917C
:102EC000DA008E7F8093DA008091D90080FF9DC068
:102ED00080E189BD82E189BD09B400FEFDCF81E0BA
:102EE00080931F058091FA04811109C00E94860712
:102EF0000E9427088091E20084608093E200809124
:102F0000E10080FF17C08091E20080FF13C0809134
:102F1000E2008E7F8093E2008091E20080618093E6
:102F2000E2008091D80080628093D80019BC85E0CF
:102F300080931F058091E10084FF2BC08091E20007
:102F400084FF27C080E189BD82E189BD89B5982FC2
:102F5000917080FFFBCF8091D8008F7D8093D80047
:102F60008091E1008F7E8093E1008091E2008F7E6E
:102F70008093E2008091E20081608093E200809182
:102F80002005882309F447C084E080931F058091C1
:102F90001F058091E10083FF27C08091E20083FF3D
:102FA00023C08091E100877F8093E10082E08093DD
:102FB0001F05109220058091E1008E7F8093E10033
:102FC0008091E2008E7F8093E2008091E200806138
:102FD0008093E20042E060E080E00E94F50780918B
:102FE000F00088608093F000FF91EF91BF91AF9166
:102FF0009F918F917F916F915F914F913F912F9111
:103000000F900FBE0F901F90189519BC10921F05BE
:103010001092FA0474CF8091E30087FD93E09093BF
:103020001F05B5CF78941F921FB61F9211248F935E
:103030009F93AF93BF938091F4049091F504A09176
:10304000F604B091F7040196A11DB11D8093F4041C
:103050009093F504A093F604B093F704BF91AF9159
:103060009F918F911F901FBE1F9018959C014FB785
:10307000F8948091F4049091F504A091F604B09135
:10308000F7044FBF821B930B08952FB7F8948091DC
:10309000F4049091F504A091F604B091F7042FBFC9
:1030A00008950E9445189C0190912203809123036A
:1030B000982B21F030931F0320931E03909124033B
:1030C00080912503982B21F030931D0320931C033E
:1030D000E091EF04F091F004309749F082E08093A2
:1030E00020030480F581E02D80E293E009950895A6
:1030F0001092910280914A01E0E0F2E0882329F1E8
:103100008091F80487FF21C08EE1DF011D928A952E
:10311000E9F790E080E00E94730990E080E00E946F
:103120004E09109290020E94920E86E0E0E2F3E0D7
:10313000DF011D928A95E9F71092190310921A0384
:1031400010921B030E945118089586E0DECFAAE278
:10315000B0E0EDEAF8E10C94183081E295E02091BE
:10316000F100FC012193CF01F5E089329F07B9F707
:1031700080912205833009F470C0B8F4813009F4DD
:1031800047C0823009F4B1C08091E80083FF7EC25D
:1031900080912105909122059A3008F077C2E92F9D
:1031A000F0E0E854FE4C0C946E308A3009F48CC088
:1031B0008B3009F46FC0893039F780912105813255
:1031C00019F780912505909126050297E8F68091E0
:1031D000E800877F8093E8008091E80082FF38C094
:1031E0009091F3008091F200029731F48091F10008
:1031F000813011F0863021F48091F1008093FC043D
:103200008091E8008B778093E8000E94D607BCCFBE
:1032100080912105813A09F0B7CF8091E800877F3E
:103220008093E8008091250590912605892B61F413
:1032300060E28DEF94E070E00E9482088091E800E7
:103240008B778093E800A0CF60E090E080E0F3CF40
:1032500080911F058111C0CF97CF80912105813AC0
:1032600009F092CF8091250590912605892B09F0D0
:103270008BCF8091E800877F8093E8008091E80001
:1032800080FFFCCF80914A018093F1008091E8009B
:103290008E77B9CF80912105813209F075CF809169
:1032A000250590912605892B09F06ECF8091E800C5
:1032B000877F8093E8000E94D60780912305809342
:1032C0004A010E94781860CF80912105813209F06F
:1032D0005BCF8091E800877F8093E8000E94D6074B
:1032E000809124058093FB044FCF80912105813A82
:1032F00009F04ACF8091E800877F8093E8008091B1
:10330000E80080FFFCCF8091FB04BECF803899F0AD
:10331000823809F0BBC1809125058F70873008F095
:10332000B5C18093E9008091EB0085FB882780F987
:103330001092E90006C080911D0590911E05911123
:1033400082609091E800977F9093E8008093F1006D
:103350001092F1008091E8008E7794C1882309F4DF
:1033600082C1823009F092C180912305811185C10B
:10337000809125058F702FEF280F263008F086C129
:103380008093E9002091EB0020FF77C1933031F466
:103390008091EB0080628093EB006FC19091EB0015
:1033A00090619093EB0021E030E001C0220F8A95FC
:1033B000EAF72093EA001092EA008091EB0088601F
:1033C000EACF811163C1109123051F778091E3003B
:1033D0008078812B8093E3008091E800877F809341
:1033E000E8000E94D6078091E80080FFFCCF809122
:1033F000E30080688093E30082E0111183E0809312
:103400001F0544C18058823008F040C180912305D7
:10341000909124058C3D23E09207A1F583E08A83F7
:103420008AE289834FB7F894DE01139620E03EE0EC
:1034300051E2E32FF0E050935700E49120FF03C0E6
:10344000E295EF703F5FEF708E2F90E0EA30C0F0B2
:10345000C7968D939D932F5F243159F74FBF80916D
:10346000E800877F8093E8006AE270E0CE01019671
:103470000E9482088091E8008B778093E80006C163
:10348000C096E7CF4091250550912605292F332777
:103490002330310509F444C078F52130310509F4B1
:1034A0006FC08BE390E0EBEEF7E02230310509F0DE
:1034B000EDC02091E800277F2093E80020912705A8
:1034C000309128058217930708F49C0140E02115EC
:1034D000310509F064C0411162C08091E80082FDAD
:1034E000C9CF80911F05882329F2853019F2809178
:1034F000E80083FFF2CFBECF21323105A9F122329D
:10350000310509F0C3C04115510509F443C04130EC
:10351000510509F0BBC086EB90E0E5EFF6E0C9CFBE
:10352000992781309105C1F0009759F0029709F071
:10353000ADC0E8E3F8E0E4918E2F90E0E8E3F8E036
:1035400007C0E8E5F8E0E4918E2F90E0E8E5F8E0C8
:10355000009709F49BC0ADCFE6E4F8E0E4918E2F2C
:1035600090E0E6E4F8E0F4CF4115510571F0413008
:10357000510509F08BC089E090E0E6E1F8E099CFD1
:1035800082E190E0E6E2F8E094CF89E090E0EDEFB0
:10359000F7E08FCF80E490E0EBEAF7E08ACF80910C
:1035A0001F05882309F466CF853009F463CF809125
:1035B000E80083FD5FCF8091E80082FD8ECF80918F
:1035C000E80080FF84CF9091F3008091F2002115F4
:1035D000310519F08830910550F041E0089709F065
:1035E00040E08091E8008E778093E80070CF4491AE
:1035F0004093F1003196215031090196E8CF80388F
:1036000009F044C08091E800877F8093E8008091B2
:1036100020058093F1009ECE811138C010912305C2
:103620001230A0F58091E800877F8093E800109326
:1036300020050E94D607112311F084E005C0809177
:10364000E30087FDFACF81E080931F0542E061EC43
:1036500081E00E94F50742E261EC82E00E94F507FA
:1036600080911F0513C080912305813079F481E09A
:10367000933009F080E080931E051092E90080915C
:10368000E800877F8093E8000E94D6078091E800D9
:1036900083FF0AC08091E800877F8093E8008091D3
:1036A000EB0080628093EB00AA96E3E00C94343048
:1036B0001F920F920FB60F9211242F933F934F93A7
:1036C0005F936F937F938F939F93AF93BF93CF93AA
:1036D000DF93EF93FF93D091E900DF708091EC00CE
:1036E000C82FC17080FDC0E81092E9008091F00001
:1036F000877F8093F00078940E94A7181092E900C9
:103700008091F00088608093F000CD2BCF70C09343
:10371000E900FF91EF91DF91CF91BF91AF919F9120
:103720008F917F916F915F914F913F912F910F906A
:103730000FBE0F901F9018950E9478182FEF84E30A
:103740009CE0215080409040E1F700C0000088E1FB
:103750009CE00FB6F894A895809360000FBE9093FC
:103760006000FFCF662309F45DC08D3C41F40E94E8
:10377000770A8195809323030E94511808958E3C07
:1037800019F40E94770AF6CF8F3C31F40E94770A31
:10379000819580932203F0CF803D19F40E94770A2F
:1037A000F8CF893D29F40E94550A80932403E4CF81
:1037B0008A3D21F40E94550A8195F7CF8B3D31F463
:1037C0000E94550A819580932503D6CF8C3D19F42C
:1037D0000E94550AF8CF9FE2980F983070F4815DEF
:1037E000990B21E030E001C0220F8A95EAF7809121
:1037F0002103822B80932103BFCF8D3D31F4809133
:103800001B03816080931B03B7CF8E3D21F4809111
:103810001B038260F7CF8F3D09F0AECF80911B0371
:103820008460F0CF409122038D3C59F480912303B2
:1038300087FF0DC01092230341110BC01092190392
:1038400008C08E3C81F48091230318169CF3442316
:1038500081F08091240390912503892B09F08CCF6E
:1038600010921A0389CF8F3C49F447FFF0CF109292
:103870002203809123038111ECCFE0CF803D19F426
:103880001416ACF3E4CF90912403893D29F4191662
:10389000F4F610922403DBCF8A3D19F497FFD7CFBB
:1038A000F8CF909125038B3D29F497FFD0CF10924C
:1038B0002503CDCF8C3D19F41916CCF3C8CF9FE268
:1038C000980F983090F4815D990B21E030E0B901B8
:1038D00002C0660F771F8A95E2F7CB018095909121
:1038E0002103892380932103B2CF8D3D31F4809150
:1038F0001B038E7F80931B03AACF8E3D21F4809102
:103900001B038D7FF7CF8F3D09F0A1CF80911B0363
:103910008B7FF0CF882399F19CEF980F913A40F478
:10392000682F8EEF91E00E94EF080E94920E08959A
:1039300090E2980F983050F4877091E001C0990F91
:103940008A95EAF7892F0E94A50CEFCF9BE5980F87
:10395000933028F490E080E00E947309089598E580
:10396000980F993128F490E080E00E944E09089564
:1039700093E3980F933118F460E00E94B21B08950E
:10398000CF93C82F8823D1F18CEF8C0F813AC0F5EB
:1039900080914A01882311F18091F80487FF1EC0AD
:1039A000EC2FE695E695E695F0E0E250FE4F828139
:1039B00090E04C2F477021E030E002C0220F331F0F
:1039C0004A95E2F782239323892B89F06C2F8EEF9F
:1039D00091E00E94EF080E94920E09C0E0E0F2E040
:1039E0008191C81799F382E0E630F807C9F76C2F88
:1039F0008EEF91E00E9419090E94920ECF910895D6
:103A000080E28C0F883068F4C77021E030E001C09C
:103A1000220FCA95EAF780919102822B809391023E
:103A2000EBCFEBE5EC0FE33040F4F0E0E857FE4F6E
:103A3000808190E00E947309E1CFE8E5EC0FE93165
:103A400050F4F0E0EE0FFF1FE557FE4F80819181AB
:103A50000E944E09D3CF83E38C0F833178F661E067
:103A60008C2F0E94B21BCACF0F931F93CF93DF936B
:103A7000C62FD42F022FFC0182818823A9F06093E6
:103A80002B050E94451890932A0580932905C7703D
:103A900081E001C0880FCA95EAF70E94EE0EDF911F
:103AA000CF911F910F91089580912B05681335C018
:103AB0008091290590912A050E943618883C91052D
:103AC00060F510E21D0FCD17B9F080E28C0F883041
:103AD00040F4C77081E001C0880FCA95EAF70E94E0
:103AE000E70E183048F481E09D2F977001C0880FD1
:103AF0009A95EAF70E94EE0E802F0E94C01C802F3C
:103B00000E948A1C183058F6D77081E001C0880FD7
:103B1000DA95EAF70E94E70EC2CFC77081E001C0D4
:103B2000880FCA95EAF7F6CF0E94B912882319F0D8
:103B30000E94451808950E94EF12CB0108956091EC
:103B4000E204669570E04BE050E087E391E00E946C
:103B5000E830892B19F481E080932D030E94941D95
:103B6000909327038093260380912E038460809393
:103B70002E0308959091E20490FF31C0917081115D
:103B80002FC092609093E20480912E038160809315
:103B90002E03662351F06091E2047091E30480915A
:103BA000E4049091E5040E9440146091E20466955B
:103BB00070E04BE050E087E391E00E94E830892B11
:103BC000B1F00E949F0981E08093290320E0409199
:103BD000E5046091E4048091E3040E945314089585
:103BE0008B3210F09465CECF880F982BCBCF0E94EC
:103BF0009F1DE9CF8091E2048695815009F48AE205
:103C000061E00E94BA1D08958091E20486958F5F5D
:103C10008B3208F081E061E00E94BA1D0895909116
:103C2000E20490FF08C09695981728F0961718F4AC
:103C30000E94041E089561E00E94BA1D0895A5E047
:103C4000B0E0E5E2FEE10C940F307C01DC0113965C
:103C50008D919C911497892B39F08C9111969C91A0
:103C600089238F3F09F08EC42596ECE00C942B300D
:103C70000E94B60C182F682F89819A810E942A0D04
:103C800069817A81812F0E94F30A8C01F701828178
:103C9000F801E851FC47882309F461C490E290934D
:103CA0002F011093F1020093F00298013052211578
:103CB0003043B8F4980133273093F1022093F00297
:103CC000D70111969C9111979093F3029C91909338
:103CD000F202E730F10508F03EC0EE53FE4C0C94C2
:103CE0006E300C33110560F7D801A45BBE4F9C9178
:103CF00090932F01E5CF26E241EE61EEC7010E94CD
:103D0000341D80916F02877009F4AECFD7011296EF
:103D10008C91882309F4A8CF8091F90482FFA4CF65
:103D200082E00E94770DA0CF27E245EE65EEE6CF58
:103D300026E241EE60EEE2CF27E245EE64EEDECF12
:103D400026E241EE62EEDACF27E245EE66EED6CF0E
:103D500028E241E0EBCF10922B0598013057233237
:103D6000310508F021C484E090E00E94193190935D
:103D7000F9048093F804F801E150F047E232F105CC
:103D800020F4E753FE4C0C946E308091F80481606F
:103D90008093F80495C08091F90488608093F904B9
:103DA0008FC08091F8048260F3CF8091F804846022
:103DB000EFCF8091F8048860EBCF8091F9048160A7
:103DC000EDCF8091F9048260E9CF8091F8048061A1
:103DD000DFCF8091F8048062DBCF8091F8048064AB
:103DE000D7CF0E9478188091F8048068D1CF809155
:103DF000F8048C60CDCF8091F9048360CFCF80919F
:103E0000F8048E7FC5CF8091F904877FC7CF80915A
:103E1000F8048D7FBDCF8091F8048B7FB9CF80915E
:103E2000F804877FB5CF8091F9048E7FB7CF80915A
:103E3000F9048D7FB3CF8091F8048F7EA9CF809154
:103E4000F8048F7DA5CF8091F8048F7BA1CF0E94CD
:103E500078188091F8048F779BCF8091F804837F46
:103E600097CF8091F9048C7F99CF8091F80482FBE1
:103E7000992790F921E0922790FB82F990FB83F932
:103E800087CF8091F904982F909591708E7F892B20
:103E900090FB81F983CF9091F804892F8F7B96FF57
:103EA000806476CF0E9478189091F804892F97FB50
:103EB00087F980586DCF61E08EE090E00E941F315D
:103EC0006091F8047091F90484E090E00E943D3123
:103ED0000E94781816CF60E0EFCF9091F804892FF8
:103EE0008F7E94FF806154CF9091F804892F8E7F4C
:103EF00090FF81604DCF9091F904892F877F93FFC8
:103F000088604CCF811185C0809191028272F80146
:103F1000E052F847E531F10508F08BC0E551FE4C61
:103F20000C946E308091E20480FF17C08E7F8093E6
:103F3000E2046091E2047091E3048091E4049091C2
:103F4000E5040E9440140E949F0980912E03816025
:103F500080932E030E94A10FD4CE81608093E2044F
:103F600061E086950E94BA1DCCCE4AEF5DE164E027
:103F70007EE10E949809C5CE44E05EE16AEF7DE1F2
:103F8000F8CF42E155E16CE175E1F3CF4CE155E149
:103F900062E175E1EECF48EF54E165E075E1E9CF0C
:103FA00045E055E168EF74E1E4CF4EED54E16BEE8E
:103FB00074E1DFCF4BEE54E16EED74E1DACF46E20F
:103FC00055E168E375E1D5CF48E355E166E275E177
:103FD000D0CF61E081E0C6CF65E082E00E940F1E95
:103FE00090CE68E086E0FACF6EE089E0F7CF64E13A
:103FF0008FE0F4CF67E185E1F1CF61E088E1B2CFF6
:1040000062E289E1EBCF61E083E2ACCF6AE285E274
:10401000E5CF0330ECE71E0709F472C008F055C085
:1040200001152CE7120709F45EC001301C4709F4A2
:104030006DC0F701828100811181882309F474C069
:10404000C8010E94B60CD82E682FC8010E942A0D04
:10405000B8018D2D0E94F30A0E94100BB82E192F63
:10406000882ED7011296AC90129715969C90929438
:104070009FE0992280916F028770C1F0DA2CAA200C
:10408000B1F0812F807F803421F080E28B0D883069
:1040900068F08091F90482FF09C082E00E94770DE8
:1040A00080916F028770DD24D3948111D12CC12EB1
:1040B000C2948FE0C822BBE0BC1508F4A1C0EC2D6F
:1040C000F0E0E050FE4C0C946E300B358CE7180796
:1040D00049F10C359CE71907D9F00A351C4709F05E
:1040E000A8CF81E01CC00E947818BFEFE4E3FCE099
:1040F000B150E040F040E1F700C000000E947D0FA9
:104100006FEF7FEF90E080E00E943D310E949C1BAA
:104110008091F90482FB882780F991E089270E9429
:10412000631587CF80E0FBCFC8010E94F70CD82E23
:104130008FCF012F0F70107F11F00295007FAA2002
:10414000B9F0002369F080E28B0D883010F0811007
:1041500009C080919102082B009391020E94920E57
:104160008B2D4CC080919002082B00939002F6CFCB
:104170008B2D0E948A1C002309F442C080E28B0D23
:10418000883010F0811004C0802F0E94A50C06C05A
:104190000095809190020823009390020E94920E55
:1041A0002FC0012F0F70107F103211F00295007F89
:1041B0008820A1F0E1E08E1609F480C0AA2009F45D
:1041C0008AC0992009F480C0D70115968C91159763
:1041D00080FFC6CF8F7015968C9376C02091F9041E
:1041E00022FD44C0AA20E1F1002339F08091910220
:1041F000082B009391020E94920E80E00E94C01C46
:10420000EC2DE850FF0B349710F40E94DE12DD20F5
:10421000B1F080916F0280FD12C0D70112961C92FE
:104220008595859585950E94930DC7010E941F1E57
:1042300080916F028595859585950E94650D85E035
:10424000F701DE01119601900D928A95E1F709813F
:104250001A81C8010E94F70CB8010E94F30A04CD2C
:1042600080E00E948A1C002359F28ECFAA20A1F080
:1042700090919202802F892B911003C00E94EE0E24
:10428000BFCFF1E09F12FACF22FFBACF891709F40E
:10429000B7CF80939202B4CF911006C00E949F0CBA
:1042A000802F0E94E70EACCF21E0921609F4A8CF30
:1042B000802F0E94E70E0E949F0CA2CFAA2031F00F
:1042C00035E0391508F49CCF802FD8CF84E08915CC
:1042D00008F496CFE5CF992019F3B9E38B1209C002
:1042E000EFEFF7EE23E0E150F0402040E1F700C0AF
:1042F00000008B2D0E948A1C83CF812F8695869586
:10430000837069F0813009F07BCF8B2D912F9370F2
:10431000A11002C080E090E00E944E0971CF8B2D69
:10432000912F9370A11002C080E090E00E94730969
:1043300067CF6A2D8B2D0E94B21B62CF912F937095
:1043400009F03FC0A1105CCF4B2D429546954770B8
:10435000440F440F8B2D8F7090E0042E02C0880F05
:10436000991F0A94E2F730E020E0B4FE09C02FE084
:1043700030E002C0220F331F4A95E2F720953095B6
:10438000169516951370123099F078F440919302B7
:1043900050919402113039F0822B932B8423952372
:1043A0000E94A30D2DCF842B952B822B932BF8CF1E
:1043B000822B932B20919302309194028227932792
:1043C000EFCF9695AA2011F0912F9170992309F4BF
:1043D00017CF4B2D429546954770440F440F8B2DB8
:1043E0008F7090E0042E02C0880F991F0A94E2F7A4
:1043F00030E020E0B4FE09C02FE030E002C0220F20
:10440000331F4A95E2F7209530951695169513704F
:10441000123099F078F44091E7025091E80211309F
:1044200039F0822B932B842395230E94600DE8CED4
:10443000842B952B822B932BF8CF822B932B2091BF
:10444000E7023091E80282279327EFCF1F70AA205E
:1044500029F0812F0E94930D8B2D10CF8B2D0E9460
:10446000E70E812F0E94650DCBCE8B2D32EF831688
:1044700099F1381570F090EF8916D1F0A1EF8A16F6
:1044800091F0AA2009F45BC091106ACE812F8F7140
:1044900027C0B3EF8B1639F1E4EF8E12F2CF809183
:1044A000F90482FD2EC0812F8F71AA20D9F218C085
:1044B000AA2069F0F4E0F91508F4A2CE1F7181E09A
:1044C00090E002C0880F991F1A95E2F7B8CF25E057
:1044D000291508F495CEF2CF812F8F71A110C2CF8C
:1044E0000E94930D8DCE90E080E0AA2009F49DCF2C
:1044F0001F7181E090E002C0880F991F1A95E2F7C2
:1045000094CFAA2089F01F71812F0E94930D809172
:10451000F90482FF07C038E0139FC00111248360B3
:1045200080936F02812FDCCF81E00E94770D81E0C4
:10453000891508F065CE82E00E94770D61CE992042
:1045400059F0893309F0D5CE9FEFA7EEB3E0915033
:10455000A040B040E1F7CBCE812F8F7183CFE73001
:10456000F10508F4BACB0631BCE71B0709F0CCCC47
:1045700080911E0269E2811165E38EEF91E00E9455
:10458000EF0826C085E0F701DE01119601900D923B
:104590008A95E1F7F701228189819A81211168CBFF
:1045A0000E94F70C182F6CCB0631FCE71F0709F0AF
:1045B000A9CC809191028A7A91E009F490E09093DD
:1045C0001E0269E2811165E38EEF91E00E941909F4
:1045D0000E94920E96CB1F93CF93DF9380913C0263
:1045E000807F09F049C080913902882309F444C0D2
:1045F00080916E02D0913D02609137027091380235
:10460000A0913A02B0913B02C62FC72316E0D817FB
:1046100099F190E0109711F0CF3F19F4019687704F
:10462000F6CF189F9001199F300D1124F901E25C1B
:10463000FD4F41814713F2CF40814613EFCF4281B6
:104640004111ECCF438154814A1B5B0B483C51051F
:1046500028F780913C028F70806180933C02F901C1
:10466000ED5BFD4F80818F708061808387E392E0F6
:104670000E941F1E0E94AC0CDF91CF911F910895E4
:10468000A1E1B0E0E6E4F3E20C9411308C0185E0A6
:10469000F801DE011D9601900D928A95E1F7F8016F
:1046A000E28087E3A82E82E0B82E60913A027091F2
:1046B0003B026115710509F426C1909137024091C2
:1046C0003802892F84238F3F09F41DC12081318155
:1046D000C380D480F0903902F601E61BF70BFF206F
:1046E00009F4DCC080913C02582F507FE83CF10572
:1046F00008F09FC051116BC0FE2C431314C09213DD
:1047000012C0E11010C08F70806180933C02C5011F
:104710000E941F1E80913C02F80185838F2D6196B7
:10472000EAE00C942D30C114D10429F0822F8323A8
:104730008F3F09F003C180E0F82FF170DF2E80FF7A
:104740003CC080916E0240913D0256E0841315C03A
:104750002D873E878D859E850E94EA0C292F229504
:104760002F702230F0F0243018F59F70F1F0F8012E
:104770009581907FD1F4D12C1EC090E0589FF0011C
:10478000599FF00D1124E25CFD4F6181361306C084
:104790006081261303C06281E6120FC00196877004
:1047A000D5CF9F7011F0882331F3805E883018F3E5
:1047B000C8010E941F1EFD2CB1CFEE2009F4AECF20
:1047C00080913C02816080933C02F12CA7CF43137F
:1047D00006C0921304C0F801EE2009F479C0C801A4
:1047E0000E94A80D882309F1EE20F9F080913C0287
:1047F000803270F0209137023091380238872F8351
:104800001986DB86CA868C87CE0107960E941F1EFA
:1048100086E0F801A7E3B2E001900D928A95E1F7F6
:104820000E94EB22FF24F39479CFC8010E941F1E3F
:10483000F9CF51110AC087E392E00E941F1E86E063
:10484000F50111928A95E9F7C0CF43130FC0921377
:104850000DC0E1100BC0F8018583C8010E941F1E26
:1048600086E0F50111928A95E9F758CFC8010E94B8
:10487000A80D8823D1F2EE20C1F280913C02803253
:1048800038F220913702309138023A8329831B8213
:10489000DD82CC828E83CE010196B8CFE83CF10553
:1048A000F8F6FE2CEE2009F243131FC092131DC030
:1048B00080913C0280FD10C0982F907F69F0F80134
:1048C0008583903F31F0982F907F905F8F70892B78
:1048D0008583C8010E941F1E86E0F801A7E3B2E0AD
:1048E00001900D928A95E1F719CFC8010E94A80D99
:1048F00081118ECF80913C02816080933C02C8017F
:104900000E941F1E0BCFEE2009F48FCFC8010E941A
:10491000A80DF82E882309F488CF86E0F801A7E3D4
:10492000B2E001900D928A95E1F780913702909163
:1049300038020E94EA0C0E94EB22F0CE81E08E2524
:10494000FBCEA7E1B0E0E7EAF4E20C9418304B8B21
:104950005C8B6D8B7E8B8F8B6111109290021A8A0B
:10496000198A85E0FE017396DE011D9601900D9275
:104970008A95E1F786E0FE013D96DE0117960190EB
:104980000D928A95E1F7CE0107960E94402381118E
:1049900012C086E0FE013796DE01119601900D925D
:1049A0008A95E1F78A859B85892B29F088859F81E7
:1049B00089238F3F81F516E080916E0290913D0230
:1049C000891317C06796E3E00C94343096E0929F09
:1049D000D001939FB00D1124A25CBD4FFE01319612
:1049E00001900D929A95E1F780933D020E94AC0CE4
:1049F000E2CF819FC0011124825C9D4F0E94402321
:104A0000882301F380916E0290E0019687709927C8
:104A100080936E02D1CF20913D0230E0C901019612
:104A20008770992740916E024817190679F60E94FF
:104A3000781810923D0210926E0286E0E7E3F2E0F1
:104A4000DF011D928A95E9F7B6CFA0E1B0E0EBE275
:104A5000F5E20C940E308E01075F1F4F88E0D801FD
:104A60001D928A95E9F78FEBC82E81E0D82EF12CA4
:104A7000E12CAA24A394B12C29EC822E21E0922EC1
:104A8000F60181916F018F3F09F442C0F894E82F3D
:104A9000E295EF70F0E021A18F70A50102C0440FF4
:104AA000551F8A95E2F7CA01922F982B91A392A1E4
:104AB0008095892382A3789400C0E3ECF1E0712C07
:104AC00031E021912F3F09F46BC0A22FA295AF7066
:104AD000B0E090968C9190E02F7002C095958795EC
:104AE0002A95E2F780FD5CC0832F782A330F8E165B
:104AF0009F0639F7F601319780818F3F11F00E94B0
:104B0000990A50EA5A95F1F7F801EE0DFF1D7082EF
:104B10008FEFE81AF80AA4E0EA16F10409F0B0CF22
:104B200048E050E0B80186EC92E00E94F530009732
:104B300041F028E0F801A6ECB2E001900D922A9530
:104B4000E1F70091CF02892B69F181E08093970210
:104B50000E94451890939602809395028091950249
:104B6000909196020E943618059700F110E00D52C0
:104B70001D4F44E050E066EC72E0C8010E94F53041
:104B8000F12C892B51F084E0E6ECF2E0D8010190A1
:104B90000D928A95E1F7FF24F3941092970207C0D3
:104BA00080E0A3CF809197028111D8CFF12C0E9491
:104BB000B912E82EE091CF02882309F47DC0198252
:104BC0001A821B821C820E2F10E00D521D4F809105
:104BD000C1028A30D8F541E356E1BE016F5F7F4FD5
:104BE000C8010E948612882309F455C04AE755E19E
:104BF000BE016F5F7F4FC8010E948612882309F4AF
:104C00004AC040ED55E1BE016F5F7F4FC8010E9471
:104C10008612882309F43FC01092C1028091CE020F
:104C200090E044E050E0BE016F5F7F4F8D529D4F9A
:104C30000E94F53021E020939E02892BF1F4E12CB3
:104C40008E2D8F296096EDE00C942A308091980289
:104C5000909199020E943618843F914008F0BBCF92
:104C600080919E02882359F384E0FE013196DF0192
:104C70001D928A95E9F710929E02E091CE02F0E033
:104C8000ED52FD4F89819A81AB81BC8180839183F4
:104C9000A283B383D5CF8091C1028F3F31F08F5F64
:104CA0008093C1028A3008F4B9CF0E9445189093CE
:104CB000990280939802D4CFF0E0ED52FD4F84E04A
:104CC000ADEAB2E001900D928A95E1F78DEA92E0AB
:104CD0000E946F078093AC028090B1029090B20264
:104CE000A090B302B090B40280919A0290919B027E
:104CF000A0919C02B0919D0288169906AA06BB0657
:104D0000D1F080929A0290929B02A0929C02B09263
:104D10009D020E94B91281110EC00E94E308861AFA
:104D2000970AA80AB90A8092C2029092C302A0927E
:104D3000C402B092C50288E0E5EBF2E0DE01119614
:104D400001900D928A95E1F72981822F8695DA806C
:104D5000CB80BC800F8118851092BC02112309F40E
:104D60006FCF10FF0AC09091E20420FF1AC091603B
:104D70009093E20460E00E94BA1D11FF06C020E09B
:104D80004B2D6C2D8D2D0E94531412FF04C0002357
:104D9000A9F00E949F1D13FF53CF81E08093290348
:104DA0004FCF9E7F9093E2040E949F0980912E0333
:104DB000816080932E030E94A10FDFCF0E949F0984
:104DC000EACF1F921FB61F9211248F939F93AF9328
:104DD000BF938091F304811113C08091F4049091EA
:104DE000F504A091F604B091F7044196A11DB11D00
:104DF0008093F4049093F504A093F604B093F70421
:104E0000BF91AF919F918F911F901FBE1F901895DA
:104E1000CDB7DEB764970FB6F894DEBF0FBECDBF37
:104E200085B7806885BF85B7806885BF84B7877F71
:104E300084BF0FB6F894A895809160008861809334
:104E40006000109260000FBE80E890E00FB6F8940A
:104E500080936100909361000FBE87E99AE0909380
:104E6000FD018093FC010E9486070E942708809123
:104E7000E20084608093E200789480911F0588238B
:104E8000A1F01091E9001F709091EC00892F8170C2
:104E900090FD80E8182B1092E9008091E80083FDD6
:104EA0000E94A7181F701093E90082E084BD93E070
:104EB00095BD9AEF97BD80936E001092C20210923A
:104EC000C3021092C4021092C5020E94B9128093CC
:104ED000240180912401882309F472C010924501B5
:104EE0008BE1809346010E94B91281110E94932E9A
:104EF000809124018091240194E0811190E09093AD
:104F0000CF0284E0891B8093CE0284E90E94990A33
:104F100086E60E94990A87E90E94990A86EC0E9417
:104F2000990A03EC11E0D8018D918D018F3F11F0AA
:104F30000E94990AB1E0093C1B07A9F788E0E3ED5C
:104F4000F2E0DF01282F1D922A95E9F7E6ECF2E066
:104F5000DF011D928A95E9F790E080E00E94193107
:104F6000873E9E4F11F00E94DA1682E090E00E9488
:104F70000B318093DB0284E090E00E941931909322
:104F8000F9048093F8040E942525EFE3FCE93197AA
:104F9000F1F700C000000E9425250E94B912E4E04C
:104FA0008111E0E0F0E0ED52FD4F808181FF0CC007
:104FB0006FEF7FEF90E080E00E943D310E947D0F17
:104FC0008BE1809345018DCF83E090E00E940B310F
:104FD00090E00E94A30D0E94B9128111F3C082E0FB
:104FE0008093140380E8809331050E944D2D6DE07D
:104FF00070E08FE992E00E940913892BE9F5809116
:10500000140363E070E081FDDFC08CE992E00E9450
:105010000913892B89F56DE070E08CE892E00E941D
:105020000913892B49F50E94E308605A75418F4F97
:105030009F4F6093E7047093E8048093E904909392
:10504000EA04E4E3F5E080E092E0DF019C011D92D8
:1050500021503040E1F7F0933B07E0933A078FEFA0
:105060009FEF909333058093320581E08093EC04A9
:105070008093EB04109215038091D00281113BC004
:1050800090E080E00E941931873E9E4F21F00E94FF
:10509000DA160E944A1588E090E00E94133160936E
:1050A000E2047093E3048093E4049093E504809118
:1050B0002E03836080932E036E7F71F40E944A1545
:1050C00088E090E00E9413316093E2047093E3045F
:1050D0008093E4049093E5040E94A6090E949F092E
:1050E0008091E20480FF04C060E086950E94BA1DB2
:1050F00081E08093D0020E94B912811102C00E9407
:10510000962E85E291E09093F0048093EF0470E492
:10511000672EEAE08E2E912CA12CB12C80911F05D8
:1051200000E112E1853009F48AC00E9425250CEDCA
:1051300012E063EDE62E62E0F62ED701F8019191C0
:105140008D9122E0E43EF20709F483C09817B9F389
:105150000E94B912382ED12CD701CD907D01F801D3
:1051600041908F014C1429F1712C552453944C24F7
:10517000842D8521B1F03320A1F07C86DD8691E07D
:105180008C2D852109F490E09E870E94451881604E
:10519000782F988B8F874C855D856E8588890E94D6
:1051A000A1247394550CF6E07F12E2CFF8013197F9
:1051B000C082D39428E0D212CFCF0E94E308772494
:1051C000739468C080E00CCF89E992E020CF809191
:1051D0001F05843029F10E9433131092F30488E1F3
:1051E00090E00FB6F894A895809360000FBE60928F
:1051F000600083B7817F846083BF83B7816083BF92
:105200007894889583B78E7F83BF0FB6F894A8955E
:1052100080916000886180936000109260000FBEF2
:1052200080911E05882359F00E942525E3EDF2E0C8
:105230008191811112C492E0EB3DF907C9F7809189
:105240001F05853009F4C3CF0E9478180E94DE1232
:105250006CCF98137DCF0E9445188C018091D102AC
:105260009091D20208171907A1F08FEF8F838887DA
:1052700019860E9445188160782F9B878A874F8105
:10528000588569858B850E94A1241093D2020093D2
:10529000D102712C0E94B91280912D03882309F448
:1052A00064C080912C03E091E204E695E81BE09352
:1052B0002803823009F0F1C1F0E0E354FD4FE4919E
:1052C0000E2F10E052E7E52E52E1F52E80912903D2
:1052D000882361F0109229030E94941D9093270364
:1052E0008093260310922B0310922A030E94941D90
:1052F000E0912603F09127039C012E1B3F0B2F3FCB
:105300003F4798F52091E6022223B1F01092E60281
:105310002091E4023091E502821B930B8F3F9F475F
:1053200058F4205D3A483093E5022093E4028091DE
:105330002E03886080932E03C0902A03D0902B0305
:10534000E00FF11FF0932703E093260386E293E03A
:10535000F701099580912A0390912B03892B29F459
:10536000CD2819F081E08093E6028091EC04882337
:1053700009F4B3C080911603909117030E94361868
:10538000C29708F48AC00E9445189093170380932F
:10539000160384E395E090933B0780933A070E94BD
:1053A000B912882309F42FC28CED92E00E94520EAC
:1053B0002091E7023091E802832F9927009709F4A2
:1053C000D8C19C0188E0A90164E0569547956A958B
:1053D000E1F74115510511F08C5F9A01A90156952D
:1053E0004795569547954115510511F08E5F9A01E5
:1053F00036952795232B09F08F5F813009F4C3C1BF
:10540000882309F4B8C1823009F4C0C1833009F49B
:10541000C0C18091F3020E940807FC01019620811F
:105420002032D9F3CF010E94F80E8AEE92E00E945A
:10543000520E8091F2020E940807FC010196208121
:105440002032D9F3CF010E94F80E86EE92E00E943E
:10545000520E2090F0023090F10280912D01909137
:105460002E012816390609F097C18091EF0280328B
:1054700009F092C129EE32E0C9012F5F3F4FFC01D4
:1054800040814032C9F30E94F80E84EE92E00E94FF
:10549000520E80912F010E94D20D80913205909181
:1054A0003305892B09F0ECC18091EB048823A9F026
:1054B0000E94E3080091E7041091E8042091E904B8
:1054C0003091EA04601B710B820B930B6F3F7F4F8F
:1054D0008F4F9F4710F40E94331371100E944E1398
:1054E00086E0E0E2F3E0DE01119601900D928A95EC
:1054F000E1F71092220310922303109224031092DA
:1055000025038B819C81892B09F44AC080911E035D
:1055100090911F030E9436189C01909119039923C2
:1055200009F4B6C225313105D8F19F3F19F09F5FCC
:10553000909319031B81112359F00E94770A9FEF62
:1055400011160CF491E0899F802D11248093220381
:105550001C81112359F00E94770A9FEF11160CF459
:1055600091E0899F802D11248093230330912203A1
:105570003323B1F020912303222391F045EB340330
:10558000C0011124992309F458C29093220345EBDA
:10559000240390011124332309F453C230932303CD
:1055A0008D819E81892B09F44AC080911C039091C2
:1055B0001D030E9436189C0190911A03992309F447
:1055C00062C221353105D8F19F3F19F09F5F90935A
:1055D0001A031D81112359F00E94550A9FEF1116DD
:1055E0000CF491E0899F802D1124809324031E8167
:1055F000112359F00E94550A9FEF11160CF491E007
:10560000899F802D11248093250330912403332317
:10561000B1F020912503222391F045EB3403C00122
:105620001124992309F411C29093240345EB240318
:1056300090011124332309F40CC23093250346E072
:1056400050E0BE016F5F7F4F80E293E00E94F53033
:10565000892B61F48091220390912303892B9091EF
:105660002403892B90912503892B11F00E94511856
:1056700086E0FE013196A0E2B3E001900D928A959A
:10568000E1F70E94DE1290911803891709F446CDC4
:10569000809318030E94E30841CD863059F4F0E06E
:1056A000E654FD4FE4910E2F10E042E6E42E42E175
:1056B000F42E0CCE893061F4E695F0E0E954FD4F0C
:1056C000E4910E2F10E03BEBE32E31E1F32EFECD03
:1056D0008F3061F4E695F0E0EC54FD4FE4910E2F2D
:1056E00010E020E3E22E21E1F22EF0CD853159F4D5
:1056F000F0E0EF54FD4FE4910E2F10E09BEAE92E0D
:1057000090E1F92EE3CD08E210E0A9E2EA2EA0E153
:10571000FA2E883109F4DACD833249F4EFEAF2E067
:105720000591149181E1E82E82E1F82ECFCD04EFAE
:1057300011E0FCEEEF2EFFE0FF2E843209F4C6CD1F
:10574000853281F48E2F63E00E944030E92FF0E033
:10575000E455FD4FE4910E2F10E0B6E7EB2EB3E1D8
:10576000FB2EB4CD00ED17E0EEE9EE2EE9E0FE2EC3
:10577000ADCD80E028CE84ED92E00E94520E81E013
:105780000E94600E46CE8EEC92E0F7CF88EC92E05D
:10579000F4CF81EC92E0F1CF30922E0120922D01D6
:1057A00080E28093EF02512C412C1092EE02B9EE70
:1057B000CB2EB2E0DB2E14EEE12E12E0F12E8601AC
:1057C000C201B101A50194010E948531605D603381
:1057D00019F4C016D10631F02114310441045104EA
:1057E00009F460E2D80114966C93C201B101A501DD
:1057F00094010E94853119012A0101501109E01616
:10580000F106F1F637CE80913A0790913B07845329
:1058100095409C013E5F21303240A0F020E032E014
:10582000281B390B4091320550913305ECEEF2E024
:10583000280F391F8217930740F050933305409388
:1058400032052BCE20E032E0EDCF6491DC01AC5C80
:10585000BA4F7C91671789F06C93BC01A5E07695EF
:105860006795AA95E1F7A1E0B0E002C0AA0FBB1FBF
:105870006A95E2F7BD014A2B572B01963196DACF94
:105880008091EC04882309F40FCE809115038111D7
:105890000BCE0E944E132091320530913305211515
:1058A000310509F401CE80E0482E512C22242394A6
:1058B000312C082E02C0220C331C0A94E2F7A101FD
:1058C00042235323452B11F48F5FEECF90911403A5
:1058D00090FF99C0880F880F880F80933201109233
:1058E0003501895F8093330183E08093360124E69C
:1058F00030E047E050E060E371E088E70E94ED2D82
:10590000892B09F0D1CD95E0440C551C9A95E1F70F
:105910008091140380FF89C0E4EFF2E080E2DF01B0
:105920001D928A95E9F7EDECF1E0FC8BEB8B49ECED
:1059300051E087E0E82EAB89BC896D91BC8BAB8BC5
:10594000FA018191AF01840D952D911D9C012C5C74
:105950003A4F3A8B298BE62FF0E0EC50FD4F90E068
:1059600080E0CE2CC81AFF24F394082E01C0FF0C4F
:105970000A94EAF769897A8900E0DB011D91BD018B
:105980001F212C2D201B2770D22E022E000C330B32
:10599000B12F01C0BB0FDA94EAF7DB2E31952195C8
:1059A00031092770332701C016952A95EAF7D12AC5
:1059B0001081D12AD0820F5F0830F9F60196319616
:1059C0008830910571F6EB89FC89E15DF14009F0C1
:1059D000B2CF04E610E020E230E044EF52E060E4B1
:1059E00088E70E940E2E892B09F05ECD209430941A
:1059F0008091320590913305282239223092330567
:105A00002092320551CD8295880F807680933201A5
:105A10009201369527953695279520933501815E1D
:105A2000809333011092360162CFA2014C5C5A4F31
:105A300004E610E020E230E0D2CF81E08093220340
:105A4000A6CD81E080932303ABCD81E08093240336
:105A5000EDCD81E080932503F2CD09BD19BD09B4D8
:105A600000FEFDCF8091D8008F7D8093D80080917B
:105A7000E00082608093E0008091E00081FDFCCF37
:105A80000E947818DCCB2B30310508F09FCDD7CDA4
:105A90002B30310508F04BCD83CD1092B9008CE04E
:105AA0008093B8000895B0E0A0E0E9E5FDE20C9431
:105AB0001030B82EEB010E9445186C01EE24E394DF
:105AC000F12CC431D10560F025E0E22EF12CCF3F5E
:105AD000DC0731F0CE0164E170E00E94F52F7B011C
